:100000000C94C9050C94F1050C94F1050C94F105C0
:100010000C94F1050C94F1050C94F1050C94F10588
:100020000C94F1050C94F1050C94F1050C94F10578
:100030000C94F1050C94F1050C94F1050C94F10568
:100040000C947B1A0C94F1050C94B90D0C94930D3F
:100050000C94F1050C94F1050C94F1050C94F10548
:100060000C94F60D0C94F10500407A10F35A00A0A0
:10007000724E18090010A5D4E80000E87648170071
:1000800000E40B54020000CA9A3B000000E1F505B1
:10009000000080969800000040420F000000A086FB
:1000A00001000000102700000000E803000000002D
:1000B0006400000000000A000000000001000000D1
:1000C00000002C76D888DC674F0823DFC1DFAE59EB
:1000D000E1B1B796E5E3E453C63AE651997696E87E
:1000E000E6C28426EB898C9B62ED407C6FFCEFBC02
:1000F0009C9F40F2BAA56FA5F490055A2AF75C932D
:100100006B6CF9676DC11BFCE0E40D47FEF520E662
:10011000B500D0ED902E0300943577050080841E45
:10012000080000204E0A000000C80C333333330FA0
:10013000986E12831141EF8D2114893BE65516CF3D
:10014000FEE6DB18D1844B381BF77C1D901DA4BB49
:10015000E424203284725E228100C9F124ECA1E5FE
:100160003D27DB40A4A62EAFDA0281DA1281DA0243
:10017000818F2000A1C8D300408DAED580A800009B
:10018000600000000000000000000000000000E02F
:100190000000000000000000000000000001E0007E
:1001A00000000000000000000000000001F000005E
:1001B000000000000000000000000003F00000004C
:1001C0000000000000000000000007F00000000038
:1001D00000000000000000000007F8000000000020
:1001E00000000000000000000FF800000003C00045
:1001F0007E000001E0007F0FF800000003C000FE59
:10020000000001E000FFEFF800000003C000FE0066
:100210000001E000FFFFF800000003C000F0000054
:10022000000F007FFE7FC0000003C000F000000050
:100230000F003FFE7FF83FF1FBCFFCFEF3BC3DEF2C
:10024000E01FFE7FFF7FFBFFDFFEFEFFBC3DEFE018
:100250001FC6FFFF7FFBFFDFFEFEFFBC3DEFE00F91
:10026000E3C7FE787BC3DE1EF0FFBC3DEF0007FF57
:1002700087FC787BC3DE1EF0F83C3DEF0001FFFFFA
:10028000F0007BC3C01EF0F03C3DEF0001F37FE0C7
:100290003FFBC3CFFEF0F03C3DEF0003E33F807F28
:1002A000FBC3DFFEF0F03C3DEF0007E73C00787B4E
:1002B000C3DE1EF0F03C3DEF0007FFBE00787BC3BD
:1002C000DE1EF0F03C3DEF0007FFFE00787BC3DE52
:1002D0001EF0F03C3DEF000FFFFE007FFBFFDFFE56
:1002E000F0F03FFDEFE00FFFFF007FFBFFDFFEF0D0
:1002F000F03FFDEFE00FF9FF003E79F9CF9EF0F0FF
:100300001F3DE7E01FF1FF000000000000000000BB
:100310000000001F80FF007FFFFFFFFFFFFFFFFFC8
:10032000FFE01C007F007FFFFFFFFEB46D888D188B
:10033000E000001F007FFFFFFFFE95AD7DB577E079
:1003400000000F007FFFFFFFFEA5AD9D8D19E000AF
:100350000006007FFFFFFFFEB5ADEDB57EE00000BB
:100360000000000180000000000000000000038089
:1003700000000000000000000007C00000000000B6
:100380000000000007C00000000000000000000F97
:10039000C00000000000000000001FE0000000009E
:1003A00000000000001FE00000000000000000004E
:1003B0003FE00000000000000000003FF0000000EF
:1003C0000000000000007FF0000000000000001F9F
:1003D000F87FF0000000000000003FFE7FF000000A
:1003E00000000000003FFF7FF00000000000000060
:1003F0001FFFFBE0000000000000000FFFF9FFC03E
:100400000000000000000FFFF9FFF80000000000EE
:100410000007FFF1FFFF00000000000003FC73FF76
:10042000FF80000000000001FE3FFFFF8000000091
:10043000000000FF1E0FFF000000000000007FFE14
:100440001FFC000000000000003FFFFFF80000005C
:10045000000000000FDFFFE0000000000000001FB0
:1004600019FFC0000000000000003F3CFF0000003A
:1004700000000000007E7CF800000000000000008A
:100480007FFE7C0000000000000000FFFFFC000079
:10049000000000000000FFFFFE0000000000000060
:1004A00000FFFFFE0000000000000001FFEFFE0063
:1004B00000000000000001FFCFFE0000000000006F
:1004C0000003FF07FE0000000000000003FC07FE21
:1004D0000000000000000003F003FE000000000028
:1004E0000000018000FE000000000000000000008D
:1004F0007E000000000000000000003E0000000040
:100500000000000000000C00000000000007800058
:10051000FC000003C0000000078001FC000003C0D5
:10052000000000078001FC000003C00000000780FD
:1005300001E00000001E000000078001E000000054
:100540001E007FE3F79FF9FDE7787BDFC0FFF7FF31
:10055000BFFDFDFF787BDFC0FFF7FFBFFDFDFF782C
:100560007BDFC0F0F787BC3DE1FF787BDE00F0F772
:1005700087BC3DE1F0787BDE0000F787803DE1E05D
:10058000787BDE007FF7879FFDE1E0787BDE00FF70
:10059000F787BFFDE1E0787BDE00F0F787BC3DE147
:1005A000E0787BDE00F0F787BC3DE1E0787BDE00A1
:1005B000F0F787BC3DE1E0787BDE00FFF7FFBFFD91
:1005C000E1E07FFBDFC0FFF7FFBFFDE1E07FFBDF86
:1005D000C07CF3F39F3DE1E03E7BCFC00000000014
:1005E00000000000000000FFFFFFFFFFFFFFFFFF14
:1005F000FFC0FFFFFFFFFD68DB111A31C0FFFFFFE7
:10060000FFFD2B5AFB6AEFC0FFFFFFFFFD4B5B3B7B
:100610001A33C0FFFFFFFFFD6B5BDB6AFDC000000C
:1006200000002300260029002200FF21000404040A
:10063000040404040402020202020203030303038B
:100640000301020408102040800102040810200168
:10065000020408102000000000240027002A0000E7
:10066000000000250028002B000000000800020107
:100670000000030407000000000000000000010368
:10068000070F1F3F7F0080C0E0F0F8FCFE00000075
:1006900000003E5B4F5B3E3E6B4F6B3E1C3E7C3E24
:1006A0001C183C7E3C181C577D571C1C5E7F5E1C32
:1006B00000183C1800FFE7C3E7FF0018241800FFEC
:1006C000E7DBE7FF30483A060E2629792926407FE6
:1006D000050507407F05253F5A3CE73C5A7F3E1CF5
:1006E0001C08081C1C3E7F14227F22145F5F005FE1
:1006F0005F06097F017F006689956A6060606060BF
:1007000094A2FFA29408047E040810207E20100802
:10071000082A1C08081C2A08081E101010100C1E9D
:100720000C1E0C30383E3830060E3E0E060000001F
:10073000000000005F00000007000700147F147F26
:1007400014242A7F2A122313086462364956205043
:100750000008070300001C2241000041221C002A5F
:100760001C7F1C2A08083E0808008070300008081A
:10077000080808000060600020100804023E51498B
:10078000453E00427F400072494949462141494D5A
:10079000331814127F1027454545393C4A494931E1
:1007A00041211109073649494936464949291E0060
:1007B000001400000040340000000814224114140A
:1007C000141414004122140802015909063E415D27
:1007D000594E7C1211127C7F494949363E414141B4
:1007E000227F4141413E7F494949417F0909090131
:1007F0003E414151737F0808087F00417F4100203E
:1008000040413F017F081422417F404040407F0229
:100810001C027F7F0408107F3E4141413E7F090951
:1008200009063E4151215E7F091929462649494959
:100830003203017F01033F4040403F1F2040201F03
:100840003F4038403F631408146303047804036195
:1008500059494D43007F41414102040810200041A5
:1008600041417F0402010204404040404000030730
:10087000080020545478407F284444383844444485
:1008800028384444287F385454541800087E0902FC
:1008900018A4A49C787F0804047800447D400020BC
:1008A00040403D007F1028440000417F40007C0410
:1008B0007804787C080404783844444438FC1824CC
:1008C000241818242418FC7C0804040848545454A0
:1008D0002404043F44243C4040207C1C2040201C35
:1008E0003C4030403C44281028444C9090907C443C
:1008F00064544C4400083641000000770000004179
:1009000036080002010204023C2623263C1EA1A157
:1009100061123A4040207A3854545559215555793E
:1009200041225454784221555478402054557940FE
:100930000C1E52721239555555593954545459395F
:10094000555454580000457C410002457D42000149
:10095000457C407D1211127DF0282528F07C5455ED
:1009600045002054547C547C0A097F493249494946
:10097000323A4444443A324A4848303A4141217A72
:100980003A42402078009DA0A07D3D4242423D3D3C
:100990004040403D3C24FF2424487E4943662B2FA1
:1009A000FC2F2BFF0929F620C0887E090320545410
:1009B00079410000447D413048484A323840402265
:1009C0007A007A0A0A727D0D19317D2629292F288D
:1009D000262929292630484D4020380808080808CB
:1009E000080808382F10C8ACBA2F102834FA0000B5
:1009F0007B000008142A142222142A1408550055DA
:100A00000055AA55AA55AAFF55FF55FF000000FF43
:100A100000101010FF00141414FF001010FF00FF4E
:100A20001010F010F0141414FC001414F700FF0060
:100A300000FF00FF1414F404FC141417101F10100E
:100A40001F101F1414141F00101010F000000000DD
:100A50001F101010101F10101010F010000000FFD9
:100A6000101010101010101010FF10000000FF14D4
:100A70000000FF00FF00001F10170000FC04F4142A
:100A8000141710171414F404F40000FF00F71414E2
:100A90001414141414F700F7141414171410101F5E
:100AA000101F141414F4141010F010F000001F1094
:100AB0001F0000001F14000000FC140000F010F0E4
:100AC0001010FF10FF141414FF141010101F00005A
:100AD0000000F010FFFFFFFFFFF0F0F0F0F0FFFF6D
:100AE000FF0000000000FFFF0F0F0F0F0F384444FE
:100AF0003844FC4A4A4A347E02020606027E027EDE
:100B00000263554941633844443C04407E201E2022
:100B100006027E020299A5E7A5991C2A492A1C4CC7
:100B20007201724C304A4D4D303048784830BC62CA
:100B30005A463D3E494949007E0101017E2A2A2A42
:100B40002A2A44445F444440514A444040444A5164
:100B5000400000FF0103E080FF000008086B6B0805
:100B60003612362436060F090F060000181800004A
:100B7000001010003040FF0101001F01011E00198C
:100B80001D1712003C3C3C3C000000000000E32428
:100B9000C51A11241FBECFEFD8E0DEBFCDBF24E0C1
:100BA000A0E8B2E001C01D92A536B207E1F712E05D
:100BB000A0E0B1E0E4E5FCE502C005900D92A038AC
:100BC000B107D9F715E0C8ECD5E004C02197FE01C4
:100BD0000E94012BC73CD107C9F70E94D41A0C947C
:100BE0001D2E0C940000CF92DF92EF92FF920F9394
:100BF0001F93CF93DF936C017A018B01C0E0D0E0AB
:100C0000CE15DF0581F0D8016D918D01D601ED91F2
:100C1000FC910190F081E02DC6010995892B11F01E
:100C20002196EECF7E01C701DF91CF911F910F91E9
:100C3000FF90EF90DF90CF900895FC01538D448D8D
:100C4000252F30E0842F90E0821B930B541710F077
:100C5000CF96089501970895FC01918D828D981784
:100C600061F0828DDF01A80FB11D5D968C91928D90
:100C70009F5F9F73928F90E008958FEF9FEF08958D
:100C8000FC01918D828D981731F0828DE80FF11D56
:100C9000858D90E008958FEF9FEF0895FC01918D71
:100CA000228D892F90E0805C9F4F821B91098F736A
:100CB000992708958EE593E00E944E0621E0892B46
:100CC00009F420E0822F0895FC01848DDF01A80F34
:100CD000B11DA35ABF4F2C91848D90E001968F7364
:100CE0009927848FA689B7892C93A089B1898C9183
:100CF000837080648C93938D848D981306C00288D2
:100D0000F389E02D80818F7D80830895EF92FF929B
:100D10000F931F93CF93DF93EC0181E0888F9B8D1E
:100D20008C8D981305C0E889F989808185FD26C0DE
:100D3000F62E0B8D10E00F5F1F4F0F731127E02E63
:100D40008C8DE8120CC00FB607FCFACFE889F98940
:100D5000808185FFF5CFCE010E946406F1CF8B8D97
:100D6000FE01E80FF11DE35AFF4FF0829FB7F894A0
:100D70000B8FEA89FB89808180620AC09FB7F89453
:100D8000EE89FF896083E889F989808183708064B6
:100D900080839FBF81E090E0DF91CF911F910F9101
:100DA000FF90EF900895CF93DF93EC01888D882317
:100DB000C9F0EA89FB89808185FD05C0A889B989C8
:100DC0008C9186FD0FC00FB607FCF5CF808185FFA3
:100DD000F2CFA889B9898C9185FFEDCFCE010E9411
:100DE0006406E7CFDF91CF91089580E090E0892BF2
:100DF00029F00E945A0681110C9400000895FC010C
:100E000077FDB9C080859185681779070CF0B3C06C
:100E100057FDB1C082859385481759070CF0089596
:100E20008589823079F484819581DC01A61BB70B1A
:100E3000BD016150710986819781DC01A41BB50B4E
:100E4000AD010EC0833009F084C064277527CA0144
:100E5000862797276827792746815781481B590B92
:100E6000415051092130310531F048F1223031052E
:100E700009F44AC00895CA0157FD07969C01A3E0F2
:100E800035952795AA95E1F7A481B5812A9FC001E0
:100E90002B9F900D3A9F900D1124680F791F068C9F
:100EA000F78DE02DE60FF71F4770552781E090E0A2
:100EB00001C0880F4A95EAF79081892B48C0CA0182
:100EC00057FD07969C0193E0359527959A95E1F794
:100ED000A481B5812A9FC0012B9F900D3A9F900D50
:100EE0001124680F791F068CF78DE02DE60FF71F90
:100EF0004770552781E090E001C0880F4A95EAF7D6
:100F000080959081892323C0CA0157FD07969C01D3
:100F100083E0359527958A95E1F7A481B5812A9FCD
:100F2000C0012B9F900D3A9F900D1124680F791FDF
:100F3000068CF78DE02DE60FF71F4770552781E0EF
:100F400090E001C0880F4A95EAF790818927808355
:100F50000895813009F086CF6427752746275727E3
:100F60006427752784819581DC01A61BB70BBD0121
:100F70006150710977CF08950895FC016370658B06
:100F80008481958126813781613039F0633029F081
:100F900091878087338722870895318720879387B9
:100FA000828708956F927F928F929F92AF92BF92A5
:100FB000CF92DF92EF92FF920F931F93CF93DF9325
:100FC000EC014B015A0169013801E881F981028481
:100FD000F385E02D0995E881F9810288F389E02DF8
:100FE00087019601A501B401CE010995A501460D21
:100FF000571D41505109E881F9810288F389E02D9C
:101000009601B401CE010995E881F9810088F18942
:10101000E02D9301A501B401CE010995C80CD91C9E
:10102000B60161507109E881F9810088F189E02DEC
:101030009301A501CE010995E881F9810688F78918
:10104000E02DCE01DF91CF911F910F91FF90EF9096
:10105000DF90CF90BF90AF909F908F907F906F90D8
:1010600009948F929F92AF92BF92CF92DF92EF92AC
:10107000FF920F931F93CF93DF934C016B015A01A3
:10108000E901DC01ED91FC916217730781F404170B
:10109000150724F48B2D5801042F182F0A191B094A
:1010A00098012F5F3F4F048CF58DE02D12C0401743
:1010B000510709F52617370724F48D2D6901C62F2E
:1010C000D82F9E012C193D092F5F3F4F068CF78DBD
:1010D000E02D8701A501B601C4010995DF91CF91EB
:1010E0001F910F91FF90EF90DF90CF90BF90AF9046
:1010F0009F908F9008950284F385E02D0995D40187
:10110000ED91FC910488F589E02D9E01A501B601C1
:10111000C4010995D401ED91FC910688F789E02D71
:10112000C401DF91CF911F910F91FF90EF90DF905D
:10113000CF90BF90AF909F908F900994EF92FF92C5
:101140000F931F93DC011A960D911C911B97189613
:101150002D913C911997ED91FC9100A0F1A1E02D0A
:101160007B0140E050E060E070E009951F910F9135
:10117000FF90EF9008954F925F926F927F928F92BF
:101180009F92AF92BF92CF92DF92EF92FF920F9316
:101190001F93CF93DF936C012B015A013901480152
:1011A000DC01ED91FC910284F385E02D0995E201CB
:1011B000640C751CD601ED91FC91C615D7055CF445
:1011C0000088F189E02D87019401A501BE01C601C7
:1011D00009952196EFCF0688F789E02DC601DF91AA
:1011E000CF911F910F91FF90EF90DF90CF90BF9024
:1011F000AF909F908F907F906F905F904F900994E9
:101200008F929F92AF92BF92CF92DF92EF92FF9216
:101210000F931F93CF93DF93EC015B014A016901A8
:10122000E881F9810284F385E02D099595012C0D63
:101230003D1D21503109E881F9810488F589E02DAF
:1012400078018401A401B501CE010995E881F981F5
:101250000688F789E02DCE01DF91CF911F910F9184
:10126000FF90EF90DF90CF90BF90AF909F908F90C6
:1012700009948F929F92AF92BF92CF92DF92EF929A
:10128000FF920F931F93CF93DF93EC015B014A0111
:1012900069017801E881F9810284F385E02D0995DF
:1012A000C80CD91C860101501109E881F981048814
:1012B000F589E02D9501A401B501CE010995E881DC
:1012C000F9810688F789E02DCE01DF91CF911F913A
:1012D0000F91FF90EF90DF90CF90BF90AF909F90D5
:1012E0008F9009940895EF92FF920F931F93DC0162
:1012F000ED91FC9100A0F1A1E02D09951F910F91B6
:10130000FF90EF9008950F931F93DC01ED91FC91F6
:10131000068CF78DE02D09951F910F9108950F937D
:101320001F93DC01ED91FC91048CF58DE02D099566
:101330001F910F910895DC01ED91FC910084F185DE
:10134000E02D09942F923F924F925F926F927F927D
:101350008F929F92AF92BF92CF92DF92EF92FF92C5
:101360000F931F93CF93DF9300D000D000D0CDB761
:10137000DEB72C017E836D836A015901C801FC82AE
:10138000EB824801841A950A97FE03C091948194D8
:10139000910835012D813E81621A730A77FE03C0E0
:1013A000719461947108681479045CF43A2D2B2DC2
:1013B0005C01832F922F3D812E81DE82CD82C32E50
:1013C000D22EAD81BE81AA16BB065CF43C2D2D2D1C
:1013D0006C01832F922F3D812E81BE82AD82A32E80
:1013E000B22E85012D813E81021B130B1C012C188E
:1013F0003D0837FE03C0319421943108780117FF6E
:1014000003C03FEFE31AF30AF594E794C816D90630
:101410002CF08FEF9FEF9A83898304C0A1E0B0E0A6
:10142000BA83A9832D813E81A216B30624F1D2018D
:10143000ED91FC910484F585E02D2B813C816814AD
:10144000790424F44D815E81B60103C0A6016D814B
:101450007E81C2010995E218F308F7FE06C02981D2
:101460003A81C20ED31EE00EF11E8D819E8101963F
:101470009E838D83D7CF26960FB6F894DEBF0FBE1E
:10148000CDBFDF91CF911F910F91FF90EF90DF9033
:10149000CF90BF90AF909F908F907F906F905F9014
:1014A0004F903F902F90089585ED8093BC008091E0
:1014B000BC0084FDFCCF10923B0308954091C6020E
:1014C000262F30E0240F311D21323105DCF420912C
:1014D0003B032430C9F4FC0180E090E0861758F407
:1014E0003091C6022191DC01AC55BD4FA30FB11D57
:1014F0002C930196F3CF8091C602680F6093C602C9
:1015000080E0089581E0089582E0089508950895A7
:10151000E0913D0380913C03E81730F4F0E0E25C99
:10152000FC4F808190E008958FEF9FEF0895909198
:101530003D0380913C03981750F4E92FF0E0E25C02
:10154000FC4F208130E09F5F90933D0302C02FEF5E
:101550003FEFC901089580913C0390E020913D0345
:10156000821B91090895CF92DF92EF92FF920F9321
:101570001F93CF93DF937C01CB018A012091A102BD
:10158000222389F0EB016B01C40ED51ECC15DD05BD
:1015900069F06991D701ED91FC910190F081E02D06
:1015A000C7010995F3CF642F0E945E0AC801DF913D
:1015B000CF911F910F91FF90EF90DF90CF90089502
:1015C000CF93DF931F92CDB7DEB769832091A1023D
:1015D0002223D1F02091A202203240F021E030E01D
:1015E000FC013383228380E090E015C08091A30248
:1015F000E82FF0E0EF57FD4F998190838F5F809344
:10160000A3028093A20205C061E0CE0101960E9470
:101610005E0A81E090E00F90DF91CF9108950895E8
:1016200080E090E008950E94012E0F931F93CF93C6
:10163000DF93EC0188819981009729F02A813B8111
:101640002617370788F48B016F5F7F4F0E943B2D71
:10165000009761F0998388831B830A832C813D81E5
:10166000232B11F4FC01108281E001C080E0DF91A6
:10167000CF911F910F9108950F931F93CF93DF93F5
:10168000DC015596EC915597E23071F0E330E9F0CA
:10169000E13079F5FB0114960D90BC91A02DA41BAF
:1016A000B50BA21BB30B18C0EC01EC81FD81E61B4E
:1016B000F70BBF0161507109EE81FF81DF01A41BAF
:1016C000B50BAD01421B530B14C0DA01EC01EE81E6
:1016D000FF81E61BF70B3197F7FD0DC0EC014E8142
:1016E0005F81E417F5073CF4AF01BD010E94691763
:1016F00002C00E94D017DF91CF911F910F910895E2
:101700000F931F93DC015596EC915597E23061F0F1
:10171000E33009F1E13081F51496ED91FC911597D4
:10172000E41BF50B319723C0DC011496ED91FC917D
:101730001597DF01A61BB70BBD01DC011696ED91D5
:10174000FC911797DF01A41BB50BAD014150510966
:10175000621B730B11C0FA01DC0116964D915C916E
:101760001797DA01A61BB70BBD01621B730BAB0108
:10177000BF010E94D0170CC057FD0AC0DC011696AD
:10178000ED91FC9117974E175F0714F40E946917AB
:101790001F910F910895AF92BF92CF92EF92FF9257
:1017A0000F931F93CF93DF93EC01262F888D998D94
:1017B000009709F040C06A3059F41D861C862C89B8
:1017C0008E859F8538E0239F800D911D112441C097
:1017D0006D3009F4AAC08E898823C1F03C898C85BC
:1017E0009D8546E0349F800D911D112448855985C3
:1017F000481759075CF41D861C868E859F8548E036
:10180000349F800D911D11249F878E87EA88FB8865
:10181000088919894E855F856C857D85CC88CE01C8
:101820000E944F152C898C859D8536E0239F800D65
:10183000911D112442C06A3079F41D861C862C89C2
:10184000FC013696E4918E859F852E9F800D911D1B
:1018500011249F878E8769C06D3009F466C0FC0132
:1018600034963491631708F460C03196E491E6171A
:1018700008F45BC0FC01329665917491422F50E0F0
:10188000431B510937E0349F5001359FB00C1124A0
:10189000A60EB71EF501329634913196E4913323AA
:1018A00011F0E1110DC0F5013496E4912C898C857D
:1018B0009D85E29F800D911D11249D878C8735C0E9
:1018C000F501359644915E89552311F16C89E32F1A
:1018D000F0E0E40FF11D47FDFA956E9FD0016F9F78
:1018E000B00D11244C855D854A0F5B1FE885F98595
:1018F000E417F5076CF41D861C86FC013696E4910E
:101900008E859F856E9F800D911D11249F878E87E8
:10191000EA88FB88088919894E855F856C857D85F5
:10192000CC88CE010E944F15BECF81E090E0DF91C0
:10193000CF911F910F91FF90EF90CF90BF90AF90FC
:101940000895EF92FF920F931F93CF93DF9361154A
:10195000710511F480E01CC041155105C1F07B01F7
:10196000EC018C819D818A01080F191FB801CE01FD
:101970000E94150B882371F3288139818C819D8108
:10198000B701820F931F0E94162E1D830C8381E0E6
:10199000DF91CF911F910F91FF90EF900895CF931A
:1019A000DF93EC0188819981009711F00E94B22C9D
:1019B000198218821D821C821B821A82DF91CF91AC
:1019C0000895CF93DF93EC016115710561F0FB0180
:1019D00001900020E9F73197AF01461B570B0E9499
:1019E000A10C811103C0CE010E94CF0CCE01DF916A
:1019F000CF910895EF92FF920F931F93CF93DF93B0
:101A0000EC017B018A01BA010E94150B811104C00F
:101A1000CE010E94CF0C07C01D830C83B7018881C3
:101A200099810E94162ECE01DF91CF911F910F91C7
:101A3000FF90EF900895CF93DF93EC01611571054E
:101A400059F0FB0101900020E9F73197AF01461BE7
:101A5000570B0E94FA0C02C00E94CF0CCE01DF91FE
:101A6000CF910895FB01DC0111961C921E921396F2
:101A70001C921E92129715961C921E92149786170E
:101A8000970749F0608171816115710521F04481EA
:101A900055810C94FA0C0895FC0111821082138276
:101AA0001282158214826115710551F0FB010190BB
:101AB0000020E9F73197AF01461B570B0C94FA0C45
:101AC00008956115710579F0FB0101900020E9F797
:101AD0003197AF01461B570BDC01ED91FC91028061
:101AE000F381E02D099480E090E008950F931F9317
:101AF000CF93DF93EC01FB014481558160817181BB
:101B0000E881F9810280F381E02D09958C0166E579
:101B100071E0CE010E94610D800F911FDF91CF9186
:101B20001F910F9108951F920F920FB60F921124DB
:101B30002F933F934F935F936F937F938F939F93D5
:101B4000AF93BF93EF93FF938EE593E00E946406FB
:101B5000FF91EF91BF91AF919F918F917F916F9185
:101B60005F914F913F912F910F900FBE0F901F905B
:101B700018951F920F920FB60F9211242F938F93E7
:101B80009F93EF93FF93E0916E03F0916F03808139
:101B9000E0917403F091750382FD12C090818091F1
:101BA00077038F5F8F7320917803821751F0E09154
:101BB0007703F0E0E25AFC4F958F8093770301C0E2
:101BC0008081FF91EF919F918F912F910F900FBE88
:101BD0000F901F90189508958EBD00000DB407FE5C
:101BE000FDCF8EB508958CBD9DBD08951F920F92B7
:101BF0000FB60F9211242F933F934F935F936F93E0
:101C00007F938F939F93AF93BF93EF93FF938091B5
:101C1000B900887F803609F49CC068F5883209F4E1
:101C20005BC090F4803109F454C038F4882309F47F
:101C3000F6C0883009F44DC0F6C0883109F44CC0B4
:101C4000803209F45DC0EFC0803409F468C048F404
:101C5000803309F455C0883309F0E5C08093390317
:101C6000D8C0803509F44FC0883509F45DC0883488
:101C700009F0D9C0D6C0883909F4C7C0A8F488379C
:101C800009F467C038F4883609F463C0803709F472
:101C900060C0C9C0883809F4B8C0803909F45FC091
:101CA000803809F0C0C05BC0803B09F486C038F4BE
:101CB000803A09F466C0883A09F47FC0B4C0803C19
:101CC00009F4A7C0883C09F4A4C0883B09F48AC081
:101CD000AAC08091360310C09091380380913703D9
:101CE000981770F5E091380381E08E0F80933803E8
:101CF000F0E0EB5EFC4F80818093BB0085EC86C0FA
:101D0000809339038EC0E091380381E08E0F809379
:101D100038038091BB00F0E0EB5EFC4F8083909134
:101D20003803809137036EC0E091380381E08E0F55
:101D3000809338038091BB00F0E0EB5EFC4F808322
:101D400080913A0381116DC081E08093350384EA6C
:101D500061C083E080933B031092EA02CFCF809171
:101D6000EA02803208F051C0E091EA0281E08E0F71
:101D70008093EA028091BB00F0E0E653FD4F808340
:101D8000BDCF85EC8093BC0010923B038091EA02AA
:101D9000803230F4E091EA02F0E0E653FD4F108229
:101DA0006091EA0270E0E091C802F091C9028AEC09
:101DB00092E009951092EA0236C084E080933B03DA
:101DC0001092C7021092C602E091C402F091C502BF
:101DD00009958091C602811105C081E08093C602F9
:101DE0001092A402E091C70281E08E0F8093C70297
:101DF000F0E0EC55FD4F80818093BB009091C702CD
:101E00008091C602981708F479CF85E88093BC00CA
:101E10000AC085EC8093BC0010923B0304C0109272
:101E200039030E94540AFF91EF91BF91AF919F91A6
:101E30008F917F916F915F914F913F912F910F9073
:101E40000FBE0F901F9018953091A202313208F00A
:101E50004BC080913B038111FCCF9091800222E026
:101E600020933B0321E020933A032FEF2093390383
:101E70001092380330933703E1E8F2E0A5E1B3E0D4
:101E800020E0321721F041914D932F5FFACF10924D
:101E9000360320913603990F922B9093360390913D
:101EA0003503913061F4109235039091360390938D
:101EB000BB009091BC0093FDF8CF95EC01C095EE6E
:101EC0009093BC0090913B039230E1F390913903E1
:101ED0009F3F79F080913903803241F0809139033E
:101EE000803331F084E005C081E003C082E001C0AE
:101EF00083E01092A3021092A2021092A102089510
:101F000081E08093A102609380021092A30210925C
:101F1000A20208951F93CF93DF93FC01848D958DCA
:101F2000009701F1162FEF0160A10E94800F8C8DA8
:101F30009D8DDC01ED91FC910190F081E02D60E040
:101F400009958C8D9D8DDC01ED91FC910190F081C6
:101F5000E02D612F09958C8D9D8DDF91CF911F9183
:101F60000C94240FA4A5B5A59C9182A980958923E2
:101F70008C93828D938D892B31F0862FDF91CF91B9
:101F80001F910C94EC0D28E030E080E8A0A5B1A5ED
:101F900090A9462F482319F04C91942B03C04C91E3
:101FA000909594239C93A2A5B3A54C9191A9942BB1
:101FB0009C93A2A5B3A54C9191A9909594239C9331
:101FC00086952150310911F7DF91CF911F91089526
:101FD0001F93CF93DF93EC01162F8C8D9D8D892B52
:101FE000B1F02EA93FA948AD59AD60E074E284EF8D
:101FF00090E00E948929DA01C9014097A109B1093D
:10200000B695A795979587958093B8000FC08A8D50
:102010009B8D892B21F08CA99DA90E94F30DEEA523
:10202000FFA590818BA9809589238083111102C01F
:1020300066EA01C067EACE010E948A0F8C8D9D8DF1
:10204000892BB1F02AAD3BAD4CAD5DAD60E074E2E3
:1020500084EF90E00E948929DA01C9014097A10923
:10206000B109B695A795979587958093B80006C056
:10207000EEA5FFA590818BA9892B8083DF91CF915D
:102080001F91089510923D0310923C031092A302F9
:102090001092A20210923B0381E080933A031092C7
:1020A000350361E082E10E94851861E083E10E94CE
:1020B0008518E9EBF0E080818E7F808380818D7FC1
:1020C000808388E48093B80085E48093BC0086E830
:1020D0009AE09093C5028093C40287E89AE09093B7
:1020E000C9028093C8020895DF92EF92FF920F9386
:1020F0001F93CF93DF93D82ED92FC62F809136040C
:1021000090913704009709F44EC060913A040E9400
:10211000800F8091360490913704DC01ED91FC91A1
:102120000190F081E02D60E00995ED2CFD2E11E08D
:102130008091360490913704CC2361F11032B8F0CD
:102140000E94240F60913A048091360490913704E4
:102150000E94800F8091360490913704DC01ED914C
:10216000FC910190F081E02D60E0099511E08091F3
:10217000360490913704F7016491DC01ED91FC91F4
:102180000190F081E02D09951F5FC150BFEFEB1A60
:10219000FB0ACECFDF91CF911F910F91FF90EF906F
:1021A000DF900C94240FE0914604F0914704908155
:1021B00080914C048095892380830D2D1D2FCC2385
:1021C00009F439C0F8018491209134043091350428
:1021D000232B31F00E94EC0DC1500F5F1F4FEFCF4A
:1021E00028E030E040E8E0914204F091430490910F
:1021F0004A04582F542319F05081952B03C0508165
:10220000909595239083E0914404F091450450818A
:1022100090914B04952B9083E0914404F0914504F8
:10222000508190914B049095952390834695215031
:102230003109C9F6D1CFDF91CF911F910F91FF9056
:10224000EF90DF900895EF92FF920F931F93CF933B
:10225000DF938091360490913704892BD1F020913F
:10226000500430915104409152045091530460E065
:1022700074E284EF90E00E948929DA01C901409755
:10228000A109B109B695A795979587958093B80050
:1022900016C08091340490913504892B31F08091DF
:1022A0004E0490914F040E94F30DE0914804F09188
:1022B0004904908180914D0480958923808365E055
:1022C00088E296E00E94741060911E0461508AE1D9
:1022D00094E00E948A0F2091200430912104C901CA
:1022E000079697FD079633E0959587953A95E1F720
:1022F00020911E0430911F04829F8001839F100D46
:10230000929F100D1124C0913804D091390480910E
:102310003604909137040C0F1D1F009709F445C037
:1023200060913A040E94800F8091360490913704A6
:10233000DC01ED91FC910190F081E02D60E40995C4
:102340007E01D1E080913604909137040E151F056F
:1023500049F1D032B8F00E94240F60913A04809184
:102360003604909137040E94800F8091360490913A
:102370003704DC01ED91FC910190F081E02D60E4E7
:102380000995D1E08091360490913704F70161916D
:102390007F01DC01ED91FC910190F081E02D099528
:1023A000DF5FD0CF0E94240F41C0E0914604F0913E
:1023B0004704908180914C04892B8083C017D107FA
:1023C000A9F189912091340430913504232B19F01F
:1023D0000E94EC0DF3CF28E030E040E8E0914204A9
:1023E000F091430490914A04582F542319F05081DE
:1023F000952B03C05081909595239083E0914404E0
:10240000F0914504508190914B04952B9083E0917D
:102410004404F0914504508190914B04909595238C
:102420009083469521503109C9F6C8CF8091360472
:1024300090913704892BD1F02091540430915504A8
:10244000409156045091570460E074E284EF90E0AC
:102450000E948929DA01C9014097A109B109B695FD
:10246000A795979587958093B80017C0E091480489
:10247000F0914904908180914D04892B8083809153
:10248000340490913504892B41F0DF91CF911F9155
:102490000F91FF90EF900C94EB0DDF91CF911F9176
:1024A0000F91FF90EF900895209120043091210426
:1024B000C901079697FD079623E0959587952A957C
:1024C000E1F720911E0430911F04829FA001839F99
:1024D000500D929F500D112460E070E080913804FF
:1024E000909139040C940F2EFC01808191810C9401
:1024F000B22C3F924F925F926F927F928F929F92F7
:10250000AF92BF92CF92DF92EF92FF920F931F9301
:10251000CF93DF9300D000D000D0CDB7DEB72C0131
:102520003B014A015901C901079697FD07969C0195
:1025300093E0359527959A95E1F73C832B83C12C41
:10254000D12CE12CF12C312CC3018E0D9F1D9A83CF
:102550008983E016F106C4F51E821D822D813E811D
:102560002A153B054CF5C90187709927892B11F075
:10257000330C0EC0ED81FE81F7FD379683E0F595B3
:10258000E7958A95E1F7EC0DFD1DE80DF91D3490F6
:1025900037FE0CC021E030E049815A816D817E8197
:1025A000640D751D8AE194E00E949B098D819E81D6
:1025B00001969E838D83D2CF9FEFE91AF90A2B8172
:1025C0003C81C20ED31EC0CF26960FB6F894DEBF54
:1025D0000FBECDBFDF91CF911F910F91FF90EF9074
:1025E000DF90CF90BF90AF909F908F907F906F9033
:1025F0005F904F903F900895CF93DF93BC018EE59D
:1026000093E00E94610DEC0166E571E08EE593E0D8
:102610000E94610D8C0F9D1FDF91CF9108959091C5
:102620003B039111FCCF982F813208F090E281E0BA
:1026300080933B0380933A032FEF2093390310924A
:102640003803290F20933703809336038091360394
:102650008C6E8093360380913503813061F4109243
:102660003503809136038093BB008091BC0083FDCD
:10267000F8CF85EC01C085EE8093BC0080913B03D0
:102680008130E1F380913803891710F49091380379
:10269000E5E1F3E0AEE3B3E080E0891721F02191BA
:1026A0002D938F5FFACF10923D0380933C030895E2
:1026B0001F93CF93DF93182F66E78BEF93E00E9471
:1026C000800F612F8BEF93E00E94E00A8BEF93E085
:1026D0000E94240F82E090E00E940F1380913C033F
:1026E00090E020913D03821B910982309105ECF32B
:1026F0008BEF93E00E94970A182F8BEF93E00E94D4
:10270000970AD12F20E0C22F9E01282BC901DF910B
:10271000CF911F9108950E945813982789279827D1
:102720000895CF93C82F66E78BEF93E00E94800F48
:102730006C2F8BEF93E00E94E00A8BEF93E00E94F6
:10274000240F81E090E00E940F1390913C03809150
:102750003D039817F1F38BEF93E00E94970ACF9116
:1027600008958F929F92AF92BF920F931F93CF9332
:10277000DF93CDB7DEB7A1970FB6F894DEBF0FBEDB
:10278000CDBF19A2423008F44AE08E010F5D1F4F01
:10279000842E912CA12CB12CA50194010E94892991
:1027A000E62FB901CA0101501109EA3014F4E05DC5
:1027B00001C0E95CD801EC93232B242B252B61F776
:1027C000B8018EE593E00E94610DA1960FB6F894D2
:1027D000DEBF0FBECDBFDF91CF911F910F91BF9094
:1027E000AF909F908F900895EF92FF920F931F9359
:1027F000CF93DF93CDB7DEB7A1970FB6F894DEBFC6
:102800000FBECDBF7C01CB01BA01F701118210824E
:1028100013821282158214828E010F5F1F4F22E0F5
:1028200044E00E947625BC01C7010E941B0DA196C1
:102830000FB6F894DEBF0FBECDBFDF91CF911F91D1
:102840000F91FF90EF900895CF93DF93EC01FB0180
:1028500044815581608171810E94A10C811103C066
:10286000CE010E94CF0CCE01DF91CF910895CF927F
:10287000DF92EF92FF92CF93DF93B0910E04882303
:1028800011F0AB2F01C0A0E080910F0490E0880F01
:10289000991F825E994FC0901404D0901504E09067
:1028A0001604F090170420E030E0FC01C591D491AB
:1028B000E881EB23A90160E070E0EA130CC02F5F10
:1028C0003F4F4C155D056E057F0578F33FEF2FEF09
:1028D0008FEF9FEF03C0322F252FCB01632F722F75
:1028E000DF91CF91FF90EF90DF90CF9008958F927E
:1028F0009F92AF92BF92CF92DF92EF92FF92F82E0B
:1029000066E78BEF93E00E94800F6F2D8BEF93E0D3
:102910000E94E00A8BEF93E00E94240F83E090E096
:102920000E940F1380913C0390E020913D03821B95
:10293000910983309105ECF38BEF93E00E94970AA5
:102940004C01990FAA08BB08BA2CA92C982C8824F2
:102950008BEF93E00E94970A6C01990FEE08FF0835
:10296000C828D928EA28FB28FE2CED2CDC2CCC2406
:102970008BEF93E00E94970A092E000CAA0BBB0B69
:10298000BC01CD016C297D298E299F29FF90EF90F4
:10299000DF90CF90BF90AF909F908F9008958F92CF
:1029A0009F92AF92BF92CF92DF92EF92FF928AEF07
:1029B0000E947714E0EFF2E020813181C72ED82EFB
:1029C000E92EFF24E7FCFA94C21AD30AE108F108C1
:1029D000DC01CB0157E0B595A795979587955A955A
:1029E000D1F7220F331F4C015D01821A930AA1080F
:1029F000B108A5019401A281B3810E94AB294B01CA
:102A00005C017BE0B594A794979487947A95D1F76D
:102A1000A7019601C701B6010E9479299B01AC016B
:102A2000ACE05595479537952795AA95D1F7A481A0
:102A3000B5810E94AB29DC01CB012EE0B595A795AD
:102A4000979587952A95D1F7A5019401280F391FED
:102A50004A1F5B1F21A332A343A354A3A5E0B0E008
:102A60000E942829DC01CB0180589F4FAF4FBF4FF8
:102A7000692F7A2F8B2F992787FD9A950E940B2813
:102A800020E030E048EC52E40E94742BFF90EF907D
:102A9000DF90CF90BF90AF909F908F9008952F922E
:102AA0003F924F925F926F927F928F929F92AF92DE
:102AB000BF92CF92DF92EF92FF920F931F93CF932B
:102AC000DF93CDB7DEB76B970FB6F894DEBF0FBEBE
:102AD000CDBF9B8F8A8F5B011A01D22E1F830E837D
:102AE0003701C982DC0158962D913C9159972115E7
:102AF000310509F0E6C018968D919C9119976817D9
:102B000079070CF0CDC11A968D919C911B974817AF
:102B100059070CF0C5C18C2C912CFB0126E0C29EFC
:102B2000E00DF11D1124FB87EA871E161F060CF02D
:102B3000B7C1A40183E0440F551F8A95E1F75D8773
:102B40004C87CA01820D931D181619060CF0A8C1F6
:102B500057968C91811104C05FEA5D1508F4D394F7
:102B6000AA8DBB8DED91FC9111970284F385E02D28
:102B7000CD010995B5E0DB9EC0011124F501359624
:102B8000FF87EE87BB82AA8225019C012A193B0997
:102B9000398B288BA101485F5F4F5B8B4A8BE8899B
:102BA000F989E40DF51DE357F94F549158876101F8
:102BB0003D822C82888580FF13C0AA8DBB8DED914C
:102BC000FC91B981B13031F40484F585E02D2E817A
:102BD0003F8116C00684F785E02DEE80FF801AC085
:102BE000EE81FF81E615F705F1F0AA8DBB8DED9121
:102BF000FC91B981B13051F40484F585E02D930145
:102C0000A601B2018A8D9B8D09950DC00684F785BA
:102C1000E02D7301840194014C815D816A817B8187
:102C20008A8D9B8D0995E885E695E887FFEFCF1A99
:102C3000DF0A2C813D81280D391D3D832C834A8973
:102C40005B89C416D50609F0B5CF5FEF451A550A62
:102C50008A819B81880D991D9B838A83AE85BF8560
:102C60004A165B0609F09BCFEE81FF81E615F7055A
:102C700009F4F4C0EA8DFB8DA081B181F981F130B6
:102C800079F4B5016B5F7F4F5096ED91FC915197B0
:102C9000830128E030E0A1018A8D9B8D0995DEC07B
:102CA0006A857B85681979091E96ED91FC911F97BD
:102CB00073010C851D859401A1018A8D9B8D099559
:102CC000CDC0F9013496E491DE1AF901329685916E
:102CD0009491B7E0DB9E800D911D1124F90125919F
:102CE00034913B8B2A8BFC01259134912901FC0105
:102CF0003296C490319634913E8732961491319633
:102D0000D4904981423058F0612E012E000C770892
:102D10008D2D0D2C000C990B9987888704C019867E
:102D20001886612C712CAA8DBB8DED91FC911197A9
:102D30000284F385E02DCD010995B9818B2E912C6C
:102D4000689CC001699C900D789C900D1124FC0139
:102D5000EA0DFB1DFD87EC871A82712C612CE12F97
:102D6000110FFF0B95012E0F3F1F3B872A87AC0CDD
:102D7000B11CA5014E0F5F1F5F8B4E8BC1018D0DE6
:102D8000911DD7FC9A95998F888F9E85691608F0BA
:102D900065C0862D90E048855985480F591F489D8C
:102DA0009001499D300D589D300D1124D101A20F85
:102DB000B31FB98BA88BEC85FD85FD83EC83AA84BA
:102DC000BB84DA80FA85DF1A288D398D280F391FE8
:102DD0003D8B2C8B8D2D8A0D4E895F89A416B506EF
:102DE000C1F1877041F4C2010196EA89FB89E40DC3
:102DF000F51D74902C0177FE21C0AA8DBB8DED913D
:102E0000FC91B981B13061F40484F585E02D2E8107
:102E10003F814C895D89B5018A8D9B8D09950EC0D6
:102E20000684F785E02DEE80FF80840194014889B7
:102E300059896C817D818A8D9B8D0995770CEFEF87
:102E4000AE1ABE0A2C813D81280D391D3D832C838D
:102E5000C1CF3A813C0D3A83639497CFAA8DBB8D45
:102E6000ED91FC9111970688F789E02DCD016B96C5
:102E70000FB6F894DEBF0FBECDBFDF91CF911F918B
:102E80000F91FF90EF90DF90CF90BF90AF909F9009
:102E90008F907F906F905F904F903F902F9009940C
:102EA0006B960FB6F894DEBF0FBECDBFDF91CF910A
:102EB0001F910F91FF90EF90DF90CF90BF90AF9058
:102EC0009F908F907F906F905F904F903F902F904A
:102ED00008950F931F93CF93DF9377FF04C0260FBE
:102EE000371F60E070E0DC011496CD91DC911597FE
:102EF000FB01E20FF31FCE17DF071CF49E01261B18
:102F0000370B121613060CF046C0FA0157FD379620
:102F1000DF01E3E0B595A795EA95E1F7AC9FF001F5
:102F2000AD9FF00DBC9FF00D11246E0F7F1FDC01D3
:102F30005E96ED91FC915F97E60FF71F477055275E
:102F400081E090E001C0880F4A95EAF7482F0130F0
:102F5000110539F078F002301105E9F42E0F3F1F0A
:102F600013C02E0F3F1FE217F307A9F08081842BB7
:102F70008193F9CF80952E0F3F1FE217F30759F089
:102F8000908198239193F9CFE217F30721F0808184
:102F900084278193F9CFDF91CF911F910F910895ED
:102FA000EF92FF920F931F93CF93DF93EC0177FD86
:102FB000A5C0EC80FD806E157F050CF09FC057FF0B
:102FC00004C0240F351F40E050E08E819F81FA013C
:102FD000E20FF31F8E179F071CF49C01241B350B77
:102FE000121613060CF08AC0922F842F86958695B0
:102FF00086958E9DD0018F9DB00D11246A0F7B1F89
:10300000AE8DBF8DA60FB71F4770B1F188E0841B4E
:10301000482F682F70E0FB01EB57F94FE491281718
:1030200098F4621B71092FEF30E002C035952795A7
:103030006A95E2F7E2230130110549F078F0023099
:10304000110509F05BC00EC00130110519F48C9117
:10305000E82B0AC00130110508F049C0E0958C91B9
:10306000E82302C08C91E827EC93941708F446C03B
:103070002C813D81A20FB31FE92FE41BE830F8F04B
:103080000230110561F48E2F9C9190959C932C81B8
:103090003D81A20FB31F88508830B0F70FC081E088
:1030A0000115110509F480E081959E2F8C932C81E8
:1030B0003D81A20FB31F98509830C0F7E770EE2300
:1030C000E9F0F0E0E358F94FE4910130110539F0EF
:1030D00048F00230110591F48C91E82706C08C91DC
:1030E000E82B03C0E0958C91E823EC9307C00230F5
:1030F000110509F4B7CFAE0DBF1DBECFDF91CF9143
:103100001F910F91FF90EF90089590E0FC01E75917
:10311000F94F2491FC01EF5BF94F3491FC01E35D21
:10312000F94FE491EE2309F43CC0222339F1233016
:1031300091F038F42130A9F0223001F584B58F7D6B
:1031400012C0273091F02830A1F02430B9F48091DA
:1031500080008F7D03C0809180008F7780938000F6
:103160000DC084B58F7784BD09C08091B0008F7782
:1031700003C08091B0008F7D8093B000F0E0EE0F2F
:10318000FF1FE15AF94FA591B4919FB7F8946111CF
:1031900004C08C913095382302C0EC913E2B3C93B7
:1031A0009FBF0895CF93DF9390E0FC01EF5BF94F51
:1031B0002491FC01E35DF94F8491882361F190E053
:1031C000880F991FFC01EB5AF94FC591D491FC016E
:1031D000E15AF94FA591B491611109C09FB7F894D4
:1031E0008881209582238883EC912E230BC0623046
:1031F00061F49FB7F8948881322F309583238883B8
:10320000EC912E2B2C939FBF06C08FB7F894E881CA
:103210002E2B28838FBFDF91CF9108958F929F929D
:10322000AF92BF92CF92DF92EF92FF926B017C013F
:103230000E94561A4B015C01C114D104E104F1044F
:10324000F1F00E94561ADC01CB0188199909AA09EC
:10325000BB09883E9340A105B10570F321E0C21A75
:10326000D108E108F10888EE880E83E0981EA11CC1
:10327000B11CC114D104E104F10419F7DDCFFF90B2
:10328000EF90DF90CF90BF90AF909F908F90089578
:10329000CF92DF92EF92FF920F931F93CF93DF9322
:1032A000CDB7DEB7C054D1400FB6F894DEBF0FBE25
:1032B000CDBF2FB7F8948091580490915904A091F4
:1032C0005A04B0915B042FBF409110045091110437
:1032D00060911204709113048C019D01041B150B65
:1032E000260B370BB901A801403D57406105710518
:1032F00018F480911804CAC08093100490931104AC
:10330000A0931204B093130410920B0410920A04B9
:1033100010920904109208041092070462E0809150
:103320000C040E94D21861E070E080E090E00E94FE
:103330000E1961E080910C040E94D21860E0809127
:103340000C040E94851880910D048551823028F468
:103350008BE291E10197F1F706C064E170E080E053
:1033600090E00E940E1962E080910C040E94D21835
:103370008091190490E08230910538F0880F991FF0
:10338000880F991F05970197F1F7F89480E00E9444
:1033900037146F3F7F4F8F4F9F4F21F410921804C7
:1033A000789441C081E00E9437146F3F7F4F8F4F68
:1033B0009F4FA1F38E010F5F1F4F6E018FEBC81A55
:1033C0008EEFD80A780180E00E943714F7016083FD
:1033D00071838283938381E00E943714F7016483B1
:1033E000758386839783F8E0EF0EF11CEC14FD04DF
:1033F00051F7789420E030E0F801C080D180E2807D
:10340000F3804481558166817781FFEFCF16DF0617
:10341000EF06FF0631F04F3F8FEF58076807780738
:1034200021F41092180480E031C0F90183E0F59591
:10343000E7958A95E1F7E95FFB4F8081880FC41615
:10344000D506E606F70608F4816080832F5F3F4FBC
:10345000085F1F4F2832310579F620910B0430E0C8
:10346000409107048091080490E0840F911D4091E1
:103470000904840F911D40910A04840F911D99271E
:103480002817390771F681E080931804C05CDE4F7D
:103490000FB6F894DEBF0FBECDBFDF91CF911F9165
:1034A0000F91FF90EF90DF90CF9008953FB7F89481
:1034B00080915D0490915E04A0915F04B0916004DE
:1034C00026B5A89B05C02F3F19F00196A11DB11D7F
:1034D0003FBFBA2FA92F982F8827820F911DA11DBA
:1034E000B11DBC01CD0142E0660F771F881F991FF7
:1034F0004A95D1F708951F920F920FB60F9211249B
:103500002F933F938F939F93AF93BF9380915804D2
:1035100090915904A0915A04B0915B0430915C04DD
:1035200023E0230F2D3720F40196A11DB11D05C006
:1035300026E8230F0296A11DB11D20935C04809301
:10354000580490935904A0935A04B0935B0480915B
:103550005D0490915E04A0915F04B09160040196B7
:10356000A11DB11D80935D0490935E04A0935F0440
:10357000B0936004BF91AF919F918F913F912F9134
:103580000F900FBE0F901F9018958EE291E09093D0
:103590001B0480931A048091380490913904009799
:1035A00011F00C94B22C0895CF93DF93CDB7DEB712
:1035B000CF54D1090FB6F894DEBF0FBECDBF7894BB
:1035C00084B5826084BD84B5816084BD85B5826028
:1035D00085BD85B5816085BD80916E0081608093D9
:1035E0006E00109281008091810082608093810042
:1035F0008091810081608093810080918000816052
:10360000809380008091B10084608093B1008091AC
:10361000B00081608093B00080917A0084608093D4
:103620007A0080917A00826080937A0080917A009B
:10363000816080937A0080917A00806880937A001C
:103640001092C100E0916E03F0916F0382E08083DD
:10365000E0916A03F0916B031082E0916C03F091AA
:103660006D038FEC808310927603E0917203F091EA
:10367000730386E08083E0917003F0917103808191
:1036800080618083E0917003F09171038081886094
:103690008083E0917003F091710380818068808362
:1036A000E0917003F091710380818F7D80838BEFB7
:1036B00093E00E94421080ED0E949113803611F039
:1036C0000C94AA2388E80E948B139093F1028093B4
:1036D000F0028AE80E948B139093F3028093F20227
:1036E0008CE80E948B139093F5028093F4028EE88D
:1036F0000E948B139093F7028093F60280E90E9458
:103700008B139093F9028093F80282E90E948B1345
:103710009093FB028093FA0284E90E948B139093AA
:10372000FD028093FC0286E90E948B139093FF02B6
:103730008093FE0288E90E948B139093010380938B
:1037400000038AE90E948B13909303038093020382
:103750008CE90E948B1390930503809304038EE9F8
:103760000E948B13909307038093060381EA0E94C3
:1037700091138093080381EE0E948B1390930A03A8
:103780008093090383EE0E94911380930B0384EED0
:103790000E949113182F85EE0E94911300E1109F53
:1037A000900111248F70282B30930D0320930C036C
:1037B00086EE0E949113182F85EE0E94911340E12E
:1037C000149F9001112482958F70282B30930F0342
:1037D00020930E0387EE0E9491138093100366E7F7
:1037E0008BEF93E00E94800F62EF8BEF93E00E94DB
:1037F000E00A65E08BEF93E00E94E00A8BEF93E034
:103800000E94240F66E78BEF93E00E94800F64EF25
:103810008BEF93E00E94E00A67EB8BEF93E00E944E
:10382000E00A8BEF93E00E94240F62E080910C0489
:103830000E94D2182FB7F89480915804909159049F
:10384000A0915A04B0915B042FBF805D9740A109FD
:10385000B1098093100490931104A0931204B093C3
:10386000130487E3809319048091380490913904FC
:10387000892B11F52091200430912104C90107966C
:1038800097FD0796B3E095958795BA95E1F7209156
:103890001E0430911F04DC01A29FC001A39F900D64
:1038A000B29F900D11240E941A2C9093390480939A
:1038B0003804892B09F4E0C00E945412209120049E
:1038C0003091210480911E0490911F042132310512
:1038D0000CF445C7B9016054710977FF02C06F5FEE
:1038E0007F4F759567958255910997FD019600E484
:1038F00010E022E530E04EE553E0959587950E9473
:10390000791282E080933B048091360490913704D1
:10391000009709F438C72CE320933A040E94421020
:103920008091410487FD1EC061E00E94D21861E0D1
:10393000809141040E94851861E070E080E090E091
:103940000E940E1960E0809141040E9485186AE08F
:1039500070E080E090E00E940E1961E080914104E7
:103960000E9485188091360490913704892B11F4B8
:103970000C948324209150043091510440915204BE
:103980005091530460E074E284EF90E00E94892932
:10399000DA01C9014097A109B109B695A795979594
:1039A00087958093B80064E08AE791E00E947410E4
:1039B0006091200461508AE194E00E948A0F64E0E3
:1039C00086E791E00E94741080913B04813009F0F9
:1039D000B1C760E18AE194E00E948A0F64E082E767
:1039E00091E00E94741080911E0490911F04803811
:1039F000910509F0B2C78091200490912104803292
:103A0000910509F099C764E08EE691E00E94741078
:103A100069ED8AE194E00E948A0F80913B04813035
:103A200009F0B7C762E28AE194E00E948A0F66E07B
:103A300082E691E00E9474108091360490913704E0
:103A4000892B09F4A8C72091540430915504409162
:103A500056045091570460E074E284EF90E00E94B5
:103A60008929DA01C9014097A109B109B695A7953D
:103A7000979587958093B80068E571E08E010F5F98
:103A80001F4FC8010E944C0D0E9423110E94541226
:103A900082E080932E0481E090E090932D04809347
:103AA0002C0490932B0480932A042FE030E0309371
:103AB0002704209326049093290480932804B801B6
:103AC0008AE194E00E94760DC8010E947412302EA3
:103AD000212E8FB7F894A0905804B0905904C0904C
:103AE0005A04D0905B042C96ACAEBDAECEAEDFAE29
:103AF0002C978FBF1CA21BA21EA21DA218A61FA23C
:103B00002AE0432D522D2C966CAD7DAD8EAD9FAD30
:103B10002C970E94A525632D722DCE0183960E94BD
:103B20001B0D6091EC027091ED028091EE0290917C
:103B3000EF021AA619A61CA61BA61EA61DA62AE001
:103B4000432D522D0E949625632D722DCE0189960C
:103B50000E941B0D69E571E0832D922D0E944C0D92
:103B6000BE01675D7F4F832D922D0E94241469E66C
:103B700071E00E94E10CBE016D5D7F4F0E94241434
:103B8000BC018EE593E00E94760D832D922D0E945C
:103B90007412CE0189960E947412CE0183960E94FF
:103BA00074128091EC029091ED02A091EE02B0911E
:103BB000EF02A81AB90ACA0ADB0A09EBA0160BE041
:103BC000B006C104D10408F4C2C50E94CF148DEF21
:103BD0000E945813409011035090120360901303F9
:103BE000709014031CE2511A11E0610A71086C0113
:103BF000E12CF12C0EE0CC0CDD1CEE1CFF1C0A9518
:103C0000D1F740910C0350910D03052E000C660B6B
:103C1000770B84E1440F551F661F771F8A95D1F7F4
:103C2000C41AD50AE60AF70AA0910E03B0910F0351
:103C3000A30192010E94AB29C61AD70AE80AF90A21
:103C400020E4D20EE11CF11C9FE0F594E794D79498
:103C5000C7949A95D1F7A0910B03B0E0A30192010C
:103C60000E9428294B015C012BE0B594A7949794FE
:103C700087942A95D1F730E8930EA11CB11CA0912E
:103C800010030A2E000CBB0BA30192010E94AB296A
:103C90003AE095958795779567953A95D1F7A5017F
:103CA00094010E947929DC01CB014AE0B595A795E2
:103CB000979587954A95D1F79C01AD01405E5F4F7E
:103CC000A0910903B0910A030E94AB29DC01CB014A
:103CD000905EAF4FBF4FBC01CD015EE095958795DB
:103CE000779567955A95D1F7A70196010E94792992
:103CF0006B017C01EFE09595879577956795EA953F
:103D0000D1F79B01AC010E9479299B01AC01F7E03E
:103D10005595479537952795FA95D1F7A0910803C2
:103D2000B0E00E942829DC01CB0114E0B595A795ED
:103D3000979587951A95D1F797018601081B190B5E
:103D40002A0B3B0BD901C80137FF03C080E090E08C
:103D5000DC0181309105A10519E1B10724F080E073
:103D600090E0A0E0B9E1BC01CD01BCE0959587955C
:103D700077956795BA95D1F70E94092820E030E041
:103D800040E85AE30E946A280E94E62B0E94092814
:103D9000AB01BC01832D922D0E94F4130E94CF141D
:103DA000AB01BC01CE0183960E94F4136BE771E076
:103DB000CE0189960E944C0DBE016D5D7F4FCE01F4
:103DC00089960E94241469E871E00E94E10C632D39
:103DD000722D0E94241468E971E00E94E10CBC017C
:103DE0008EE593E00E94760DCE0189960E947412B2
:103DF000CE0183960E947412832D922D0E9474121C
:103E00000E94CF1487EF0E94771460966CAF7DAF4D
:103E10008EAF9FAF60978091110390911203A09194
:103E20001303B09114036C017D01FF0CCC08DC2C52
:103E300076019C01AD016C2D7C2D8C2D9C2D345F69
:103E400041405109610971098109910929AF3AAFCE
:103E50004BAF552E3B014C015901C42ED52E7B0191
:103E60008C010E94B32921962FAF219722963FAF54
:103E7000229723964FAF239724965FAF24972596DA
:103E80006FAF259726967FAF269727968FAF2797F8
:103E900028969FAF28973091F9022091F802932F2E
:103EA000990F990B492F592F692F792F892F0E942C
:103EB000B3290CE00E94AC2A2FA73CAF442E5DAF83
:103EC0006EAF7FAF8FAB98AF3091FB022091FA02BB
:103ED000932F990F990B2196AFAC21972296BFACE7
:103EE00022972396CFAC23972496DFAC2497259670
:103EF000EFAC25972696FFAC269727960FAD279710
:103F000028961FAD2897492F592F692F792F892F70
:103F10000E94B32908E00E94C52AAFA4BCACC42CFF
:103F2000DDACEEACFFAC0FA918AD0E94E32A7058CF
:103F30008F4F9F4FE091F602F091F7025F01C12C85
:103F4000D12CE12CF12C8701EFA7B8AAC9AADAAAD3
:103F5000EBAAFCAA0DAB1EABC12CD12CE12CF12C91
:103F600000E010E00E94B32901E20E94C52A2FA7B9
:103F70003CAF4DAF5EAF6FAF7FAB88AF492EA0E0D7
:103F80000E94F52A09F44EC13091010320910003EB
:103F9000932F990F990B2196AFAC21972296BFAC26
:103FA00022972396CFAC23972496DFAC24972596AF
:103FB000EFAC25972696FFAC269727960FAD27974F
:103FC00028961FAD2897492F592F692F792F892FB0
:103FD0000E94B32921962FAF219722963FAF2297B7
:103FE00023964FAF239724965FAF249725966FAF04
:103FF000259726967FAF269727968FAF27972896E7
:104000009FAF28973091FF022091FE02932F990FC6
:10401000990BA9ACBAACCBACD52C73018401492F58
:10402000592F692F792F892F0E94B32901E10E940E
:10403000AC2A2196AFAC21972296BFAC229723964B
:10404000CFAC23972496DFAC24972596EFAC259729
:104050002696FFAC269727960FAD279728961FAD7B
:1040600028970E94E32A59016A017B01582E192FD3
:1040700060968CAD9DADAEADBFAD609704E0B595DB
:10408000A795979587950A95D1F720E030E040E114
:1040900050E0281B390B4A0B5B0BDA01C9013901CF
:1040A0004A01990C6608762C43019C01AD01662DEE
:1040B000762D862D962D0FE10E94AC2A39014A01FA
:1040C000B62FA72FF82FE92F3091FD022091FC0287
:1040D000932F990F990B492F592F692F792F892FDA
:1040E00003E20E94AC2A052D0E94E32A59016A01CD
:1040F0007B018C019301A4016B2F7A2F8F2F9E2FB0
:104100000E94EC2AE5E3AE2EFCE0BF2EC12CD12CA0
:10411000E12CF12C00E010E00E94B329AFA4BCAC6C
:10412000CDACDEACEFACFFA808AD142D0E940E2A7A
:1041300029AF3AAF4BAF5FA76CAF7DAF8EAF9FAFEC
:104140000DE00E94C52A2FAB432E542E652E762EED
:10415000872E982E98AF3091070320910603932F56
:10416000990F990BAFA8B42CC52CD62CE72CF82CA2
:10417000092D18AD492F592F692F792F892F0E94AA
:10418000B3290E94B32909E10E94C52AA9ACBAAC9F
:10419000CBACDFA4ECACFDAC0EAD1FAD0E94E32AAE
:1041A0002FAB38AF2A013B014C0130910503209120
:1041B0000403932F990F990B492F592F692F792FAA
:1041C000892F0E94B32903E10E94C52A59016A017F
:1041D0007B018C012FA938ADA201B301C4010E945B
:1041E000E32A08E00E94C52A59016A017B01E82FF1
:1041F000192F3091030320910203932F990F990BEC
:10420000492F592F692F792F892F04E00E94AC2A5A
:104210000E2F0E94E32A49015A0199278B2D7A2DEE
:10422000692D03C060E070E0CB010E9409286B019A
:104230007C0120E030E543EC57E40E94742BAB0195
:10424000BC01832D922D0E94F413B701A601CE016B
:1042500089960E94F413BE01675D7F4FCE0183965D
:104260000E94320D65EA71E0CE0183960E94E10C56
:10427000632D722D0E94241460EB71E00E94E10C0A
:10428000BC018EE593E00E94760DCE0183960E94DC
:104290007412CE0189960E947412832D922D0E9471
:1042A00074120E9448198823D1F180910D048B303B
:1042B000B0F18D30A8F08551823088F56091070407
:1042C0007091080476276727762780E090E00E94A7
:1042D00009282DEC3CEC4CEC5DE30E946A281CC0E4
:1042E0006091080470E080E090E00E940B282DECC3
:1042F0003CEC4CEC5DE30E946A286B017C01609110
:10430000070470E080E090E00E940B289B01AC0164
:10431000C701B6010E94082B4B015C0106C0812C2D
:10432000912CF0ECAF2EFFE7BF2E0E944819882396
:1043300009F474C080910D048C3009F448C018F45D
:104340008B30D1F06BC08551823008F067C010917E
:104350000904612F6F7770E0762F662780910A0439
:10436000682B80E090E00E9409282DEC3CEC4CEC9E
:104370005DE30E946A2849C06091090470E080E012
:1043800090E00E9409286B017C0110910A0417FF3C
:104390000AC09B01AC0160E070E080E89FEB0E94E6
:1043A000072B6B017C01612F6F7070E080E090E063
:1043B0000E940B282DEC3CEC4CEC5DE30E946A283B
:1043C000A70196010E94082B6B017C012DC0109162
:1043D000090460910A046F7070E080E090E00E9430
:1043E0000B282DEC3CEC4CEC5DE30E946A286B0141
:1043F0007C01612F70E080E090E00E9409289B0121
:10440000AC01C701B6010E94082B6B017C0117FFAC
:104410000BC0F7FAF094F7F8F09406C0C12CD12C39
:1044200050ECE52E5FE7F52E2C968CAD9DADAEAD34
:10443000BFAD2C978093EC029093ED02A093EE0217
:10444000B093EF02A7019601C701B6010E94152C97
:104450008111B4C2A5019401C501B4010E94152CBB
:104460008111ACC2B501A401832D922D0E94F413D9
:10447000B701A601CE0183960E94F41362E372E0B5
:10448000CE0189960E944C0DBE016D5D7F4FCE011D
:1044900089960E94241469E871E00E94E10C632D62
:1044A000722D0E94241460E472E00E94E10CBC01B1
:1044B0008EE593E00E94760DCE0189960E947412DB
:1044C000CE0183960E947412832D922D0E94741245
:1044D000B701A601CE0189960E94F413BE01675D63
:1044E0007F4FCE0183960E94320D68E571E0CE01C8
:1044F00083960E94E10CBC01832D922D0E94320D07
:104500000E9423110E94541282E080932E0441E005
:1045100050E050932D0440932C0450932B0440936F
:104520002A048FE090E09093270480932604509310
:10453000290440932804632D722D8AE194E00E949F
:10454000760D832D922D0E947412CE0183960E94C7
:104550007412CE0189960E94741264E472E0832D75
:10456000922D0E944C0D11E010932E04A1E0B0E0BA
:10457000B0932D04A0932C04B0932B04A0932A0491
:104580008CE4C82ED12CD0922704C092260498E047
:10459000E92EF12CF0922904E0922804632D722D6B
:1045A0008AE194E00E94760D832D922D0E94741270
:1045B000B501A401CE0189960E94F413BE01675D86
:1045C0007F4FCE0183960E94320D69E472E0CE01E6
:1045D00083960E94E10CBC01832D922D0E94320D26
:1045E00010932E0421E030E030932D0420932C040E
:1045F00030932B0420932A044FE050E0509327047B
:104600004093260481E190E090932904809328044C
:10461000632D722D8AE194E00E94760D832D922DF8
:104620000E947412CE0183960E947412CE01899664
:104630000E9474126CE472E0832D922D0E944C0D46
:1046400010932E04A1E0B0E0B0932D04A0932C04AD
:10465000B0932B04A0932A042FE0A22EB12CB09289
:104660002704A092260439E1C32ED12CD09229042C
:10467000C0922804632D722D8AE194E00E94760D89
:104680000E942311832D922D0E94741286EB91E0DB
:104690000E94FC12C12CD12C7601C39400E010E0E2
:1046A0006C2D8BEF93E00E94800F8BEF93E00E94C4
:1046B000240F81111BC062EC71E08EE593E00E9433
:1046C000610D9FE09C1530F061EE71E08EE593E0A6
:1046D0000E94610D40E1C701B6010E94B11383EE53
:1046E00091E00E94FC120F5F1F4F1CC08430D1F478
:1046F00067EE71E08EE593E00E94610DAFE0AC15CE
:1047000030F061EE71E08EE593E00E94610D40E1D2
:10471000C701B6010E94B11366E571E08EE593E032
:104720000E94610DBFEFCB1ADB0AEB0AFB0A2FE7F1
:10473000C216D104E104F10409F0B2CF012B19F43F
:1047400083E092E002C089E192E00E94FC120E94A4
:10475000F506BFC98FE192E00E94FC1266C8B9015C
:104760006052710977FF02C06F5F7F4F7595679543
:104770008357910997FD019600E210E023E730E0AE
:104780004EE751E0BAC861E080913F040E94D21820
:1047900061E0809140040E94D21880913F04082E6D
:1047A000000C990BFC01E35DF94FE491F0E0EE0F92
:1047B000FF1FE15AF94F259134913093470420931C
:1047C0004604FC01EF5BF94FE491E0934C048091C7
:1047D0004004082E000C990BFC01E35DF94FE491B5
:1047E000F0E0EE0FFF1FE15AF94FA591B491B0939D
:1047F0004904A0934804FC01EF5BF94FE491E09376
:104800004D048C91E82BEC93809134049091350405
:10481000892B09F434C01FB7F8948091EB02811101
:1048200027C0E7E3F6E08491EBE4F6E09491E82F0B
:10483000F0E0EE0FFF1FEB5AF94FA591B491EC9108
:10484000E92321F461E08AE00E94851861E08AE0B2
:104850000E94D2188CB580618CBD8CB580648CBDF3
:1048600061E08DE00E94D21861E08BE00E94D218D6
:104870008091EB028F5F8093EB021FBF51C861E014
:1048800080913D040E94D21861E080913E040E9414
:10489000D21880913D04082E000C990BFC01E35DB9
:1048A000F94FE491F0E0EE0FFF1FE15AF94F259127
:1048B00034913093430420934204FC01EF5BF94FA1
:1048C000E491E0934A0480913E04082E000C990B79
:1048D000FC01E35DF94FE491F0E0EE0FFF1FE15AB8
:1048E000F94FA591B491B0934504A0934404FC0101
:1048F000EF5BF94FE491E0934B048C91E095E82352
:10490000EC930C94901C8091340490913504892B85
:1049100031F080914E0490914F040E94F30DE0918C
:104920004804F0914904908180914D048095892339
:10493000808339C864E14EC88034910509F068C8A5
:1049400063E08BE691E00E94741080913B0481301B
:1049500011F46FE919C06FEC17C08036910509F0AA
:1049600057C88091200490912104409709F050C8C5
:1049700063E088E691E00E94741080913B048130EE
:1049800011F460E101C06FEA8AE194E00E948A0FAD
:104990003FC861EF48C8E0914804F0914904908114
:1049A00080914D04892B808380913404909135044B
:1049B000892B09F461C80E94EB0D5EC88AE592E07C
:1049C0000E94FC1263CEEEE5F3E01382128248EE01
:1049D00053E060E070E044835583668377838AE028
:1049E00091E09183808385EC90E09587848784ECC7
:1049F00090E09787868780EC90E0918B808B81ECAC
:104A000090E0938B828B82EC90E0958B848B86EC8C
:104A100090E0978B868B118E128E138E148EABEFD7
:104A2000B3E013961C921E92129714964D935D93C9
:104A30006D937C9317978CE191E011969C938E93E4
:104A4000EAE1F4E01382128220E830E03583248327
:104A500080E290E0978386833187208793878287DF
:104A6000158A158614861786168681E0848B2FEFAB
:104A70003FEF338B228B318B208B868B178A118EE5
:104A8000108E8EE291E091838083138E128EB58F0B
:104A9000A48F178E168E8FEF83A384A385A386A37E
:104AA00084E087A380E584AB15AAA7E0B4E089E0A1
:104AB00015968C93159786E116968C931697EAE4D3
:104AC000F6E0E4911796EC931797E6E3F6E0E491AD
:104AD0001896EC93189740E85EE360E070E01D964E
:104AE0004D935D936D937C9350970895EF920F9340
:104AF0001F93CF93DF93E80147FD02C034E001C06C
:104B000034E1042E000C550B57FF03C0519541951D
:104B10005109E32E022F242FAE010E94C725CE019A
:104B2000DF91CF911F910F91EF900895BB272A300D
:104B300051F4992342F4BDE290958095709561956A
:104B40007F4F8F4F9F4F0C94A625BB27FA01A62FAE
:104B50006217710581059105330B30FB66F0AA27BA
:104B6000660F771F881F991FAA1FA21710F0A21B9C
:104B700063953850A9F7A05DAA3308F0A95DA19309
:104B800036F7B111B1931082CA010C94F927A9E04C
:104B9000B0E0EDECF5E20C9439296A01122FB02E49
:104BA0002BE3201720F0FF24F394F00E02C02CE337
:104BB000F22E0F2D27E0AE014F5F5F4F0E9421279D
:104BC000BC014981842F8970813031F0E1FC06C03D
:104BD000E0FE06C090E205C09DE203C09BE201C07A
:104BE00090E05E2D507143FF3CC0911102C083E004
:104BF00001C084E0811718F4212F281B01C020E098
:104C000051110BC0F601822F30E2882319F0319345
:104C10008150FBCFC20ED11C20E0992329F0D60190
:104C20009C93F60131966F01C6010396E2FE0AC01D
:104C30003EE4D6013C9341E411964C9311971296B1
:104C40003C9306C03EE6F601308341E64183328361
:104C5000FC01322F40E2332309F442C0419331502A
:104C6000FACF42FF44C0911102C083E001C084E04A
:104C7000811718F4212F281B01C020E051110BC00F
:104C8000F601822F30E2882319F031938150FBCF57
:104C9000C20ED11C20E0992329F0D6019C93F60185
:104CA00031966F01C6010396E2FE0BC039E4D601CE
:104CB0003C933EE411963C93119736E412963C9354
:104CC00007C039E6F60130833EE6318336E63283AB
:104CD000FC01322F40E2332319F041933150FBCFD6
:104CE000FC01E20FF11D10828EEF9FEFA6C021E0C4
:104CF00030E0911102C020E030E0161617061CF4D7
:104D0000FB01319602C0E1E0F0E02E0F3F1FBB2017
:104D100021F0EB2DF0E0319602C0E0E0F0E02E0F44
:104D20003F1FE12FF0E02E173F071CF4121B212F2D
:104D300001C020E08E2D887159F4F601822F30E2F7
:104D4000882319F031938150FBCFC20ED11C20E093
:104D5000992329F0D6019C93F60131966F015111E8
:104D60000BC0F601822F90E3882319F091938150B4
:104D7000FBCFC20ED11C20E00F2D060F9A81342FDD
:104D8000307144FF03C0913309F40150101624F42C
:104D9000093018F008E001C001E0AB0177FF02C064
:104DA00040E050E0FB01E41BF50BA1E0B0E0AC0FEC
:104DB000BD1FEA0FFB1F8EE2A82E4B01801A91083F
:104DC0000B2D10E01195019511094F3FBFEF5B07C7
:104DD00021F4D601AC9211966D01641775072CF081
:104DE0008416950614F4818101C080E34150510975
:104DF0003196D60111967D014017510724F0D60156
:104E00008C936701E2CF6417750739F4963320F469
:104E1000953319F4311101C081E3F6018083F70164
:104E2000822F90E2882319F091938150FBCFF701F4
:104E3000E20FF11D108280E090E02996ECE00C94E6
:104E40005529283008F027E03327DA01990F311D62
:104E500087FD916000966105710539F432602E5F1F
:104E60003D9330E32A95E1F708959F3F30F0803875
:104E70007105610509F03C5F3C5F3D93913008F09E
:104E80008068911DDF93CF931F930F93FF92EF9252
:104E9000192F987F9695E92F96959695E90FFF27FC
:104EA000EE53FF4F99273327EE24FF24A701E70194
:104EB00005900894079428F4360FE71EF81E491F42
:104EC000511D660F771F881F991F0694A1F7059043
:104ED000079428F4E70EF81E491F561FC11D770FCF
:104EE000881F991F661F0694A1F70590079428F460
:104EF000F80E491F561FC71FD11D880F991F661F27
:104F0000771F0694A1F70590079420F4490F561FC8
:104F1000C71FD81F990F661F771F881F0694A9F710
:104F200084911095177041F0D695C7955795479580
:104F3000F794E7941A95C1F7E8E6F0E068941590C5
:104F4000159135916591959105907FE27395E118E2
:104F5000F10A430B560BC90BD009C0F7E10CF11E47
:104F6000431F561FC91FD01D7EF4703311F48A955C
:104F7000E6CFE894015030F0080F0AF4002702173A
:104F800008F4202F2395022F7A3328F079E37D93BC
:104F90002A95E9F710C07D932A9589F6069497958E
:104FA0006795379517951794E118F10A430B560B3F
:104FB000C90BD00998F023957E9173957A3308F048
:104FC00070E37C932013B8F77E9170617D9330F08D
:104FD000839571E37D9370E32A95E1F71124EF90B7
:104FE000FF900F911F91CF91DF91992787FD9095A9
:104FF0000895DC01FC01672F71917723E1F7329767
:1050000004C07C916D9370836291AE17BF07C8F3A3
:105010000895E89409C097FB3EF4909580957095AB
:1050200061957F4F8F4F9F4F9923A9F0F92F96E9F4
:10503000BB279395F695879577956795B795F11169
:10504000F8CFFAF4BB0F11F460FF1BC06F5F7F4F06
:105050008F4F9F4F16C0882311F096E911C0772318
:1050600021F09EE8872F762F05C0662371F096E821
:10507000862F70E060E02AF09A95660F771F881FF0
:10508000DAF7880F9695879597F90895990F000894
:10509000550FAA0BE0E8FEEF16161706E807F9070A
:1050A000C0F012161306E407F50798F0621B730BA5
:1050B000840B950B39F40A2661F0232B242B252B26
:1050C00021F408950A2609F4A140A6958FEF811DC9
:1050D000811D08950E947D280C94EE280E94E028EE
:1050E00038F00E94E72820F0952311F00C94D7287F
:1050F0000C94DD2811240C9422290E94FF2870F3BF
:10510000959FC1F3950F50E0551F629FF001729F6C
:10511000BB27F00DB11D639FAA27F00DB11DAA1F7B
:10512000649F6627B00DA11D661F829F2227B00DC8
:10513000A11D621F739FB00DA11D621F839FA00D53
:10514000611D221F749F3327A00D611D231F849FA3
:10515000600D211D822F762F6A2F11249F575040FA
:105160009AF0F1F088234AF0EE0FFF1FBB1F661F75
:10517000771F881F91505040A9F79E3F510580F03E
:105180000C94D7280C9422295F3FE4F3983ED4F383
:10519000869577956795B795F795E7959F5FC1F7E2
:1051A000FE2B880F911D9695879597F9089597F98D
:1051B0009F6780E870E060E008959FEF80EC0895BD
:1051C00000240A94161617061806090608950024E6
:1051D0000A9412161306140605060895092E039460
:1051E000000C11F4882352F0BB0F40F4BF2B11F4D4
:1051F00060FF04C06F5F7F4F8F4F9F4F089557FD33
:105200009058440F551F59F05F3F71F04795880F34
:1052100097FB991F61F09F3F79F0879508951216CB
:1052200013061406551FF2CF4695F1DF08C0161677
:1052300017061806991FF1CF869571056105089428
:105240000895E894BB2766277727CB0197F908953F
:105250000E946A29A59F900DB49F900DA49F800D78
:10526000911D112408952F923F924F925F926F9259
:105270007F928F929F92AF92BF92CF92DF92EF92E6
:10528000FF920F931F93CF93DF93CDB7DEB7CA1B67
:10529000DB0B0FB6F894DEBF0FBECDBF09942A8892
:1052A000398848885F846E847D848C849B84AA843A
:1052B000B984C884DF80EE80FD800C811B81AA81C7
:1052C000B981CE0FD11D0FB6F894DEBF0FBECDBF92
:1052D000ED010895A29FB001B39FC001A39F700D7F
:1052E000811D1124911DB29F700D811D1124911DEE
:1052F0000895DB018F939F930E942829BF91AF915E
:10530000A29F800D911DA39F900DB29F900D11241F
:105310000895A1E21A2EAA1BBB1BFD010DC0AA1FF6
:10532000BB1FEE1FFF1FA217B307E407F50720F00E
:10533000A21BB30BE40BF50B661F771F881F991F89
:105340001A9469F760957095809590959B01AC01D2
:10535000BD01CF010895B7FF0C9428290E94282988
:10536000821B930B0895DF93CF931F930F939A9D06
:10537000F02D219FF00D8B9DF00D8A9DE02DF10DFC
:10538000039FF00D029FE00DF11D4E9DE00DF11DFC
:105390005E9DF00D4F9DF00D7F936F93BF92AF9286
:1053A0005F934F93D5010E946A298B01AC01D7010D
:1053B0000E946A29EB01E80FF91FD6010E94032A17
:1053C0002F913F91D6010E946A29C60FD71FE81F6F
:1053D000F91FAF91BF910E94032A2F913F910E9424
:1053E0006A29C60FD71FE81FF91FD6010E946A2934
:1053F000E60FF71F9801BE01CF0111240F911F91F5
:10540000CF91DF9108950E946A29460F571FC81F48
:10541000D91F08F431960895689401C0E894F92FD3
:10542000F12B12F00C94402AA0E0B0E0EAE1FAE29D
:105430000C943929092E059422F40E949C2A1123E8
:1054400092F4F0E80F26FFEFE094F09400951095A9
:10545000B094C094D094A194BF0ACF0ADF0AEF0A97
:10546000FF0A0F0B1F0B0E944B2A07FC0E949C2A6D
:10547000CDB7DEB7ECE00C945529689401C0E894F0
:105480008F929F92CF93DF930E944B2ADF91CF910F
:105490009F908F90089588249924F401E401B0E44A
:1054A0009F93AA279A158B049C04ED05FE05CF0552
:1054B000D007A10798F4AD2FDC2FCF2FFE2FE92DB9
:1054C000982C892E982F872F762F652F542F432FB6
:1054D000322F2227B85031F7BF9127C01B2EBF9122
:1054E000BB27220F331F441F551F661F771F881FBE
:1054F000991F881C991CEE1FFF1FCC1FDD1FAA1FC0
:10550000BB1F8A149B04EC05FD05CE05DF05A00733
:10551000B10748F08A189B08EC09FD09CE09DF099C
:10552000A00BB10B21601A94E1F62EF49401AF01A7
:10553000BE01CD01000C0895609570958095909501
:1055400030954095509521953F4F4F4F5F4F6F4F8E
:105550007F4F8F4F9F4F08950F93083090F0982FF3
:10556000872F762F652F542F432F322F2227085055
:10557000F4CF220F331F441F551F661F771F881F4C
:10558000991F0A95B2F70F91089597FB10F816949A
:1055900000080F93083098F00850232F342F452F20
:1055A000562F672F782F892F902DF4CF059497953C
:1055B00087957795679557954795379527950A95D8
:1055C000AAF70F9108952A0D3B1D4C1D5D1D6E1D00
:1055D0007F1D801F911F08952A193B094C095D0901
:1055E0006E097F09800B910B08950024A7FD00949C
:1055F0002A173005400550056005700580059005A7
:105600000895EE0FFF1F0590F491E02D0994505876
:10561000BB27AA270E941F2B0C94EE280E94E0288B
:1056200038F00E94E72820F039F49F3F19F426F45F
:105630000C94DD280EF4E095E7FB0C94D728E92FB5
:105640000E94FF2858F3BA1762077307840795076B
:1056500020F079F4A6F50C9421290EF4E0950B2E98
:10566000BA2FA02D0B01B90190010C01CA01A001B4
:105670001124FF27591B99F0593F50F4503E68F10F
:105680001A16F040A22F232F342F4427585FF3CF50
:10569000469537952795A795F0405395C9F77EF421
:1056A0001F16BA0B620B730B840BBAF09150A1F06A
:1056B000FF0FBB1F661F771F881FC2F70EC0BA0FF0
:1056C000621F731F841F48F4879577956795B79578
:1056D000F7959E3F08F0B0CF9395880F08F0992773
:1056E000EE0F9795879508950E94882B0C94EE28CD
:1056F0000E94E72858F00E94E02840F029F45F3F1C
:1057000029F00C94D72851110C9422290C94DD28EF
:105710000E94FF2868F39923B1F3552391F3951B59
:10572000550BBB27AA2762177307840738F09F5FC2
:105730005F4F220F331F441FAA1FA9F335D00E2E2F
:105740003AF0E0E832D091505040E695001CCAF79C
:105750002BD0FE2F29D0660F771F881FBB1F26175F
:1057600037074807AB07B0E809F0BB0B802DBF0136
:10577000FF2793585F4F3AF09E3F510578F00C9405
:10578000D7280C9422295F3FE4F3983ED4F3869502
:1057900077956795B795F7959F5FC9F7880F911D26
:1057A0009695879597F90895E1E0660F771F881F12
:1057B000BB1F621773078407BA0720F0621B730BC5
:1057C000840BBA0BEE1F88F7E09508950E94072915
:1057D00088F09F5798F0B92F9927B751B0F0E1F0B2
:1057E000660F771F881F991F1AF0BA95C9F714C062
:1057F000B13091F00E942129B1E008950C94212943
:10580000672F782F8827B85F39F0B93FCCF386959A
:1058100077956795B395D9F73EF4909580957095F7
:1058200061957F4F8F4F9F4F08950E944628880BA8
:10583000990B08950F931F93CF93DF9382309105B7
:1058400010F482E090E0E0916304F091640420E0C1
:1058500030E0A0E0B0E0309719F140815181028141
:10586000138148175907C8F08417950769F41097F2
:1058700031F012960C93129713961C9327C0009345
:1058800063041093640422C02115310519F04217F6
:10589000530718F49A01BD01EF01DF01F801DBCFD6
:1058A00021153105F9F0281B390B2430310580F41E
:1058B0008A819B816115710521F0FB0193838283AD
:1058C00004C09093640480936304FE01329644C044
:1058D000FE01E20FF31F8193919322503109398326
:1058E00028833AC02091610430916204232B41F453
:1058F00020910201309103013093620420936104EE
:1059000020910001309101012115310541F42DB79D
:105910003EB74091040150910501241B350BE091E5
:105920006104F0916204E217F307A0F42E1B3F0B11
:105930002817390778F0AC014E5F5F4F2417350701
:1059400048F04E0F5F1F50936204409361048193AF
:10595000919302C0E0E0F0E0CF01DF91CF911F9181
:105960000F910895CF93DF93009709F481C0FC0154
:10597000329713821282A0916304B091640410974D
:1059800081F420813181820F931F20916104309135
:1059900062042817390751F5F0936204E09361041B
:1059A00067C0ED0120E030E0CE17DF0740F44A8108
:1059B0005B819E0141155105F1F0EA01F5CFD383DA
:1059C000C28340815181840F951FC817D90759F4AC
:1059D00088819981840F951F0296918380838A81A3
:1059E0009B81938382832115310529F4F09364040C
:1059F000E09363043DC0E901FB83EA834991599137
:105A0000C40FD51FEC17FD0761F480819181840FCD
:105A1000951F0296E90199838883828193819B83F4
:105A20008A83E0E0F0E012968D919C9113970097A5
:105A300019F0FD01DC01F7CF8D919C9111979D012B
:105A40002E5F3F4F820F931F2091610430916204BB
:105A50002817390769F4309729F4109264041092DA
:105A6000630402C013821282B0936204A0936104A3
:105A7000DF91CF910895A0E0B0E0E1E4FDE20C9465
:105A80003729EC01009721F4CB010E941A2CB4C0F5
:105A9000FC01E60FF71F9C0122503109E217F307C2
:105AA00008F4A8C0D9010D911C911197061717078A
:105AB000B0F00530110508F49BC0C80104978617A3
:105AC000970708F495C002501109061B170B0193A4
:105AD00011936D937C93CF010E94B22C89C05B011E
