:100000000C94C9050C94F1050C94F1050C94F105C0
:100010000C94F1050C94F1050C94F1050C94F10588
:100020000C94F1050C94F1050C94F1050C94F10578
:100030000C94F1050C94F1050C94F1050C94F10568
:100040000C941A1C0C94F1050C943E0D0C94180D94
:100050000C94F1050C94F1050C94F1050C94F10548
:100060000C947B0D0C94F10500407A10F35A00A01B
:10007000724E18090010A5D4E80000E87648170071
:1000800000E40B54020000CA9A3B000000E1F505B1
:10009000000080969800000040420F000000A086FB
:1000A00001000000102700000000E803000000002D
:1000B0006400000000000A000000000001000000D1
:1000C00000002C76D888DC674F0823DFC1DFAE59EB
:1000D000E1B1B796E5E3E453C63AE651997696E87E
:1000E000E6C28426EB898C9B62ED407C6FFCEFBC02
:1000F0009C9F40F2BAA56FA5F490055A2AF75C932D
:100100006B6CF9676DC11BFCE0E40D47FEF520E662
:10011000B500D0ED902E0300943577050080841E45
:10012000080000204E0A000000C80C333333330FA0
:10013000986E12831141EF8D2114893BE65516CF3D
:10014000FEE6DB18D1844B381BF77C1D901DA4BB49
:10015000E424203284725E228100C9F124ECA1E5FE
:100160003D27DB40A4A62EAFDA0281DA1281DA0243
:10017000818F2000A1C8D300408DAED580A800009B
:10018000600000000000000000000000000000E02F
:100190000000000000000000000000000001E0007E
:1001A00000000000000000000000000001F000005E
:1001B000000000000000000000000003F00000004C
:1001C0000000000000000000000007F00000000038
:1001D00000000000000000000007F8000000000020
:1001E00000000000000000000FF800000003C00045
:1001F0007E000001E0007F0FF800000003C000FE59
:10020000000001E000FFEFF800000003C000FE0066
:100210000001E000FFFFF800000003C000F0000054
:10022000000F007FFE7FC0000003C000F000000050
:100230000F003FFE7FF83FF1FBCFFCFEF3BC3DEF2C
:10024000E01FFE7FFF7FFBFFDFFEFEFFBC3DEFE018
:100250001FC6FFFF7FFBFFDFFEFEFFBC3DEFE00F91
:10026000E3C7FE787BC3DE1EF0FFBC3DEF0007FF57
:1002700087FC787BC3DE1EF0F83C3DEF0001FFFFFA
:10028000F0007BC3C01EF0F03C3DEF0001F37FE0C7
:100290003FFBC3CFFEF0F03C3DEF0003E33F807F28
:1002A000FBC3DFFEF0F03C3DEF0007E73C00787B4E
:1002B000C3DE1EF0F03C3DEF0007FFBE00787BC3BD
:1002C000DE1EF0F03C3DEF0007FFFE00787BC3DE52
:1002D0001EF0F03C3DEF000FFFFE007FFBFFDFFE56
:1002E000F0F03FFDEFE00FFFFF007FFBFFDFFEF0D0
:1002F000F03FFDEFE00FF9FF003E79F9CF9EF0F0FF
:100300001F3DE7E01FF1FF000000000000000000BB
:100310000000001F80FF007FFFFFFFFFFFFFFFFFC8
:10032000FFE01C007F007FFFFFFFFEB46D888D188B
:10033000E000001F007FFFFFFFFE95AD7DB577E079
:1003400000000F007FFFFFFFFEA5AD9D8D19E000AF
:100350000006007FFFFFFFFEB5ADEDB57EE00000BB
:100360000000000180000000000000000000038089
:1003700000000000000000000007C00000000000B6
:100380000000000007C00000000000000000000F97
:10039000C00000000000000000001FE0000000009E
:1003A00000000000001FE00000000000000000004E
:1003B0003FE00000000000000000003FF0000000EF
:1003C0000000000000007FF0000000000000001F9F
:1003D000F87FF0000000000000003FFE7FF000000A
:1003E00000000000003FFF7FF00000000000000060
:1003F0001FFFFBE0000000000000000FFFF9FFC03E
:100400000000000000000FFFF9FFF80000000000EE
:100410000007FFF1FFFF00000000000003FC73FF76
:10042000FF80000000000001FE3FFFFF8000000091
:10043000000000FF1E0FFF000000000000007FFE14
:100440001FFC000000000000003FFFFFF80000005C
:10045000000000000FDFFFE0000000000000001FB0
:1004600019FFC0000000000000003F3CFF0000003A
:1004700000000000007E7CF800000000000000008A
:100480007FFE7C0000000000000000FFFFFC000079
:10049000000000000000FFFFFE0000000000000060
:1004A00000FFFFFE0000000000000001FFEFFE0063
:1004B00000000000000001FFCFFE0000000000006F
:1004C0000003FF07FE0000000000000003FC07FE21
:1004D0000000000000000003F003FE000000000028
:1004E0000000018000FE000000000000000000008D
:1004F0007E000000000000000000003E0000000040
:100500000000000000000C00000000000007800058
:10051000FC000003C0000000078001FC000003C0D5
:10052000000000078001FC000003C00000000780FD
:1005300001E00000001E000000078001E000000054
:100540001E007FE3F79FF9FDE7787BDFC0FFF7FF31
:10055000BFFDFDFF787BDFC0FFF7FFBFFDFDFF782C
:100560007BDFC0F0F787BC3DE1FF787BDE00F0F772
:1005700087BC3DE1F0787BDE0000F787803DE1E05D
:10058000787BDE007FF7879FFDE1E0787BDE00FF70
:10059000F787BFFDE1E0787BDE00F0F787BC3DE147
:1005A000E0787BDE00F0F787BC3DE1E0787BDE00A1
:1005B000F0F787BC3DE1E0787BDE00FFF7FFBFFD91
:1005C000E1E07FFBDFC0FFF7FFBFFDE1E07FFBDF86
:1005D000C07CF3F39F3DE1E03E7BCFC00000000014
:1005E00000000000000000FFFFFFFFFFFFFFFFFF14
:1005F000FFC0FFFFFFFFFD68DB111A31C0FFFFFFE7
:10060000FFFD2B5AFB6AEFC0FFFFFFFFFD4B5B3B7B
:100610001A33C0FFFFFFFFFD6B5BDB6AFDC000000C
:100620000000240027002A00000000002500280008
:100630002B00000000080002010000030407000076
:10064000000000000000000103070F1F3F7F008033
:10065000C0E0F0F8FCFE00000000003E5B4F5B3E97
:100660003E6B4F6B3E1C3E7C3E1C183C7E3C181C77
:10067000577D571C1C5E7F5E1C00183C1800FFE76E
:10068000C3E7FF0018241800FFE7DBE7FF30483A14
:10069000060E2629792926407F050507407F052576
:1006A0003F5A3CE73C5A7F3E1C1C08081C1C3E7FFE
:1006B00014227F22145F5F005F5F06097F017F00C5
:1006C0006689956A606060606094A2FFA2940804E5
:1006D0007E040810207E201008082A1C08081C2A06
:1006E00008081E101010100C1E0C1E0C30383E385E
:1006F00030060E3E0E06000000000000005F000005
:100700000007000700147F147F14242A7F2A122375
:100710001308646236495620500008070300001C85
:100720002241000041221C002A1C7F1C2A08083E8E
:1007300008080080703000080808080800006060A1
:100740000020100804023E5149453E00427F40000F
:1007500072494949462141494D331814127F1027E7
:10076000454545393C4A4949314121110907364936
:10077000494936464949291E00001400000040340A
:10078000000000081422411414141414004122140F
:100790000802015909063E415D594E7C1211127C36
:1007A0007F494949363E414141227F4141413E7F97
:1007B000494949417F090909013E414151737F0877
:1007C00008087F00417F41002040413F017F08141D
:1007D00022417F404040407F021C027F7F0408107E
:1007E0007F3E4141413E7F090909063E4151215E5C
:1007F0007F09192946264949493203017F01033FF0
:100800004040403F1F2040201F3F4038403F63147E
:1008100008146303047804036159494D43007F4180
:1008200041410204081020004141417F04020102BD
:1008300004404040404000030708002054547840E2
:100840007F284444383844444428384444287F3876
:100850005454541800087E090218A4A49C787F08F8
:1008600004047800447D40002040403D007F102873
:10087000440000417F40007C047804787C08040434
:10088000783844444438FC1824241818242418FCCC
:100890007C08040408485454542404043F44243C71
:1008A0004040207C1C2040201C3C4030403C4428E0
:1008B0001028444C9090907C4464544C440008367A
:1008C00041000000770000004136080002010204E8
:1008D000023C2623263C1EA1A161123A4040207A08
:1008E0003854545559215555794122545478422150
:1008F0005554784020545579400C1E527212395587
:100900005555593954545459395554545800004583
:100910007C410002457D420001457C407D12111260
:100920007DF0282528F07C545545002054547C54F3
:100930007C0A097F4932494949323A4444443A32AF
:100940004A4848303A4141217A3A42402078009D55
:10095000A0A07D3D4242423D3D4040403D3C24FF01
:100960002424487E4943662B2FFC2F2BFF0929F6B0
:1009700020C0887E090320545479410000447D4101
:100980003048484A32384040227A007A0A0A727D5A
:100990000D19317D2629292F282629292926304875
:1009A0004D4020380808080808080808382F10C8E3
:1009B000ACBA2F102834FA00007B000008142A1467
:1009C0002222142A14085500550055AA55AA55AAE2
:1009D000FF55FF55FF000000FF00101010FF00142E
:1009E0001414FF001010FF00FF1010F010F014148A
:1009F00014FC001414F700FF0000FF00FF1414F4AF
:100A000004FC141417101F10101F101F1414141FAF
:100A100000101010F0000000001F101010101F1028
:100A2000101010F010000000FF1010101010101027
:100A30001010FF10000000FF140000FF00FF000076
:100A40001F10170000FC04F414141710171414F4EA
:100A500004F40000FF00F714141414141414F70025
:100A6000F7141414171410101F101F141414F41476
:100A70001010F010F000001F101F0000001F1400E5
:100A80000000FC140000F010F01010FF10FF141410
:100A900014FF141010101F00000000F010FFFFFFE3
:100AA000FFFFF0F0F0F0F0FFFFFF0000000000FF9C
:100AB000FF0F0F0F0F0F3844443844FC4A4A4A34A2
:100AC0007E02020606027E027E02635549416338B9
:100AD00044443C04407E201E2006027E020299A56A
:100AE000E7A5991C2A492A1C4C7201724C304A4DC8
:100AF0004D303048784830BC625A463D3E494949FD
:100B0000007E0101017E2A2A2A2A2A44445F4444A5
:100B100040514A444040444A51400000FF0103E034
:100B200080FF000008086B6B083612362436060F6B
:100B3000090F06000018180000001010003040FFD8
:100B40000101001F01011E00191D1712003C3C3C51
:100B50003C000000000000000000230026002900E7
:100B60002200FF210004040404040404040202021D
:100B700002020203030303030301020408102040DE
:100B8000800102040810200102040810200004253E
:100B9000641C11241FBECFEFD8E0DEBFCDBF24E020
:100BA000A6E7B2E001C01D92A735B207E1F712E057
:100BB000A0E0B1E0E8E2FCE502C005900D92A637A6
:100BC000B107D9F715E0C8ECD5E004C02197FE01C4
:100BD0000E94E62AC73CD107C9F70E94731C0C94F7
:100BE000072E0C940000CF92DF92EF92FF920F93AA
:100BF0001F93CF93DF936C017A018B01C0E0D0E0AB
:100C0000CE15DF0581F0D8016D918D01D601ED91F2
:100C1000FC910190F081E02DC6010995892B11F01E
:100C20002196EECF7E01C701DF91CF911F910F91E9
:100C3000FF90EF90DF90CF900895FC01538D448D8D
:100C4000252F30E0842F90E0821B930B541710F077
:100C5000CF96089501970895FC01918D828D981784
:100C600061F0828DDF01A80FB11D5D968C91928D90
:100C70009F5F9F73928F90E008958FEF9FEF08958D
:100C8000FC01918D828D981731F0828DE80FF11D56
:100C9000858D90E008958FEF9FEF0895FC01918D71
:100CA000228D892F90E0805C9F4F821B91098F736A
:100CB0009927089584E593E00E944E0621E0892B50
:100CC00009F420E0822F0895FC01848DDF01A80F34
:100CD000B11DA35ABF4F2C91848D90E001968F7364
:100CE0009927848FA689B7892C93A089B1898C9183
:100CF000837080648C93938D848D981306C00288D2
:100D0000F389E02D80818F7D80830895EF92FF929B
:100D10000F931F93CF93DF93EC0181E0888F9B8D1E
:100D20008C8D981305C0E889F989808185FD26C0DE
:100D3000F62E0B8D10E00F5F1F4F0F731127E02E63
:100D40008C8DE8120CC00FB607FCFACFE889F98940
:100D5000808185FFF5CFCE010E946406F1CF8B8D97
:100D6000FE01E80FF11DE35AFF4FF0829FB7F894A0
:100D70000B8FEA89FB89808180620AC09FB7F89453
:100D8000EE89FF896083E889F989808183708064B6
:100D900080839FBF81E090E0DF91CF911F910F9101
:100DA000FF90EF900895CF93DF93EC01888D882317
:100DB000C9F0EA89FB89808185FD05C0A889B989C8
:100DC0008C9186FD0FC00FB607FCF5CF808185FFA3
:100DD000F2CFA889B9898C9185FFEDCFCE010E9411
:100DE0006406E7CFDF91CF91089580E090E0892BF2
:100DF00029F00E945A0681110C9400000895FC010C
:100E000077FDB9C080859185681779070CF0B3C06C
:100E100057FDB1C082859385481759070CF0089596
:100E20008589823079F484819581DC01A61BB70B1A
:100E3000BD016150710986819781DC01A41BB50B4E
:100E4000AD010EC0833009F084C064277527CA0144
:100E5000862797276827792746815781481B590B92
:100E6000415051092130310531F048F1223031052E
:100E700009F44AC00895CA0157FD07969C01A3E0F2
:100E800035952795AA95E1F7A481B5812A9FC001E0
:100E90002B9F900D3A9F900D1124680F791F068C9F
:100EA000F78DE02DE60FF71F4770552781E090E0A2
:100EB00001C0880F4A95EAF79081892B48C0CA0182
:100EC00057FD07969C0193E0359527959A95E1F794
:100ED000A481B5812A9FC0012B9F900D3A9F900D50
:100EE0001124680F791F068CF78DE02DE60FF71F90
:100EF0004770552781E090E001C0880F4A95EAF7D6
:100F000080959081892323C0CA0157FD07969C01D3
:100F100083E0359527958A95E1F7A481B5812A9FCD
:100F2000C0012B9F900D3A9F900D1124680F791FDF
:100F3000068CF78DE02DE60FF71F4770552781E0EF
:100F400090E001C0880F4A95EAF790818927808355
:100F50000895813009F086CF6427752746275727E3
:100F60006427752784819581DC01A61BB70BBD0121
:100F70006150710977CF08950895FC016370658B06
:100F80008481958126813781613039F0633029F081
:100F900091878087338722870895318720879387B9
:100FA000828708956F927F928F929F92AF92BF92A5
:100FB000CF92DF92EF92FF920F931F93CF93DF9325
:100FC000EC014B015A0169013801E881F981028481
:100FD000F385E02D0995E881F9810288F389E02DF8
:100FE00087019601A501B401CE010995A501460D21
:100FF000571D41505109E881F9810288F389E02D9C
:101000009601B401CE010995E881F9810088F18942
:10101000E02D9301A501B401CE010995C80CD91C9E
:10102000B60161507109E881F9810088F189E02DEC
:101030009301A501CE010995E881F9810688F78918
:10104000E02DCE01DF91CF911F910F91FF90EF9096
:10105000DF90CF90BF90AF909F908F907F906F90D8
:1010600009948F929F92AF92BF92CF92DF92EF92AC
:10107000FF920F931F93CF93DF934C016B015A01A3
:10108000E901DC01ED91FC916217730781F404170B
:10109000150724F48B2D5801042F182F0A191B094A
:1010A00098012F5F3F4F048CF58DE02D12C0401743
:1010B000510709F52617370724F48D2D6901C62F2E
:1010C000D82F9E012C193D092F5F3F4F068CF78DBD
:1010D000E02D8701A501B601C4010995DF91CF91EB
:1010E0001F910F91FF90EF90DF90CF90BF90AF9046
:1010F0009F908F9008950284F385E02D0995D40187
:10110000ED91FC910488F589E02D9E01A501B601C1
:10111000C4010995D401ED91FC910688F789E02D71
:10112000C401DF91CF911F910F91FF90EF90DF905D
:10113000CF90BF90AF909F908F900994EF92FF92C5
:101140000F931F93DC011A960D911C911B97189613
:101150002D913C911997ED91FC9100A0F1A1E02D0A
:101160007B0140E050E060E070E009951F910F9135
:10117000FF90EF9008954F925F926F927F928F92BF
:101180009F92AF92BF92CF92DF92EF92FF920F9316
:101190001F93CF93DF936C012B015A013901480152
:1011A000DC01ED91FC910284F385E02D0995E201CB
:1011B000640C751CD601ED91FC91C615D7055CF445
:1011C0000088F189E02D87019401A501BE01C601C7
:1011D00009952196EFCF0688F789E02DC601DF91AA
:1011E000CF911F910F91FF90EF90DF90CF90BF9024
:1011F000AF909F908F907F906F905F904F900994E9
:101200008F929F92AF92BF92CF92DF92EF92FF9216
:101210000F931F93CF93DF93EC015B014A016901A8
:10122000E881F9810284F385E02D099595012C0D63
:101230003D1D21503109E881F9810488F589E02DAF
:1012400078018401A401B501CE010995E881F981F5
:101250000688F789E02DCE01DF91CF911F910F9184
:10126000FF90EF90DF90CF90BF90AF909F908F90C6
:1012700009948F929F92AF92BF92CF92DF92EF929A
:10128000FF920F931F93CF93DF93EC015B014A0111
:1012900069017801E881F9810284F385E02D0995DF
:1012A000C80CD91C860101501109E881F981048814
:1012B000F589E02D9501A401B501CE010995E881DC
:1012C000F9810688F789E02DCE01DF91CF911F913A
:1012D0000F91FF90EF90DF90CF90BF90AF909F90D5
:1012E0008F9009940895EF92FF920F931F93DC0162
:1012F000ED91FC9100A0F1A1E02D09951F910F91B6
:10130000FF90EF9008950F931F93DC01ED91FC91F6
:10131000068CF78DE02D09951F910F9108950F937D
:101320001F93DC01ED91FC91048CF58DE02D099566
:101330001F910F910895DC01ED91FC910084F185DE
:10134000E02D09942F923F924F925F926F927F927D
:101350008F929F92AF92BF92CF92DF92EF92FF92C5
:101360000F931F93CF93DF9300D000D000D0CDB761
:10137000DEB72C017E836D836A015901C801FC82AE
:10138000EB824801841A950A97FE03C091948194D8
:10139000910835012D813E81621A730A77FE03C0E0
:1013A000719461947108681479045CF43A2D2B2DC2
:1013B0005C01832F922F3D812E81DE82CD82C32E50
:1013C000D22EAD81BE81AA16BB065CF43C2D2D2D1C
:1013D0006C01832F922F3D812E81BE82AD82A32E80
:1013E000B22E85012D813E81021B130B1C012C188E
:1013F0003D0837FE03C0319421943108780117FF6E
:1014000003C03FEFE31AF30AF594E794C816D90630
:101410002CF08FEF9FEF9A83898304C0A1E0B0E0A6
:10142000BA83A9832D813E81A216B30624F1D2018D
:10143000ED91FC910484F585E02D2B813C816814AD
:10144000790424F44D815E81B60103C0A6016D814B
:101450007E81C2010995E218F308F7FE06C02981D2
:101460003A81C20ED31EE00EF11E8D819E8101963F
:101470009E838D83D7CF26960FB6F894DEBF0FBE1E
:10148000CDBFDF91CF911F910F91FF90EF90DF9033
:10149000CF90BF90AF909F908F907F906F905F9014
:1014A0004F903F902F90089585ED8093BC008091E0
:1014B000BC0084FDFCCF1092310308954091BC0222
:1014C000262F30E0240F311D21323105DCF420912C
:1014D00031032430C9F4FC0180E090E0861758F411
:1014E0003091BC022191DC01A656BD4FA30FB11D66
:1014F0002C930196F3CF8091BC02680F6093BC02DD
:1015000080E0089581E0089582E0089508950895A7
:10151000E091330380913203E81730F4F0E0EC5CA3
:10152000FC4F808190E008958FEF9FEF0895909198
:10153000330380913203981750F4E92FF0E0EC5C0C
:10154000FC4F208130E09F5F9093330302C02FEF68
:101550003FEFC90108958091320390E02091330359
:10156000821B91090895CF92DF92EF92FF920F9321
:101570001F93CF93DF937C01CB018A0120919702C7
:10158000222389F0EB016B01C40ED51ECC15DD05BD
:1015900069F06991D701ED91FC910190F081E02D06
:1015A000C7010995F3CF642F0E945E0AC801DF913D
:1015B000CF911F910F91FF90EF90DF90CF90089502
:1015C000CF93DF931F92CDB7DEB769832091970247
:1015D0002223D1F020919802203240F021E030E027
:1015E000FC013383228380E090E015C08091990252
:1015F000E82FF0E0E958FD4F998190838F5F809349
:1016000099028093980205C061E0CE0101960E9484
:101610005E0A81E090E00F90DF91CF9108950895E8
:1016200080E090E008950E94EB2D0F931F93CF93DD
:10163000DF93DC015596EC915597E23071F0E33081
:10164000E9F0E13079F5FB0114960D90BC91A02DE5
:10165000A41BB50BA21BB30B18C0EC01EC81FD81E0
:10166000E61BF70BBF0161507109EE81FF81DF01BD
:10167000A41BB50BAD01421B530B14C0DA01EC01E6
:10168000EE81FF81E61BF70B3197F7FD0DC0EC01F2
:101690004E815F81E417F5073CF4AF01BD010E9464
:1016A000F91402C00E946015DF91CF911F910F9134
:1016B00008950F931F93DC015596EC915597E230F6
:1016C00061F0E33009F1E13081F51496ED91FC9180
:1016D0001597E41BF50B319723C0DC011496ED91AF
:1016E000FC911597DF01A61BB70BBD01DC01169617
:1016F000ED91FC911797DF01A41BB50BAD01415093
:101700005109621B730B11C0FA01DC0116964D9151
:101710005C911797DA01A61BB70BBD01621B730B17
:10172000AB01BF010E9460150CC057FD0AC0DC016F
:101730001696ED91FC9117974E175F0714F40E94CF
:10174000F9141F910F910895AF92BF92CF92EF922B
:10175000FF920F931F93CF93DF93EC01262F888D79
:10176000998D009709F040C06A3059F41D861C8697
:101770002C898E859F8538E0239F800D911D112433
:1017800041C06D3009F4AAC08E898823C1F03C891C
:101790008C859D8546E0349F800D911D11244885E0
:1017A0005985481759075CF41D861C868E859F85D0
:1017B00048E0349F800D911D11249F878E87EA8811
:1017C000FB88088919894E855F856C857D85CC8865
:1017D000CE010E94DF122C898C859D8536E0239FE7
:1017E000800D911D112442C06A3079F41D861C863B
:1017F0002C89FC013696E4918E859F852E9F800D65
:10180000911D11249F878E8769C06D3009F466C0D1
:10181000FC0134963491631708F460C03196E4916A
:10182000E61708F45BC0FC01329665917491422F73
:1018300050E0431B510937E0349F5001359FB00CF5
:101840001124A60EB71EF501329634913196E4911B
:10185000332311F0E1110DC0F5013496E4912C8988
:101860008C859D85E29F800D911D11249D878C871D
:1018700035C0F501359644915E89552311F16C8987
:10188000E32FF0E0E40FF11D47FDFA956E9FD001C4
:101890006F9FB00D11244C855D854A0F5B1FE88555
:1018A000F985E417F5076CF41D861C86FC01369655
:1018B000E4918E859F856E9F800D911D11249F87D9
:1018C0008E87EA88FB88088919894E855F856C8533
:1018D0007D85CC88CE010E94DF12BECF81E090E0F2
:1018E000DF91CF911F910F91FF90EF90CF90BF901C
:1018F000AF9008950F931F93CF93DF93EC018881EE
:101900009981009729F02A813B812617370788F4AF
:101910008B016F5F7F4F0E94252D009761F09983A7
:1019200088831B830A832C813D81232B11F4FC01C6
:10193000108281E001C080E0DF91CF911F910F9173
:101940000895CF93DF93EC0188819981009711F07E
:101950000E949C2C198218821D821C821B821A8272
:10196000DF91CF910895EF92FF920F931F93CF9342
:10197000DF93EC017B018A01BA010E947A0C81118C
:1019800004C0CE010E94A10C07C01D830C83B701C7
:10199000888199810E94002ECE01DF91CF911F9105
:1019A0000F91FF90EF900895FB01DC0111961C92BE
:1019B0001E9213961C921E92129715961C921E92BE
:1019C00014978617970749F0608171816115710539
:1019D00021F0448155810C94B30C0895FC011182CF
:1019E000108213821282158214826115710551F0E2
:1019F000FB0101900020E9F73197AF01461B570B1F
:101A00000C94B30C08956115710579F0FB010190F8
:101A10000020E9F73197AF01461B570BDC01ED9130
:101A2000FC910280F381E02D099480E090E008951C
:101A30001F920F920FB60F9211242F933F934F9343
:101A40005F936F937F938F939F93AF93BF93EF9326
:101A5000FF9384E593E00E946406FF91EF91BF91AC
:101A6000AF919F918F917F916F915F914F913F9136
:101A70002F910F900FBE0F901F9018951F920F92ED
:101A80000FB60F9211242F938F939F93EF93FF9391
:101A9000E0916403F09165038081E0916A03F09125
:101AA0006B0382FD12C0908180916D038F5F8F73F5
:101AB00020916E03821751F0E0916D03F0E0EC5A33
:101AC000FC4F958F80936D0301C08081FF91EF9152
:101AD0009F918F912F910F900FBE0F901F9018958F
:101AE00008958EBD00000DB407FEFDCF8EB508959C
:101AF0008CBD9DBD08951F920F920FB60F921124B9
:101B00002F933F934F935F936F937F938F939F9305
:101B1000AF93BF93EF93FF938091B900887F803696
:101B200009F49CC068F5883209F45BC090F48031F8
:101B300009F454C038F4882309F4F6C0883009F455
:101B40004DC0F6C0883109F44CC0803209F45DC044
:101B5000EFC0803409F468C048F4803309F455C0FC
:101B6000883309F0E5C080932F03D8C0803509F48D
:101B70004FC0883509F45DC0883409F0D9C0D6C09B
:101B8000883909F4C7C0A8F4883709F467C038F465
:101B9000883609F463C0803709F460C0C9C088384A
:101BA00009F4B8C0803909F45FC0803809F0C0C0BA
:101BB0005BC0803B09F486C038F4803A09F466C003
:101BC000883A09F47FC0B4C0803C09F4A7C0883CBF
:101BD00009F4A4C0883B09F48AC0AAC080912C03F0
:101BE00010C090912E0380912D03981770F5E0910D
:101BF0002E0381E08E0F80932E03F0E0E55FFC4F13
:101C000080818093BB0085EC86C080932F038EC0BB
:101C1000E0912E0381E08E0F80932E038091BB0014
:101C2000F0E0E55FFC4F808390912E0380912D03BF
:101C30006EC0E0912E0381E08E0F80932E03809181
:101C4000BB00F0E0E55FFC4F8083809130038111A1
:101C50006DC081E080932B0384EA61C083E08093B0
:101C600031031092E002CFCF8091E002803208F081
:101C700051C0E091E00281E08E0F8093E0028091FC
:101C8000BB00F0E0E054FD4F8083BDCF85EC809336
:101C9000BC00109231038091E002803230F4E09178
:101CA000E002F0E0E054FD4F10826091E00270E04D
:101CB000E091BE02F091BF0280EC92E00995109293
:101CC000E00236C084E0809331031092BD0210928E
:101CD000BC02E091BA02F091BB0209958091BC026E
:101CE000811105C081E08093BC0210929A02E091BC
:101CF000BD0281E08E0F8093BD02F0E0E656FD4FFD
:101D000080818093BB009091BD028091BC029817A6
:101D100008F479CF85E88093BC000AC085EC8093F5
:101D2000BC001092310304C010922F030E94540A89
:101D3000FF91EF91BF91AF919F918F917F916F91A3
:101D40005F914F913F912F910F900FBE0F901F9079
:101D5000189530919802313208F04BC080913103D0
:101D60008111FCCF9091760222E02093310321E093
:101D7000209330032FEF20932F0310922E033093E4
:101D80002D03E7E7F2E0ABE0B3E020E0321721F00B
:101D900041914D932F5FFACF10922C0320912C0389
:101DA000990F922B90932C0390912B03913061F417
:101DB00010922B0390912C039093BB009091BC0048
:101DC00093FDF8CF95EC01C095EE9093BC009091F7
:101DD00031039230E1F390912F039F3F79F080918E
:101DE0002F03803241F080912F03803331F084E063
:101DF00005C081E003C082E001C083E01092990237
:101E00001092980210929702089581E080939702B1
:101E100060937602109299021092980208951F938F
:101E2000CF93DF93FC01848D958D009701F1162FE0
:101E3000EF0160A10E94050F8C8D9D8DDC01ED915D
:101E4000FC910190F081E02D60E009958C8D9D8DD5
:101E5000DC01ED91FC910190F081E02D612F09955D
:101E60008C8D9D8DDF91CF911F910C94A90EA4A50F
:101E7000B5A59C9182A9809589238C93828D938DA1
:101E8000892B31F0862FDF91CF911F910C94710D2A
:101E900028E030E080E8A0A5B1A590A9462F48230E
:101EA00019F04C91942B03C04C91909594239C93E2
:101EB000A2A5B3A54C9191A9942B9C93A2A5B3A5DF
:101EC0004C9191A9909594239C938695215031092A
:101ED00011F7DF91CF911F9108951F93CF93DF9357
:101EE000EC01162F8C8D9D8D892BB1F02EA93FA969
:101EF00048AD59AD60E074E284EF90E00E946E2935
:101F0000DA01C9014097A109B109B695A79597953E
:101F100087958093B8000FC08A8D9B8D892B21F007
:101F20008CA99DA90E94780DEEA5FFA590818BA993
:101F3000809589238083111102C066EA01C067EA97
:101F4000CE010E940F0F8C8D9D8D892BB1F02AAD93
:101F50003BAD4CAD5DAD60E074E284EF90E00E947B
:101F60006E29DA01C9014097A109B109B695A79573
:101F7000979587958093B80006C0EEA5FFA5908140
:101F80008BA9892B8083DF91CF911F9108951092A7
:101F90003303109232031092990210929802109219
:101FA000310381E08093300310922B0361E082E1E2
:101FB0000E94151661E083E10E941516E9EBF0E03E
:101FC00080818E7F808380818D7F808388E4809371
:101FD000B80085E48093BC0086E89AE09093BB0249
:101FE0008093BA0287E89AE09093BF028093BE0282
:101FF0000895CF92DF92EF92FF92CF93DF93B0914B
:102000000404882311F0AB2F01C0A0E080910504E7
:1020100090E0880F991F8A5A944FC0900A04D0907C
:102020000B04E0900C04F0900D0420E030E0FC0183
:10203000C591D491E881EB23A90160E070E0EA1337
:102040000CC02F5F3F4F4C155D056E057F0578F383
:102050003FEF2FEF8FEF9FEF03C0322F252FCB01E4
:10206000632F722FDF91CF91FF90EF90DF90CF9091
:1020700008958F929F92AF92BF92CF92DF92EF928C
:10208000FF92F82E66E781EF93E00E94050F6F2D17
:1020900081EF93E00E94E00A81EF93E00E94A90E95
:1020A00083E090E00E944B198091320390E02091F0
:1020B0003303821B910983309105ECF381EF93E0A8
:1020C0000E94970A4C01990FAA08BB08BA2CA92CA8
:1020D000982C882481EF93E00E94970A6C01990F55
:1020E000EE08FF08C828D928EA28FB28FE2CED2C8A
:1020F000DC2CCC2481EF93E00E94970A092E000C7F
:10210000AA0BBB0BBC01CD016C297D298E299F290F
:10211000FF90EF90DF90CF90BF90AF909F908F9007
:1021200008958F929F92AF92BF92CF92DF92EF92DB
:10213000FF928AEF0E943910E6EEF2E020813181B1
:10214000C72ED82EE92EFF24E7FCFA94C21AD30A30
:10215000E108F108DC01CB0157E0B595A79597950B
:1021600087955A95D1F7220F331F4C015D01821AD2
:10217000930AA108B108A5019401A281B3810E942C
:1021800090294B015C017BE0B594A79497948794C8
:102190007A95D1F7A7019601C701B6010E945E2981
:1021A0009B01AC01ACE05595479537952795AA95CD
:1021B000D1F7A481B5810E949029DC01CB012EE0EA
:1021C000B595A795979587952A95D1F7A50194017F
:1021D000280F391F4A1F5B1F21A332A343A354A317
:1021E000A5E0B0E00E940D29DC01CB0180589F4F93
:1021F000AF4FBF4F692F7A2F8B2F992787FD9A9565
:102200000E94F02720E030E048EC52E40E94592B75
:10221000FF90EF90DF90CF90BF90AF909F908F9006
:1022200008954F925F926F927F928F929F92AF929A
:10223000BF92CF92DF92EF92FF920E9491108DEFAA
:102240000E9494198090070390900803A0900903BE
:10225000B0900A032CE2921A21E0A20AB1086C01A4
:10226000E12CF12C3EE0CC0CDD1CEE1CFF1C3A9561
:10227000D1F78091020390910303092E000CAA0B61
:10228000BB0B44E1880F991FAA1FBB1F4A95D1F7CA
:10229000C81AD90AEA0AFB0AA0910403B0910503FF
:1022A000A50194010E949029C61AD70AE80AF90AE2
:1022B00030E4D30EE11CF11C5FE0F594E794D79471
:1022C000C7945A95D1F7A0910103B0E0A5019401FC
:1022D0000E940D292B013C016BE075946794579483
:1022E00047946A95D1F740E8540E611C711CA09187
:1022F00006030A2E000CBB0BA50194010E94902935
:10230000EAE09595879577956795EA95D1F7A301CA
:1023100092010E945E29DC01CB01FAE0B595A795F8
:1023200097958795FA95D1F79C01AD01405E5F4F77
:10233000A091FF02B09100030E949029DC01CB0123
:10234000905EAF4FBF4FBC01CD01AEE09595879534
:1023500077956795AA95D1F7A70196010E945E2906
:102360006B017C01BFE09595879577956795BA9548
:10237000D1F79B01AC010E945E299B01AC0187E073
:1023800055954795379527958A95D1F7A091FE02E7
:10239000B0E00E940D29DC01CB0124E0B595A795A2
:1023A000979587952A95D1F7A7019601281B390B98
:1023B0004A0B5B0BDA01C90157FF03C080E090E0D4
:1023C000DC0181309105A10539E1B30724F080E0FB
:1023D00090E0A0E0B9E1BC01CD012CE09595879596
:1023E000779567952A95D1F70E94EE2720E030E097
:1023F00040E85AE30E944F280E94CB2BFF90EF90B9
:10240000DF90CF90BF90AF909F908F907F906F9014
:102410005F904F9008958F929F92AF92BF92CF920C
:10242000DF92EF92FF920F931F93CF93DF936B0195
:102430007C01142F9B01AC010E94FF2B882319F013
:102440006AE672E027C046015701E894B7F82FEF1B
:102450003FEF4FE75FE7C501B4010E94FF2B8111F9
:102460000DC02FEF3FEF4FE75FE7C501B4010E94BA
:10247000E92718161CF46EE672E00CC02FEF3FEF50
:102480004FE75FE4C701B6010E94FA2B181694F4D7
:1024900062E772E084E593E0DF91CF911F910F91A5
:1024A000FF90EF90DF90CF90BF90AF909F908F9074
:1024B0000C94030D2FEF3FEF4FE75FECC701B60120
:1024C0000E94E92787FDE4CF20E030E0A901C701A1
:1024D000B6010E94E92787FF0BC06DE284E593E017
:1024E0000E948606EC01F7FAF094F7F8F09402C027
:1024F000C0E0D0E000E060E070E080E09FE3101713
:1025000041F020E030E040E251E40E94592B0F5F9F
:10251000F6CFA70196010E94ED2A6B017C010E9473
:10252000CB2B4B015C014AE00E94371BC80FD91F1F
:102530001123B9F1C501B4010E94EE279B01AC0142
:10254000C701B6010E94EC2A6B017C016EE284E5B2
:1025500093E00E948606C80FD91F20E030E040E2D9
:1025600051E4C701B6010E944F284B015C010E9453
:10257000CB2B6B01E12CF12C4AE0C701B6010E9484
:10258000371BC80FD91FC701B6010E94EE279B0158
:10259000AC01C501B4010E94EC2A6B017C01115011
:1025A000E1F6CE01DF91CF911F910F91FF90EF9057
:1025B000DF90CF90BF90AF909F908F9008952F9213
:1025C0003F924F925F926F927F928F929F92AF92C3
:1025D000BF92CF92DF92EF92FF920F931F93CF9310
:1025E000DF93CDB7DEB76B970FB6F894DEBF0FBEA3
:1025F000CDBF9B8F8A8F5B011A01D22E1F830E8362
:102600003701C982DC0158962D913C9159972115CB
:10261000310509F0E6C018968D919C9119976817BD
:1026200079070CF0CDC11A968D919C911B97481794
:1026300059070CF0C5C18C2C912CFB0126E0C29EE1
:10264000E00DF11D1124FB87EA871E161F060CF012
:10265000B7C1A40183E0440F551F8A95E1F75D8758
:102660004C87CA01820D931D181619060CF0A8C1DB
:1026700057968C91811104C05FEA5D1508F4D394DC
:10268000AA8DBB8DED91FC9111970284F385E02D0D
:10269000CD010995B5E0DB9EC0011124F501359609
:1026A000FF87EE87BB82AA8225019C012A193B097C
:1026B000398B288BA101485F5F4F5B8B4A8BE88980
:1026C000F989E40DF51DEA5AF94F549158876101D3
:1026D0003D822C82888580FF13C0AA8DBB8DED9131
:1026E000FC91B981B13031F40484F585E02D2E815F
:1026F0003F8116C00684F785E02DEE80FF801AC06A
:10270000EE81FF81E615F705F1F0AA8DBB8DED9105
:10271000FC91B981B13051F40484F585E02D930129
:10272000A601B2018A8D9B8D09950DC00684F7859F
:10273000E02D7301840194014C815D816A817B816C
:102740008A8D9B8D0995E885E695E887FFEFCF1A7E
:10275000DF0A2C813D81280D391D3D832C834A8958
:102760005B89C416D50609F0B5CF5FEF451A550A47
:102770008A819B81880D991D9B838A83AE85BF8545
:102780004A165B0609F09BCFEE81FF81E615F7053F
:1027900009F4F4C0EA8DFB8DA081B181F981F1309B
:1027A00079F4B5016B5F7F4F5096ED91FC91519795
:1027B000830128E030E0A1018A8D9B8D0995DEC060
:1027C0006A857B85681979091E96ED91FC911F97A2
:1027D00073010C851D859401A1018A8D9B8D09953E
:1027E000CDC0F9013496E491DE1AF9013296859153
:1027F0009491B7E0DB9E800D911D1124F901259184
:1028000034913B8B2A8BFC01259134912901FC01E9
:102810003296C490319634913E8732961491319617
:10282000D4904981423058F0612E012E000C770877
:102830008D2D0D2C000C990B9987888704C0198663
:102840001886612C712CAA8DBB8DED91FC9111978E
:102850000284F385E02DCD010995B9818B2E912C51
:10286000689CC001699C900D789C900D1124FC011E
:10287000EA0DFB1DFD87EC871A82712C612CE12F7C
:10288000110FFF0B95012E0F3F1F3B872A87AC0CC2
:10289000B11CA5014E0F5F1F5F8B4E8BC1018D0DCB
:1028A000911DD7FC9A95998F888F9E85691608F09F
:1028B00065C0862D90E048855985480F591F489D71
:1028C0009001499D300D589D300D1124D101A20F6A
:1028D000B31FB98BA88BEC85FD85FD83EC83AA849F
:1028E000BB84DA80FA85DF1A288D398D280F391FCD
:1028F0003D8B2C8B8D2D8A0D4E895F89A416B506D4
:10290000C1F1877041F4C2010196EA89FB89E40DA7
:10291000F51D74902C0177FE21C0AA8DBB8DED9121
:10292000FC91B981B13061F40484F585E02D2E81EC
:102930003F814C895D89B5018A8D9B8D09950EC0BB
:102940000684F785E02DEE80FF808401940148899C
:1029500059896C817D818A8D9B8D0995770CEFEF6C
:10296000AE1ABE0A2C813D81280D391D3D832C8372
:10297000C1CF3A813C0D3A83639497CFAA8DBB8D2A
:10298000ED91FC9111970688F789E02DCD016B96AA
:102990000FB6F894DEBF0FBECDBFDF91CF911F9170
:1029A0000F91FF90EF90DF90CF90BF90AF909F90EE
:1029B0008F907F906F905F904F903F902F900994F1
:1029C0006B960FB6F894DEBF0FBECDBFDF91CF91EF
:1029D0001F910F91FF90EF90DF90CF90BF90AF903D
:1029E0009F908F907F906F905F904F903F902F902F
:1029F00008950F931F93CF93DF9377FF04C0260FA3
:102A0000371F60E070E0DC011496CD91DC911597E2
:102A1000FB01E20FF31FCE17DF071CF49E01261BFC
:102A2000370B121613060CF046C0FA0157FD379605
:102A3000DF01E3E0B595A795EA95E1F7AC9FF001DA
:102A4000AD9FF00DBC9FF00D11246E0F7F1FDC01B8
:102A50005E96ED91FC915F97E60FF71F4770552743
:102A600081E090E001C0880F4A95EAF7482F0130D5
:102A7000110539F078F002301105E9F42E0F3F1FEF
:102A800013C02E0F3F1FE217F307A9F08081842B9C
:102A90008193F9CF80952E0F3F1FE217F30759F06E
:102AA000908198239193F9CFE217F30721F0808169
:102AB00084278193F9CFDF91CF911F910F910895D2
:102AC000EF92FF920F931F93CF93DF93EC0177FD6B
:102AD000A5C0EC80FD806E157F050CF09FC057FFF0
:102AE00004C0240F351F40E050E08E819F81FA0121
:102AF000E20FF31F8E179F071CF49C01241B350B5C
:102B0000121613060CF08AC0922F842F8695869594
:102B100086958E9DD0018F9DB00D11246A0F7B1F6D
:102B2000AE8DBF8DA60FB71F4770B1F188E0841B33
:102B3000482F682F70E0FB01E25BF94FE491281702
:102B400098F4621B71092FEF30E002C0359527958C
:102B50006A95E2F7E2230130110549F078F002307E
:102B6000110509F05BC00EC00130110519F48C91FC
:102B7000E82B0AC00130110508F049C0E0958C919E
:102B8000E82302C08C91E827EC93941708F446C020
:102B90002C813D81A20FB31FE92FE41BE830F8F030
:102BA0000230110561F48E2F9C9190959C932C819D
:102BB0003D81A20FB31F88508830B0F70FC081E06D
:102BC0000115110509F480E081959E2F8C932C81CD
:102BD0003D81A20FB31F98509830C0F7E770EE23E5
:102BE000E9F0F0E0EA5BF94FE4910130110539F0CA
:102BF00048F00230110591F48C91E82706C08C91C1
:102C0000E82B03C0E0958C91E823EC9307C00230D9
:102C1000110509F4B7CFAE0DBF1DBECFDF91CF9127
:102C20001F910F91FF90EF90089590E0FC01EE5CF2
:102C3000F94F2491FC01E758F44F3491FC01EB5912
:102C4000F44FE491EE2309F43CC0222339F1233000
:102C500091F038F42130A9F0223001F584B58F7D50
:102C600012C0273091F02830A1F02430B9F48091BF
:102C700080008F7D03C0809180008F7780938000DB
:102C80000DC084B58F7784BD09C08091B0008F7767
:102C900003C08091B0008F7D8093B000F0E0EE0F14
:102CA000FF1FE85DF94FA591B4919FB7F8946111AA
:102CB00004C08C913095382302C0EC913E2B3C939C
:102CC0009FBF0895CF93DF9390E0FC01E758F44F46
:102CD0002491FC01EB59F44F8491882361F190E039
:102CE000880F991FFC01E25EF94FC591D491FC0158
:102CF000E85DF94FA591B491611109C09FB7F894AF
:102D00008881209582238883EC912E230BC062302A
:102D100061F49FB7F8948881322F3095832388839C
:102D2000EC912E2B2C939FBF06C08FB7F894E881AF
:102D30002E2B28838FBFDF91CF9108958F929F9282
:102D4000AF92BF92CF92DF92EF92FF926B017C0124
:102D50000E94F51B4B015C01C114D104E104F10494
:102D6000F1F00E94F51BDC01CB0188199909AA0931
:102D7000BB09883E9340A105B10570F321E0C21A5A
:102D8000D108E108F10888EE880E83E0981EA11CA6
:102D9000B11CC114D104E104F10419F7DDCFFF9097
:102DA000EF90DF90CF90BF90AF909F908F9008955D
:102DB000CF92DF92EF92FF920F931F93CF93DF9307
:102DC000CDB7DEB7C054D1400FB6F894DEBF0FBE0A
:102DD000CDBF2FB7F8948091E2029091E302A091C9
:102DE000E402B091E5022FBF409106045091070420
:102DF00060910804709109048C019D01041B150B5E
:102E0000260B370BB901A801403D574061057105FC
:102E100018F480910E04CAC08093060490930704AE
:102E2000A0930804B09309041092010410920004C6
:102E30001092FF031092FE031092FD0362E0809156
:102E400002040E94621661E070E080E090E00E945F
:102E50009E1661E0809102040E94621660E08091FB
:102E600002040E941516809103048551823028F4D3
:102E70008BE291E10197F1F706C064E170E080E038
:102E800090E00E949E1662E0809102040E94621609
:102E900080910F0490E08230910538F0880F991FDF
:102EA000880F991F05970197F1F7F89480E00E9429
:102EB000F90F6F3F7F4F8F4F9F4F21F410920E04F9
:102EC000789441C081E00E94F90F6F3F7F4F8F4F90
:102ED0009F4FA1F38E010F5F1F4F6E018FEBC81A3A
:102EE0008EEFD80A780180E00E94F90FF701608325
:102EF00071838283938381E00E94F90FF7016483D9
:102F0000758386839783F8E0EF0EF11CEC14FD04C3
:102F100051F7789420E030E0F801C080D180E28061
:102F2000F3804481558166817781FFEFCF16DF06FC
:102F3000EF06FF0631F04F3F8FEF5807680778071D
:102F400021F410920E0480E031C0F90183E0F59580
:102F5000E7958A95E1F7E350FC4F8081880FC4160E
:102F6000D506E606F70608F4816080832F5F3F4FA1
:102F7000085F1F4F2832310579F62091010430E0B7
:102F80004091FD038091FE0390E0840F911D4091DC
:102F9000FF03840F911D40910004840F911D992718
:102FA0002817390771F681E080930E04C05CDE4F6C
:102FB0000FB6F894DEBF0FBECDBFDF91CF911F914A
:102FC0000F91FF90EF90DF90CF900895209116041D
:102FD00030911704C901079697FD079623E0959550
:102FE00087952A95E1F72091140430911504829F6A
:102FF000A001839F500D929F500D112460E070E05E
:1030000080912E0490912F040C94F92D3F924F92B1
:103010005F926F927F928F929F92AF92BF92CF9268
:10302000DF92EF92FF920F931F93CF93DF9300D025
:1030300000D000D0CDB7DEB72C013B014A015901C9
:10304000C901079697FD07969C0193E03595279552
:103050009A95E1F73C832B83C12CD12CE12CF12CE8
:10306000312CC3018E0D9F1D9A838983E016F106D2
:10307000C4F51E821D822D813E812A153B054CF52B
:10308000C90187709927892B11F0330C0EC0ED818F
:10309000FE81F7FD379683E0F595E7958A95E1F790
:1030A000EC0DFD1DE80DF91D349037FE0CC021E03C
:1030B00030E049815A816D817E81640D751D80E10A
:1030C00094E00E949B098D819E8101969E838D8351
:1030D000D2CF9FEFE91AF90A2B813C81C20ED31E91
:1030E000C0CF26960FB6F894DEBF0FBECDBFDF91DE
:1030F000CF911F910F91FF90EF90DF90CF90BF90F5
:10310000AF909F908F907F906F905F904F903F9087
:103110000895DF92EF92FF920F931F93CF93DF9367
:10312000D82ED92FC62F80912C0490912D04009772
:1031300009F44EC0609130040E94050F80912C0468
:1031400090912D04DC01ED91FC910190F081E02D36
:1031500060E00995ED2CFD2E11E080912C049091FA
:103160002D04CC2361F11032B8F00E94A90E6091B9
:10317000300480912C0490912D040E94050F8091C1
:103180002C0490912D04DC01ED91FC910190F081D3
:10319000E02D60E0099511E080912C0490912D04C0
:1031A000F7016491DC01ED91FC910190F081E02D3B
:1031B00009951F5FC150BFEFEB1AFB0ACECFDF911D
:1031C000CF911F910F91FF90EF90DF900C94A90E7B
:1031D000E0913C04F0913D049081809142048095FF
:1031E000892380830D2D1D2FCC2309F439C0F801CC
:1031F000849120912A0430912B04232B31F00E94DA
:10320000710DC1500F5F1F4FEFCF28E030E040E855
:10321000E0913804F091390490914004582F5423E0
:1032200019F05081952B03C0508190959523908380
:10323000E0913A04F0913B04508190914104952B28
:103240009083E0913A04F0913B04508190914104C5
:10325000909595239083469521503109C9F6D1CF99
:10326000DF91CF911F910F91FF90EF90DF90089524
:10327000CF93DF93BC0184E593E00E94030DEC0142
:103280006CED71E084E593E00E94030D8C0F9D1FAF
:10329000DF91CF910895909131039111FCCF982F38
:1032A000813208F090E281E0809331038093300313
:1032B0002FEF20932F0310922E03290F20932D031D
:1032C00080932C0380912C038C6E80932C0380912F
:1032D0002B03813061F410922B0380912C03809397
:1032E000BB008091BC0083FDF8CF85EC01C085EE6A
:1032F0008093BC00809131038130E1F380912E03F3
:10330000891710F490912E03EBE0F3E0A4E3B3E00F
:1033100080E0891721F021912D938F5FFACF1092D1
:1033200033038093320308951F93CF93DF93182FB5
:1033300066E781EF93E00E94050F612F81EF93E034
:103340000E94E00A81EF93E00E94A90E82E090E0E3
:103350000E944B198091320390E020913303821B2D
:10336000910982309105ECF381EF93E00E94970A76
:10337000182F81EF93E00E94970AD12F20E0C22FEF
:103380009E01282BC901DF91CF911F9108950E94C2
:1033900094199827892798270895CF93C82F66E70F
:1033A00081EF93E00E94050F6C2F81EF93E00E9464
:1033B000E00A81EF93E00E94A90E81E090E00E9474
:1033C0004B1990913203809133039817F1F381EFF9
:1033D00093E00E94970ACF910895EF92FF920F9386
:1033E0001F93CF93DF9380912C0490912D04892B10
:1033F000D1F0209146043091470440914804509107
:10340000490460E074E284EF90E00E946E29DA01E2
:10341000C9014097A109B109B695A79597958795D8
:103420008093B80016C080912A0490912B04892BB8
:1034300031F080914404909145040E94780DE09110
:103440003E04F0913F04908180914304809589234C
:10345000808365E080E69BE00E94891860911404F7
:10346000615080E194E00E940F0F2091160430918A
:103470001704C901079697FD079633E09595879540
:103480003A95E1F72091140430911504829F800150
:10349000839F100D929F100D1124C0912E04D09186
:1034A0002F0480912C0490912D040C0F1D1F009768
:1034B00009F445C0609130040E94050F80912C04EE
:1034C00090912D04DC01ED91FC910190F081E02DB3
:1034D00060E409957E01D1E080912C0490912D0447
:1034E0000E151F0549F1D032B8F00E94A90E609167
:1034F000300480912C0490912D040E94050F80913E
:103500002C0490912D04DC01ED91FC910190F0814F
:10351000E02D60E40995D1E080912C0490912D0478
:10352000F70161917F01DC01ED91FC910190F08147
:10353000E02D0995DF5FD0CF0E94A90E41C0E09138
:103540003C04F0913D04908180914204892B80835A
:10355000C017D107A9F1899120912A0430912B0439
:10356000232B19F00E94710DF3CF28E030E040E8E2
:10357000E0913804F091390490914004582F54237D
:1035800019F05081952B03C050819095952390831D
:10359000E0913A04F0913B04508190914104952BC5
:1035A0009083E0913A04F0913B0450819091410462
:1035B000909595239083469521503109C9F6C8CF3F
:1035C00080912C0490912D04892BD1F020914A04F4
:1035D00030914B0440914C0450914D0460E074E2F2
:1035E00084EF90E00E946E29DA01C9014097A10999
:1035F000B109B695A795979587958093B80017C0A0
:10360000E0913E04F0913F04908180914304892B26
:10361000808380912A0490912B04892B41F0DF91C3
:10362000CF911F910F91FF90EF900C94700DDF914F
:10363000CF911F910F91FF90EF9008950F931F93DB
:10364000CF93DF93EC01FB0144815581608171814F
:103650000E94F3058C016CED71E0CE010E94030D18
:10366000800F911FDF91CF911F910F9108958F923D
:103670009F92AF92BF920F931F93CF93DF93CDB7DB
:10368000DEB7A1970FB6F894DEBF0FBECDBF19A26B
:10369000423008F44AE08E010F5D1F4F842E912CBA
:1036A000A12CB12CA50194010E946E29E62FB9012D
:1036B000CA0101501109EA3014F4E05D01C0E95C6F
:1036C000D801EC93232B242B252B61F7B80184E53B
:1036D00093E00E94030DA1960FB6F894DEBF0FBED3
:1036E000CDBFDF91CF911F910F91BF90AF909F9071
:1036F0008F900895BC0184E593E00C94030DFC01C8
:10370000808191810C949C2CEF92FF920F931F93D8
:10371000CF93DF93EC017B0161157105E9F0FB01AB
:1037200001900020E9F73197E61BF70BC1F00C81FF
:103730001D810E0F1F1FB8010E947A0C882361F0B3
:10374000288139818C819D81B701820F931F0E944E
:10375000002E1D830C8303C0CE010E94A10CCE015C
:10376000DF91CF911F910F91FF90EF900895EF920D
:10377000FF920F931F93CF93DF93CDB7DEB7A1973F
:103780000FB6F894DEBF0FBECDBF7C01CB01BA01EE
:10379000F7011182108213821282158214828E0127
:1037A0000F5F1F4F22E044E00E949725009769F0C9
:1037B000FC0101900020E9F73197AF01481B590B3C
:1037C000BC01C7010E94B30C03C0C7010E94A10C39
:1037D000A1960FB6F894DEBF0FBECDBFDF91CF919B
:1037E0001F910F91FF90EF9008953FB7F89480914B
:1037F0004F0490915004A0915104B091520426B509
:10380000A89B05C02F3F19F00196A11DB11D3FBF18
:10381000BA2FA92F982F8827820F911DA11DB11DA6
:10382000BC01CD0142E0660F771F881F991F4A95A2
:10383000D1F708951F920F920FB60F9211242F9374
:103840003F938F939F93AF93BF938091E2029091A8
:10385000E302A091E402B091E50230914E0423E02E
:10386000230F2D3720F40196A11DB11D05C026E8B8
:10387000230F0296A11DB11D20934E048093E202F6
:103880009093E302A093E402B093E50280914F0489
:1038900090915004A0915104B09152040196A11D41
:1038A000B11D80934F0490935004A0935104B093A2
:1038B0005204BF91AF919F918F913F912F910F90A3
:1038C0000FBE0F901F9018958EE291E09093110417
:1038D0008093100480912E0490912F04009711F092
:1038E0000C949C2C0895CF93DF93CDB7DEB7AF97A0
:1038F0000FB6F894DEBF0FBECDBF789484B582605A
:1039000084BD84B5816084BD85B5826085BD85B583
:10391000816085BD80916E00816080936E00109201
:10392000810080918100826080938100809181007C
:10393000816080938100809180008160809380000D
:103940008091B10084608093B1008091B00081606B
:103950008093B00080917A00846080937A00809197
:103960007A00826080937A0080917A0081608093EF
:103970007A0080917A00806880937A001092C1006A
:10398000E0916403F091650382E08083E09160033D
:10399000F09161031082E0916203F09163038FEC78
:1039A000808310926C03E0916803F091690386E0D4
:1039B0008083E0916603F09167038081806180835A
:1039C000E0916603F0916703808188608083E091D5
:1039D0006603F0916703808180688083E0916603CD
:1039E000F091670380818F7D808381EF93E00E9457
:1039F000C70F80ED0E94CD19803609F09FC488E87A
:103A00000E94C7199093E7028093E6028AE80E9419
:103A1000C7199093E9028093E8028CE80E94C719C5
:103A20009093EB028093EA028EE80E94C71990936C
:103A3000ED028093EC0280E90E94C7199093EF0297
:103A40008093EE0282E90E94C7199093F10280935D
:103A5000F00284E90E94C7199093F3028093F20266
:103A600086E90E94C7199093F5028093F40288E9D1
:103A70000E94C7199093F7028093F6028AE90E9488
:103A8000C7199093F9028093F8028CE90E94C71934
:103A90009093FB028093FA028EE90E94C7199093DB
:103AA000FD028093FC0281EA0E94CD198093FE0200
:103AB00081EE0E94C719909300038093FF0283EE6A
:103AC0000E94CD198093010384EE0E94CD19182F16
:103AD00085EE0E94CD1900E1109F900111248F7096
:103AE000282B309303032093020386EE0E94CD1906
:103AF000182F85EE0E94CD1940E1149F90011124EA
:103B000082958F70282B309305032093040387EE52
:103B10000E94CD198093060366E781EF93E00E942F
:103B2000050F62EF81EF93E00E94E00A65E081EF0C
:103B300093E00E94E00A81EF93E00E94A90E66E7FD
:103B400081EF93E00E94050F64EF81EF93E00E9404
:103B5000E00A67EB81EF93E00E94E00A81EF93E0D7
:103B60000E94A90E62E0809102040E9462162FB7A3
:103B7000F8948091E2029091E302A091E402B09166
:103B8000E5022FBF805D9740A109B109809306042B
:103B900090930704A0930804B093090487E38093EB
:103BA0000F0480912E0490912F04892B11F5209100
:103BB000160430911704C901079697FD079623E074
:103BC000959587952A95E1F7209114043091150475
:103BD0005C01A29EC001A39E900DB29E900D112487
:103BE0000E94042C90932F0480932E04892B09F4B7
:103BF000DFC00E94E61720911604309117048091CF
:103C0000140490911504213231050CF49CC3B901C0
:103C10006054710977FF02C06F5F7F4F759567959C
:103C20008255910997FD019600E410E022E530E00D
:103C30004EE553E0959587950E94061882E08093A3
:103C4000310480912C0490912D04009709F48FC3C6
:103C50002CE3209330040E94C70F8091370487FD26
:103C60001EC061E00E94621661E0809137040E94EC
:103C7000151661E070E080E090E00E949E1660E022
:103C8000809137040E9415166AE070E080E090E0B1
:103C90000E949E1661E0809137040E941516809163
:103CA0002C0490912D04892B09F420C42091460402
:103CB00030914704409148045091490460E074E217
:103CC00084EF90E00E946E29DA01C9014097A109B2
:103CD000B109B695A795979587958093B80064E04C
:103CE0008AE791E00E94891860911604615080E192
:103CF00094E00E940F0F64E086E791E00E9489182B
:103D000080913104813009F008C460E180E194E0E1
:103D10000E940F0F64E082E791E00E948918809171
:103D20001404909115048038910509F009C480911C
:103D30001604909117048032910509F0F0C364E0F5
:103D40008EE691E00E94891869ED80E194E00E947E
:103D50000F0F80913104813009F00EC462E280E1DE
:103D600094E00E940F0F66E082E691E00E948918BD
:103D700080912C0490912D04892B09F4FFC320918C
:103D80004A0430914B0440914C0450914D0460E042
:103D900074E284EF90E00E946E29DA01C901409735
:103DA000A109B109B695A795979587958093B80015
:103DB00044244394512C86E591E00E947A1B0E9492
:103DC000911042E00E940B1284E691E00E947A1B5F
:103DD0000E9411110E94EE2742E00E940B1283E71D
:103DE00091E00E947A1B0E94911087EF0E94391087
:103DF0006CA77DA78EA79FA78091070390910803CA
:103E0000A0910903B0910A036C017D01FF0CCC085D
:103E1000DC2C76019C01AD016C2D7C2D8C2D9C2D14
:103E2000345F4140510961097109810991092B8F62
:103E30003E8F4F8F58A33B014C0159016A017B0112
:103E40008C010E9498292CA33DA34EA35FA368A7D1
:103E500079A78AA79BA73091EF022091EE02932FBA
:103E6000990F990B492F592F692F792F892F0E946C
:103E700098290CE00E94912A19014B8B59A36AA33F
:103E80007BA38C8F9D8F3091F1022091F002932FB4
:103E9000990F990BACA0BDA0CEA0DFA0E8A4F9A417
:103EA0000AA51BA5492F592F692F792F892F0E9409
:103EB000982908E00E94AA2A5101CB88D9A0EAA03B
:103EC000FBA00C8D1D8D0E94C82A70588F4F9F4FEC
:103ED0002090EC023090ED025101C12CD12CE12C4C
:103EE000F12C87012B8ABC8ACD8ADE8AEF8AF88E74
:103EF000098F1A8FC12CD12CE12CF12C00E010E09D
:103F00000E94982901E20E94AA2A2B8B39A34AA376
:103F10005BA36C8F7D8F1C01A0E00E94DA2A09F45C
:103F20001BC13091F7022091F602932F990F990B44
:103F3000ACA0BDA0CEA0DFA0E8A4F9A40AA51BA553
:103F4000492F592F692F792F892F0E9498292CA347
:103F50003DA34EA35FA368A779A78AA79BA730912B
:103F6000F5022091F402932F990F990BAB8CBE8C24
:103F7000CF8CD8A073018401492F592F692F792F35
:103F8000892F0E94982901E10E94912AACA0BDA02E
:103F9000CEA0DFA0E8A4F9A40AA51BA50E94C82A08
:103FA00059016A017B018B8F192F8CA59DA5AEA5A8
:103FB000BFA504E0B595A795979587950A95D1F784
:103FC00020E030E040E150E0281B390B4A0B5B0B4E
:103FD000DA01C90139014A01990C6608762C4301BE
:103FE0009C01AD01662D762D862D962D0FE10E9448
:103FF000912A39014A01B62FA72FF82FE92F3091C6
:10400000F3022091F202932F990F990B492F592F08
:10401000692F792F892F03E20E94912A0B8D0E942C
:10402000C82A59016A017B018C019301A4016B2FFD
:104030007A2F8F2F9E2F0E94D12AE5E3AE2EFCE02F
:10404000BF2EC12CD12CE12CF12C00E010E00E94FD
:104050009829AB88B9A0CAA0DBA0EC8CFD8C8101AB
:104060000E94F3292B8F3E8F4F8F58A36B8B79A320
:104070008AA39BA30DE00E94AA2A322E3C8F4D8F6B
:10408000652E762E872E982E292E3091FD022091B6
:10409000FC02932F990F990BA32CBC8CC42ED62C09
:1040A000E72CF82C092D122D492F592F692F792F24
:1040B000892F0E9498290E94982909E10E94AA2A22
:1040C000AB8CBE8CCF8CD8A0EB88F9A00AA11BA129
:1040D0000E94C82A19014C8F5D8F3B014C01309121
:1040E000FB022091FA02932F990F990B492F592F18
:1040F000692F792F892F0E94982903E10E94AA2A0B
:1041000059016A017B018C0191014C8D5D8DB301D8
:10411000C4010E94C82A08E00E94AA2A59016A0123
:104120007B01E82F192F3091F9022091F802932F8B
:10413000990F990B492F592F692F792F892F04E057
:104140000E94912A0E2F0E94C82A49015A019927DC
:104150008B2D7A2D692D03C060E070E0CB010E94A9
:10416000EE276B017C0142E00E940B1280E891E097
:104170000E947A1B20E030E543EC57E4C701B6010A
:104180000E94592B42E00E940B128BE891E00E94A2
:1041900038190E94D8168823D1F1809103048B30FE
:1041A000B0F18D30A8F08551823088F56091FD0323
:1041B0007091FE0376276727762780E090E00E94C3
:1041C000EE272DEC3CEC4CEC5DE30E944F281CC02C
:1041D0006091FE0370E080E090E00E94F0272DECFB
:1041E0003CEC4CEC5DE30E944F286B017C0160913C
:1041F000FD0370E080E090E00E94F0279B01AC019D
:10420000C701B6010E94ED2A4B015C0106C0812C5A
:10421000912CF0ECAF2EFFE7BF2E0E94D81688231A
:1042200009F4BFC1809103048C3009F448C018F42C
:104230008B30D1F06BC08551823008F067C010918F
:10424000FF03612F6F7770E0762F6627809100045F
:10425000682B80E090E00E94EE272DEC3CEC4CECCB
:104260005DE30E944F2849C06091FF0370E080E049
:1042700090E00E94EE276B017C011091000417FF73
:104280000AC09B01AC0160E070E080E89FEB0E94F7
:10429000EC2A6B017C01612F6F7070E080E090E090
:1042A0000E94F0272DEC3CEC4CEC5DE30E944F2883
:1042B000A70196010E94ED2A6B017C012DC010918F
:1042C000FF03609100046F7070E080E090E00E9456
:1042D000F0272DEC3CEC4CEC5DE30E944F286B0189
:1042E0007C01612F70E080E090E00E94EE279B014E
:1042F000AC01C701B6010E94ED2A6B017C0117FFDA
:104300000BC0F7FAF094F7F8F09406C0C12CD12C4A
:1043100060ECE62E6FE7F62EA7019601C701B60105
:104320000E94FF2B81113DC1A5019401C501B4017B
:104330000E94FF2B882309F494C133C18BEF91E0D5
:104340000E9438190FCCB9016052710977FF02C081
:104350006F5F7F4F759567958357910997FD01961C
:1043600000E210E023E730E04EE751E063CC61E08B
:10437000809135040E94621661E0809136040E94AB
:10438000621680913504082E000C990BFC01EB5944
:10439000F44FE491F0E0EE0FFF1FE85DF94F259137
:1043A000349130933D0420933C04FC01E758F44FD2
:1043B000E491E093420480913604082E000C990B9E
:1043C000FC01EB59F44FE491F0E0EE0FFF1FE85DC4
:1043D000F94FA591B491B0933F04A0933E04FC0122
:1043E000E758F44FE491E09343048C91E82BEC936D
:1043F00080912A0490912B04892B09F434C01FB7B3
:10440000F8948091E102811127C0EFE6FBE08491EE
:10441000E3E8FBE09491E82FF0E0EE0FFF1FE25E8F
:10442000F94FA591B491EC91E92321F461E08AE080
:104430000E94151661E08AE00E9462168CB58061C8
:104440008CBD8CB580648CBD61E08DE00E946216ED
:1044500061E08BE00E9462168091E1028F5F8093A1
:10446000E1021FBFFACB61E0809133040E94621623
:1044700061E0809134040E94621680913304082E1A
:10448000000C990BFC01EB59F44FE491F0E0EE0FB6
:10449000FF1FE85DF94F2591349130933904209343
:1044A0003804FC01E758F44FE491E0934004809114
:1044B0003404082E000C990BFC01EB59F44FE491E5
:1044C000F0E0EE0FFF1FE85DF94FA591B491B093B6
:1044D0003B04A0933A04FC01E758F44FE491E093C5
:1044E00041048C91E095E823EC93B7CB80912A04AA
:1044F00090912B04892B31F08091440490914504D4
:104500000E94780DE0913E04F0913F0490818091EB
:104510004304809589238083E2CB64E1F7CB803428
:10452000910509F011CC63E08BE691E00E948918B7
:1045300080913104813011F46FE919C06FEC17C01C
:104540008036910509F000CC8091160490911704F3
:10455000409709F0F9CB63E088E691E00E94891862
:1045600080913104813011F460E101C06FEA80E193
:1045700094E00E940F0FE8CB61EFF1CBE0913E0495
:10458000F0913F04908180914304892B8083809136
:104590002A0490912B04892B09F40ACC0E94700DF7
:1045A00007CC8EE092E00E94381981E991E00E94E8
:1045B0003819C12CD12C7601C39400E010E06C2D89
:1045C00081EF93E00E94050F81EF93E00E94A90E16
:1045D000811117C08DE991E00E947A1B3FE03C15E4
:1045E00020F088E692E00E947A1B40E1C701B60104
:1045F0000E94371B8CEB91E00E9438190F5F1F4F10
:1046000018C08430B1F480EC91E00E947A1B4FE036
:104610004C1520F088E692E00E947A1B40E1C70129
:10462000B6010E94371B6CED71E084E593E00E94B7
:10463000030D5FEFC51AD50AE50AF50A8FE7C8161C
:10464000D104E104F10409F0BACF012B19F48FED84
:1046500091E002C085EF91E00E9438190E94F506B2
:10466000AACB83E392E00E947A1B42E0C701B60125
:104670000E940B1284E691E00E947A1B42E0C50181
:10468000B4010E940B1281E492E00E943819B70134
:10469000A601CE010D960E94B71BBE01635F7F4F3E
:1046A000CE0107960E94D40C6EED71E0CE01079604
:1046B0000E94841BBC01CE0101960E94D40C0E9472
:1046C000ED190E94E61712E010932404509223047F
:1046D0004092220450922104409220048FE0C82E80
:1046E000D12CD0921D04C0921C0450921F04409201
:1046F0001E04BE016F5F7F4F80E194E00E941E1B8D
:10470000CE0101960E947F1BCE0107960E947F1B5F
:10471000CE010D960E947F1B65E472E0CE010196EA
:104720000E94EE0CDD24D394D092240450922304F2
:104730004092220450922104409220049CE4E92EED
:10474000F12CF0921D04E0921C0428E030E030933C
:104750001F0420931E04BE016F5F7F4F80E194E031
:104760000E941E1BCE0101960E947F1BB501A40171
:10477000CE010D960E94B71BBE01635F7F4FCE0135
:1047800007960E94D40C6AE472E0CE0107960E945C
:10479000841BBC01CE0101960E94D40CD09224044B
:1047A000509223044092220450922104409220040B
:1047B0004FE050E050931D0440931C0481E190E0D1
:1047C00090931F0480931E04BE016F5F7F4F80E1B2
:1047D00094E00E941E1BCE0101960E947F1BCE0119
:1047E00007960E947F1BCE010D960E947F1B6DE4F1
:1047F00072E0CE0101960E94EE0CD09224045092F9
:1048000023044092220450922104409220042FE07D
:10481000A22EB12CB0921D04A0921C0439E1C32E2B
:10482000D12CD0921F04C0921E04BE016F5F7F4F37
:1048300080E194E00E941E1B0E94ED19CE010196BA
:104840000E947F1B6CED75E080E090E00E949E1658
:104850000E949110AB01BC01CE010D960E94B71BC6
:10486000BE01635F7F4FCE0107960E94D40C6EEDB0
:1048700071E0CE0107960E94841BBC01CE01019617
:104880000E94D40C0E94ED190E94E6171093240494
:10489000509223044092220450922104409220041A
:1048A000B0921D04A0921C0450921F0440921E045A
:1048B000BE016F5F7F4F80E194E00E941E1BCE011E
:1048C00001960E947F1BCE0107960E947F1BCE019E
:1048D0000D960E947F1B65E472E0CE0101960E9456
:1048E000EE0CDD24D394D092240450922304409201
:1048F00022045092210440922004F0921D04E09280
:104900001C0448E0E42EF12CF0921F04E0921E04F7
:10491000BE016F5F7F4F80E194E00E941E1BCE01BD
:1049200001960E947F1B0E9411110E94EE27AB018D
:10493000BC01CE010D960E94B71BBE01635F7F4F85
:10494000CE0107960E94D40C6AE472E0CE0107966D
:104950000E94841BBC01CE0101960E94D40CD0920F
:104960002404509223044092220450922104409245
:104970002004B0921D04A0921C0401E110E01093E9
:104980001F0400931E04BE016F5F7F4F80E194E01F
:104990000E941E1BCE0101960E947F1BCE0107962E
:1049A0000E947F1BCE010D960E947F1B6BE572E07B
:1049B000CE0101960E94EE0CD09224045092230462
:1049C000409222045092210440922004B0921D048F
:1049D000A0921C0429E130E030931F0420931E04B0
:1049E000BE016F5F7F4F80E194E00E941E1B0E941A
:1049F000ED19CE0101960E947F1B6CED75E080E001
:104A000090E00E949E16D1CDE4E5F3E0138212827D
:104A100048EE53E060E070E044835583668377831B
:104A20008AE091E09183808385EC90E0958784878C
:104A300084EC90E09787868780EC90E0918B808B68
:104A400081EC90E0938B828B82EC90E0958B848B51
:104A500086EC90E0978B868B118E128E138E148EBF
:104A6000A1EFB3E013961C921E92129714964D93E9
:104A70005D936D937C9317978CE191E011969C93D5
:104A80008E93E0E1F4E01382128220E830E0358377
:104A9000248380E290E09783868331872087938701
:104AA0008287158A158614861786168681E0848B80
:104AB0002FEF3FEF338B228B318B208B868B178A26
:104AC000118E108E8EE291E091838083138E128E70
:104AD000B58FA48F178E168E8FEF83A384A385A323
:104AE00086A384E087A380E584AB15AAADEFB3E08D
:104AF00089E015968C93159786E116968C931697F8
:104B0000E2E8FBE0E4911796EC931797EEE6FBE002
:104B1000E4911896EC93189740E85EE360E070E04B
:104B20001D964D935D936D937C9350970895EF92EE
:104B30000F931F93CF93DF93E80147FD02C034E04A
:104B400001C034E1042E000C550B57FF03C05195F2
:104B500041955109E32E022F242FAE010E94B72563
:104B6000CE01DF91CF911F910F91EF900895A9E0B1
:104B7000B0E0EDEBF5E20C941E296A01122FB02E85
:104B80002BE3201720F0FF24F394F00E02C02CE357
:104B9000F22E0F2D27E0AE014F5F5F4F0E941127CD
:104BA000BC014981842F8970813031F0E1FC06C05D
:104BB000E0FE06C090E205C09DE203C09BE201C09A
:104BC00090E05E2D507143FF3CC0911102C083E024
:104BD00001C084E0811718F4212F281B01C020E0B8
:104BE00051110BC0F601822F30E2882319F0319366
:104BF0008150FBCFC20ED11C20E0992329F0D601B1
:104C00009C93F60131966F01C6010396E2FE0AC03D
:104C10003EE4D6013C9341E411964C9311971296D1
:104C20003C9306C03EE6F601308341E64183328381
:104C3000FC01322F40E2332309F442C0419331504A
:104C4000FACF42FF44C0911102C083E001C084E06A
:104C5000811718F4212F281B01C020E051110BC02F
:104C6000F601822F30E2882319F031938150FBCF77
:104C7000C20ED11C20E0992329F0D6019C93F601A5
:104C800031966F01C6010396E2FE0BC039E4D601EE
:104C90003C933EE411963C93119736E412963C9374
:104CA00007C039E6F60130833EE6318336E63283CB
:104CB000FC01322F40E2332319F041933150FBCFF6
:104CC000FC01E20FF11D10828EEF9FEFA6C021E0E4
:104CD00030E0911102C020E030E0161617061CF4F7
:104CE000FB01319602C0E1E0F0E02E0F3F1FBB2038
:104CF00021F0EB2DF0E0319602C0E0E0F0E02E0F65
:104D00003F1FE12FF0E02E173F071CF4121B212F4D
:104D100001C020E08E2D887159F4F601822F30E217
:104D2000882319F031938150FBCFC20ED11C20E0B3
:104D3000992329F0D6019C93F60131966F01511108
:104D40000BC0F601822F90E3882319F091938150D4
:104D5000FBCFC20ED11C20E00F2D060F9A81342FFD
:104D6000307144FF03C0913309F40150101624F44C
:104D7000093018F008E001C001E0AB0177FF02C084
:104D800040E050E0FB01E41BF50BA1E0B0E0AC0F0C
:104D9000BD1FEA0FFB1F8EE2A82E4B01801A91085F
:104DA0000B2D10E01195019511094F3FBFEF5B07E7
:104DB00021F4D601AC9211966D01641775072CF0A1
:104DC0008416950614F4818101C080E34150510995
:104DD0003196D60111967D014017510724F0D60176
:104DE0008C936701E2CF6417750739F4963320F48A
:104DF000953319F4311101C081E3F6018083F70185
:104E0000822F90E2882319F091938150FBCFF70114
:104E1000E20FF11D108280E090E02996ECE00C9406
:104E20003A29283008F027E03327DA01990F311D9D
:104E300087FD916000966105710539F432602E5F3F
:104E40003D9330E32A95E1F708959F3F30F0803895
:104E50007105610509F03C5F3C5F3D93913008F0BE
:104E60008068911DDF93CF931F930F93FF92EF9272
:104E7000192F987F9695E92F96959695E90FFF271C
:104E8000EE53FF4F99273327EE24FF24A701E701B4
:104E900005900894079428F4360FE71EF81E491F62
:104EA000511D660F771F881F991F0694A1F7059063
:104EB000079428F4E70EF81E491F561FC11D770FEF
:104EC000881F991F661F0694A1F70590079428F480
:104ED000F80E491F561FC71FD11D880F991F661F47
:104EE000771F0694A1F70590079420F4490F561FE9
:104EF000C71FD81F990F661F771F881F0694A9F731
:104F000084911095177041F0D695C79557954795A0
:104F1000F794E7941A95C1F7E8E6F0E068941590E5
:104F2000159135916591959105907FE27395E11802
:104F3000F10A430B560BC90BD009C0F7E10CF11E67
:104F4000431F561FC91FD01D7EF4703311F48A957C
:104F5000E6CFE894015030F0080F0AF4002702175A
:104F600008F4202F2395022F7A3328F079E37D93DC
:104F70002A95E9F710C07D932A9589F606949795AE
:104F80006795379517951794E118F10A430B560B5F
:104F9000C90BD00998F023957E9173957A3308F068
:104FA00070E37C932013B8F77E9170617D9330F0AD
:104FB000839571E37D9370E32A95E1F71124EF90D7
:104FC000FF900F911F91CF91DF91992787FD9095C9
:104FD00008950E942B2808F481E00895E89409C000
:104FE00097FB3EF490958095709561957F4F8F4F1C
:104FF0009F4F9923A9F0F92F96E9BB279395F69532
:10500000879577956795B795F111F8CFFAF4BB0FAF
:1050100011F460FF1BC06F5F7F4F8F4F9F4F16C013
:10502000882311F096E911C0772321F09EE8872F9D
:10503000762F05C0662371F096E8862F70E060E059
:105040002AF09A95660F771F881FDAF7880F9695D2
:10505000879597F90895990F0008550FAA0BE0E876
:10506000FEEF16161706E807F907C0F0121613062A
:10507000E407F50798F0621B730B840B950B39F46A
:105080000A2661F0232B242B252B21F408950A26D0
:1050900009F4A140A6958FEF811D811D08950E94FE
:1050A00062280C94D3280E94C52838F00E94CC288E
:1050B00020F0952311F00C94BC280C94C2281124E4
:1050C0000C9407290E94E42870F3959FC1F3950F73
:1050D00050E0551F629FF001729FBB27F00DB11D7C
:1050E000639FAA27F00DB11DAA1F649F6627B00D0C
:1050F000A11D661F829F2227B00DA11D621F739FF5
:10510000B00DA11D621F839FA00D611D221F749F02
:105110003327A00D611D231F849F600D211D822F49
:10512000762F6A2F11249F5750409AF0F1F0882370
:105130004AF0EE0FFF1FBB1F661F771F881F91509D
:105140005040A9F79E3F510580F00C94BC280C9468
:1051500007295F3FE4F3983ED4F3869577956795EA
:10516000B795F795E7959F5FC1F7FE2B880F911DC7
:105170009695879597F9089597F99F6780E870E06D
:1051800060E008959FEF80EC089500240A941616BD
:10519000170618060906089500240A941216130625
:1051A000140605060895092E0394000C11F48823B3
:1051B00052F0BB0F40F4BF2B11F460FF04C06F5FCF
:1051C0007F4F8F4F9F4F089557FD9058440F551FA5
:1051D00059F05F3F71F04795880F97FB991F61F079
:1051E0009F3F79F087950895121613061406551FF0
:1051F000F2CF4695F1DF08C0161617061806991F5C
:10520000F1CF86957105610508940895E894BB2750
:1052100066277727CB0197F908950E944F29A59F0C
:10522000900DB49F900DA49F800D911D11240895A1
:105230002F923F924F925F926F927F928F929F92A6
:10524000AF92BF92CF92DF92EF92FF920F931F9394
:10525000CF93DF93CDB7DEB7CA1BDB0B0FB6F89445
:10526000DEBF0FBECDBF09942A88398848885F8485
:105270006E847D848C849B84AA84B984C884DF80F6
:10528000EE80FD800C811B81AA81B981CE0FD11DDA
:105290000FB6F894DEBF0FBECDBFED010895A29FFB
:1052A000B001B39FC001A39F700D811D1124911DFA
:1052B000B29F700D811D1124911D0895DB018F9304
:1052C0009F930E940D29BF91AF91A29F800D911DC8
:1052D000A39F900DB29F900D11240895A1E21A2E64
:1052E000AA1BBB1BFD010DC0AA1FBB1FEE1FFF1F8A
:1052F000A217B307E407F50720F0A21BB30BE40BDA
:10530000F50B661F771F881F991F1A9469F7609520
:105310007095809590959B01AC01BD01CF010895DA
:10532000B7FF0C940D290E940D29821B930B089541
:10533000DF93CF931F930F939A9DF02D219FF00D34
:105340008B9DF00D8A9DE02DF10D039FF00D029FC6
:10535000E00DF11D4E9DE00DF11D5E9DF00D4F9D88
:10536000F00D7F936F93BF92AF925F934F93D501F0
:105370000E944F298B01AC01D7010E944F29EB01FC
:10538000E80FF91FD6010E94E8292F913F91D6011D
:105390000E944F29C60FD71FE81FF91FAF91BF9179
:1053A0000E94E8292F913F910E944F29C60FD71FD5
:1053B000E81FF91FD6010E944F29E60FF71F980139
:1053C000BE01CF0111240F911F91CF91DF9108955C
:1053D0000E944F29460F571FC81FD91F08F4319646
:1053E0000895689401C0E894F92FF12B12F00C9401
:1053F000252AA0E0B0E0EFEFF9E20C941E29092E77
:10540000059422F40E94812A112392F4F0E80F26D9
:10541000FFEFE094F09400951095B094C094D09470
:10542000A194BF0ACF0ADF0AEF0AFF0A0F0B1F0B76
:105430000E94302A07FC0E94812ACDB7DEB7ECE03B
:105440000C943A29689401C0E8948F929F92CF936C
:10545000DF930E94302ADF91CF919F908F90089523
:1054600088249924F401E401B0E49F93AA279A15B3
:105470008B049C04ED05FE05CF05D007A10798F429
:10548000AD2FDC2FCF2FFE2FE92D982C892E982FB2
:10549000872F762F652F542F432F322F2227B85076
:1054A00031F7BF9127C01B2EBF91BB27220F331F9F
:1054B000441F551F661F771F881F991F881C991C42
:1054C000EE1FFF1FCC1FDD1FAA1FBB1F8A149B04EA
:1054D000EC05FD05CE05DF05A007B10748F08A18E9
:1054E0009B08EC09FD09CE09DF09A00BB10B216077
:1054F0001A94E1F62EF49401AF01BE01CD01000C27
:10550000089560957095809590953095409550954B
:1055100021953F4F4F4F5F4F6F4F7F4F8F4F9F4FA3
:1055200008950F93083090F0982F872F762F652FCE
:10553000542F432F322F22270850F4CF220F331F2E
:10554000441F551F661F771F881F991F0A95B2F7C2
:105550000F91089597FB10F8169400080F930830E8
:1055600098F00850232F342F452F562F672F782F70
:10557000892F902DF4CF059497958795779567950A
:1055800057954795379527950A95AAF70F9108954E
:105590002A0D3B1D4C1D5D1D6E1D7F1D801F911F23
:1055A00008952A193B094C095D096E097F09800B92
:1055B000910B08950024A7FD00942A17300540059B
:1055C000500560057005800590050895EE0FFF1FDA
:1055D0000590F491E02D09945058BB27AA270E940A
:1055E000042B0C94D3280E94C52838F00E94CC28A4
:1055F00020F039F49F3F19F426F40C94C2280EF4DD
:10560000E095E7FB0C94BC28E92F0E94E42858F3AE
:10561000BA17620773078407950720F079F4A6F597
:105620000C9406290EF4E0950B2EBA2FA02D0B0139
:10563000B90190010C01CA01A0011124FF27591BD7
:1056400099F0593F50F4503E68F11A16F040A22FDD
:10565000232F342F4427585FF3CF4695379527954E
:10566000A795F0405395C9F77EF41F16BA0B620B4D
:10567000730B840BBAF09150A1F0FF0FBB1F661F94
:10568000771F881FC2F70EC0BA0F621F731F841FD7
:1056900048F4879577956795B795F7959E3F08F0FD
:1056A000B0CF9395880F08F09927EE0F97958795BF
:1056B00008950E946D2B0C94D3280E94CC2858F09A
:1056C0000E94C52840F029F45F3F29F00C94BC28C3
:1056D00051110C9407290C94C2280E94E42868F305
:1056E0009923B1F3552391F3951B550BBB27AA279B
:1056F00062177307840738F09F5F5F4F220F331FD5
:10570000441FAA1FA9F335D00E2E3AF0E0E832D09C
:1057100091505040E695001CCAF72BD0FE2F29D09F
:10572000660F771F881FBB1F261737074807AB0771
:10573000B0E809F0BB0B802DBF01FF2793585F4FE6
:105740003AF09E3F510578F00C94BC280C94072940
:105750005F3FE4F3983ED4F3869577956795B795C8
:10576000F7959F5FC9F7880F911D9695879597F9D3
:105770000895E1E0660F771F881FBB1F621773074C
:105780008407BA0720F0621B730B840BBA0BEE1F61
:1057900088F7E09508950E94EC2888F09F5798F0CC
:1057A000B92F9927B751B0F0E1F0660F771F881F26
:1057B000991F1AF0BA95C9F714C0B13091F00E9440
:1057C0000629B1E008950C940629672F782F8827C1
:1057D000B85F39F0B93FCCF3869577956795B39567
:1057E000D9F73EF490958095709561957F4F8F4FD6
:1057F0009F4F08950E942B2808F48FEF08950E9470
:105800002B28880B990B08950F931F93CF93DF9349
:105810008230910510F482E090E0E0915504F0911F
:10582000560420E030E0A0E0B0E0309719F140816C
:1058300051810281138148175907C8F084179507D1
:1058400069F4109731F012960C93129713961C93EB
:1058500027C0009355041093560422C0211531052A
:1058600019F04217530718F49A01BD01EF01DF0147
:10587000F801DBCF21153105F9F0281B390B243055
:10588000310580F48A819B816115710521F0FB014E
:105890009383828304C09093560480935504FE0141
:1058A000329644C0FE01E20FF31F81939193225080
:1058B0003109398328833AC020915304309154042C
:1058C000232B41F4209102013091030130935404C1
:1058D00020935304209100013091010121153105DD
:1058E00041F42DB73EB74091040150910501241BAE
:1058F000350BE0915304F0915404E217F307A0F440
:105900002E1B3F0B2817390778F0AC014E5F5F4F15
:105910002417350748F04E0F5F1F509354044093EF
:1059200053048193919302C0E0E0F0E0CF01DF9156
:10593000CF911F910F910895CF93DF93009709F4B2
:1059400081C0FC01329713821282A0915504B0915C
:105950005604109781F420813181820F931F20918A
:105960005304309154042817390751F5F093540427
:10597000E093530467C0ED0120E030E0CE17DF076D
:1059800040F44A815B819E0141155105F1F0EA0125
:10599000F5CFD383C28340815181840F951FC817EF
:1059A000D90759F488819981840F951F02969183B4
:1059B00080838A819B81938382832115310529F419
:1059C000F0935604E09355043DC0E901FB83EA835C
:1059D00049915991C40FD51FEC17FD0761F48081DF
:1059E0009181840F951F0296E901998388838281B2
:1059F00093819B838A83E0E0F0E012968D919C91E5
:105A00001397009719F0FD01DC01F7CF8D919C9160
:105A100011979D012E5F3F4F820F931F20915304DA
:105A2000309154042817390769F4309729F41092FB
:105A300056041092550402C013821282B09354048B
:105A4000A0935304DF91CF910895A0E0B0E0EBE282
:105A5000FDE20C941C29EC01009721F4CB010E947B
:105A6000042CB4C0FC01E60FF71F9C012250310941
:105A7000E217F30708F4A8C0D9010D911C91119702
:105A800006171707B0F00530110508F49BC0C801D0
:105A900004978617970708F495C002501109061B52
:105AA000170B019311936D937C93CF010E949C2C53
:105AB00089C05B01A01AB10A4C01800E911EA09111
:105AC0005504B0915604612C712CE12CF12C1097E7
:105AD00009F446C08D919C911197A815B905B1F5AF
