:100000000C94C9050C94F1050C94F1050C94F105C0
:100010000C94F1050C94F1050C94F1050C94F10588
:100020000C94F1050C94F1050C94F1050C94F10578
:100030000C94F1050C94F1050C94F1050C94F10568
:100040000C948A1C0C94F1050C945F0C0C94390CE4
:100050000C94F1050C94F1050C94F1050C94F10548
:100060000C9497150C94F10500407A10F35A00A0F7
:10007000724E18090010A5D4E80000E87648170071
:1000800000E40B54020000CA9A3B000000E1F505B1
:10009000000080969800000040420F000000A086FB
:1000A00001000000102700000000E803000000002D
:1000B0006400000000000A000000000001000000D1
:1000C00000002C76D888DC674F0823DFC1DFAE59EB
:1000D000E1B1B796E5E3E453C63AE651997696E87E
:1000E000E6C28426EB898C9B62ED407C6FFCEFBC02
:1000F0009C9F40F2BAA56FA5F490055A2AF75C932D
:100100006B6CF9676DC11BFCE0E40D47FEF520E662
:10011000B500D0ED902E0300943577050080841E45
:10012000080000204E0A000000C80C333333330FA0
:10013000986E12831141EF8D2114893BE65516CF3D
:10014000FEE6DB18D1844B381BF77C1D901DA4BB49
:10015000E424203284725E228100C9F124ECA1E5FE
:100160003D27DB40A4A62EAFDA0281DA1281DA0243
:10017000818F2000A1C8D300408DAED580A800009B
:10018000600000000000000000000000000000E02F
:100190000000000000000000000000000001E0007E
:1001A00000000000000000000000000001F000005E
:1001B000000000000000000000000003F00000004C
:1001C0000000000000000000000007F00000000038
:1001D00000000000000000000007F8000000000020
:1001E00000000000000000000FF800000003C00045
:1001F0007E000001E0007F0FF800000003C000FE59
:10020000000001E000FFEFF800000003C000FE0066
:100210000001E000FFFFF800000003C000F0000054
:10022000000F007FFE7FC0000003C000F000000050
:100230000F003FFE7FF83FF1FBCFFCFEF3BC3DEF2C
:10024000E01FFE7FFF7FFBFFDFFEFEFFBC3DEFE018
:100250001FC6FFFF7FFBFFDFFEFEFFBC3DEFE00F91
:10026000E3C7FE787BC3DE1EF0FFBC3DEF0007FF57
:1002700087FC787BC3DE1EF0F83C3DEF0001FFFFFA
:10028000F0007BC3C01EF0F03C3DEF0001F37FE0C7
:100290003FFBC3CFFEF0F03C3DEF0003E33F807F28
:1002A000FBC3DFFEF0F03C3DEF0007E73C00787B4E
:1002B000C3DE1EF0F03C3DEF0007FFBE00787BC3BD
:1002C000DE1EF0F03C3DEF0007FFFE00787BC3DE52
:1002D0001EF0F03C3DEF000FFFFE007FFBFFDFFE56
:1002E000F0F03FFDEFE00FFFFF007FFBFFDFFEF0D0
:1002F000F03FFDEFE00FF9FF003E79F9CF9EF0F0FF
:100300001F3DE7E01FF1FF000000000000000000BB
:100310000000001F80FF007FFFFFFFFFFFFFFFFFC8
:10032000FFE01C007F007FFFFFFFFEB46D888D188B
:10033000E000001F007FFFFFFFFE95AD7DB577E079
:1003400000000F007FFFFFFFFEA5AD9D8D19E000AF
:100350000006007FFFFFFFFEB5ADEDB57EE00000BB
:100360000000000180000000000000000000038089
:1003700000000000000000000007C00000000000B6
:100380000000000007C00000000000000000000F97
:10039000C00000000000000000001FE0000000009E
:1003A00000000000001FE00000000000000000004E
:1003B0003FE00000000000000000003FF0000000EF
:1003C0000000000000007FF0000000000000001F9F
:1003D000F87FF0000000000000003FFE7FF000000A
:1003E00000000000003FFF7FF00000000000000060
:1003F0001FFFFBE0000000000000000FFFF9FFC03E
:100400000000000000000FFFF9FFF80000000000EE
:100410000007FFF1FFFF00000000000003FC73FF76
:10042000FF80000000000001FE3FFFFF8000000091
:10043000000000FF1E0FFF000000000000007FFE14
:100440001FFC000000000000003FFFFFF80000005C
:10045000000000000FDFFFE0000000000000001FB0
:1004600019FFC0000000000000003F3CFF0000003A
:1004700000000000007E7CF800000000000000008A
:100480007FFE7C0000000000000000FFFFFC000079
:10049000000000000000FFFFFE0000000000000060
:1004A00000FFFFFE0000000000000001FFEFFE0063
:1004B00000000000000001FFCFFE0000000000006F
:1004C0000003FF07FE0000000000000003FC07FE21
:1004D0000000000000000003F003FE000000000028
:1004E0000000018000FE000000000000000000008D
:1004F0007E000000000000000000003E0000000040
:100500000000000000000C00000000000007800058
:10051000FC000003C0000000078001FC000003C0D5
:10052000000000078001FC000003C00000000780FD
:1005300001E00000001E000000078001E000000054
:100540001E007FE3F79FF9FDE7787BDFC0FFF7FF31
:10055000BFFDFDFF787BDFC0FFF7FFBFFDFDFF782C
:100560007BDFC0F0F787BC3DE1FF787BDE00F0F772
:1005700087BC3DE1F0787BDE0000F787803DE1E05D
:10058000787BDE007FF7879FFDE1E0787BDE00FF70
:10059000F787BFFDE1E0787BDE00F0F787BC3DE147
:1005A000E0787BDE00F0F787BC3DE1E0787BDE00A1
:1005B000F0F787BC3DE1E0787BDE00FFF7FFBFFD91
:1005C000E1E07FFBDFC0FFF7FFBFFDE1E07FFBDF86
:1005D000C07CF3F39F3DE1E03E7BCFC00000000014
:1005E00000000000000000FFFFFFFFFFFFFFFFFF14
:1005F000FFC0FFFFFFFFFD68DB111A31C0FFFFFFE7
:10060000FFFD2B5AFB6AEFC0FFFFFFFFFD4B5B3B7B
:100610001A33C0FFFFFFFFFD6B5BDB6AFDC000010B
:1006200003070F1F3F7F0080C0E0F0F8FCFE0000D2
:100630000000003E5B4F5B3E3E6B4F6B3E1C3E7CC2
:100640003E1C183C7E3C181C577D571C1C5E7F5E70
:100650001C00183C1800FFE7C3E7FF00182418002F
:10066000FFE7DBE7FF30483A060E262979292640C6
:100670007F050507407F05253F5A3CE73C5A7F3EF2
:100680001C1C08081C1C3E7F14227F22145F5F0084
:100690005F5F06097F017F006689956A6060606020
:1006A0006094A2FFA29408047E040810207E20100B
:1006B00008082A1C08081C2A08081E101010100C14
:1006C0001E0C1E0C30383E3830060E3E0E06000062
:1006D00000000000005F00000007000700147F1406
:1006E0007F14242A7F2A1223130864623649562075
:1006F000500008070300001C2241000041221C009A
:100700002A1C7F1C2A08083E080800807030000858
:1007100008080808000060600020100804023E512C
:1007200049453E00427F40007249494946214149BE
:100730004D331814127F1027454545393C4A494925
:100740003141211109073649494936464949291E8F
:10075000000014000000403400000008142241147E
:1007600014141414004122140802015909063E41D0
:100770005D594E7C1211127C7F494949363E4141F8
:1007800041227F4141413E7F494949417F09090951
:10079000013E414151737F0808087F00417F4100BD
:1007A0002040413F017F081422417F404040407F6C
:1007B000021C027F7F0408107F3E4141413E7F09B9
:1007C0000909063E4151215E7F09192946264949FA
:1007D000493203017F01033F4040403F1F2040203A
:1007E0001F3F4038403F6314081463030478040338
:1007F0006159494D43007F414141020408102000E6
:100800004141417F04020102044040404040000356
:1008100007080020545478407F2844443838444422
:100820004428384444287F385454541800087E091A
:100830000218A4A49C787F0804047800447D40003A
:100840002040403D007F1028440000417F40007C54
:10085000047804787C080404783844444438FC184C
:1008600024241818242418FC7C0804040848545430
:10087000542404043F44243C4040207C1C2040205D
:100880001C3C4030403C44281028444C9090907CC4
:100890004464544C440008364100000077000000D6
:1008A0004136080002010204023C2623263C1EA118
:1008B000A161123A4040207A385454555921555577
:1008C0007941225454784221555478402054557926
:1008D000400C1E52721239555555593954545459B9
:1008E00039555454580000457C410002457D420072
:1008F00001457C407D1211127DF0282528F07C54A2
:100900005545002054547C547C0A097F493249499A
:1009100049323A4444443A324A4848303A41412103
:100920007A3A42402078009DA0A07D3D4242423D5F
:100930003D4040403D3C24FF2424487E4943662BF3
:100940002FFC2F2BFF0929F620C0887E0903205495
:100950005479410000447D413048484A3238404093
:10096000227A007A0A0A727D0D19317D2629292FF3
:1009700028262929292630484D402038080808080B
:1009800008080808382F10C8ACBA2F102834FA000D
:10099000007B000008142A142222142A140855008F
:1009A000550055AA55AA55AAFF55FF55FF0000004E
:1009B000FF00101010FF00141414FF001010FF00AF
:1009C000FF1010F010F0141414FC001414F700FFC2
:1009D0000000FF00FF1414F404FC141417101F107F
:1009E000101F101F1414141F00101010F00000002E
:1009F000001F101010101F10101010F01000000039
:100A0000FF101010101010101010FF10000000FF49
:100A1000140000FF00FF00001F10170000FC04F48A
:100A200014141710171414F404F40000FF00F71442
:100A3000141414141414F700F714141417141010C9
:100A40001F101F141414F4141010F010F000001FE5
:100A5000101F0000001F14000000FC140000F01024
:100A6000F01010FF10FF141414FF141010101F00CA
:100A7000000000F010FFFFFFFFFFF0F0F0F0F0FFCC
:100A8000FFFF0000000000FFFF0F0F0F0F0F3844A3
:100A9000443844FC4A4A4A347E02020606027E0278
:100AA0007E0263554941633844443C04407E201E25
:100AB0002006027E020299A5E7A5991C2A492A1C54
:100AC0004C7201724C304A4D4D303048784830BC41
:100AD000625A463D3E494949007E0101017E2A2A6B
:100AE0002A2A2A44445F444440514A444040444AEC
:100AF00051400000FF0103E080FF000008086B6B1D
:100B0000083612362436060F090F060000181800A2
:100B100000001010003040FF0101001F01011E0005
:100B2000191D1712003C3C3C3C0000000000000076
:100B300000002300260029002200FF2100040404F5
:100B40000404040404020202020202030303030376
:100B50000301020408102040800102040810200153
:100B6000020408102000000000240027002A0000D2
:100B7000000000250028002B0000000008000201F2
:100B8000000003040700000000000000000098249B
:100B9000D41C11241FBECFEFD8E0DEBFCDBF23E0B1
:100BA000A0E1B2E001C01D92A13FB207E1F712E05F
:100BB000A0E0B1E0E0E5FBE502C005900D92A031B8
:100BC000B107D9F715E0C8ECD5E004C02197FE01C4
:100BD0000E947A2AC73CD107C9F70E94E31C0C94F3
:100BE0009B2D0C940000CF92DF92EF92FF920F9317
:100BF0001F93CF93DF936C017A018B01C0E0D0E0AB
:100C0000CE15DF0581F0D8016D918D01D601ED91F2
:100C1000FC910190F081E02DC6010995892B11F01E
:100C20002196EECF7E01C701DF91CF911F910F91E9
:100C3000FF90EF90DF90CF900895FC01538D448D8D
:100C4000252F30E0842F90E0821B930B541710F077
:100C5000CF96089501970895FC01918D828D981784
:100C600061F0828DDF01A80FB11D5D968C91928D90
:100C70009F5F9F73928F90E008958FEF9FEF08958D
:100C8000FC01918D828D981731F0828DE80FF11D56
:100C9000858D90E008958FEF9FEF0895FC01918D71
:100CA000228D892F90E0805C9F4F821B91098F736A
:100CB000992708958CEC92E00E944E0621E0892B42
:100CC00009F420E0822F0895FC01848DDF01A80F34
:100CD000B11DA35ABF4F2C91848D90E001968F7364
:100CE0009927848FA689B7892C93A089B1898C9183
:100CF000837080648C93938D848D981306C00288D2
:100D0000F389E02D80818F7D80830895EF92FF929B
:100D10000F931F93CF93DF93EC0181E0888F9B8D1E
:100D20008C8D981305C0E889F989808185FD26C0DE
:100D3000F62E0B8D10E00F5F1F4F0F731127E02E63
:100D40008C8DE8120CC00FB607FCFACFE889F98940
:100D5000808185FFF5CFCE010E946406F1CF8B8D97
:100D6000FE01E80FF11DE35AFF4FF0829FB7F894A0
:100D70000B8FEA89FB89808180620AC09FB7F89453
:100D8000EE89FF896083E889F989808183708064B6
:100D900080839FBF81E090E0DF91CF911F910F9101
:100DA000FF90EF900895CF93DF93EC01888D882317
:100DB000C9F0EA89FB89808185FD05C0A889B989C8
:100DC0008C9186FD0FC00FB607FCF5CF808185FFA3
:100DD000F2CFA889B9898C9185FFEDCFCE010E9411
:100DE0006406E7CFDF91CF91089580E090E0892BF2
:100DF00029F00E945A0681110C9400000895FC010C
:100E000077FDB9C080859185681779070CF0B3C06C
:100E100057FDB1C082859385481759070CF0089596
:100E20008589823079F484819581DC01A61BB70B1A
:100E3000BD016150710986819781DC01A41BB50B4E
:100E4000AD010EC0833009F084C064277527CA0144
:100E5000862797276827792746815781481B590B92
:100E6000415051092130310531F048F1223031052E
:100E700009F44AC00895CA0157FD07969C01A3E0F2
:100E800035952795AA95E1F7A481B5812A9FC001E0
:100E90002B9F900D3A9F900D1124680F791F068C9F
:100EA000F78DE02DE60FF71F4770552781E090E0A2
:100EB00001C0880F4A95EAF79081892B48C0CA0182
:100EC00057FD07969C0193E0359527959A95E1F794
:100ED000A481B5812A9FC0012B9F900D3A9F900D50
:100EE0001124680F791F068CF78DE02DE60FF71F90
:100EF0004770552781E090E001C0880F4A95EAF7D6
:100F000080959081892323C0CA0157FD07969C01D3
:100F100083E0359527958A95E1F7A481B5812A9FCD
:100F2000C0012B9F900D3A9F900D1124680F791FDF
:100F3000068CF78DE02DE60FF71F4770552781E0EF
:100F400090E001C0880F4A95EAF790818927808355
:100F50000895813009F086CF6427752746275727E3
:100F60006427752784819581DC01A61BB70BBD0121
:100F70006150710977CF08950895FC016370658B06
:100F80008481958126813781613039F0633029F081
:100F900091878087338722870895318720879387B9
:100FA000828708956F927F928F929F92AF92BF92A5
:100FB000CF92DF92EF92FF920F931F93CF93DF9325
:100FC000EC014B015A0169013801E881F981028481
:100FD000F385E02D0995E881F9810288F389E02DF8
:100FE00087019601A501B401CE010995A501460D21
:100FF000571D41505109E881F9810288F389E02D9C
:101000009601B401CE010995E881F9810088F18942
:10101000E02D9301A501B401CE010995C80CD91C9E
:10102000B60161507109E881F9810088F189E02DEC
:101030009301A501CE010995E881F9810688F78918
:10104000E02DCE01DF91CF911F910F91FF90EF9096
:10105000DF90CF90BF90AF909F908F907F906F90D8
:1010600009948F929F92AF92BF92CF92DF92EF92AC
:10107000FF920F931F93CF93DF934C016B015A01A3
:10108000E901DC01ED91FC916217730781F404170B
:10109000150724F48B2D5801042F182F0A191B094A
:1010A00098012F5F3F4F048CF58DE02D12C0401743
:1010B000510709F52617370724F48D2D6901C62F2E
:1010C000D82F9E012C193D092F5F3F4F068CF78DBD
:1010D000E02D8701A501B601C4010995DF91CF91EB
:1010E0001F910F91FF90EF90DF90CF90BF90AF9046
:1010F0009F908F9008950284F385E02D0995D40187
:10110000ED91FC910488F589E02D9E01A501B601C1
:10111000C4010995D401ED91FC910688F789E02D71
:10112000C401DF91CF911F910F91FF90EF90DF905D
:10113000CF90BF90AF909F908F900994EF92FF92C5
:101140000F931F93DC011A960D911C911B97189613
:101150002D913C911997ED91FC9100A0F1A1E02D0A
:101160007B0140E050E060E070E009951F910F9135
:10117000FF90EF9008954F925F926F927F928F92BF
:101180009F92AF92BF92CF92DF92EF92FF920F9316
:101190001F93CF93DF936C012B015A013901480152
:1011A000DC01ED91FC910284F385E02D0995E201CB
:1011B000640C751CD601ED91FC91C615D7055CF445
:1011C0000088F189E02D87019401A501BE01C601C7
:1011D00009952196EFCF0688F789E02DC601DF91AA
:1011E000CF911F910F91FF90EF90DF90CF90BF9024
:1011F000AF909F908F907F906F905F904F900994E9
:101200008F929F92AF92BF92CF92DF92EF92FF9216
:101210000F931F93CF93DF93EC015B014A016901A8
:10122000E881F9810284F385E02D099595012C0D63
:101230003D1D21503109E881F9810488F589E02DAF
:1012400078018401A401B501CE010995E881F981F5
:101250000688F789E02DCE01DF91CF911F910F9184
:10126000FF90EF90DF90CF90BF90AF909F908F90C6
:1012700009948F929F92AF92BF92CF92DF92EF929A
:10128000FF920F931F93CF93DF93EC015B014A0111
:1012900069017801E881F9810284F385E02D0995DF
:1012A000C80CD91C860101501109E881F981048814
:1012B000F589E02D9501A401B501CE010995E881DC
:1012C000F9810688F789E02DCE01DF91CF911F913A
:1012D0000F91FF90EF90DF90CF90BF90AF909F90D5
:1012E0008F900994EF92FF920F931F93DC01ED9181
:1012F000FC9100A0F1A1E02D09951F910F91FF90A5
:10130000EF9008950F931F93DC01ED91FC91068CF3
:10131000F78DE02D09951F910F9108950F931F935D
:10132000DC01ED91FC91048CF58DE02D09951F9168
:101330000F910895DC01ED91FC910084F185E02D81
:1013400009942F923F924F925F926F927F928F9269
:101350009F92AF92BF92CF92DF92EF92FF920F9344
:101360001F93CF93DF9300D000D000D0CDB7DEB76E
:101370002C017E836D836A015901C801FC82EB82D6
:101380004801841A950A97FE03C0919481949108AC
:1013900035012D813E81621A730A77FE03C0719474
:1013A00061947108681479045CF43A2D2B2D5C016A
:1013B000832F922F3D812E81DE82CD82C32ED22EAD
:1013C000AD81BE81AA16BB065CF43C2D2D2D6C01AF
:1013D000832F922F3D812E81BE82AD82A32EB22E0D
:1013E00085012D813E81021B130B1C012C183D0829
:1013F00037FE03C0319421943108780117FF03C0F0
:101400003FEFE31AF30AF594E794C816D9062CF0D7
:101410008FEF9FEF9A83898304C0A1E0B0E0BA8385
:10142000A9832D813E81A216B30624F1D201ED914C
:10143000FC910484F585E02D2B813C8168147904AE
:1014400024F44D815E81B60103C0A6016D817E81C9
:10145000C2010995E218F308F7FE06C029813A8116
:10146000C20ED31EE00EF11E8D819E8101969E83D9
:101470008D83D7CF26960FB6F894DEBF0FBECDBFB3
:10148000DF91CF911F910F91FF90EF90DF90CF9060
:10149000BF90AF909F908F907F906F905F904F9094
:1014A0003F902F900895089580E090E008950F9365
:1014B0001F93CF93DF93DC015596EC915597E23063
:1014C00071F0E330E9F0E13079F5FB0114960D900D
:1014D000BC91A02DA41BB50BA21BB30B18C0EC0133
:1014E000EC81FD81E61BF70BBF0161507109EE81B4
:1014F000FF81DF01A41BB50BAD01421B530B14C0D0
:10150000DA01EC01EE81FF81E61BF70B3197F7FD65
:101510000DC0EC014E815F81E417F5073CF4AF018B
:10152000BD010E947B1402C00E94E214DF91CF91A2
:101530001F910F9108950F931F93DC015596EC9125
:101540005597E23061F0E33009F1E13081F514960E
:10155000ED91FC911597E41BF50B319723C0DC014D
:101560001496ED91FC911597DF01A61BB70BBD01F9
:10157000DC011696ED91FC911797DF01A41BB50BCA
:10158000AD0141505109621B730B11C0FA01DC011E
:1015900016964D915C911797DA01A61BB70BBD010A
:1015A000621B730BAB01BF010E94E2140CC057FD1C
:1015B0000AC0DC011696ED91FC9117974E175F0754
:1015C00014F40E947B141F910F910895AF92BF9263
:1015D000CF92EF92FF920F931F93CF93DF93EC0183
:1015E000262F888D998D009709F040C06A3059F4F4
:1015F0001D861C862C898E859F8538E0239F800D53
:10160000911D112441C06D3009F4AAC08E89882330
:10161000C1F03C898C859D8546E0349F800D911DED
:10162000112448855985481759075CF41D861C8686
:101630008E859F8548E0349F800D911D11249F87E2
:101640008E87EA88FB88088919894E855F856C85B5
:101650007D85CC88CE010E9461122C898C859D8568
:1016600036E0239F800D911D112442C06A3079F429
:101670001D861C862C89FC013696E4918E859F85FB
:101680002E9F800D911D11249F878E8769C06D301C
:1016900009F466C0FC0134963491631708F460C005
:1016A0003196E491E61708F45BC0FC01329665912F
:1016B0007491422F50E0431B510937E0349F500191
:1016C000359FB00C1124A60EB71EF5013296349149
:1016D0003196E491332311F0E1110DC0F5013496F8
:1016E000E4912C898C859D85E29F800D911D1124AC
:1016F0009D878C8735C0F501359644915E895523C9
:1017000011F16C89E32FF0E0E40FF11D47FDFA952C
:101710006E9FD0016F9FB00D11244C855D854A0FDF
:101720005B1FE885F985E417F5076CF41D861C86B8
:10173000FC013696E4918E859F856E9F800D911DEC
:1017400011249F878E87EA88FB88088919894E852E
:101750005F856C857D85CC88CE010E946112BECFED
:1017600081E090E0DF91CF911F910F91FF90EF907A
:10177000CF90BF90AF9008950F931F93CF93DF93B7
:10178000EC0188819981009729F02A813B812617F5
:10179000370788F48B016F5F7F4F0E94B92C009749
:1017A00061F0998388831B830A832C813D81232BDD
:1017B00011F4FC01108281E001C080E0DF91CF9143
:1017C0001F910F910895CF93DF93EC018881998148
:1017D000009711F00E94302C198218821D821C8201
:1017E0001B821A82DF91CF910895FB01DC011196D3
:1017F0001C921E9213961C921E92129715961C9282
:101800001E9214978617970749F0608171816115C0
:10181000710521F0448155810C94560D0895FC0109
:101820001182108213821282158214826115710551
:1018300051F0FB0101900020E9F73197AF01461B01
:10184000570B0C94560D08956115710579F0FB0145
:1018500001900020E9F73197AF01461B570BDC01DF
:10186000ED91FC910280F381E02D099480E090E0FD
:1018700008951F920F920FB60F9211242F933F934A
:101880004F935F936F937F938F939F93AF93BF9388
:10189000EF93FF938CEC92E00E946406FF91EF912E
:1018A000BF91AF919F918F917F916F915F914F9178
:1018B0003F912F910F900FBE0F901F9018951F9280
:1018C0000F920FB60F9211242F938F939F93EF9344
:1018D000FF93E091DC02F091DD028081E091E20271
:1018E000F091E30282FD12C090818091E5028F5F4A
:1018F0008F732091E602821751F0E091E502F0E04B
:10190000E453FD4F958F8093E50201C08081FF91E4
:10191000EF919F918F912F910F900FBE0F901F907D
:10192000189508958EBD00000DB407FEFDCF8EB54D
:1019300008951F93CF93DF93FC01848D958D0097BD
:1019400001F1162FEF0160A10E948B1B8C8D9D8DE4
:10195000DC01ED91FC910190F081E02D60E00995B2
:101960008C8D9D8DDC01ED91FC910190F081E02D3D
:10197000612F09958C8D9D8DDF91CF911F910C94D6
:101980002F1BA4A5B5A59C9182A9809589238C9332
:10199000828D938D892B31F0862FDF91CF911F910E
:1019A0000C94920C28E030E080E8A0A5B1A590A9A5
:1019B000462F482319F04C91942B03C04C919095DD
:1019C00094239C93A2A5B3A54C9191A9942B9C938D
:1019D000A2A5B3A54C9191A9909594239C9386952B
:1019E0002150310911F7DF91CF911F9108958CBDDE
:1019F0009DBD08951F93CF93DF93EC01162F8C8D1F
:101A00009D8D892BB1F02EA93FA948AD59AD60E05D
:101A100074E284EF90E00E940229DA01C901409744
:101A2000A109B109B695A795979587958093B800B8
:101A30000FC08A8D9B8D892B21F08CA99DA90E94B6
:101A4000F70CEEA5FFA590818BA980958923808353
:101A5000111102C066EA01C067EACE010E94990C2A
:101A60008C8D9D8D892BB1F02AAD3BAD4CAD5DAD1C
:101A700060E074E284EF90E00E940229DA01C9017B
:101A80004097A109B109B695A79597958795809339
:101A9000B80006C0EEA5FFA590818BA9892B808395
:101AA000DF91CF911F9108950E947F2DEF92FF92B9
:101AB0000F931F93CF93DF93EC017B018A01BA014F
:101AC0000E94BC0B811104C0CE010E94E30B07C031
:101AD0001D830C83B701888199810E94942DCE01CA
:101AE000DF91CF911F910F91FF90EF900895CF92CA
:101AF000DF92EF92FF92CF93DF93B0917C03882324
:101B000011F0AB2F01C0A0E080917D0390E0880F21
:101B1000991F825D944FC0908203D0908303E09020
:101B20008403F090850320E030E0FC01C591D4915E
:101B3000E881EB23A90160E070E0EA130CC02F5F9D
:101B40003F4F4C155D056E057F0578F33FEF2FEF96
:101B50008FEF9FEF03C0322F252FCB01632F722F02
:101B6000DF91CF91FF90EF90DF90CF90089585EDBA
:101B70008093BC008091BC0084FDFCCF1092A90230
:101B80000895089508950E944F1A98278927982745
:101B90000895CF93C82F66E789E693E00E948B1BD8
:101BA0006C2F89E693E00E94001B89E693E00E9477
:101BB0002F1B81E090E00E94061A9091AA0280916A
:101BC000AB029817F1F389E693E00E94921ACF9145
:101BD0000895EF92FF920F931F93CF93DF93EC0141
:101BE0007B0161157105E9F0FB0101900020E9F727
:101BF0003197E61BF70BC1F00C811D810E0F1F1FE3
:101C0000B8010E94BC0B882361F0288139818C8146
:101C10009D81B701820F931F0E94942D1D830C8319
:101C200003C0CE010E94E30BCE01DF91CF911F9143
:101C30000F91FF90EF900895EF92FF920F931F93F3
:101C4000CF93DF93CDB7DEB7A1970FB6F894DEBF81
:101C50000FBECDBF7C01CB01BA01F701118210820A
:101C600013821282158214828E010F5F1F4F22E0B1
:101C700044E00E942B25009769F0FC0101900020B0
:101C8000E9F73197AF01481B590BBC01C7010E940E
:101C9000560D03C0C7010E94E30BA1960FB6F8943E
:101CA000DEBF0FBECDBFDF91CF911F910F91FF908F
:101CB000EF9008958F929F92AF92BF92CF92DF9252
:101CC000EF92FF92F82E66E789E693E00E948B1B65
:101CD0006F2D89E693E00E94001B89E693E00E9445
:101CE0002F1B83E090E00E94061A8091AA0290E0E8
:101CF0002091AB02821B910983309105ECF389E6B8
:101D000093E00E94921A4C01990FAA08BB08BA2CC2
:101D1000A92C982C882489E693E00E94921A6C01E1
:101D2000990FEE08FF08C828D928EA28FB28FE2CBE
:101D3000ED2CDC2CCC2489E693E00E94921A092E2B
:101D4000000CAA0BBB0BBC01CD016C297D298E298F
:101D50009F29FF90EF90DF90CF90BF90AF909F9022
:101D60008F9008958F929F92AF92BF92CF92DF9201
:101D7000EF92FF928AEF0E945A0EEEE5F2E0208188
:101D80003181C72ED82EE92EFF24E7FCFA94C21A1F
:101D9000D30AE108F108DC01CB0157E0B595A7951E
:101DA000979587955A95D1F7220F331F4C015D0106
:101DB000821A930AA108B108A5019401A281B381F6
:101DC0000E9424294B015C017BE0B594A794979471
:101DD00087947A95D1F7A7019601C701B6010E94B1
:101DE000F2289B01AC01ACE05595479537952795B6
:101DF000AA95D1F7A481B5810E942429DC01CB01E9
:101E00002EE0B595A795979587952A95D1F7A501C9
:101E10009401280F391F4A1F5B1F21A332A343A33C
:101E200054A3A5E0B0E00E94A128DC01CB018058BA
:101E30009F4FAF4FBF4F692F7A2F8B2F992787FD69
:101E40009A950E94842720E030E048EC52E40E94FA
:101E5000ED2AFF90EF90DF90CF90BF90AF909F90D2
:101E60008F9008954F925F926F927F928F929F9280
:101E7000AF92BF92CF92DF92EF92FF920E94B20E8A
:101E80008DEF0E944F1A80907F0290908002A09068
:101E90008102B09082022CE2921A21E0A20AB108DB
:101EA0006C01E12CF12C3EE0CC0CDD1CEE1CFF1C87
:101EB0003A95D1F780917A0290917B02092E000C1D
:101EC000AA0BBB0B44E1880F991FAA1FBB1F4A95A1
:101ED000D1F7C81AD90AEA0AFB0AA0917C02B0918C
:101EE0007D02A50194010E942429C61AD70AE80A96
:101EF000F90A30E4D30EE11CF11C5FE0F594E7949D
:101F0000D794C7945A95D1F7A0917902B0E0A50172
:101F100094010E94A1282B013C016BE07594679409
:101F2000579447946A95D1F740E8540E611C711C90
:101F3000A0917E020A2E000CBB0BA50194010E9409
:101F40002429EAE09595879577956795EA95D1F7E5
:101F5000A30192010E94F228DC01CB01FAE0B595C1
:101F6000A79597958795FA95D1F79C01AD01405EAD
:101F70005F4FA0917702B09178020E942429DC0182
:101F8000CB01905EAF4FBF4FBC01CD01AEE0959548
:101F9000879577956795AA95D1F7A70196010E9435
:101FA000F2286B017C01BFE0959587957795679541
:101FB000BA95D1F79B01AC010E94F2289B01AC01BC
:101FC00087E055954795379527958A95D1F7A09144
:101FD0007602B0E00E94A128DC01CB0124E0B59597
:101FE000A795979587952A95D1F7A7019601281B64
:101FF000390B4A0B5B0BDA01C90157FF03C080E0C4
:1020000090E0DC0181309105A10539E1B30724F0AE
:1020100080E090E0A0E0B9E1BC01CD012CE0959515
:102020008795779567952A95D1F70E94822720E0BA
:1020300030E040E85AE30E94E3270E945F2BFF90C4
:10204000EF90DF90CF90BF90AF909F908F907F9058
:102050006F905F904F9008952F923F924F925F92B2
:102060006F927F928F929F92AF92BF92CF92DF92A8
:10207000EF92FF920F931F93CF93DF93CDB7DEB70D
:10208000A4970FB6F894DEBF0FBECDBF4B015C0125
:10209000F42E9B01AC010E94932B882319F060E081
:1020A00072E027C024013501E89477F82FEF3FEF65
:1020B0004FE75FE7C301B2010E94932B81110DC06E
:1020C0002FEF3FEF4FE75FE7C301B2010E947D278B
:1020D00018161CF464E072E00CC02FEF3FEF4FE7DE
:1020E0005FE4C501B4010E948E2B18163CF468E031
:1020F00072E08CEC92E00E94240CBCC02FEF3FEF0A
:102100004FE75FECC501B4010E947D2787FDEFCF4B
:1021100020E030E0A901C501B4010E947D2787FFBE
:102120000BC06DE28CEC92E00E9486063C01B7FA8F
:10213000B094B7F8B09402C0612C712C10E060E04C
:1021400070E080E09FE3F11641F020E030E040E2F3
:1021500051E40E94ED2A1F5FF6CFA50194010E9471
:10216000812A4B015C010E945F2B6AA3C72ED82EE7
:10217000E92E19A2262F372F482F592F8E010F5DD8
:102180001F4F0BA31CA39AE0292E312C412C512C5C
:10219000CA01B901A20191010E940229605DF80102
:1021A00062938F01211531054105510589F7BF0162
:1021B0008CEC92E00E94240C8301080F191FFF2071
:1021C00009F457C06AA17C2D8D2D9E2D0E94822777
:1021D0009B01AC01C501B4010E94802A4B015C0146
:1021E0006EE28CEC92E00E948606080F191F8AE0CE
:1021F000282E312C412C512C20E030E040E251E4DB
:10220000C501B4010E94E3274B015C010E945F2BD2
:102210009B0140E050E019A2CBA0DCA0762E3AA3AF
:10222000642EE52ECA01B901A20191010E94022982
:10223000605DF60162936F0121153105410551057D
:1022400089F7BF018CEC92E00E94240C080F191F43
:10225000672D7AA1862D9E2D0E9482279B01AC01BD
:10226000C501B4010E94802A4B015C01FA94F1106F
:10227000C3CFC801A4960FB6F894DEBF0FBECDBF82
:10228000DF91CF911F910F91FF90EF90DF90CF9052
:10229000BF90AF909F908F907F906F905F904F9086
:1022A0003F902F900895CF92DF92EF92FF920F937D
:1022B0001F93CF93DF93CDB7DEB7C054D1400FB695
:1022C000F894DEBF0FBECDBF2FB7F89480911702F0
:1022D00090911802A0911902B0911A022FBF40915B
:1022E0007E0350917F0360918003709181038C0184
:1022F0009D01041B150B260B370BB901A801403DAE
:1023000057406105710518F480918603CAC0809317
:102310007E0390937F03A0938003B0938103109278
:10232000790310927803109277031092760310923B
:10233000750362E080917A030E94141C61E070E0F2
:1023400080E090E00E94501C61E080917A030E943E
:10235000141C60E080917A030E94951B80917B039E
:102360008551823028F48BE291E10197F1F706C0A4
:1023700064E170E080E090E00E94501C62E0809197
:102380007A030E94141C8091870390E082309105AB
:1023900038F0880F991F880F991F05970197F1F75B
:1023A000F89480E00E94770D6F3F7F4F8F4F9F4FD3
:1023B00021F410928603789441C081E00E94770D49
:1023C0006F3F7F4F8F4F9F4FA1F38E010F5F1F4FC6
:1023D0006E018FEBC81A8EEFD80A780180E00E9458
:1023E000770DF701608371838283938381E00E947C
:1023F000770DF7016483758386839783F8E0EF0E8A
:10240000F11CEC14FD0451F7789420E030E0F80161
:10241000C080D180E280F3804481558166817781DC
:10242000FFEFCF16DF06EF06FF0631F04F3F8FEFCD
:1024300058076807780721F41092860380E031C0BE
:10244000F90183E0F595E7958A95E1F7EB58FC4FA4
:102450008081880FC416D506E606F70608F4816069
:1024600080832F5F3F4F085F1F4F2832310579F679
:102470002091790330E0409175038091760390E0DC
:10248000840F911D40917703840F911D4091780333
:10249000840F911D99272817390771F681E08093E1
:1024A0008603C05CDE4F0FB6F894DEBF0FBECDBF13
:1024B000DF91CF911F910F91FF90EF90DF90CF9020
:1024C00008952F923F924F925F926F927F928F92D8
:1024D0009F92AF92BF92CF92DF92EF92FF920F93B3
:1024E0001F93CF93DF93CDB7DEB76B970FB6F894FA
:1024F000DEBF0FBECDBF9B8F8A8F5B011A01D22E2C
:102500001F830E833701C982DC0158962D913C91BF
:1025100059972115310509F0E6C018968D919C91C7
:102520001997681779070CF0CDC11A968D919C9177
:102530001B97481759070CF0C5C18C2C912CFB0137
:1025400026E0C29EE00DF11D1124FB87EA871E16CE
:102550001F060CF0B7C1A40183E0440F551F8A95F4
:10256000E1F75D874C87CA01820D931D1816190685
:102570000CF0A8C157968C91811104C05FEA5D15DB
:1025800008F4D394AA8DBB8DED91FC911197028430
:10259000F385E02DCD010995B5E0DB9EC001112446
:1025A000F5013596FF87EE87BB82AA8225019C0143
:1025B0002A193B09398B288BA101485F5F4F5B8B40
:1025C0004A8BE889F989E40DF51DE25DF94F5491D4
:1025D000588761013D822C82888580FF13C0AA8DB7
:1025E000BB8DED91FC91B981B13031F40484F58556
:1025F000E02D2E813F8116C00684F785E02DEE8008
:10260000FF801AC0EE81FF81E615F705F1F0AA8D73
:10261000BB8DED91FC91B981B13051F40484F58505
:10262000E02D9301A601B2018A8D9B8D09950DC005
:102630000684F785E02D7301840194014C815D814E
:102640006A817B818A8D9B8D0995E885E695E8876F
:10265000FFEFCF1ADF0A2C813D81280D391D3D8304
:102660002C834A895B89C416D50609F0B5CF5FEF84
:10267000451A550A8A819B81880D991D9B838A83FF
:10268000AE85BF854A165B0609F09BCFEE81FF81C0
:10269000E615F70509F4F4C0EA8DFB8DA081B18140
:1026A000F981F13079F4B5016B5F7F4F5096ED9170
:1026B000FC915197830128E030E0A1018A8D9B8D28
:1026C0000995DEC06A857B85681979091E96ED91AA
:1026D000FC911F9773010C851D859401A1018A8DC2
:1026E0009B8D0995CDC0F9013496E491DE1AF9016C
:1026F000329685919491B7E0DB9E800D911D112457
:10270000F901259134913B8B2A8BFC012591349161
:102710002901FC013296C490319634913E8732965D
:1027200014913196D4904981423058F0612E012E97
:10273000000C77088D2D0D2C000C990B998788873C
:1027400004C019861886612C712CAA8DBB8DED9161
:10275000FC9111970284F385E02DCD010995B98193
:102760008B2E912C689CC001699C900D789C900DDB
:102770001124FC01EA0DFB1DFD87EC871A82712CE8
:10278000612CE12F110FFF0B95012E0F3F1F3B878F
:102790002A87AC0CB11CA5014E0F5F1F5F8B4E8BBF
:1027A000C1018D0D911DD7FC9A95998F888F9E85BB
:1027B000691608F065C0862D90E048855985480F58
:1027C000591F489D9001499D300D589D300D112491
:1027D000D101A20FB31FB98BA88BEC85FD85FD83BA
:1027E000EC83AA84BB84DA80FA85DF1A288D398DC0
:1027F000280F391F3D8B2C8B8D2D8A0D4E895F89BB
:10280000A416B506C1F1877041F4C2010196EA89A8
:10281000FB89E40DF51D74902C0177FE21C0AA8D73
:10282000BB8DED91FC91B981B13061F40484F585E3
:10283000E02D2E813F814C895D89B5018A8D9B8D6C
:1028400009950EC00684F785E02DEE80FF80840197
:102850009401488959896C817D818A8D9B8D099568
:10286000770CEFEFAE1ABE0A2C813D81280D391D81
:102870003D832C83C1CF3A813C0D3A83639497CF3B
:10288000AA8DBB8DED91FC9111970688F789E02DFB
:10289000CD016B960FB6F894DEBF0FBECDBFDF91B2
:1028A000CF911F910F91FF90EF90DF90CF90BF904D
:1028B000AF909F908F907F906F905F904F903F90E0
:1028C0002F9009946B960FB6F894DEBF0FBECDBF64
:1028D000DF91CF911F910F91FF90EF90DF90CF90FC
:1028E000BF90AF909F908F907F906F905F904F9030
:1028F0003F902F9008950F931F93CF93DF9377FF0F
:1029000004C0260F371F60E070E0DC011496CD9103
:10291000DC911597FB01E20FF31FCE17DF071CF4C4
:102920009E01261B370B121613060CF046C0FA0147
:1029300057FD3796DF01E3E0B595A795EA95E1F7F6
:10294000AC9FF001AD9FF00DBC9FF00D11246E0FF8
:102950007F1FDC015E96ED91FC915F97E60FF71FFC
:102960004770552781E090E001C0880F4A95EAF74B
:10297000482F0130110539F078F002301105E9F4E3
:102980002E0F3F1F13C02E0F3F1FE217F307A9F0B2
:102990008081842B8193F9CF80952E0F3F1FE21702
:1029A000F30759F0908198239193F9CFE217F30739
:1029B00021F0808184278193F9CFDF91CF911F91FE
:1029C0000F910895EF92FF920F931F93CF93DF9390
:1029D000EC0177FDA5C0EC80FD806E157F050CF045
:1029E0009FC057FF04C0240F351F40E050E08E8188
:1029F0009F81FA01E20FF31F8E179F071CF49C01C1
:102A0000241B350B121613060CF08AC0922F842F4C
:102A10008695869586958E9DD0018F9DB00D11244B
:102A20006A0F7B1FAE8DBF8DA60FB71F4770B1F128
:102A300088E0841B482F682F70E0FB01EA5DF94FA6
:102A4000E491281798F4621B71092FEF30E002C05F
:102A5000359527956A95E2F7E2230130110549F093
:102A600078F00230110509F05BC00EC0013011058D
:102A700019F48C91E82B0AC00130110508F049C007
:102A8000E0958C91E82302C08C91E827EC93941791
:102A900008F446C02C813D81A20FB31FE92FE41B2F
:102AA000E830F8F00230110561F48E2F9C9190957A
:102AB0009C932C813D81A20FB31F88508830B0F7C2
:102AC0000FC081E00115110509F480E081959E2F6A
:102AD0008C932C813D81A20FB31F98509830C0F782
:102AE000E770EE23E9F0F0E0E25EF94FE4910130A7
:102AF000110539F048F00230110591F48C91E82766
:102B000006C08C91E82B03C0E0958C91E823EC93F0
:102B100007C00230110509F4B7CFAE0DBF1DBECFFF
:102B2000DF91CF911F910F91FF90EF9008951F9229
:102B30000F920FB60F9211242F933F934F935F93F1
:102B40006F937F938F939F93AF93BF93EF93FF9375
:102B50008091B900887F803609F49CC068F588327E
:102B600009F45BC090F4803109F454C038F4882330
:102B700009F4F6C0883009F44DC0F6C0883109F474
:102B80004CC0803209F45DC0EFC0803409F468C0E5
:102B900048F4803309F455C0883309F0E5C08093C8
:102BA000A702D8C0803509F44FC0883509F45DC04C
:102BB000883409F0D9C0D6C0883909F4C7C0A8F450
:102BC000883709F467C038F4883609F463C0803761
:102BD00009F460C0C9C0883809F4B8C0803909F464
:102BE0005FC0803809F0C0C05BC0803B09F486C07C
:102BF00038F4803A09F466C0883A09F47FC0B4C05A
:102C0000803C09F4A7C0883C09F4A4C0883B09F4BF
:102C10008AC0AAC08091A40210C09091A60280919F
:102C2000A502981770F5E091A60281E08E0F8093BF
:102C3000A602F0E0ED57FD4F80818093BB0085EC4C
:102C400086C08093A7028EC0E091A60281E08E0F1D
:102C50008093A6028091BB00F0E0ED57FD4F80838A
:102C60009091A6028091A5026EC0E091A60281E03B
:102C70008E0F8093A6028091BB00F0E0ED57FD4FD0
:102C800080838091A80281116DC081E08093A302AE
:102C900084EA61C083E08093A90210925D02CFCFE5
:102CA00080915D02803208F051C0E0915D0281E0C8
:102CB0008E0F80935D028091BB00F0E0E35CFD4FDE
:102CC0008083BDCF85EC8093BC001092A9028091D7
:102CD0005D02803230F4E0915D02F0E0E35CFD4F94
:102CE000108260915D0270E0E0911502F091160291
:102CF0008DE392E0099510925D0236C084E08093E6
:102D0000A90210923C0210923B02E0911302F09152
:102D10001402099580913B02811105C081E08093E6
:102D20003B0210921B02E0913C0281E08E0F8093E7
:102D30003C02F0E0E55EFD4F80818093BB00909106
:102D40003C0280913B02981708F479CF85E8809384
:102D5000BC000AC085EC8093BC001092A90204C09C
:102D60001092A7020E94B70DFF91EF91BF91AF9112
:102D70009F918F917F916F915F914F913F912F9193
:102D80000F900FBE0F901F90189540913B02262F79
:102D900030E0240F311D21323105DCF42091A902ED
:102DA0002430C9F4FC0180E090E0861758F430919B
:102DB0003B022191DC01A55EBD4FA30FB11D2C93F9
:102DC0000196F3CF80913B02680F60933B0280E055
:102DD000089581E0089582E00895DF92EF92FF92D6
:102DE0000F931F93CF93DF93D82ED92FC62F8091A7
:102DF000A4039091A503009709F44EC06091A80325
:102E00000E948B1B8091A4039091A503DC01ED919E
:102E1000FC910190F081E02D60E00995ED2CFD2EF4
:102E200011E08091A4039091A503CC2361F11032AD
:102E3000B8F00E942F1B6091A8038091A403909189
:102E4000A5030E948B1B8091A4039091A503DC0134
:102E5000ED91FC910190F081E02D60E0099511E089
:102E60008091A4039091A503F7016491DC01ED9199
:102E7000FC910190F081E02D09951F5FC150BFEFDB
:102E8000EB1AFB0ACECFDF91CF911F910F91FF90EC
:102E9000EF90DF900C942F1BE091B403F091B503F9
:102EA00090818091BA038095892380830D2D1D2FF9
:102EB000CC2309F439C0F80184912091A203309108
:102EC000A303232B31F00E94920CC1500F5F1F4FC0
:102ED000EFCF28E030E040E8E091B003F091B1039B
:102EE0009091B803582F542319F05081952B03C0AB
:102EF0005081909595239083E091B203F091B303B4
:102F000050819091B903952B9083E091B203F09199
:102F1000B30350819091B903909595239083469582
:102F200021503109C9F6D1CFDF91CF911F910F9177
:102F3000FF90EF90DF900895EF92FF920F931F9311
:102F4000CF93DF938091A4039091A503892BD1F0B7
:102F50002091BE033091BF034091C0035091C10343
:102F600060E074E284EF90E00E940229DA01C90176
:102F70004097A109B109B695A79597958795809334
:102F8000B80016C08091A2039091A303892B31F061
:102F90008091BC039091BD030E94F70CE091B603B1
:102FA000F091B70390818091BB0380958923808342
:102FB00065E088E39BE00E94ED1660918C03615010
:102FC00088E893E00E94990C20918E0330918F0342
:102FD000C901079697FD079633E0959587953A9531
:102FE000E1F720918C0330918D03829F8001839FB4
:102FF000100D929F100D1124C091A603D091A7032C
:103000008091A4039091A5030C0F1D1F009709F454
:1030100045C06091A8030E948B1B8091A4039091EE
:10302000A503DC01ED91FC910190F081E02D60E4BD
:1030300009957E01D1E08091A4039091A5030E151E
:103040001F0549F1D032B8F00E942F1B6091A803F0
:103050008091A4039091A5030E948B1B8091A403EF
:103060009091A503DC01ED91FC910190F081E02DA0
:1030700060E40995D1E08091A4039091A503F70144
:1030800061917F01DC01ED91FC910190F081E02DD7
:103090000995DF5FD0CF0E942F1B41C0E091B403A0
:1030A000F091B50390818091BA03892B8083C0177A
:1030B000D107A9F189912091A2033091A303232B79
:1030C00019F00E94920CF3CF28E030E040E8E09144
:1030D000B003F091B1039091B803582F542319F025
:1030E0005081952B03C05081909595239083E0915A
:1030F000B203F091B30350819091B903952B908363
:10310000E091B203F091B30350819091B90390958F
:1031100095239083469521503109C9F6C8CF8091F7
:10312000A4039091A503892BD1F02091C203309183
:10313000C3034091C4035091C50360E074E284EF7F
:1031400090E00E940229DA01C9014097A109B10962
:10315000B695A795979587958093B80017C0E0918D
:10316000B603F091B70390818091BB03892B8083D4
:103170008091A2039091A303892B41F0DF91CF911D
:103180001F910F91FF90EF900C94910CDF91CF91D4
:103190001F910F91FF90EF90089520918E03309131
:1031A0008F03C901079697FD079623E095958795AC
:1031B0002A95E1F720918C0330918D03829FA00125
:1031C000839F500D929F500D112460E070E080911C
:1031D000A6039091A7030C948D2DAF92BF92CF922E
:1031E000DF92EF92FF920F93CF937C01C62F5A018B
:1031F000690101110EC00E949C170E94CD18F701B1
:103200004481558160817181CC23A9F1C0939C03D5
:1032100035C0611101C0C1E0C0939C0381E090E022
:1032200090939B0380939A039093990380939803C0
:10323000B0929503A0929403D0929703C092960304
:10324000F701448155816081718188E893E00E9493
:10325000F3056CE072E088E893E00E94240C0230F1
:1032600089F5CF910F91FF90EF90DF90CF90BF90B5
:10327000AF900C949C1781E080939C0381E090E0D8
:1032800090939B0380939A03909399038093980360
:10329000B0929503A0929403D0929703C0929603A4
:1032A00088E893E00E94F3056CE072E088E893E020
:1032B000CF910F91FF90EF90DF90CF90BF90AF90A4
:1032C0000C94240CCF910F91FF90EF90DF90CF9052
:1032D000BF90AF900895FC01808191810C94302CB7
:1032E0003F924F925F926F927F928F929F92AF9296
:1032F000BF92CF92DF92EF92FF920F931F93CF93E3
:10330000DF9300D000D000D0CDB7DEB72C013B0159
:103310004A015901C901079697FD07969C0193E060
:10332000359527959A95E1F73C832B83C12CD12CB9
:10333000E12CF12C312CC3018E0D9F1D9A838983C2
:10334000E016F106C4F51E821D822D813E812A15EC
:103350003B054CF5C90187709927892B11F0330C77
:103360000EC0ED81FE81F7FD379683E0F595E79578
:103370008A95E1F7EC0DFD1DE80DF91D349037FE3F
:103380000CC021E030E049815A816D817E81640D5D
:10339000751D88E893E00E949A098D819E810196AF
:1033A0009E838D83D2CF9FEFE91AF90A2B813C814E
:1033B000C20ED31EC0CF26960FB6F894DEBF0FBE46
:1033C000CDBFDF91CF911F910F91FF90EF90DF90D4
:1033D000CF90BF90AF909F908F907F906F905F90B5
:1033E0004F903F900895CF93DF93BC018CEC92E017
:1033F0000E94240CEC016CE072E08CEC92E00E94E4
:10340000240C8C0F9D1FDF91CF9108959091A902FC
:103410009111FCCF982F813208F090E281E08093E7
:10342000A9028093A8022FEF2093A7021092A60270
:10343000290F2093A5028093A4028091A4028C6E90
:103440008093A4028091A302813061F41092A302C0
:103450008091A4028093BB008091BC0083FDF8CFD3
:1034600085EC01C085EE8093BC008091A90281307B
:10347000E1F38091A602891710F49091A602E3E887
:10348000F2E0ACEAB2E080E0891721F021912D93BF
:103490008F5FFACF1092AB028093AA0208951F9318
:1034A000CF93DF93182F66E789E693E00E948B1B8A
:1034B000612F89E693E00E94001B89E693E00E9459
:1034C0002F1B82E090E00E94061A8091AA0290E0F1
:1034D0002091AB02821B910982309105ECF389E6C1
:1034E00093E00E94921A182F89E693E00E94921AA4
:1034F000D12F20E0C22F9E01282BC901DF91CF914F
:103500001F9108950895E091AB028091AA02E817F7
:1035100030F4F0E0E455FD4F808190E008958FEFA6
:103520009FEF08959091AB028091AA02981750F4F2
:10353000E92FF0E0E455FD4F208130E09F5F90934C
:10354000AB0202C02FEF3FEFC90108958091AA029C
:1035500090E02091AB02821B910908953FB7F89447
:103560008091C7039091C803A091C903B091CA0389
:1035700026B5A89B05C02F3F19F00196A11DB11DCE
:103580003FBFBA2FA92F982F8827820F911DA11D09
:10359000B11DBC01CD0142E0660F771F881F991F46
:1035A0004A95D1F70895CF92DF92EF92FF920F9351
:1035B0001F93CF93DF937C01CB018A012091EC0311
:1035C000222389F0EB016B01C40ED51ECC15DD055D
:1035D00069F06991D701ED91FC910190F081E02DA6
:1035E000C7010995F3CF642F0E94C516C801DF916A
:1035F000CF911F910F91FF90EF90DF90CF900895A2
:10360000CF93DF931F92CDB7DEB769832091EC0390
:103610002223D1F020911102203240F021E030E04D
:10362000FC013383228380E090E015C08091120278
:10363000E82FF0E0E453FC4F998190838F5F8093F3
:1036400012028093110205C061E0CE0101960E9432
:10365000C51681E090E00F90DF91CF9108953091F1
:103660001102313208F04BC08091A9028111FCCFC8
:103670009091CB0322E02093A90221E02093A8029D
:103680002FEF2093A7021092A6023093A502ECEC34
:10369000F3E0A3E8B2E020E0321721F041914D932E
:1036A0002F5FFACF1092A4022091A402990F922BBF
:1036B0009093A4029091A302913061F41092A3021E
:1036C0009091A4029093BB009091BC0093FDF8CF21
:1036D00095EC01C095EE9093BC009091A9029230B8
:1036E000E1F39091A7029F3F79F08091A702803289
:1036F00041F08091A702803331F084E005C081E081
:1037000003C082E001C083E0109212021092110205
:103710001092EC03089581E08093EC036093CB0357
:103720001092120210921102089590E0FC01E758E5
:10373000F44F2491FC01EF5AF44F3491FC01E35C07
:10374000F44FE491EE2309F43CC0222339F12330F5
:1037500091F038F42130A9F0223001F584B58F7D45
:1037600012C0273091F02830A1F02430B9F48091B4
:1037700080008F7D03C0809180008F7780938000D0
:103780000DC084B58F7784BD09C08091B0008F775C
:1037900003C08091B0008F7D8093B000F0E0EE0F09
:1037A000FF1FE159F44FA591B4919FB7F8946111AF
:1037B00004C08C913095382302C0EC913E2B3C9391
:1037C0009FBF08951092AB021092AA0210921202AB
:1037D000109211021092A90281E08093A802109227
:1037E000A30261E082E10E94951B61E083E10E94F7
:1037F000951BE9EBF0E080818E7F808380818D7F57
:10380000808388E48093B80085E48093BC0081ECD9
:103810009DE0909314028093130282EC9DE09093BC
:103820001602809315020895CF93DF9390E0FC0178
:10383000EF5AF44F2491FC01E35CF44F8491882308
:1038400061F190E0880F991FFC01EB59F44FC5918D
:10385000D491FC01E159F44FA591B491611109C0D3
:103860009FB7F8948881209582238883EC912E233A
:103870000BC0623061F49FB7F8948881322F309585
:1038800083238883EC912E2B2C939FBF06C08FB788
:10389000F894E8812E2B28838FBFDF91CF91089574
:1038A0008F929F92AF92BF92CF92DF92EF92FF9250
:1038B0006B017C010E94AE1A4B015C01C114D10462
:1038C000E104F104F1F00E94AE1ADC01CB01881989
:1038D0009909AA09BB09883E9340A105B10570F377
:1038E00021E0C21AD108E108F10888EE880E83E0D1
:1038F000981EA11CB11CC114D104E104F10419F7F4
:10390000DDCFFF90EF90DF90CF90BF90AF909F9072
:103910008F9008951F920F920FB60F9211242F933C
:103920003F938F939F93AF93BF9380911702909192
:103930001802A0911902B0911A023091C60323E037
:10394000230F2D3720F40196A11DB11D05C026E8D7
:10395000230F0296A11DB11D2093C6038093170269
:1039600090931802A0931902B0931A028091C70392
:103970009091C803A091C903B091CA030196A11DFB
:10398000B11D8093C7039093C803A093C903B0935C
:10399000CA03BF91AF919F918F913F912F910F904B
:1039A0000FBE0F901F9018958EE291E090938903BF
:1039B000809388038091A6039091A703009711F04C
:1039C0000C94302C0895CF93DF93CDB7DEB7AF972B
:1039D0000FB6F894DEBF0FBECDBF789484B5826079
:1039E00084BD84B5816084BD85B5826085BD85B5A3
:1039F000816085BD80916E00816080936E00109221
:103A0000810080918100826080938100809181009B
:103A1000816080938100809180008160809380002C
:103A20008091B10084608093B1008091B00081608A
:103A30008093B00080917A00846080937A008091B6
:103A40007A00826080937A0080917A00816080930E
:103A50007A0080917A00806880937A001092C10089
:103A6000E091DC02F091DD0282E08083E091D802F7
:103A7000F091D9021082E091DA02F091DB028FEC32
:103A800080831092E402E091E002F091E10286E08E
:103A90008083E091DE02F091DF028081806180838B
:103AA000E091DE02F091DF02808188608083E09106
:103AB000DE02F091DF02808180688083E091DE0287
:103AC000F091DF0280818F7D808389E693E00E9400
:103AD000E21B80ED0E94C90D803609F0BCC488E865
:103AE0000E94C30D90935F0280935E028AE80E9459
:103AF000C30D90936102809360028CE80E94C30D15
:103B000090936302809362028EE80E94C30D9093AB
:103B100065028093640280E90E94C30D909367025E
:103B20008093660282E90E94C30D9093690280939C
:103B3000680284E90E94C30D90936B0280936A022D
:103B400086E90E94C30D90936D0280936C0288E910
:103B50000E94C30D90936F0280936E028AE90E94C7
:103B6000C30D90937102809370028CE90E94C30D83
:103B700090937302809372028EE90E94C30D90931A
:103B800075028093740281EA0E94C90D80937602C7
:103B900081EE0E94C30D909378028093770283EEAA
:103BA0000E94C90D8093790284EE0E94C90D182FDE
:103BB00085EE0E94C90D00E1109F900111248F70C5
:103BC000282B30937B0220937A0286EE0E94C90D47
:103BD000182F85EE0E94C90D40E1149F9001112419
:103BE00082958F70282B30937D0220937C0287EE84
:103BF0000E94C90D80937E0266E789E693E00E94E9
:103C00008B1B62EF89E693E00E94001B65E089E66A
:103C100093E00E94001B89E693E00E942F1B66E759
:103C200089E693E00E948B1B64EF89E693E00E9493
:103C3000001B67EB89E693E00E94001B89E693E096
:103C40000E942F1B62E080917A030E94141C2FB700
:103C5000F8948091170290911802A0911902B091E6
:103C60001A022FBF805D9740A109B10980937E039E
:103C700090937F03A0938003B093810387E38093A5
:103C800087038091A6039091A703892B11F52091BA
:103C90008E0330918F03C901079697FD0796B3E015
:103CA00095958795BA95E1F720918C0330918D0316
:103CB0005C01A29EC001A39E900DB29E900D1124A6
:103CC0000E94982B9093A7038093A603892B09F455
:103CD000DFC00E94CD1820918E0330918F03809118
:103CE0008C0390918D03213231050CF4B9C3B901D5
:103CF0006054710977FF02C06F5F7F4F75956795BC
:103D00008255910997FD019600E410E022E530E02C
:103D10004EE553E0959587950E94701982E0809357
:103D2000A9038091A4039091A503009709F4ACC363
:103D30002CE32093A8030E94E21B8091AF0387FD30
:103D40001EC061E00E94141C61E08091AF030E94DC
:103D5000951B61E070E080E090E00E94501C60E004
:103D60008091AF030E94951B6AE070E080E090E0D4
:103D70000E94501C61E08091AF030E94951B8091CE
:103D8000A4039091A503892B09F43DC42091BE039F
:103D90003091BF034091C0035091C10360E074E2D1
:103DA00084EF90E00E940229DA01C9014097A1093D
:103DB000B109B695A795979587958093B80064E06B
:103DC0008AE791E00E94ED1660918E03615088E8C9
:103DD00093E00E94990C64E086E791E00E94ED1662
:103DE0008091A903813009F025C460E188E893E05F
:103DF0000E94990C64E082E791E00E94ED168091A8
:103E00008C0390918D038038910509F026C4809130
:103E10008E0390918F038032910509F00DC464E008
:103E20008EE691E00E94ED1669ED88E893E00E942D
:103E3000990C8091A903813009F02BC462E288E8D3
:103E400093E00E94990C66E082E691E00E94ED16F4
:103E50008091A4039091A503892B09F41CC420919F
:103E6000C2033091C3034091C4035091C50360E085
:103E700074E284EF90E00E940229DA01C9014097C0
:103E8000A109B109B695A795979587958093B80034
:103E90006EE072E08E010F5F1F4F7801C8010E9433
:103EA0000F0C00E021E030E041E050E062E0C701AB
:103EB0000E94ED18C7010E946B195E2C4F2C66E51D
:103EC00071E08CEC92E00E94240C0E94B20E42E061
:103ED0000E942C1064E671E08CEC92E00E94240CAD
:103EE0000E94320F0E94822742E00E942C1063E75A
:103EF00071E08CEC92E00E94240C0E94B20E87EFDD
:103F00000E945A0E6CA77DA78EA79FA780917F0263
:103F100090918002A0918102B09182026C017D019A
:103F2000FF0CCC08DC2C76019C01AD016C2D7C2DA6
:103F30008C2D9C2D345F4140510961097109810923
:103F400091092B8F3E8F4F8F58A33B014C01590194
:103F50006A017B018C010E942C292CA33DA34EA356
:103F60005FA368A779A78AA79BA7309167022091D2
:103F70006602932F990F990B492F592F692F792F8B
:103F8000892F0E942C290CE00E94252A2B8B39A313
:103F90004AA35BA36C8F7D8F382E292E3091690246
:103FA00020916802932F990F990BACA0BDA0CEA0D1
:103FB000DFA0E8A4F9A40AA51BA5492F592F692F52
:103FC000792F892F0E942C2908E00E943E2AAB8875
:103FD000B9A0CAA0DBA0EC8CFD8C032D122D0E9491
:103FE0005C2A70588F4F9F4F20906402309065027A
:103FF0005101C12CD12CE12CF12C87012B8ABC8AD8
:10400000CD8ADE8AEF8AF88E098F1A8FC12CD12CC7
:10401000E12CF12C00E010E00E942C2901E20E942A
:104020003E2A2B8B39A34AA35BA36C8F7D8F1C0187
:10403000A0E00E946E2A09F41AC130916F0220910B
:104040006E02932F990F990BACA0BDA0CEA0DFA05C
:10405000E8A4F9A40AA51BA5492F592F692F792F88
:10406000892F0E942C292CA33DA34EA35FA368A7F0
:1040700079A78AA79BA730916D0220916C02932F9C
:10408000990F990BAB8CBE8CCF8CD8A07301840197
:10409000492F592F692F792F892F0E942C2901E14F
:1040A0000E94252AACA0BDA0CEA0DFA0E8A4F9A460
:1040B0000AA51BA50E945C2A59016A017B018B8F0E
:1040C000192F8CA59DA5AEA5BFA534E0B595A795E4
:1040D000979587953A95D1F720E030E040E150E0A0
:1040E000281B390B4A0B5B0BDA01C90139014A0164
:1040F000990C6608762C43019C01AD01662D762D46
:10410000862D962D0FE10E94252A39014A01B62FEE
:10411000A72FF82FE92F30916B0220916A02932F7D
:10412000990F990B492F592F692F792F892F03E266
:104130000E94252A0B8D0E945C2A59016A017B018D
:104140008C019301A4016B2F7A2F8F2F9E2F0E9439
:10415000652AE5E3AE2EFCE0BF2EC12CD12CE12C6C
:10416000F12C00E010E00E942C29AB88B9A0CAA075
:10417000DBA0EC8CFD8C81010E9487292B8F3E8F68
:104180004F8F58A36B8B79A38AA39BA30DE00E944A
:104190003E2A922E832E742E652E6C8F7D8F382EA4
:1041A000292E3091750220917402932F990F990B4B
:1041B000A92CB82CC72CD62C7B01032D122D492FEE
:1041C000592F692F792F892F0E942C290E942C2981
:1041D00009E10E943E2AAB8CBE8CCF8CD8A0EB8824
:1041E000F9A00AA11BA10E945C2A19014C8F5D8FC6
:1041F0003B014C013091730220917202932F990F71
:10420000990B492F592F692F792F892F0E942C291B
:1042100003E10E943E2A59016A017B018C01910150
:104220004C8D5D8DB301C4010E945C2A08E00E94A0
:104230003E2A59016A017B01E82F192F3091710242
:1042400020917002932F990F990B492F592F692FA5
:10425000792F892F04E00E94252A0E2F0E945C2AC4
:1042600049015A0199278B2D7A2D692D03C060E0F1
:1042700070E0CB010E9482276B017C0142E00E942A
:104280002C1060E871E08CEC92E00E94240C20E09D
:1042900030E543EC57E4C701B6010E94ED2A42E045
:1042A0000E942C108BE891E00E94F3190E94531198
:1042B0008823D1F180917B038B30B0F18D30A8F051
:1042C0008551823088F56091750370917603762769
:1042D0006727762780E090E00E9482272DEC3CEC57
:1042E0004CEC5DE30E94E3271CC06091760370E014
:1042F00080E090E00E9484272DEC3CEC4CEC5DE3E8
:104300000E94E3276B017C016091750370E080E0FF
:1043100090E00E9484279B01AC01C701B6010E9476
:10432000812A4B015C0106C0812C912C20ECA22E2D
:104330002FE7B22E0E945311882309F4BFC1809148
:104340007B038C3009F448C018F48B30D1F06BC07B
:104350008551823008F067C010917703612F6F7725
:1043600070E0762F662780917803682B80E090E0DC
:104370000E9482272DEC3CEC4CEC5DE30E94E3278D
:1043800049C06091770370E080E090E00E9482274E
:104390006B017C011091780317FF0AC09B01AC01EF
:1043A00060E070E080E89FEB0E94802A6B017C0156
:1043B000612F6F7070E080E090E00E9484272DEC08
:1043C0003CEC4CEC5DE30E94E327A70196010E94C0
:1043D000812A6B017C012DC01091770360917803D5
:1043E0006F7070E080E090E00E9484272DEC3CEC40
:1043F0004CEC5DE30E94E3276B017C01612F70E0D0
:1044000080E090E00E9482279B01AC01C701B601C9
:104410000E94812A6B017C0117FF0BC0F7FAF09410
:10442000F7F8F09406C0C12CD12C80ECE82E8FE771
:10443000F82EA7019601C701B6010E94932B8111A6
:104440003DC1A5019401C501B4010E94932B8823AD
:1044500009F43BC133C181E991E00E94F319F2CB29
:10446000B9016052710977FF02C06F5F7F4F759588
:1044700067958357910997FD019600E210E023E7C5
:1044800030E04EE751E046CC61E08091AD030E9400
:10449000141C61E08091AE030E94141C8091AD0356
:1044A000082E000C990BFC01E35CF44FE491F0E062
:1044B000EE0FFF1FE159F44F259134913093B5036E
:1044C0002093B403FC01EF5AF44FE491E093BA0354
:1044D0008091AE03082E000C990BFC01E35CF44FB5
:1044E000E491F0E0EE0FFF1FE159F44FA591B49174
:1044F000B093B703A093B603FC01EF5AF44FE491D5
:10450000E093BB038C91E82BEC938091A2039091F4
:10451000A303892B09F434C01FB7F89480911002CB
:10452000811127C0E7E4FBE08491EBE5FBE0949187
:10453000E82FF0E0EE0FFF1FEB59F44FA591B49177
:10454000EC91E92321F461E08AE00E94951B61E08F
:104550008AE00E94141C8CB580618CBD8CB580648F
:104560008CBD61E08DE00E94141C61E08BE00E9434
:10457000141C809110028F5F809310021FBFDDCB4F
:1045800061E08091AB030E94141C61E08091AC0358
:104590000E94141C8091AB03082E000C990BFC01A7
:1045A000E35CF44FE491F0E0EE0FFF1FE159F44FAC
:1045B000259134913093B1032093B003FC01EF5A5D
:1045C000F44FE491E093B8038091AC03082E000C03
:1045D000990BFC01E35CF44FE491F0E0EE0FFF1F58
:1045E000E159F44FA591B491B093B303A093B203F2
:1045F000FC01EF5AF44FE491E093B9038C91E095FC
:10460000E823EC939ACB8091A2039091A303892B8A
:1046100031F08091BC039091BD030E94F70CE091B2
:10462000B603F091B70390818091BB0380958923F5
:104630008083C5CB64E1DACB8034910509F0F4CBFB
:1046400063E08BE691E00E94ED168091A903813032
:1046500011F46FE919C06FEC17C08036910509F0AD
:10466000E3CB80918E0390918F03409709F0DCCBD0
:1046700063E088E691E00E94ED168091A903813005
:1046800011F460E101C06FEA88E893E00E94990CA0
:10469000CBCB61EFD4CBE091B603F091B70390811F
:1046A0008091BB03892B80838091A2039091A30307
:1046B000892B09F4EDCB0E94910CEACB84EA91E0BE
:1046C0000E94F3190E94F506FACB69EC71E08CECBC
:1046D00092E00E94240C42E0C701B6010E942C1017
:1046E00064E671E08CEC92E00E94240C42E0C5018B
:1046F000B4010E942C1087ED91E00E94F319B701DC
:10470000A601CE010D960E941C0EBE01635F7F4F75
:10471000CE0107960E94F50B6EE072E0CE0107967F
:104720000E94E90DBC01852D942D0E94F50B00E03F
:1047300021E030E04FE050E062E0852D942D0E94B2
:10474000ED18852D942D0E946B19CE0107960E94BD
:104750006B19CE010D960E946B196BED71E0852DE2
:10476000942D0E940F0C01E028E030E04CE450E072
:1047700061E0852D942D0E94ED18852D942D0E94C9
:104780006B19B501A401CE010D960E941C0EBE014D
:10479000635F7F4FCE0107960E94F50B60EE71E0DC
:1047A000CE0107960E94E90DBC01852D942D0E9433
:1047B000F50B21E130E04FE050E061E0852D942DD4
:1047C0000E94ED18852D942D0E946B19CE0107963D
:1047D0000E946B19CE010D960E946B1963EE71E079
:1047E000852D942D0E940F0C02E029E130E04FE06E
:1047F00050E061E0852D942D0E94ED18852D942DBB
:104800000E946B196CED75E080E090E00E94501CF6
:104810000E94B20EAB01BC01CE010D960E941C0E8F
:10482000BE01635F7F4FCE0107960E94F50B6EE0DD
:1048300072E0CE0107960E94E90DBC01852D942DF2
:104840000E94F50B00E021E030E04FE050E062E034
:10485000852D942D0E94ED18852D942D0E946B19A5
:10486000CE0107960E946B19CE010D960E946B191E
:104870006BED71E0852D942D0E940F0C01E028E076
:1048800030E04CE450E061E0852D942D0E94ED185D
:10489000852D942D0E946B190E94320F0E94822751
:1048A000AB01BC01CE010D960E941C0EBE01635FE0
:1048B0007F4FCE0107960E94F50B60EE71E0CE01AE
:1048C00007960E94E90DBC01852D942D0E94F50BE1
:1048D00021E130E04FE050E061E0852D942D0E9411
:1048E000ED18852D942D0E946B19CE0107960E941C
:1048F0006B19CE010D960E946B1961EF71E0852D49
:10490000942D0E940F0C02E029E130E04FE050E0CE
:1049100061E0852D942D0E94ED18852D942D0E9427
:104920006B196CED75E080E090E00E94501CCACEDF
:10493000A9E6B3E013961C921E92129748EE53E03C
:1049400060E070E014964D935D936D937C931797A0
:104950008AE091E011969C938E93ECECF2E0138246
:10496000128244835583668377838CE191E091833F
:10497000808385EC90E09587848784EC90E097872E
:10498000868780EC90E0918B808B81EC90E0938B1C
:10499000828B82EC90E0958B848B86EC90E0978BF9
:1049A000868B118E128E138E148EE8E8F3E013823C
:1049B000128220E830E03583248380E290E0978300
:1049C00086833187208793878287158A1586148688
:1049D0001786168681E0848B2FEF3FEF338B228B77
:1049E000318B208B868B178A118E108E8EE291E090
:1049F00091838083138E128EB58FA48F178E168E9F
:104A00008FEF83A384A385A386A384E087A380E597
:104A100084AB15AAA5E7B3E089E015968C931597AA
:104A200086E116968C931697EAE5FBE0E4911796DB
:104A3000EC931797E6E4FBE0E4911896EC93189753
:104A400040E85EE360E070E01D964D935D936D93EA
:104A50007C9350970895EF920F931F93CF93DF931A
:104A6000E80147FD02C034E001C034E1042E000C2F
:104A7000550B57FF03C0519541955109E32E022F65
:104A8000242FAE010E944B25CE01DF91CF911F91C3
:104A90000F91EF900895A9E0B0E0E1E5F5E20C9404
:104AA000B2286A01122FB02E2BE3201720F0FF242A
:104AB000F394F00E02C02CE3F22E0F2D27E0AE018E
:104AC0004F5F5F4F0E94A526BC014981842F8970EA
:104AD000813031F0E1FC06C0E0FE06C090E205C086
:104AE0009DE203C09BE201C090E05E2D507143FF48
:104AF0003CC0911102C083E001C084E0811718F42A
:104B0000212F281B01C020E051110BC0F601822F7C
:104B100030E2882319F031938150FBCFC20ED11CB3
:104B200020E0992329F0D6019C93F60131966F017C
:104B3000C6010396E2FE0AC03EE4D6013C9341E47E
:104B400011964C93119712963C9306C03EE6F601DF
:104B5000308341E641833283FC01322F40E233232C
:104B600009F442C041933150FACF42FF44C0911141
:104B700002C083E001C084E0811718F4212F281BB4
:104B800001C020E051110BC0F601822F30E28823D2
:104B900019F031938150FBCFC20ED11C20E0992334
:104BA00029F0D6019C93F60131966F01C601039658
:104BB000E2FE0BC039E4D6013C933EE411963C93EF
:104BC000119736E412963C9307C039E6F60130831C
:104BD0003EE6318336E63283FC01322F40E2332356
:104BE00019F041933150FBCFFC01E20FF11D10820F
:104BF0008EEF9FEFA6C021E030E0911102C020E0CF
:104C000030E0161617061CF4FB01319602C0E1E0F5
:104C1000F0E02E0F3F1FBB2021F0EB2DF0E031968E
:104C200002C0E0E0F0E02E0F3F1FE12FF0E02E1772
:104C30003F071CF4121B212F01C020E08E2D88712C
:104C400059F4F601822F30E2882319F03193815014
:104C5000FBCFC20ED11C20E0992329F0D6019C93F2
:104C6000F60131966F0151110BC0F601822F90E3CE
:104C7000882319F091938150FBCFC20ED11C20E004
:104C80000F2D060F9A81342F307144FF03C09133EA
:104C900009F40150101624F4093018F008E001C09E
:104CA00001E0AB0177FF02C040E050E0FB01E41BF4
:104CB000F50BA1E0B0E0AC0FBD1FEA0FFB1F8EE2C9
:104CC000A82E4B01801A91080B2D10E0119501952B
:104CD00011094F3FBFEF5B0721F4D601AC9211964B
:104CE0006D01641775072CF08416950614F4818104
:104CF00001C080E3415051093196D60111967D01E2
:104D00004017510724F0D6018C936701E2CF641756
:104D1000750739F4963320F4953319F4311101C035
:104D200081E3F6018083F701822F90E2882319F056
:104D300091938150FBCFF701E20FF11D108280E0CB
:104D400090E02996ECE00C94CE28283008F027E07B
:104D50003327DA01990F311D87FD916000966105B7
:104D6000710539F432602E5F3D9330E32A95E1F707
:104D700008959F3F30F080387105610509F03C5F70
:104D80003C5F3D93913008F08068911DDF93CF9395
:104D90001F930F93FF92EF92192F987F9695E92F0B
:104DA00096959695E90FFF27EE53FF4F99273327E6
:104DB000EE24FF24A701E70105900894079428F446
:104DC000360FE71EF81E491F511D660F771F881FFB
:104DD000991F0694A1F70590079428F4E70EF81E92
:104DE000491F561FC11D770F881F991F661F069404
:104DF000A1F70590079428F4F80E491F561FC71F06
:104E0000D11D880F991F661F771F0694A1F7059083
:104E1000079420F4490F561FC71FD81F990F661F0C
:104E2000771F881F0694A9F784911095177041F099
:104E3000D695C79557954795F794E7941A95C1F776
:104E4000E8E6F0E06894159015913591659195919B
:104E500005907FE27395E118F10A430B560BC90BDD
:104E6000D009C0F7E10CF11E431F561FC91FD01D0A
:104E70007EF4703311F48A95E6CFE894015030F057
:104E8000080F0AF40027021708F4202F2395022F99
:104E90007A3328F079E37D932A95E9F710C07D9362
:104EA0002A9589F6069497956795379517951794DF
:104EB000E118F10A430B560BC90BD00998F0239562
:104EC0007E9173957A3308F070E37C932013B8F7E2
:104ED0007E9170617D9330F0839571E37D9370E3F3
:104EE0002A95E1F71124EF90FF900F911F91CF9138
:104EF000DF91992787FD909508950E94BF2708F4B8
:104F000081E00895E89409C097FB3EF49095809560
:104F1000709561957F4F8F4F9F4F9923A9F0F92F7F
:104F200096E9BB279395F695879577956795B795FD
:104F3000F111F8CFFAF4BB0F11F460FF1BC06F5FE3
:104F40007F4F8F4F9F4F16C0882311F096E911C0F5
:104F5000772321F09EE8872F762F05C0662371F016
:104F600096E8862F70E060E02AF09A95660F771F2A
:104F7000881FDAF7880F9695879597F90895990F06
:104F80000008550FAA0BE0E8FEEF16161706E80713
:104F9000F907C0F012161306E407F50798F0621B34
:104FA000730B840B950B39F40A2661F0232B242B09
:104FB000252B21F408950A2609F4A140A6958FEF28
:104FC000811D811D08950E94F6270C9467280E9478
:104FD000592838F00E94602820F0952311F00C9495
:104FE00050280C94562811240C949B280E94782851
:104FF00070F3959FC1F3950F50E0551F629FF0012C
:10500000729FBB27F00DB11D639FAA27F00DB11D44
:10501000AA1F649F6627B00DA11D661F829F2227CD
:10502000B00DA11D621F739FB00DA11D621F839F54
:10503000A00D611D221F749F3327A00D611D231F2A
:10504000849F600D211D822F762F6A2F11249F5778
:1050500050409AF0F1F088234AF0EE0FFF1FBB1F7B
:10506000661F771F881F91505040A9F79E3F51053A
:1050700080F00C9450280C949B285F3FE4F3983EFA
:10508000D4F3869577956795B795F795E7959F5FE4
:10509000C1F7FE2B880F911D9695879597F9089576
:1050A00097F99F6780E870E060E008959FEF80ECDB
:1050B000089500240A94161617061806090608957E
:1050C00000240A9412161306140605060895092EE4
:1050D0000394000C11F4882352F0BB0F40F4BF2B53
:1050E00011F460FF04C06F5F7F4F8F4F9F4F089593
:1050F00057FD9058440F551F59F05F3F71F0479589
:10510000880F97FB991F61F09F3F79F0879508956D
:10511000121613061406551FF2CF4695F1DF08C08C
:10512000161617061806991FF1CF869571056105A9
:1051300008940895E894BB2766277727CB0197F951
:1051400008950E94E328A59F900DB49F900DA49F01
:10515000800D911D112408952F923F924F925F92DE
:105160006F927F928F929F92AF92BF92CF92DF9277
:10517000EF92FF920F931F93CF93DF93CDB7DEB7DC
:10518000CA1BDB0B0FB6F894DEBF0FBECDBF099470
:105190002A88398848885F846E847D848C849B84C7
:1051A000AA84B984C884DF80EE80FD800C811B81D5
:1051B000AA81B981CE0FD11D0FB6F894DEBF0FBE04
:1051C000CDBFED010895A29FB001B39FC001A39F81
:1051D000700D811D1124911DB29F700D811D112430
:1051E000911D0895DB018F939F930E94A128BF9189
:1051F000AF91A29F800D911DA39F900DB29F900D26
:1052000011240895A1E21A2EAA1BBB1BFD010DC09B
:10521000AA1FBB1FEE1FFF1FA217B307E407F50766
:1052200020F0A21BB30BE40BF50B661F771F881F42
:10523000991F1A9469F760957095809590959B01D8
:10524000AC01BD01CF010895B7FF0C94A1280E94C5
:10525000A128821B930B0895DF93CF931F930F9385
:105260009A9DF02D219FF00D8B9DF00D8A9DE02DD4
:10527000F10D039FF00D029FE00DF11D4E9DE00D1D
:10528000F11D5E9DF00D4F9DF00D7F936F93BF92CA
:10529000AF925F934F93D5010E94E3288B01AC013D
:1052A000D7010E94E328EB01E80FF91FD6010E9405
:1052B0007C292F913F91D6010E94E328C60FD71F6A
:1052C000E81FF91FAF91BF910E947C292F913F9158
:1052D0000E94E328C60FD71FE81FF91FD6010E94BE
:1052E000E328E60FF71F9801BE01CF0111240F91AB
:1052F0001F91CF91DF9108950E94E328460F571F19
:10530000C81FD91F08F431960895689401C0E89425
:10531000F92FF12B12F00C94B929A0E0B0E0E3E9E9
:10532000F9E20C94B228092E059422F40E94152A61
:10533000112392F4F0E80F26FFEFE094F09400952B
:105340001095B094C094D094A194BF0ACF0ADF0AFC
:10535000EF0AFF0A0F0B1F0B0E94C42907FC0E94D3
:10536000152ACDB7DEB7ECE00C94CE28689401C0C6
:10537000E8948F929F92CF93DF930E94C429DF918C
:10538000CF919F908F90089588249924F401E4018F
:10539000B0E49F93AA279A158B049C04ED05FE05A3
:1053A000CF05D007A10798F4AD2FDC2FCF2FFE2F0C
:1053B000E92D982C892E982F872F762F652F542F23
:1053C000432F322F2227B85031F7BF9127C01B2E11
:1053D000BF91BB27220F331F441F551F661F771F26
:1053E000881F991F881C991CEE1FFF1FCC1FDD1FF3
:1053F000AA1FBB1F8A149B04EC05FD05CE05DF0523
:10540000A007B10748F08A189B08EC09FD09CE09EE
:10541000DF09A00BB10B21601A94E1F62EF4940180
:10542000AF01BE01CD01000C089560957095809587
:10543000909530954095509521953F4F4F4F5F4F38
:105440006F4F7F4F8F4F9F4F08950F93083090F00D
:10545000982F872F762F652F542F432F322F2227F7
:105460000850F4CF220F331F441F551F661F771FAC
:10547000881F991F0A95B2F70F91089597FB10F8AE
:10548000169400080F93083098F00850232F342FFB
:10549000452F562F672F782F892F902DF4CF059405
:1054A000979587957795679557954795379527955C
:1054B0000A95AAF70F9108952A0D3B1D4C1D5D1DFD
:1054C0006E1D7F1D801F911F08952A193B094C09ED
:1054D0005D096E097F09800B910B08950024A7FDDB
:1054E00000942A17300540055005600570058005B9
:1054F00090050895EE0FFF1F0590F491E02D09949B
:105500005058BB27AA270E94982A0C9467280E940B
:10551000592838F00E94602820F039F49F3F19F490
:1055200026F40C9456280EF4E095E7FB0C945028D2
:10553000E92F0E94782858F3BA1762077307840787
:10554000950720F079F4A6F50C949A280EF4E095CE
:105550000B2EBA2FA02D0B01B90190010C01CA012D
:10556000A0011124FF27591B99F0593F50F4503ED8
:1055700068F11A16F040A22F232F342F4427585FCA
:10558000F3CF469537952795A795F0405395C9F7E2
:105590007EF41F16BA0B620B730B840BBAF091509A
:1055A000A1F0FF0FBB1F661F771F881FC2F70EC039
:1055B000BA0F621F731F841F48F48795779567950C
:1055C000B795F7959E3F08F0B0CF9395880F08F0F8
:1055D0009927EE0F9795879508950E94012B0C94BB
:1055E00067280E94602858F00E94592840F029F44A
:1055F0005F3F29F00C94502851110C949B280C9477
:1056000056280E94782868F39923B1F3552391F323
:10561000951B550BBB27AA2762177307840738F021
:105620009F5F5F4F220F331F441FAA1FA9F335D07E
:105630000E2E3AF0E0E832D091505040E695001C32
:10564000CAF72BD0FE2F29D0660F771F881FBB1FEC
:10565000261737074807AB07B0E809F0BB0B802DCA
:10566000BF01FF2793585F4F3AF09E3F510578F0F6
:105670000C9450280C949B285F3FE4F3983ED4F39D
:10568000869577956795B795F7959F5FC9F7880FCA
:10569000911D9695879597F90895E1E0660F771F1C
:1056A000881FBB1F621773078407BA0720F0621BAD
:1056B000730B840BBA0BEE1F88F7E09508950E94D8
:1056C000802888F09F5798F0B92F9927B751B0F0EC
:1056D000E1F0660F771F881F991F1AF0BA95C9F776
:1056E00014C0B13091F00E949A28B1E008950C9452
:1056F0009A28672F782F8827B85F39F0B93FCCF305
:10570000869577956795B395D9F73EF490958095F2
:10571000709561957F4F8F4F9F4F08950E94BF27CF
:1057200008F48FEF08950E94BF27880B990B089506
:105730000F931F93CF93DF938230910510F482E093
:1057400090E0E091EF03F091F00320E030E0A0E082
:10575000B0E0309719F140815181028113814817DF
:105760005907C8F08417950769F4109731F012961D
:105770000C93129713961C9327C00093EF0310937A
:10578000F00322C02115310519F04217530718F410
:105790009A01BD01EF01DF01F801DBCF21153105D1
:1057A000F9F0281B390B2430310580F48A819B8164
:1057B0006115710521F0FB019383828304C09093EE
:1057C000F0038093EF03FE01329644C0FE01E20F26
:1057D000F31F8193919322503109398328833AC072
:1057E0002091ED033091EE03232B41F4209102012F
:1057F000309103013093EE032093ED0320910001DB
:10580000309101012115310541F42DB73EB740918A
:10581000040150910501241B350BE091ED03F0913B
:10582000EE03E217F307A0F42E1B3F0B28173907EE
:1058300078F0AC014E5F5F4F2417350748F04E0FEC
:105840005F1F5093EE034093ED038193919302C049
:10585000E0E0F0E0CF01DF91CF911F910F9108952B
:10586000CF93DF93009709F481C0FC013297138234
:105870001282A091EF03B091F003109781F4208180
:105880003181820F931F2091ED033091EE03281791
:10589000390751F5F093EE03E093ED0367C0ED0196
:1058A00020E030E0CE17DF0740F44A815B819E01A3
:1058B00041155105F1F0EA01F5CFD383C283408150
:1058C0005181840F951FC817D90759F48881998190
:1058D000840F951F0296918380838A819B81938395
:1058E00082832115310529F4F093F003E093EF034F
:1058F0003DC0E901FB83EA8349915991C40FD51F4B
:10590000EC17FD0761F480819181840F951F029649
:10591000E90199838883828193819B838A83E0E074
:10592000F0E012968D919C911397009719F0FD016C
:10593000DC01F7CF8D919C9111979D012E5F3F4F18
:10594000820F931F2091ED033091EE032817390742
:1059500069F4309729F41092F0031092EF0302C01B
:1059600013821282B093EE03A093ED03DF91CF91E7
:105970000895A0E0B0E0EFEBFCE20C94B028EC015D
:10598000009721F4CB010E94982BB4C0FC01E60FD4
:10599000F71F9C0122503109E217F30708F4A8C051
:1059A000D9010D911C91119706171707B0F005301A
:1059B000110508F49BC0C80104978617970708F4DF
:1059C00095C002501109061B170B019311936D939B
:1059D0007C93CF010E94302C89C05B01A01AB10AD0
:1059E0004C01800E911EA091EF03B091F003612C49
:1059F000712CE12CF12C109709F446C08D919C91EB
:105A00001197A815B905B1F56C0142E0C40ED11C7F
:105A1000CA14DB0478F14C018A189B08640142E047
:105A2000C40ED11C1296BC9012971396AC91B5E09F
:105A3000CB16D10440F0B282A38391828082D90137
:105A40006D937C9309C00E5F1F4F800F911FF9016A
:105A500091838083EB2DFA2FE114F10431F0D7010B
:105A60001396FC93EE93129741C0F093F003E093EA
:105A7000EF033CC06816790608F43C017D011296DC
:105A80000D90BC91A02DB7CF8091ED039091EE03C6
:105A900088169906E1F466167706C8F4809100012D
:105AA00090910101009741F48DB79EB74091040198
:105AB00050910501841B950BE817F907C8F4F09382
:105AC000EE03E093ED03F901718360830FC0CB0116
:105AD0000E94982B7C01009759F0A801BE010E94FA
