:100000000C940A060C9432060C9432060C943206B8
:100010000C9432060C9432060C9432060C94320680
:100020000C9432060C9432060C9432060C94320670
:100030000C9432060C9432060C9432060C94320660
:100040000C94451E0C9432060C94E10D0C94BB0DDF
:100050000C9432060C9432060C9432060C94320640
:100060000C941E0E0C94320607634236B79BD8A739
:100070001A39685618AEBAAB558C1D3CB7CC5763CD
:10008000BD6DEDFD753EF6177231BF000000803F7B
:1000900008000000BE922449123EABAAAA2ABECD97
:1000A000CCCC4C3E00000080BEABAAAAAA3E000009
:1000B0000000BF000000803F000000000008417801
:1000C000D3BB4387D1133D190E3CC3BD4282AD2B38
:1000D0003E68EC8276BED98FE1A93E4C80EFFFBE30
:1000E00001C4FF7F3F000000000000407A10F35A77
:1000F00000A0724E18090010A5D4E80000E8764868
:10010000170000E40B54020000CA9A3B000000E113
:10011000F505000080969800000040420F000000A6
:10012000A08601000000102700000000E803000086
:1001300000006400000000000A0000000000010050
:10014000000000002C76D888DC674F0823DFC1DF71
:10015000AE59E1B1B796E5E3E453C63AE651997674
:1001600096E8E6C28426EB898C9B62ED407C6FFCAE
:10017000EFBC9C9F40F2BAA56FA5F490055A2AF7F0
:100180005C936B6CF9676DC11BFCE0E40D47FEF5F9
:1001900020E6B500D0ED902E030094357705008061
:1001A000841E080000204E0A000000C80C333333C0
:1001B000330F986E12831141EF8D2114893BE65560
:1001C00016CFFEE6DB18D1844B381BF77C1D901D43
:1001D000A4BBE424203284725E228100C9F124ECA5
:1001E000A1E53D2700000000250028002B000000AD
:1001F0000000240027002A00000103070F1F3F7F93
:100200000080C0E0F0F8FCFE00000000003E5B4F04
:100210005B3E3E6B4F6B3E1C3E7C3E1C183C7E3C66
:10022000181C577D571C1C5E7F5E1C00183C180074
:10023000FFE7C3E7FF0018241800FFE7DBE7FF3004
:10024000483A060E2629792926407F050507407F72
:1002500005253F5A3CE73C5A7F3E1C1C08081C1CE5
:100260003E7F14227F22145F5F005F5F06097F01DB
:100270007F006689956A606060606094A2FFA294C6
:1002800008047E040810207E201008082A1C080894
:100290001C2A08081E101010100C1E0C1E0C3038E2
:1002A0003E3830060E3E0E06000000000000005FE3
:1002B00000000007000700147F147F14242A7F2AFF
:1002C00012231308646236495620500008070300C1
:1002D000001C2241000041221C002A1C7F1C2A080D
:1002E000083E080800807030000808080808000070
:1002F00060600020100804023E5149453E00427FE4
:10030000400072494949462141494D331814127F32
:100310001027454545393C4A4949314121110907D2
:100320003649494936464949291E00001400000053
:100330004034000000081422411414141414004125
:1003400022140802015909063E415D594E7C1211E2
:10035000127C7F494949363E414141227F4141411A
:100360003E7F494949417F090909013E4141517395
:100370007F0808087F00417F41002040413F017F06
:10038000081422417F404040407F021C027F7F04CE
:1003900008107F3E4141413E7F090909063E415117
:1003A000215E7F09192946264949493203017F0107
:1003B000033F4040403F1F2040201F3F4038403F08
:1003C000631408146303047804036159494D43001E
:1003D0007F4141410204081020004141417F040255
:1003E00001020440404040400003070800205454EC
:1003F00078407F28444438384444442838444428CA
:100400007F385454541800087E090218A4A49C781C
:100410007F0804047800447D40002040403D007F78
:100420001028440000417F40007C047804787C0858
:100430000404783844444438FC182424181824242C
:1004400018FC7C08040408485454542404043F4411
:10045000243C4040207C1C2040201C3C4030403C40
:1004600044281028444C9090907C4464544C4400A0
:100470000836410000007700000041360800020104
:100480000204023C2623263C1EA1A161123A4040F0
:10049000207A38545455592155557941225454786D
:1004A00042215554784020545579400C1E52721206
:1004B000395555555939545454593955545458008F
:1004C00000457C410002457D420001457C407D1293
:1004D00011127DF0282528F07C54554500205454F5
:1004E0007C547C0A097F4932494949323A444444A0
:1004F0003A324A4848303A4141217A3A42402078DB
:10050000009DA0A07D3D4242423D3D4040403D3CDB
:1005100024FF2424487E4943662B2FFC2F2BFF0900
:1005200029F620C0887E09032054547941000044F4
:100530007D413048484A32384040227A007A0A0ADF
:10054000727D0D19317D2629292F28262929292652
:1005500030484D4020380808080808080808382F97
:1005600010C8ACBA2F102834FA00007B0000081421
:100570002A142222142A14085500550055AA55AAF7
:1005800055AAFF55FF55FF000000FF00101010FF97
:1005900000141414FF001010FF00FF1010F010F0F2
:1005A000141414FC001414F700FF0000FF00FF14E3
:1005B00014F404FC141417101F10101F101F14142F
:1005C000141F00101010F0000000001F1010101079
:1005D0001F10101010F010000000FF10101010106D
:1005E00010101010FF10000000FF140000FF00FFAB
:1005F00000001F10170000FC04F414141710171447
:1006000014F404F40000FF00F71414141414141468
:10061000F700F7141414171410101F101F141414DB
:10062000F4141010F010F000001F101F0000001F45
:1006300014000000FC140000F010F01010FF10FF78
:10064000141414FF141010101F00000000F010FF0D
:10065000FFFFFFFFF0F0F0F0F0FFFFFF00000000F1
:1006600000FFFF0F0F0F0F0F3844443844FC4A4A75
:100670004A347E02020606027E027E02635549412A
:10068000633844443C04407E201E2006027E020261
:1006900099A5E7A5991C2A492A1C4C7201724C3075
:1006A0004A4D4D303048784830BC625A463D3E494C
:1006B0004949007E0101017E2A2A2A2A2A44445FF0
:1006C000444440514A444040444A51400000FF01E4
:1006D00003E080FF000008086B6B083612362436F2
:1006E000060F090F06000018180000001010003057
:1006F00040FF0101001F01011E00191D1712003CDF
:100700003C3C3C0000000000DB40A4A62EAFDA0217
:1007100081DA1281DA02818F2000A1C8D300408DD6
:10072000AED580A8000060000000000000000000BE
:100730000000000000E000000000000000000000D9
:1007400000000001E00000000000000000000000C8
:10075000000001F0000000000000000000000000A8
:100760000003F00000000000000000000000000096
:1007700007F000000000000000000000000000077B
:10078000F8000000000000000000000000000FF86A
:1007900000000003C0007E000001E0007F0FF800B1
:1007A000000003C000FE000001E000FFEFF80000C1
:1007B0000003C000FE000001E000FFFFF8000000A1
:1007C00003C000F00000000F007FFE7FC0000003A8
:1007D000C000F00000000F003FFE7FF83FF1FBCFAC
:1007E000FCFEF3BC3DEFE01FFE7FFF7FFBFFDFFE63
:1007F000FEFFBC3DEFE01FC6FFFF7FFBFFDFFEFEFD
:10080000FFBC3DEFE00FE3C7FE787BC3DE1EF0FFC9
:10081000BC3DEF0007FF87FC787BC3DE1EF0F83C91
:100820003DEF0001FFFFF0007BC3C01EF0F03C3D38
:10083000EF0001F37FE03FFBC3CFFEF0F03C3DEF64
:100840000003E33F807FFBC3DFFEF0F03C3DEF00A1
:1008500007E73C00787BC3DE1EF0F03C3DEF00076D
:10086000FFBE00787BC3DE1EF0F03C3DEF0007FFCB
:10087000FE00787BC3DE1EF0F03C3DEF000FFFFE74
:10088000007FFBFFDFFEF0F03FFDEFE00FFFFF001A
:100890007FFBFFDFFEF0F03FFDEFE00FF9FF003ED2
:1008A00079F9CF9EF0F01F3DE7E01FF1FF00000057
:1008B0000000000000000000001F80FF007FFFFF1D
:1008C000FFFFFFFFFFFFFFE01C007F007FFFFFFF38
:1008D000FEB46D888D18E000001F007FFFFFFFFE53
:1008E00095AD7DB577E000000F007FFFFFFFFEA50F
:1008F000AD9D8D19E0000006007FFFFFFFFEB5AD46
:10090000EDB57EE000000000000180000000000066
:10091000000000000380000000000000000000074D
:10092000C000000000000000000007C00000000040
:1009300000000000000FC0000000000000000000E8
:100940001FE00000000000000000001FE0000000A9
:100950000000000000003FE0000000000000000078
:10096000003FF00000000000000000007FF00000E9
:1009700000000000001FF87FF000000000000000F1
:100980003FFE7FF0000000000000003FFF7FF0000E
:100990000000000000001FFFFBE00000000000005E
:1009A000000FFFF9FFC00000000000000FFFF9FF7B
:1009B000F800000000000007FFF1FFFF000000004A
:1009C000000003FC73FFFF80000000000001FE3FF9
:1009D000FFFF80000000000000FF1E0FFF0000006E
:1009E000000000007FFE1FFC000000000000003F30
:1009F000FFFFF8000000000000000FDFFFE0000034
:100A000000000000001F19FFC000000000000000EF
:100A10003F3CFF00000000000000007E7CF800006A
:100A20000000000000007FFE7C00000000000000CD
:100A300000FFFFFC0000000000000000FFFFFE00C0
:100A400000000000000000FFFFFE000000000000AA
:100A50000001FFEFFE0000000000000001FFCFFEDC
:100A60000000000000000003FF07FE00000000007F
:100A7000000003FC07FE0000000000000003F0037C
:100A8000FE00000000000000018000FE00000000E9
:100A90000000000000007E000000000000000000D8
:100AA000003E000000000000000000000C000000FC
:100AB000000000078000FC000003C0000000078069
:100AC00001FC000003C0000000078001FC000003DF
:100AD000C0000000078001E00000001E00000007C9
:100AE0008001E00000001E007FE3F79FF9FDE7783A
:100AF0007BDFC0FFF7FFBFFDFDFF787BDFC0FFF7A7
:100B0000FFBFFDFDFF787BDFC0F0F787BC3DE1FF55
:100B1000787BDE00F0F787BC3DE1F0787BDE0000FB
:100B2000F787803DE1E0787BDE007FF7879FFDE17E
:100B3000E0787BDE00FFF787BFFDE1E0787BDE0039
:100B4000F0F787BC3DE1E0787BDE00F0F787BC3D45
:100B5000E1E0787BDE00F0F787BC3DE1E0787BDE0A
:100B600000FFF7FFBFFDE1E07FFBDFC0FFF7FFBF46
:100B7000FDE1E07FFBDFC07CF3F39F3DE1E03E7BE6
:100B8000CFC00000000000000000000000FFFFFFD9
:100B9000FFFFFFFFFFFFFFC0FFFFFFFFFD68DB114F
:100BA0001A31C0FFFFFFFFFD2B5AFB6AEFC0FFFFAA
:100BB000FFFFFD4B5B3B1A33C0FFFFFFFFFD6B5B8D
:100BC000DB6AFDC0000000002300260029000404A9
:100BD00004040404040402020202020203030303E5
:100BE00003030102040810204080010204081020C1
:100BF00001020408102000000008000201000003A8
:100C0000040700000000000000002200FF21000097
:100C100090248F1E11241FBECFEFD8E0DEBFCDBFC2
:100C200023E0AAE1B2E001C01D92AA3FB207E1F7BA
:100C300012E0A0E0B1E0E0EFFDE502C005900D920A
:100C4000AA31B107D9F716E0C9E0D6E004C0219770
:100C5000FE010E942F2AC830D107C9F70E949E1EAC
:100C60000C94EB2E0C940000CF92DF92EF92FF9247
:100C70000F931F93CF93DF936C017A018B01C0E038
:100C8000D0E0CE15DF0581F0D8016D918D01D60140
:100C9000ED91FC910190F081E02DC6010995892B21
:100CA00011F02196EECF7E01C701DF91CF911F9108
:100CB0000F91FF90EF90DF90CF900895FC01538D3E
:100CC000448D252F30E0842F90E0821B930B541726
:100CD00010F0CF96089501970895FC01918D828DB3
:100CE000981761F0828DDF01A80FB11D5D968C9180
:100CF000928D9F5F9F73928F90E008958FEF9FEF8B
:100D00000895FC01918D828D981731F0828DE80F46
:100D1000F11D858D90E008958FEF9FEF0895FC0100
:100D2000918D228D892F90E0805C9F4F821B9109CD
:100D30008F739927089583ED92E00E948F0621E03A
:100D4000892B09F420E0822F0895FC01848DDF01B6
:100D5000A80FB11DA35ABF4F2C91848D90E001962E
:100D60008F739927848FA689B7892C93A089B1891D
:100D70008C91837080648C93938D848D981306C0BE
:100D80000288F389E02D80818F7D80830895EF9222
:100D9000FF920F931F93CF93DF93EC0181E0888F35
:100DA0009B8D8C8D981305C0E889F989808185FD1C
:100DB00026C0F62E0B8D10E00F5F1F4F0F7311270B
:100DC000E02E8C8DE8120CC00FB607FCFACFE88934
:100DD000F989808185FFF5CFCE010E94A506F1CF6C
:100DE0008B8DFE01E80FF11DE35AFF4FF0829FB794
:100DF000F8940B8FEA89FB89808180620AC09FB7D3
:100E0000F894EE89FF896083E889F989808183708D
:100E1000806480839FBF81E090E0DF91CF911F913C
:100E20000F91FF90EF900895CF93DF93EC01888DA1
:100E30008823C9F0EA89FB89808185FD05C0A889DE
:100E4000B9898C9186FD0FC00FB607FCF5CF808164
:100E500085FFF2CFA889B9898C9185FFEDCFCE01AE
:100E60000E94A506E7CFDF91CF91089580E090E042
:100E7000892B29F00E949B0681110C940000089593
:100E8000FC0177FDB9C080859185681779070CF062
:100E9000B3C057FDB1C082859385481759070CF040
:100EA00008958589823079F484819581DC01A61BBF
:100EB000B70BBD016150710986819781DC01A41BCC
:100EC000B50BAD010EC0833009F084C064277527CF
:100ED000CA01862797276827792746815781481BAB
:100EE000590B415051092130310531F048F1223080
:100EF000310509F44AC00895CA0157FD07969C01BF
:100F0000A3E035952795AA95E1F7A481B5812A9F9D
:100F1000C0012B9F900D3A9F900D1124680F791FEF
:100F2000068CF78DE02DE60FF71F4770552781E0FF
:100F300090E001C0880F4A95EAF79081892B48C05C
:100F4000CA0157FD07969C0193E0359527959A9520
:100F5000E1F7A481B5812A9FC0012B9F900D3A9F94
:100F6000900D1124680F791F068CF78DE02DE60F88
:100F7000F71F4770552781E090E001C0880F4A9520
:100F8000EAF780959081892323C0CA0157FD07960F
:100F90009C0183E0359527958A95E1F7A481B58179
:100FA0002A9FC0012B9F900D3A9F900D1124680F2E
:100FB000791F068CF78DE02DE60FF71F4770552738
:100FC00081E090E001C0880F4A95EAF79081892777
:100FD00080830895813009F086CF642775274627DE
:100FE00057276427752784819581DC01A61BB70BE1
:100FF000BD016150710977CF08950895FC016370B8
:10100000658B8481958126813781613039F0633029
:1010100029F0918780873387228708953187208739
:101020009387828708956F927F928F929F92AF925B
:10103000BF92CF92DF92EF92FF920F931F93CF93C5
:10104000DF93EC014B015A0169013801E881F98114
:101050000284F385E02D0995E881F9810288F389FE
:10106000E02D87019601A501B401CE010995A501E6
:10107000460D571D41505109E881F9810288F389D5
:10108000E02D9601B401CE010995E881F98100882F
:10109000F189E02D9301A501B401CE010995C80C99
:1010A000D91CB60161507109E881F9810088F18984
:1010B000E02D9301A501CE010995E881F98106880B
:1010C000F789E02DCE01DF91CF911F910F91FF9015
:1010D000EF90DF90CF90BF90AF909F908F907F90D8
:1010E0006F9009948F929F92AF92BF92CF92DF92AE
:1010F000EF92FF920F931F93CF93DF934C016B01FD
:101100005A01E901DC01ED91FC916217730781F44A
:101110000417150724F48B2D5801042F182F0A19D2
:101120001B0998012F5F3F4F048CF58DE02D12C0F5
:101130004017510709F52617370724F48D2D69014B
:10114000C62FD82F9E012C193D092F5F3F4F068CCB
:10115000F78DE02D8701A501B601C4010995DF9146
:10116000CF911F910F91FF90EF90DF90CF90BF90A4
:10117000AF909F908F9008950284F385E02D09959C
:10118000D401ED91FC910488F589E02D9E01A50123
:10119000B601C4010995D401ED91FC910688F78947
:1011A000E02DC401DF91CF911F910F91FF90EF903F
:1011B000DF90CF90BF90AF909F908F900994EF9267
:1011C000FF920F931F93DC011A960D911C911B97B0
:1011D00018962D913C911997ED91FC9100A0F1A1E9
:1011E000E02D7B0140E050E060E070E009951F9148
:1011F0000F91FF90EF9008954F925F926F927F92C0
:101200008F929F92AF92BF92CF92DF92EF92FF9216
:101210000F931F93CF93DF936C012B015A01390178
:101220004801DC01ED91FC910284F385E02D0995E4
:10123000E201640C751CD601ED91FC91C615D70531
:101240005CF40088F189E02D87019401A501BE01BD
:10125000C60109952196EFCF0688F789E02DC601D2
:10126000DF91CF911F910F91FF90EF90DF90CF9082
:10127000BF90AF909F908F907F906F905F904F90B6
:1012800009948F929F92AF92BF92CF92DF92EF928A
:10129000FF920F931F93CF93DF93EC015B014A0101
:1012A0006901E881F9810284F385E02D09959501B2
:1012B0002C0D3D1D21503109E881F9810488F58903
:1012C000E02D78018401A401B501CE010995E881E2
:1012D000F9810688F789E02DCE01DF91CF911F912A
:1012E0000F91FF90EF90DF90CF90BF90AF909F90C5
:1012F0008F9009948F929F92AF92BF92CF92DF927C
:10130000EF92FF920F931F93CF93DF93EC015B015A
:101310004A0169017801E881F9810284F385E02DB1
:101320000995C80CD91C860101501109E881F98181
:101330000488F589E02D9501A401B501CE01099538
:10134000E881F9810688F789E02DCE01DF91CF9100
:101350001F910F91FF90EF90DF90CF90BF90AF90D3
:101360009F908F9009940895EF92FF920F931F938F
:10137000DC01ED91FC9100A0F1A1E02D09951F91F8
:101380000F91FF90EF9008950F931F93DC01ED9163
:10139000FC91068CF78DE02D09951F910F91089512
:1013A0000F931F93DC01ED91FC91048CF58DE02DE2
:1013B00009951F910F910895DC01ED91FC91008436
:1013C000F185E02D09942F923F924F925F926F9298
:1013D0007F928F929F92AF92BF92CF92DF92EF92C5
:1013E000FF920F931F93CF93DF9300D000D000D0D4
:1013F000CDB7DEB72C017E836D836A015901C80128
:10140000FC82EB824801841A950A97FE03C09194EE
:101410008194910835012D813E81621A730A77FE0D
:1014200003C0719461947108681479045CF43A2DD6
:101430002B2D5C01832F922F3D812E81DE82CD8268
:10144000C32ED22EAD81BE81AA16BB065CF43C2D04
:101450002D2D6C01832F922F3D812E81BE82AD8276
:10146000A32EB22E85012D813E81021B130B1C0180
:101470002C183D0837FE03C03194219431087801BF
:1014800017FF03C03FEFE31AF30AF594E794C81679
:10149000D9062CF08FEF9FEF9A83898304C0A1E0D7
:1014A000B0E0BA83A9832D813E81A216B30624F150
:1014B000D201ED91FC910484F585E02D2B813C81D6
:1014C0006814790424F44D815E81B60103C0A6013D
:1014D0006D817E81C2010995E218F308F7FE06C00E
:1014E00029813A81C20ED31EE00EF11E8D819E81AC
:1014F00001969E838D83D7CF26960FB6F894DEBFD4
:101500000FBECDBFDF91CF911F910F91FF90EF9054
:10151000DF90CF90BF90AF909F908F907F906F9013
:101520005F904F903F902F90089585ED8093BC0081
:101530008091BC0084FDFCCF1092CE0208954091B2
:101540005C02262F30E0240F311D21323105DCF4FE
:101550002091CE022430C9F4FC0180E090E086178F
:1015600058F430915C022191DC01A45CBD4FA30FC3
:10157000B11D2C930196F3CF80915C02680F6093AC
:101580005C0280E0089581E0089582E00895089566
:101590000895E091D2028091D102E81730F4F0E092
:1015A000ED55FD4F808190E008958FEF9FEF0895F6
:1015B0009091D2028091D102981750F4E92FF0E077
:1015C000ED55FD4F208130E09F5F9093D20202C025
:1015D0002FEF3FEFC90108958091D10290E0209153
:1015E000D202821B91090895CF92DF92EF92FF926F
:1015F0000F931F93CF93DF937C01CB018A0120913E
:101600003B02222389F0EB016B01C40ED51ECC15E1
:10161000DD0569F06991D701ED91FC910190F081B0
:10162000E02DC7010995F3CF642F0E949F0AC801DE
:10163000DF91CF911F910F91FF90EF90DF90CF90AE
:101640000895CF93DF931F92CDB7DEB769832091C2
:101650003B022223D1F02091CF02203240F021E042
:1016600030E0FC013383228380E090E015C080915C
:10167000D002E82FF0E0E55EFD4F998190838F5F07
:101680008093D0028093CF0205C061E0CE01019625
:101690000E949F0A81E090E00F90DF91CF91089522
:1016A000089580E090E008950F931F93CF93DF9308
:1016B000EC0188819981009729F02A813B812617C6
:1016C000370788F48B016F5F7F4F0E940E2E0097C3
:1016D00061F0998388831B830A832C813D81232BAE
:1016E00011F4FC01108281E001C080E0DF91CF9114
:1016F0001F910F9108950F931F93CF93DF93DC01F8
:101700005596EC915597E23071F0E330E9F0E13015
:1017100079F5FB0114960D90BC91A02DA41BB50B7F
:10172000A21BB30B18C0EC01EC81FD81E61BF70B8B
:10173000BF0161507109EE81FF81DF01A41BB50B70
:10174000AD01421B530B14C0DA01EC01EE81FF81A5
:10175000E61BF70B3197F7FD0DC0EC014E815F8161
:10176000E417F5073CF4AF01BD010E94611302C00C
:101770000E94C813DF91CF911F910F9108950F938D
:101780001F93DC015596EC915597E23061F0E33000
:1017900009F1E13081F51496ED91FC911597E41B68
:1017A000F50B319723C0DC011496ED91FC91159750
:1017B000DF01A61BB70BBD01DC011696ED91FC9174
:1017C0001797DF01A41BB50BAD0141505109621BF6
:1017D000730B11C0FA01DC0116964D915C911797BD
:1017E000DA01A61BB70BBD01621B730BAB01BF0176
:1017F0000E94C8130CC057FD0AC0DC011696ED917B
:10180000FC9117974E175F0714F40E9461131F9104
:101810000F910895AF92BF92CF92EF92FF920F93E4
:101820001F93CF93DF93EC01262F888D998D00971E
:1018300009F040C06A3059F41D861C862C898E85BB
:101840009F8538E0239F800D911D112441C06D308C
:1018500009F4AAC08E898823C1F03C898C859D85B6
:1018600046E0349F800D911D112448855985481705
:1018700059075CF41D861C868E859F8548E0349F41
:10188000800D911D11249F878E87EA88FB88088927
:1018900019894E855F856C857D85CC88CE010E9437
:1018A00047112C898C859D8536E0239F800D911DE5
:1018B000112442C06A3079F41D861C862C89FC01F3
:1018C0003696E4918E859F852E9F800D911D112463
:1018D0009F878E8769C06D3009F466C0FC0134961D
:1018E0003491631708F460C03196E491E61708F468
:1018F0005BC0FC01329665917491422F50E0431B0E
:10190000510937E0349F5001359FB00C1124A60EC9
:10191000B71EF501329634913196E491332311F0DC
:10192000E1110DC0F5013496E4912C898C859D85DB
:10193000E29F800D911D11249D878C8735C0F50194
:10194000359644915E89552311F16C89E32FF0E0BF
:10195000E40FF11D47FDFA956E9FD0016F9FB00D0A
:1019600011244C855D854A0F5B1FE885F985E417D6
:10197000F5076CF41D861C86FC013696E4918E8575
:101980009F856E9F800D911D11249F878E87EA8809
:10199000FB88088919894E855F856C857D85CC8893
:1019A000CE010E944711BECF81E090E0DF91CF9140
:1019B0001F910F91FF90EF90CF90BF90AF9008953F
:1019C000EF92FF920F931F93CF93DF9361157105F1
:1019D00011F480E01CC041155105C1F07B01EC0100
:1019E0008C819D818A01080F191FB801CE010E94C8
:1019F000540B882371F3288139818C819D81B70133
:101A0000820F931F0E94E42E1D830C8381E0DF91DF
:101A1000CF911F910F91FF90EF900895CF93DF9397
:101A2000EC0188819981009711F00E94852D19821F
:101A300018821D821C821B821A82DF91CF91089529
:101A4000CF93DF93EC016115710561F0FB0101900B
:101A50000020E9F73197AF01461B570B0E94E00CBD
:101A6000811103C0CE010E940E0DCE01DF91CF91F6
:101A70000895EF92FF920F931F93CF93DF93EC01A2
:101A80007B018A01BA010E94540B811104C0CE016E
:101A90000E940E0D07C01D830C83B70188819981B8
:101AA0000E94E42ECE01DF91CF911F910F91FF9004
:101AB000EF900895FB01DC0111961C921E92139683
:101AC0001C921E92129715961C921E9214978617BE
:101AD000970749F0608171816115710521F044819A
:101AE00055810C94390D0895FC01118210821382E6
:101AF0001282158214826115710551F0FB0101906B
:101B00000020E9F73197AF01461B570B0C94390DB4
:101B100008956115710579F0FB0101900020E9F746
:101B20003197AF01461B570BDC01ED91FC91028010
:101B3000F381E02D099480E090E008950F931F93C6
:101B4000CF93DF93EC01FB0144815581608171816A
:101B5000E881F9810280F381E02D09958C0166E529
:101B600071E0CE010E94890D800F911FDF91CF910E
:101B70001F910F9108951F920F920FB60F9211248B
:101B80002F933F934F935F936F937F938F939F9385
:101B9000AF93BF93EF93FF9383ED92E00E94A5066E
:101BA000FF91EF91BF91AF919F918F917F916F9135
:101BB0005F914F913F912F910F900FBE0F901F900B
:101BC00018951F920F920FB60F9211242F938F9397
:101BD0009F93EF93FF93E091E302F091E402808101
:101BE000E091E902F091EA0282FD12C090818091B9
:101BF000EC028F5F8F732091ED02821751F0E0911C
:101C0000EC02F0E0ED52FD4F958F8093EC0201C0A5
:101C10008081FF91EF919F918F912F910F900FBE37
:101C20000F901F90189508958EBD00000DB407FE0B
:101C3000FDCF8EB508958CBD9DBD08951F920F9266
:101C40000FB60F9211242F933F934F935F936F938F
:101C50007F938F939F93AF93BF93EF93FF93809165
:101C6000B900887F803609F49CC068F5883209F491
:101C70005BC090F4803109F454C038F4882309F42F
:101C8000F6C0883009F44DC0F6C0883109F44CC064
:101C9000803209F45DC0EFC0803409F468C048F4B4
:101CA000803309F455C0883309F0E5C08093A2025F
:101CB000D8C0803509F44FC0883509F45DC0883438
:101CC00009F0D9C0D6C0883909F4C7C0A8F488374C
:101CD00009F467C038F4883609F463C0803709F422
:101CE00060C0C9C0883809F4B8C0803909F45FC041
:101CF000803809F0C0C05BC0803B09F486C038F46E
:101D0000803A09F466C0883A09F47FC0B4C0803CC8
:101D100009F4A7C0883C09F4A4C0883B09F48AC030
:101D2000AAC080919F0210C09091A1028091A00250
:101D3000981770F5E091A10281E08E0F8093A102C7
:101D4000F0E0E158FD4F80818093BB0085EC86C0B8
:101D50008093A2028EC0E091A10281E08E0F809359
:101D6000A1028091BB00F0E0E158FD4F808390918B
:101D7000A1028091A0026EC0E091A10281E08E0FCD
:101D80008093A1028091BB00F0E0E158FD4F808379
:101D90008091CD0281116DC081E08093CC0284EAF4
:101DA00061C083E08093CE0210927E02CFCF8091FB
:101DB0007E02803208F051C0E0917E0281E08E0FF9
:101DC00080937E028091BB00F0E0E25AFD4F808359
:101DD000BDCF85EC8093BC001092CE0280917E0234
:101DE000803230F4E0917E02F0E0E25AFD4F108242
:101DF00060917E0270E0E091C802F091C9028EE528
:101E000092E0099510927E0236C084E08093CE0263
:101E100010925D0210925C02E091CA02F091CB0236
:101E2000099580915C02811105C081E080935C027C
:101E300010923C02E0915D0281E08E0F80935D0282
:101E4000F0E0E45CFD4F80818093BB0090915D02E7
:101E500080915C02981708F479CF85E88093BC00E4
:101E60000AC085EC8093BC001092CE0204C0109290
:101E7000A2020E94950AFF91EF91BF91AF919F91AD
:101E80008F917F916F915F914F913F912F910F9023
:101E90000FBE0F901F9018953091CF02313208F08D
:101EA0004BC08091CE028111FCCF90911A0222E0AA
:101EB0002093CE0221E02093CD022FEF2093A202A7
:101EC0001092A1023093A002EBE1F2E0AFE7B2E0A2
:101ED00020E0321721F041914D932F5FFACF1092FD
:101EE0009F0220919F02990F922B90939F029091B5
:101EF000CC02913061F41092CC0290919F029093A9
:101F0000BB009091BC0093FDF8CF95EC01C095EE1D
:101F10009093BC009091CE029230E1F39091A20296
:101F20009F3F79F08091A202803241F08091A2021D
:101F3000803331F084E005C081E003C082E001C05D
:101F400083E01092D0021092CF0210923B020895CB
:101F500081E080933B0260931A021092D0021092AB
:101F6000CF0208951F93CF93DF93FC01848D958D4D
:101F7000009701F1162FEF0160A10E94A80F8C8D30
:101F80009D8DDC01ED91FC910190F081E02D60E0F0
:101F900009958C8D9D8DDC01ED91FC910190F08176
:101FA000E02D612F09958C8D9D8DDF91CF911F9133
:101FB0000C944C0FA4A5B5A59C9182A9809589236A
:101FC0008C93828D938D892B31F0862FDF91CF9169
:101FD0001F910C94140E28E030E080E8A0A5B1A574
:101FE00090A9462F482319F04C91942B03C04C9193
:101FF000909594239C93A2A5B3A54C9191A9942B61
:102000009C93A2A5B3A54C9191A9909594239C93E0
:1020100086952150310911F7DF91CF911F910895D5
:102020001F93CF93DF93EC01162F8C8D9D8D892B01
:10203000B1F02EA93FA948AD59AD60E074E284EF3C
:1020400090E00E94B728DA01C9014097A109B109BF
:10205000B695A795979587958093B8000FC08A8D00
:102060009B8D892B21F08CA99DA90E941B0EEEA5AA
:10207000FFA590818BA9809589238083111102C0CF
:1020800066EA01C067EACE010E94B20F8C8D9D8D79
:10209000892BB1F02AAD3BAD4CAD5DAD60E074E293
:1020A00084EF90E00E94B728DA01C9014097A109A6
:1020B000B109B695A795979587958093B80006C006
:1020C000EEA5FFA590818BA9892B8083DF91CF910D
:1020D0001F9108958091CE028111FCCF413208F00A
:1020E00040E281E08093CE028093CD029FEF9093F7
:1020F000A2021092A102940F9093A00280939F02DB
:1021000080919F02660F682B60939F028091CC02A2
:10211000813061F41092CC0280919F028093BB00C9
:102120008091BC0083FDF8CF85EC01C085EE8093E3
:10213000BC008091CE028130E1F38091A10284172E
:1021400010F44091A102EFE7F2E0A3EAB2E080E0F0
:10215000841721F091919D938F5FFACF1092D20254
:102160008093D10208958F929F92AF92BF920F9366
:102170001F93CF93DF93CDB7DEB7A1970FB6F89437
:10218000DEBF0FBECDBF19A2423008F44AE08E0177
:102190000F5D1F4F842E912CA12CB12CA501940111
:1021A0000E94B728E62FB901CA0101501109EA308F
:1021B00014F4E05D01C0E95CD801EC93232B242BDF
:1021C000252B61F7B80183ED92E00E94890DA1965D
:1021D0000FB6F894DEBF0FBECDBFDF91CF911F9138
:1021E0000F91BF90AF909F908F900895EF92FF92C4
:1021F0000F931F93CF93DF93CDB7DEB7A1970FB6A1
:10220000F894DEBF0FBECDBF7C01CB01BA01F70150
:102210001182108213821282158214828E010F5F46
:102220001F4F22E044E00E940925009769F0FC015D
:1022300001900020E9F73197AF01481B590BBC0111
:10224000C7010E94390D03C0C7010E940E0DA1965F
:102250000FB6F894DEBF0FBECDBFDF91CF911F91B7
:102260000F91FF90EF900895CF93DF93EC01FB0166
:1022700044815581608171810E94E00C811103C00D
:10228000CE010E940E0DCE01DF91CF9108952F92C5
:102290003F924F925F926F927F928F929F92AF92F6
:1022A000BF92CF92DF92EF92FF920F931F93CF9343
:1022B000DF93CDB7DEB76B970FB6F894DEBF0FBED6
:1022C000CDBF9B8F8A8F5B011A01D22E1F830E8395
:1022D0003701C982DC0158962D913C9159972115FF
:1022E000310509F0E6C018968D919C9119976817F1
:1022F00079070CF0CDC11A968D919C911B974817C8
:1023000059070CF0C5C18C2C912CFB0126E0C29E14
:10231000E00DF11D1124FB87EA871E161F060CF045
:10232000B7C1A40183E0440F551F8A95E1F75D878B
:102330004C87CA01820D931D181619060CF0A8C10E
:1023400057968C91811104C05FEA5D1508F4D3940F
:10235000AA8DBB8DED91FC9111970284F385E02D40
:10236000CD010995B5E0DB9EC0011124F50135963C
:10237000FF87EE87BB82AA8225019C012A193B09AF
:10238000398B288BA101485F5F4F5B8B4A8BE889B3
:10239000F989E40DF51DE85FFD4F549158876101FF
:1023A0003D822C82888580FF13C0AA8DBB8DED9164
:1023B000FC91B981B13031F40484F585E02D2E8192
:1023C0003F8116C00684F785E02DEE80FF801AC09D
:1023D000EE81FF81E615F705F1F0AA8DBB8DED9139
:1023E000FC91B981B13051F40484F585E02D93015D
:1023F000A601B2018A8D9B8D09950DC00684F785D3
:10240000E02D7301840194014C815D816A817B819F
:102410008A8D9B8D0995E885E695E887FFEFCF1AB1
:10242000DF0A2C813D81280D391D3D832C834A898B
:102430005B89C416D50609F0B5CF5FEF451A550A7A
:102440008A819B81880D991D9B838A83AE85BF8578
:102450004A165B0609F09BCFEE81FF81E615F70572
:1024600009F4F4C0EA8DFB8DA081B181F981F130CE
:1024700079F4B5016B5F7F4F5096ED91FC915197C8
:10248000830128E030E0A1018A8D9B8D0995DEC093
:102490006A857B85681979091E96ED91FC911F97D5
:1024A00073010C851D859401A1018A8D9B8D099571
:1024B000CDC0F9013496E491DE1AF9013296859186
:1024C0009491B7E0DB9E800D911D1124F9012591B7
:1024D00034913B8B2A8BFC01259134912901FC011D
:1024E0003296C490319634913E873296149131964B
:1024F000D4904981423058F0612E012E000C7708AB
:102500008D2D0D2C000C990B9987888704C0198696
:102510001886612C712CAA8DBB8DED91FC911197C1
:102520000284F385E02DCD010995B9818B2E912C84
:10253000689CC001699C900D789C900D1124FC0151
:10254000EA0DFB1DFD87EC871A82712C612CE12FAF
:10255000110FFF0B95012E0F3F1F3B872A87AC0CF5
:10256000B11CA5014E0F5F1F5F8B4E8BC1018D0DFE
:10257000911DD7FC9A95998F888F9E85691608F0D2
:1025800065C0862D90E048855985480F591F489DA4
:102590009001499D300D589D300D1124D101A20F9D
:1025A000B31FB98BA88BEC85FD85FD83EC83AA84D2
:1025B000BB84DA80FA85DF1A288D398D280F391F00
:1025C0003D8B2C8B8D2D8A0D4E895F89A416B50607
:1025D000C1F1877041F4C2010196EA89FB89E40DDB
:1025E000F51D74902C0177FE21C0AA8DBB8DED9155
:1025F000FC91B981B13061F40484F585E02D2E8120
:102600003F814C895D89B5018A8D9B8D09950EC0EE
:102610000684F785E02DEE80FF80840194014889CF
:1026200059896C817D818A8D9B8D0995770CEFEF9F
:10263000AE1ABE0A2C813D81280D391D3D832C83A5
:10264000C1CF3A813C0D3A83639497CFAA8DBB8D5D
:10265000ED91FC9111970688F789E02DCD016B96DD
:102660000FB6F894DEBF0FBECDBFDF91CF911F91A3
:102670000F91FF90EF90DF90CF90BF90AF909F9021
:102680008F907F906F905F904F903F902F90099424
:102690006B960FB6F894DEBF0FBECDBFDF91CF9122
:1026A0001F910F91FF90EF90DF90CF90BF90AF9070
:1026B0009F908F907F906F905F904F903F902F9062
:1026C00008950F931F93CF93DF9377FF04C0260FD6
:1026D000371F60E070E0DC011496CD91DC91159716
:1026E000FB01E20FF31FCE17DF071CF49E01261B30
:1026F000370B121613060CF046C0FA0157FD379639
:10270000DF01E3E0B595A795EA95E1F7AC9FF0010D
:10271000AD9FF00DBC9FF00D11246E0F7F1FDC01EB
:102720005E96ED91FC915F97E60FF71F4770552776
:1027300081E090E001C0880F4A95EAF7482F013008
:10274000110539F078F002301105E9F42E0F3F1F22
:1027500013C02E0F3F1FE217F307A9F08081842BCF
:102760008193F9CF80952E0F3F1FE217F30759F0A1
:10277000908198239193F9CFE217F30721F080819C
:1027800084278193F9CFDF91CF911F910F91089505
:10279000EF92FF920F931F93CF93DF93EC0177FD9E
:1027A000A5C0EC80FD806E157F050CF09FC057FF23
:1027B00004C0240F351F40E050E08E819F81FA0154
:1027C000E20FF31F8E179F071CF49C01241B350B8F
:1027D000121613060CF08AC0922F842F86958695C8
:1027E00086958E9DD0018F9DB00D11246A0F7B1FA1
:1027F000AE8DBF8DA60FB71F4770B1F188E0841B67
:10280000482F682F70E0FB01E050FE4FE49128173D
:1028100098F4621B71092FEF30E002C035952795BF
:102820006A95E2F7E2230130110549F078F00230B1
:10283000110509F05BC00EC00130110519F48C912F
:10284000E82B0AC00130110508F049C0E0958C91D1
:10285000E82302C08C91E827EC93941708F446C053
:102860002C813D81A20FB31FE92FE41BE830F8F063
:102870000230110561F48E2F9C9190959C932C81D0
:102880003D81A20FB31F88508830B0F70FC081E0A0
:102890000115110509F480E081959E2F8C932C8100
:1028A0003D81A20FB31F98509830C0F7E770EE2318
:1028B000E9F0F0E0E850FE4FE4910130110539F005
:1028C00048F00230110591F48C91E82706C08C91F4
:1028D000E82B03C0E0958C91E823EC9307C002300D
:1028E000110509F4B7CFAE0DBF1DBECFDF91CF915B
:1028F0001F910F91FF90EF900895833081F028F49D
:10290000813099F08230A1F008958730A9F08830A5
:10291000B9F08430D1F4809180008F7D03C0809124
:1029200080008F7780938000089584B58F7702C0F0
:1029300084B58F7D84BD08958091B0008F7703C0EA
:102940008091B0008F7D8093B00008951F93CF9346
:10295000DF93282F30E0F901EA50F44F8491F90118
:10296000EE51F44FD491F901E253F44FC491CC23CA
:10297000C1F0162F81110E947D14EC2FF0E0EE0FB4
:10298000FF1FEC51FE4FA591B4919FB7F894111120
:1029900004C08C91D095D82302C0EC91DE2BDC933F
:1029A0009FBFDF91CF911F910895CF93C82F809142
:1029B00087038F3F81F560917E0380917C03909126
:1029C0007D030E94A80F80917C0390917D03DC0120
:1029D000ED91FC910190F081E02D6C2F0995809193
:1029E0007C0390917D030E944C0F41E060917E0337
:1029F00080917C0390917D030E946A1080917C03FA
:102A000090917D03DC01ED91FC910284F385E02D32
:102A10000995C82F20C080918A038F3F21F482E559
:102A200091E00E941B0E60E0809187030E94A61433
:102A30008C2F80680E94F41C80E00E94F41CC82F38
:102A400061E0809187030E94A61480918A038F3FE2
:102A500011F40E94130E8C2FCF910895CF93DF9322
:102A6000C82F809187038F3F09F041C060917E039A
:102A700080917C0390917D030E94A80F80917C033C
:102A800090917D03DC01ED91FC910190F081E02DAE
:102A90006C2F099580917C0390917D030E944C0FCF
:102AA00042E060917E0380917C0390917D030E94BF
:102AB0006A1080917C0390917D03DC01ED91FC9183
:102AC0000284F385E02D0995C82F80917C039091B5
:102AD0007D03DC01ED91FC910284F385E02D0995E5
:102AE00020E030E03C2FE901C82BD92B29C0809190
:102AF0008A038F3F21F482E591E00E941B0E60E083
:102B0000809187030E94A6148C2F80680E94F41C79
:102B100080E00E94F41CC82F80E00E94F41C2C2F3F
:102B200030E0322F2227E901C82B61E08091870332
:102B30000E94A61480918A038F3F11F40E94130E05
:102B4000CE01DF91CF9108950E942E1598278927F5
:102B5000982708954F925F926F927F928F929F92E3
:102B6000AF92BF92CF92DF92EF92FF92CF93C82F96
:102B7000809187038F3F09F061C060917E0380914F
:102B80007C0390917D030E94A80F80917C0390911B
:102B90007D03DC01ED91FC910190F081E02D6C2F23
:102BA000099580917C0390917D030E944C0F43E036
:102BB00060917E0380917C0390917D030E946A1056
:102BC00080917C0390917D03DC01ED91FC91028466
:102BD000F385E02D09952C01990F66087708762C6E
:102BE000652C542C442480917C0390917D03DC015E
:102BF000ED91FC910284F385E02D09956C01990F0C
:102C0000EE08FF08C428D528E628F72888249C2C3D
:102C1000AD2CBE2C80917C0390917D03DC01ED9165
:102C2000FC910284F385E02D09956C01990FEE0863
:102C3000FF08C828D928EA28FB2833C080918A03D6
:102C40008F3F21F482E591E00E941B0E60E08091AD
:102C500087030E94A6148C2F80680E94F41C80E0D9
:102C60000E94F41CC82ED12CE12CF12CFE2CED2C52
:102C7000DC2CCC2480E00E94F41CC82AFE2CED2C15
:102C8000DC2CCC2480E00E94F41CC82A61E08091F6
:102C900087030E94A61480918A038F3F11F40E943B
:102CA000130EC701B601CF91FF90EF90DF90CF9048
:102CB000BF90AF909F908F907F906F905F904F905C
:102CC00008958F929F92AF92BF92CF92DF92EF9230
:102CD000FF920F931F938AEF0E94AA156115710549
:102CE00020E88207910509F479C000918B031091C7
:102CF0008C0320E030E0C72ED82EE92EFF24E7FC1D
:102D0000FA94C01AD10AE20AF30ADC01CB0157E0B7
:102D1000B595A795979587955A95D1F7000F111FEF
:102D2000221F331F4C015D01801A910AA20AB30AC7
:102D3000A5019401A0918D03B0918E030E94D92822
:102D40004B015C017BE0B594A794979487947A95A6
:102D5000D1F7A7019601C701B6010E94A7289B01E0
:102D6000AC01ECE05595479537952795EA95D1F755
:102D7000A0918F03B09190030E94D928DC01CB0170
:102D8000FEE0B595A79597958795FA95D1F7A5019A
:102D90009401280F391F4A1F5B1F20938303309330
:102DA00084034093850350938603A5E0B0E00E941E
:102DB0005628DC01CB0180589F4FAF4FBF4F692F82
:102DC0007A2F8B2F992787FD9A950E945D2720E007
:102DD00030E048EC52E40E94A22A04C060E070E0B7
:102DE00080EC9FE71F910F91FF90EF90DF90CF90C5
:102DF000BF90AF909F908F9008954F925F926F9287
:102E00007F928F929F92AF92BF92CF92DF92EF927A
:102E1000FF920E9461168DEF0E942E15A0E0B0E097
:102E2000811520E89207A105B10509F4DAC0809068
:102E3000830390908403A0908503B09086033CE2C6
:102E4000931A31E0A30AB1083EE0880F991FAA1F28
:102E5000BB1F3A95D1F74091A7035091A803052EC7
:102E6000000C660B770BE4E1440F551F661F771FBC
:102E7000EA95D1F76C017D01C41AD50AE60AF70A72
:102E8000A091A903B091AA03A50194010E94D92899
:102E9000C61AD70AE80AF90A40E4D40EE11CF11C6C
:102EA000FFE0F594E794D794C794FA95D1F7A091F1
:102EB000A603B0E0A50194010E9456282B013C0115
:102EC000ABE07594679457944794AA95D1F750E86E
:102ED000550E611C711CA091AB030A2E000CBB0B9C
:102EE000A50194010E94D928BAE095958795779518
:102EF0006795BA95D1F7A30192010E94A728DC013A
:102F0000CB012AE0B595A795979587952A95D1F796
:102F10009C01AD01405E5F4FA091A403B091A50359
:102F20000E94D928DC01CB01905EAF4FBF4FBC019E
:102F3000CD013EE095958795779567953A95D1F7C0
:102F4000A70196010E94A7286B017C014FE095958F
:102F50008795779567954A95D1F79B01AC010E94BB
:102F6000A7289B01AC0167E05595479537952795B4
:102F70006A95D1F7A091A303B0E00E945628DC0126
:102F8000CB0174E0B595A795979587957A95D1F77C
:102F9000A7019601281B390B4A0B5B0BDA01C9010B
:102FA00057FF03C080E090E0DC0181309105A1056E
:102FB00039E1B30724F080E090E0A0E0B9E1BC0182
:102FC000CD012CE095958795779567952A95D1F752
:102FD0000E945D2720E030E040E85AE30E949827F5
:102FE00004C060E070E080EC9FE7FF90EF90DF901E
:102FF000CF90BF90AF909F908F907F906F905F9099
:103000004F9008952F923F924F925F926F927F92CE
:103010008F929F92AF92BF92CF92DF92EF92FF92E8
:103020000F931F93CF93DF93CDB7DEB768970FB69B
:10303000F894DEBF0FBECDBF0E94611687EF0E94DD
:10304000AA156B877C878D879E87611571058048DF
:10305000910509F4A5C18091830390918403A09107
:103060008503B09186036C017D01FF0CCC08DC2C3C
:1030700076019C01AD016C2D7C2D8C2D9C2D345F37
:1030800041405109610971098109910929833A83F4
:103090004B835C836D837E83888F9F8B59016A018C
:1030A0007B018C010E94E1282F83388749875A874A
:1030B0006B8B7C8B8D8B9E8B309194032091930333
:1030C000932F990F990B492F592F692F792F892FFA
:1030D0000E94E1280CE00E94DA291901942E852E25
:1030E000762E672E582E492E309196032091950307
:1030F000932F990F990BAF80B884C984DA84EB8839
:10310000FC880D891E89492F592F692F792F892F06
:103110000E94E12808E00E94F3295101C92CD82C13
:10312000E72CF62C052D142D0E94112A70588F4F74
:103130009F4F20909103309092035101C12CD12CCC
:10314000E12CF12C00E010E00E94E12801E20E9455
:10315000F329322E232E4F87588B698B472E582EFA
:103160009A8BA0E00E94232A09F41FC130919C038E
:1031700020919B03932F990F990BAF80B884C9843A
:10318000DA84EB88FC880D891E89492F592F692F15
:10319000792F892F0E94E1282F8338873A014B012C
:1031A00089879A8730919A0320919903932F990FD9
:1031B000990BA980BA80CB80DC80ED80FE80088DE1
:1031C0001F89492F592F692F792F892F0E94E128B4
:1031D00001E10E94DA29AF80B88463017401098596
:1031E0001A850E94112A59016A017B018983192FCE
:1031F0004B855C856D857E8584E0759567955795D3
:1032000047958A95D1F780E090E0A0E1B0E0841B7B
:10321000950BA60BB70B3C014D01990C6608762C5B
:1032200043019C01AD01662D762D862D962D0FE173
:103230000E94DA2949014B835A83B62FA72FF82F12
:10324000E92F3091980320919703932F990F990BB1
:10325000492F592F692F792F892F03E20E94DA29EC
:1032600009810E94112A59016A017B018C01940194
:103270004B815A816B2F7A2F8F2F9E2F0E941A2AF3
:10328000E5E3AE2EFCE0BF2EC12CD12CE12CF12CBD
:1032900000E010E00E94E128A32CB22CCF84D88853
:1032A000E988F42C052D1A890E943C2928873F8340
:1032B00049835A836B837C838D839E830DE00E94B8
:1032C000F329922E832E742E652E562E472E382EDD
:1032D000292E3091A2032091A103932F990F990BCE
:1032E000A92CB82CC72CD62CE52CF42C032D122D90
:1032F000492F592F692F792F892F0E94E1280E9489
:10330000E12809E10E94F329A884BF80C980DA80FE
:10331000EB80FC800D811E810E94112A19012A0177
:103320003B014C013091A00320919F03932F990FF3
:10333000990B492F592F692F792F892F0E94E12846
:1033400003E10E94F32959016A017B018C0191017B
:10335000A201B301C4010E94112A08E00E94F329CE
:1033600059016A017B01E82F192F30919E032091AA
:103370009D03932F990F990B492F592F692F792F5F
:10338000892F04E00E94DA290E2F0E94112A0E9440
:10339000142B20E030E040E85BE30E94982708C04F
:1033A00060E070E080EC9FE703C060E070E0CB017C
:1033B00068960FB6F894DEBF0FBECDBFDF91CF91F8
:1033C0001F910F91FF90EF90DF90CF90BF90AF9043
:1033D0009F908F907F906F905F904F903F902F9035
:1033E0000895CF93CFB7F8948091C302811127C07D
:1033F000E8EDFBE08491ECEEFBE09491E82FF0E047
:10340000EE0FFF1FE251FE4FA591B491EC91E9231D
:1034100021F461E08AE00E94A61461E08AE00E9443
:10342000CF1D8CB580618CBD8CB580648CBD61E096
:103430008DE00E94CF1D61E08BE00E94CF1D809146
:10344000C3028F5F8093C302CFBFCF910895DF92F5
:10345000EF92FF920F931F93CF93DF93D82ED92F24
:10346000C62F8091CB039091CC03009709F44EC0F6
:103470006091CF030E94A80F8091CB039091CC0361
:10348000DC01ED91FC910190F081E02D60E0099567
:10349000ED2CFD2E11E08091CB039091CC03CC2339
:1034A00061F11032B8F00E944C0F6091CF0380910F
:1034B000CB039091CC030E94A80F8091CB039091F5
:1034C000CC03DC01ED91FC910190F081E02D60E0F6
:1034D000099511E08091CB039091CC03F7016491A1
:1034E000DC01ED91FC910190F081E02D09951F5FC9
:1034F000C150BFEFEB1AFB0ACECFDF91CF911F91E6
:103500000F91FF90EF90DF900C944C0FE091DB0354
:10351000F091DC0390818091E10380958923808381
:103520000D2D1D2FCC2309F439C0F8018491209171
:10353000C9033091CA03232B31F00E94140EC150ED
:103540000F5F1F4FEFCF28E030E040E8E091D70356
:10355000F091D8039091DF03582F542319F0508134
:10356000952B03C05081909595239083E091D903CA
:10357000F091DA0350819091E003952B9083E091D4
:10358000D903F091DA0350819091E003909595234F
:103590009083469521503109C9F6D1CFDF91CF9163
:1035A0001F910F91FF90EF90DF900895EF92FF929F
:1035B0000F931F93CF93DF938091CB039091CC0314
:1035C000892BD1F02091E5033091E6034091E70388
:1035D0005091E80360E074E284EF90E00E94B72825
:1035E000DA01C9014097A109B109B695A795979548
:1035F00087958093B80016C08091C9039091CA0343
:10360000892B31F08091E3039091E4030E941B0E1B
:10361000E091DD03F091DE0390818091E2038095DB
:103620008923808365E08AE09CE00E94271A6091EC
:10363000B30361508FEA93E00E94B20F2091B5036B
:103640003091B603C901079697FD079633E095952B
:1036500087953A95E1F72091B3033091B403829FA7
:103660008001839F100D929F100D1124C091CD03F6
:10367000D091CE038091CB039091CC030C0F1D1FF2
:10368000009709F445C06091CF030E94A80F809174
:10369000CB039091CC03DC01ED91FC910190F08182
:1036A000E02D60E409957E01D1E08091CB039091FB
:1036B000CC030E151F0549F1D032B8F00E944C0F13
:1036C0006091CF038091CB039091CC030E94A80F0F
:1036D0008091CB039091CC03DC01ED91FC910190A2
:1036E000F081E02D60E40995D1E08091CB039091C9
:1036F000CC03F70161917F01DC01ED91FC91019018
:10370000F081E02D0995DF5FD0CF0E944C0F41C0C2
:10371000E091DB03F091DC0390818091E103892B40
:103720008083C017D107A9F189912091C9033091F5
:10373000CA03232B19F00E94140EF3CF28E030E0C7
:1037400040E8E091D703F091D8039091DF03582F20
:10375000542319F05081952B03C0508190959523E7
:103760009083E091D903F091DA0350819091E003C6
:10377000952B9083E091D903F091DA0350819091D9
:10378000E003909595239083469521503109C9F621
:10379000C8CF8091CB039091CC03892BD1F020919D
:1037A000E9033091EA034091EB035091EC0360E0B0
:1037B00074E284EF90E00E94B728DA01C9014097D3
:1037C000A109B109B695A795979587958093B800FB
:1037D00017C0E091DD03F091DE0390818091E20358
:1037E000892B80838091C9039091CA03892B41F072
:1037F000DF91CF911F910F91FF90EF900C94130EDA
:10380000DF91CF911F910F91FF90EF90089520913C
:10381000B5033091B603C901079697FD079623E0DB
:10382000959587952A95E1F72091B3033091B403DC
:10383000829FA001839F500D929F500D112460E044
:1038400070E08091CD039091CE030C94DD2EFC01AD
:10385000808191810C94852D3F924F925F926F925F
:103860007F928F929F92AF92BF92CF92DF92EF9210
:10387000FF920F931F93CF93DF9300D000D000D01F
:10388000CDB7DEB72C013B014A015901C9010796AA
:1038900097FD07969C0193E0359527959A95E1F75A
:1038A0003C832B83C12CD12CE12CF12C312CC30176
:1038B0008E0D9F1D9A838983E016F106C4F51E8242
:1038C0001D822D813E812A153B054CF5C90187706B
:1038D0009927892B11F0330C0EC0ED81FE81F7FD85
:1038E000379683E0F595E7958A95E1F7EC0DFD1D98
:1038F000E80DF91D349037FE0CC021E030E049811D
:103900005A816D817E81640D751D8FEA93E00E945E
:10391000DC098D819E8101969E838D83D2CF9FEF9E
:10392000E91AF90A2B813C81C20ED31EC0CF26961C
:103930000FB6F894DEBF0FBECDBFDF91CF911F91C0
:103940000F91FF90EF90DF90CF90BF90AF909F903E
:103950008F907F906F905F904F903F90089510925E
:10396000D2021092D1021092D0021092CF02109285
:10397000CE0281E08093CD021092CC0261E082E120
:103980000E94A61461E083E10E94A614E9EBF0E036
:1039900080818E7F808380818D7F808388E4809387
:1039A000B80085E48093BC0087EC9AE09093CB024A
:1039B0008093CA0288EC9AE09093C9028093C8026F
:1039C0000895CF93DF93BC0183ED92E00E94890DAF
:1039D000EC0166E571E083ED92E00E94890D8C0FA9
:1039E0009D1FDF91CF910895CF92DF92EF92FF92CA
:1039F0000F931F93CF93DF9390918A039F3F51F4CE
:103A0000DF91CF911F910F91FF90EF90DF90CF90BA
:103A10000C94140EE82EF12CC7E0D0E001E010E089
:103A2000FF0C60E080918A030E94A614B8010C2E5E
:103A300001C0660F0A94EAF76E21809188030E9404
:103A4000A61461E080918A030E94A6142091890344
:103A500030E0F901EA50F44F8491F901EE51F44F4E
:103A6000D490F901E253F44FC490CC2071F081114D
:103A70000E947D14EC2DF0E0EE0FFF1FEC53F44F8D
:103A8000A591B491EC91DE2269F4219708F0C8CF9A
:103A90008F2DDF91CF911F910F91FF90EF90DF90CD
:103AA000CF9008958F2D8160F82EEFCFCF93DF93C5
:103AB000D82FC62F809187038F3F41F560917E03F9
:103AC00080917C0390917D030E94A80F80917C03DC
:103AD00090917D03DC01ED91FC910190F081E02D4E
:103AE0006D2F099580917C0390917D03DC01ED9110
:103AF000FC910190F081E02D6C2F099580917C0361
:103B000090917D03DF91CF910C944C0F80918A03AB
:103B10008F3F21F482E591E00E941B0E60E08091CE
:103B200087030E94A6148D2F8F770E94F41C8C2F80
:103B30000E94F41C61E0809187030E94A61480918A
:103B40008A038F3F21F4DF91CF910C94130EDF9104
:103B5000CF9108953FB7F8948091F2039091F303C9
:103B6000A091F403B091F50326B5A89B05C02F3FA3
:103B700019F00196A11DB11D3FBFBA2FA92F982F93
:103B80008827820F911DA11DB11DBC01CD0142E00E
:103B9000660F771F881F991F4A95D1F70895CF9315
:103BA000DF9390E0FC01EE51F44F2491FC01E253CD
:103BB000F44F8491882361F190E0880F991FFC01F4
:103BC000E251FE4FC591D491FC01EC51FE4FA591FD
:103BD000B491611109C09FB7F89488812095822320
:103BE0008883EC912E230BC0623061F49FB7F89468
:103BF0008881322F309583238883EC912E2B2C9350
:103C00009FBF06C08FB7F894E8812E2B28838FBF03
:103C1000DF91CF9108958F929F92AF92BF92CF92F2
:103C2000DF92EF92FF926B017C010E94AA1D4B0173
:103C30005C01C114D104E104F104F1F00E94AA1D59
:103C4000DC01CB0188199909AA09BB09883E934078
:103C5000A105B10570F321E0C21AD108E108F1080D
:103C600088EE880E83E0981EA11CB11CC114D104FB
:103C7000E104F10419F7DDCFFF90EF90DF90CF90D2
:103C8000BF90AF909F908F9008951F920F920FB6A4
:103C90000F9211242F933F938F939F93AF93BF93D2
:103CA0008091ED039091EE03A091EF03B091F003AA
:103CB0003091F10323E0230F2D3720F40196A11D4D
:103CC000B11D05C026E8230F0296A11DB11D20934A
:103CD000F1038093ED039093EE03A093EF03B09371
:103CE000F0038091F2039091F303A091F403B0915B
:103CF000F5030196A11DB11D8093F2039093F30388
:103D0000A093F403B093F503BF91AF919F918F916E
:103D10003F912F910F900FBE0F901F9018958EE23C
:103D200091E09093B0038093AF038091CD03909185
:103D3000CE03009711F00C94852D0895CF93DF9357
:103D4000CDB7DEB762970FB6F894DEBF0FBECDBF1A
:103D5000789484B5826084BD84B5816084BD85B566
:103D6000826085BD85B5816085BD80916E00816072
:103D700080936E0010928100809181008260809318
:103D8000810080918100816080938100809180001A
:103D90008160809380008091B10084608093B10045
:103DA0008091B00081608093B00080917A0084603F
:103DB00080937A0080917A00826080937A0080916B
:103DC0007A00816080937A0080917A008068809385
:103DD0007A001092C100E091E302F091E40282E0E7
:103DE0008083E091DF02F091E0021082E091E10235
:103DF000F091E2028FEC80831092EB02E091E702F7
:103E0000F091E80286E08083E091E502F091E6021D
:103E1000808180618083E091E502F091E6028081FB
:103E200088608083E091E502F091E60280818068FD
:103E30008083E091E502F091E60280818F7D8083AE
:103E400086E780937E0380E793E090937D038093E1
:103E50007C03809187038F3F19F40E94AF1C1CC024
:103E600061E00E94A61461E0809187030E94CF1D4B
:103E700080918A038F3F19F40E94F1190DC061E00F
:103E80000E94CF1D61E0809188030E94CF1D60E0F9
:103E9000809189030E94CF1D80ED0E94D514803649
:103EA00009F039C466EB80EE0E94561D6CE271E0A9
:103EB00080E090E00E940B1E83EF0E94D51480FFEB
:103EC00005C064E670E080E090E0F4CF88E80E94EE
:103ED000A41590938C0380938B038AE80E94A41509
:103EE00090938E0380938D038CE80E94A415909389
:103EF000900380938F038EE80E94A4159093920301
:103F00008093910380E90E94A41590939403809379
:103F1000930382E90E94A4159093960380939503DE
:103F200084E90E94A415909398038093970386E9EF
:103F30000E94A41590939A038093990388E90E94A4
:103F4000A41590939C0380939B038AE90E94A41577
:103F500090939E0380939D038CE90E94A4159093F7
:103F6000A00380939F038EE90E94A4159093A2035F
:103F70008093A10381EA0E94D5148093A30381EE6C
:103F80000E94A4159093A5038093A40383EE0E943E
:103F9000D5148093A60384EE0E94D514182F85EEC5
:103FA0000E94D51440E1149F900111248F70282B9A
:103FB0003093A8032093A70386EE0E94D514182FF0
:103FC00085EE0E94D51450E1159F9001112490E0D8
:103FD00014E0959587951A95E1F7822B932B909392
:103FE000AA038093A90387EE0E94D5148093AB03A4
:103FF0008DEE8093AD038091AE038F71806A8093C4
:10400000AE038091AC03807C8093AC0365E082EFCB
:104010000E94561D9091AC03692F677080E2689FE3
:1040200090011124892F869586958695877044E0A6
:10403000849FB0011124622B732B97FB992790F971
:10404000692B85EF0E94561D9091AD03692F677013
:1040500050E2659F90011124892F8695869586955B
:10406000877044E0849FB0011124622B732B9295DA
:10407000969596959370692B84EF0E94561D64E681
:1040800070E080E090E00E940B1E8091CD03909143
:10409000CE03892B11F52091B5033091B603C901E8
:1040A000079697FD0796B3E095958795BA95E1F742
:1040B0002091B3033091B403AC01429FC001439FF0
:1040C000900D529F900D11240E94ED2C9093CE03E1
:1040D0008093CD03892B09F4DFC00E94071C8091D7
:1040E000B5039091B603813291050CF419C3BC015C
:1040F0006054710977FF02C06F5F7F4F75956795B8
:104100008091B3039091B4038255910997FD019674
:1041100000E410E022E530E044E059E09595879511
:104120000E942C1C82E08093D0038091CB0390915D
:10413000CC03892B09F40CC38CE38093CF030E943A
:10414000AF1C8091D60387FD1EC061E00E94CF1D89
:1041500061E08091D6030E94A61461E070E080E0E7
:1041600090E00E940B1E60E08091D6030E94A6148E
:104170006AE070E080E090E00E940B1E61E08091B8
:10418000D6030E94A6148091CB039091CC03892B77
:1041900009F46BC32091E5033091E6034091E703F6
:1041A0005091E80360E074E284EF90E00E94B72849
:1041B000DA01C9014097A109B109B695A79597956C
:1041C00087958093B80064E080E297E00E94271A08
:1041D0006091B50361508FEA93E00E94B20F64E0F2
:1041E0008CE197E00E94271A8091D003813009F476
:1041F00053C364E18FEA93E00E94B20F64E088E168
:1042000097E00E94271A8091B3039091B4038038FD
:10421000910509F054C38091B5039091B6038032A3
:10422000910509F03BC364E084E197E00E94271AFE
:1042300069ED8FEA93E00E94B20F8091D003813044
:1042400009F459C361EF8FEA93E00E94B20F66E070
:1042500088E097E00E94271A8091CB039091CC03CD
:10426000892B09F44AC32091E9033091EA03409174
:10427000EB035091EC0360E074E284EF90E00E9465
:10428000B728DA01C9014097A109B109B695A795E8
:10429000979587958093B80068E571E0CE01019607
:1042A0000E94740D0E94D61A0E94071C82E080931F
:1042B000C30381E090E09093C2038093C103909385
:1042C000C0038093BF032FE030E03093BC03209302
:1042D000BB039093BE038093BD03BE016F5F7F4F0E
:1042E0008FEA93E00E949E0DCE0101960E94271C4A
:1042F00001E010E09FE0E92EF12C2224239421E13B
:10430000A22EB12C39E1832E912C8FB7F8944090D6
:10431000ED035090EE036090EF037090F0038FBFB9
:104320008091C4029091C502A091C602B091C702CB
:10433000A3019201281B390B4A0B5B0BDA01C9015F
:10434000893B9B40A105B10508F4E2C189E591E0F4
:104350000E94E11C0E94FD16AB01BC01CE0101963A
:104360000E94F6100E946116AB01BC01CE010796B7
:104370000E94F61060E671E0CE010D960E94740D69
:10438000BE01695F7F4FCE010D960E94341166E633
:1043900071E00E94200DBE016F5F7F4F0E943411BB
:1043A0006AE971E00E94200DBC0183ED92E00E9459
:1043B0009E0DCE010D960E94271CCE0107960E94ED
:1043C000271CCE0101960E94271C0E94021820E0A3
:1043D00030E048EC52E40E94A22AAB01BC01CE01BD
:1043E00001960E94F61065E771E0CE0107960E94E3
:1043F000740DBE016F5F7F4FCE0107960E9434118E
:104400006DE771E00E94200DBC0183ED92E00E94F7
:104410009E0DCE0107960E94271CCE0101960E9498
:10442000271C0E94021820E030E048EC52E40E9471
:10443000A22A20E030E54DE754E40E94A22A21E0C0
:104440003EED42E45EE30E94682B9B01AC0160E01C
:1044500070E080E89FE30E94352A20E03AE24DE2D6
:1044600057E40E949827AB01BC01CE0101960E943F
:10447000F61062E871E0CE0107960E94740DBE014D
:104480006F5F7F4FCE0107960E943411BC0183ED10
:1044900092E00E949E0DCE0107960E94271CCE013D
:1044A00001960E94271C4092C4025092C50260925D
:1044B000C6027092C7020E946116AB01BC01CE0118
:1044C0000D960E94F610BE01635F7F4FCE010796E6
:1044D0000E945A0D68E571E0CE0107960E94200DFA
:1044E000BC01CE0101960E945A0D0E94D61A0E946C
:1044F000071C42E04093C3031093C2030093C1031F
:104500001093C0030093BF03F092BC03E092BB037F
:104510001093BE030093BD03BE016F5F7F4F8FEA10
:1045200093E00E949E0DCE0101960E94271CCE01B1
:1045300007960E94271CCE010D960E94271C64E955
:1045400071E0CE0101960E94740D2092C303109376
:10455000C2030093C1031093C0030093BF038CE414
:1045600090E09093BC038093BB0328E030E030934D
:10457000BE032093BD03BE016F5F7F4F8FEA93E0C0
:104580000E949E0DCE0101960E94271C0E94FD16DE
:10459000AB01BC01CE010D960E94F610BE01635F17
:1045A0007F4FCE0107960E945A0D69E971E0CE0156
:1045B00007960E94200DBC01CE0101960E945A0D63
:1045C0002092C3031093C2030093C1031093C0034E
:1045D0000093BF03F092BC03E092BB03B092BE0312
:1045E000A092BD03BE016F5F7F4F8FEA93E00E94F0
:1045F0009E0DCE0101960E94271CCE0107960E94B7
:10460000271CCE010D960E94271C6CE971E0CE019B
:1046100001960E94740D2092C3031093C20300936D
:10462000C1031093C0030093BF03F092BC03E09258
:10463000BB039092BE038092BD03BE016F5F7F4FAC
:104640008FEA93E00E949E0D0E94D61ACE01019639
:104650000E94271C412C512C32014394C12CD12C97
:10466000642D80E793E00E94A80F80E793E00E940A
:104670004C0F81111CC06BEA71E083ED92E00E9447
:10468000890D3FE0341530F069EA71E083ED92E086
:104690000E94890D40E1C301B2010E94B3108AEC6F
:1046A00091E00E94E11C4FEFC41AD40A1CC0843070
:1046B000D1F46EEC71E083ED92E00E94890D5FE031
:1046C000541530F069EA71E083ED92E00E94890DA3
:1046D00040E1C301B2010E94B31066E571E083EDD1
:1046E00092E00E94890D8FEF481A580A680A780AEA
:1046F0009FE7491651046104710409F0B1CFCD2838
:1047000019F48AEE91E002C080E092E00E94E11C80
:104710000E943607FACD86E092E00E94E11CFFCFAE
:10472000BC016052710977FF02C06F5F7F4F7595C2
:1047300067958091B3039091B4038357910997FDD6
:10474000019600E210E023E730E044E257E0E6CCD7
:1047500061E08091D4030E94CF1D61E08091D50378
:104760000E94CF1D8091D403082E000C990BFC01F0
:10477000E253F44FE491F0E0EE0FFF1FEC51FE4FD7
:10478000259134913093DC032093DB03FC01EE513F
:10479000F44FE491E093E1038091D503082E000CDF
:1047A000990BFC01E253F44FE491F0E0EE0FFF1F90
:1047B000EC51FE4FA591B491B093DE03A093DD03BD
:1047C000FC01EE51F44FE491E093E2038C91E82B6D
:1047D000EC938091C9039091CA03892B19F00E9430
:1047E000F119AFCC61E08091D2030E94CF1D61E04E
:1047F0008091D3030E94CF1D8091D203082E000C1C
:10480000990BFC01E253F44FE491F0E0EE0FFF1F2F
:10481000EC51FE4F259134913093D8032093D70368
:10482000FC01EE51F44FE491E093DF038091D30358
:10483000082E000C990BFC01E253F44FE491F0E0D8
:10484000EE0FFF1FEC51FE4FA591B491B093DA0328
:10485000A093D903FC01EE51F44FE491E093E003FF
:104860008C91E095E823EC936CCC8091C9039091F6
:10487000CA03892B31F08091E3039091E4030E94F5
:104880001B0EE091DD03F091DE0390818091E20345
:1048900080958923808397CC60E1ACCC80349105EE
:1048A00009F0C6CC63E081E197E00E94271A80916D
:1048B000D003813011F06FEC19C06FE917C080365A
:1048C000910509F0B5CC8091B5039091B60340975E
:1048D00009F0AECC63E08EE097E00E94271A809149
:1048E000D003813011F06FEA01C060E18FEA93E0FC
:1048F0000E94B20F9DCC62E2A6CCE091DD03F09164
:10490000DE0390818091E203892B80838091C9032B
:104910009091CA03892B09F4BFCC0E94130EBCCC22
:10492000E3EDF2E01382128248EE53E060E070E0C3
:1049300044835583668377838AE091E09183808303
:1049400085EC90E09587848784EC90E09787868754
:1049500080EC90E0918B808B81EC90E0938B828B4C
:1049600082EC90E0958B848B86EC90E0978B868B25
:10497000118E128E138E148EA0E7B3E013961C9244
:104980001E92129714964D935D936D937C93179797
:104990008CE191E011969C938E93EFEAF3E0138201
:1049A000128220E830E03583248380E290E0978310
:1049B00086833187208793878287158A1586148698
:1049C0001786168681E0848B2FEF3FEF338B228B87
:1049D000318B208B868B178A118E108E8EE291E0A0
:1049E00091838083138E128EB58FA48F178E168EAF
:1049F0008FEF83A384A385A386A394E097A390E578
:104A000094AB15AAECE7F3E08387848785878687D4
:104A10000895EF920F931F93CF93DF93E80147FD23
:104A200002C034E001C034E1042E000C550B57FFE6
:104A300003C0519541955109E32E022F242FAE0159
:104A40000E942925CE01DF91CF911F910F91EF9008
:104A50000895A9E0B0E0EFE2F5E20C9467286A015E
:104A6000122FB02E2BE3201720F0FF24F394F00E2A
:104A700002C02CE3F22E0F2D27E0AE014F5F5F4FF7
:104A80000E948326BC014981842F8970813031F0D6
:104A9000E1FC06C0E0FE06C090E205C09DE203C056
:104AA0009BE201C090E05E2D507143FF3CC091112C
:104AB00002C083E001C084E0811718F4212F281B75
:104AC00001C020E051110BC0F601822F30E2882393
:104AD00019F031938150FBCFC20ED11C20E09923F5
:104AE00029F0D6019C93F60131966F01C601039619
:104AF000E2FE0AC03EE4D6013C9341E411964C9399
:104B0000119712963C9306C03EE6F601308341E6CB
:104B100041833283FC01322F40E2332309F442C047
:104B200041933150FACF42FF44C0911102C083E05B
:104B300001C084E0811718F4212F281B01C020E058
:104B400051110BC0F601822F30E2882319F0319306
:104B50008150FBCFC20ED11C20E0992329F0D60151
:104B60009C93F60131966F01C6010396E2FE0BC0DD
:104B700039E4D6013C933EE411963C93119736E418
:104B800012963C9307C039E6F60130833EE6318346
:104B900036E63283FC01322F40E2332319F0419391
:104BA0003150FBCFFC01E20FF11D10828EEF9FEF21
:104BB000A6C021E030E0911102C020E030E01616DE
:104BC00017061CF4FB01319602C0E1E0F0E02E0F65
:104BD0003F1FBB2021F0EB2DF0E0319602C0E0E05A
:104BE000F0E02E0F3F1FE12FF0E02E173F071CF4DF
:104BF000121B212F01C020E08E2D887159F4F6017F
:104C0000822F30E2882319F031938150FBCFC20EFE
:104C1000D11C20E0992329F0D6019C93F60131960E
:104C20006F0151110BC0F601822F90E3882319F018
:104C300091938150FBCFC20ED11C20E00F2D060FA7
:104C40009A81342F307144FF03C0913309F401502D
:104C5000101624F4093018F008E001C001E0AB019F
:104C600077FF02C040E050E0FB01E41BF50BA1E040
:104C7000B0E0AC0FBD1FEA0FFB1F8EE2A82E4B0168
:104C8000801A91080B2D10E01195019511094F3FE5
:104C9000BFEF5B0721F4D601AC9211966D0164174A
:104CA00075072CF08416950614F4818101C080E309
:104CB000415051093196D60111967D014017510797
:104CC00024F0D6018C936701E2CF6417750739F49D
:104CD000963320F4953319F4311101C081E3F601C4
:104CE0008083F701822F90E2882319F091938150FD
:104CF000FBCFF701E20FF11D108280E090E02996D2
:104D0000ECE00C948328283008F027E03327DA0100
:104D1000990F311D87FD916000966105710539F489
:104D200032602E5F3D9330E32A95E1F708959F3F6F
:104D300030F080387105610509F03C5F3C5F3D93C0
:104D4000913008F08068911DDF93CF931F930F93EC
:104D5000FF92EF92192F987F9695E92F9695969549
:104D6000E90FFF27EC5BFE4F99273327EE24FF2442
:104D7000A701E70105900894079428F4360FE71E71
:104D8000F81E491F511D660F771F881F991F069433
:104D9000A1F70590079428F4E70EF81E491F561F47
:104DA000C11D770F881F991F661F0694A1F70590F4
:104DB000079428F4F80E491F561FC71FD11D880FEE
:104DC000991F661F771F0694A1F70590079420F49A
:104DD000490F561FC71FD81F990F661F771F881FBF
:104DE0000694A9F784911095177041F0D695C79550
:104DF00057954795F794E7941A95C1F7EAEEF0E0D6
:104E000068941590159135916591959105907FE283
:104E10007395E118F10A430B560BC90BD009C0F783
:104E2000E10CF11E431F561FC91FD01D7EF47033C5
:104E300011F48A95E6CFE894015030F0080F0AF497
:104E40000027021708F4202F2395022F7A3328F029
:104E500079E37D932A95E9F710C07D932A9589F629
:104E6000069497956795379517951794E118F10A69
:104E7000430B560BC90BD00998F023957E9173957F
:104E80007A3308F070E37C932013B8F77E91706159
:104E90007D9330F0839571E37D9370E32A95E1F77C
:104EA0001124EF90FF900F911F91CF91DF919927DF
:104EB00087FD90950895E89409C097FB3EF490957E
:104EC0008095709561957F4F8F4F9F4F9923A9F0E3
:104ED000F92F96E9BB279395F69587957795679572
:104EE000B795F111F8CFFAF4BB0F11F460FF1BC0B6
:104EF0006F5F7F4F8F4F9F4F16C0882311F096E949
:104F000011C0772321F09EE8872F762F05C06623F6
:104F100071F096E8862F70E060E02AF09A95660FAF
:104F2000771F881FDAF7880F9695879597F9089568
:104F30000E94AB270C941C280E940E2838F00E9477
:104F4000152820F0952311F00C9405280C940B28BB
:104F500011240C9450280E942D2870F3959FC1F3C2
:104F6000950F50E0551F629FF001729FBB27F00D17
:104F7000B11D639FAA27F00DB11DAA1F649F66276C
:104F8000B00DA11D661F829F2227B00DA11D621FBB
:104F9000739FB00DA11D621F839FA00D611D221F75
:104FA000749F3327A00D611D231F849F600D211D59
:104FB000822F762F6A2F11249F5750409AF0F1F0DC
:104FC00088234AF0EE0FFF1FBB1F661F771F881F45
:104FD00091505040A9F79E3F510580F00C94052850
:104FE0000C9450285F3FE4F3983ED4F38695779570
:104FF0006795B795F795E7959F5FC1F7FE2B880FEB
:10500000911D9695879597F9089597F99F6780E880
:1050100070E060E008959FEF80EC089500240A940A
:105020001616170618060906089500240A94121683
:105030001306140605060895092E0394000C11F4B6
:10504000882352F0BB0F40F4BF2B11F460FF04C063
:105050006F5F7F4F8F4F9F4F089557FD9058440FBC
:10506000551F59F05F3F71F04795880F97FB991FC7
:1050700061F09F3F79F08795089512161306140684
:10508000551FF2CF4695F1DF08C016161706180611
:10509000991FF1CF86957105610508940895E894EC
:1050A000BB2766277727CB0197F908950E94982898
:1050B000A59F900DB49F900DA49F800D911D11246C
:1050C00008952F923F924F925F926F927F928F92AC
:1050D0009F92AF92BF92CF92DF92EF92FF920F9387
:1050E0001F93CF93DF93CDB7DEB7CA1BDB0B0FB691
:1050F000F894DEBF0FBECDBF09942A88398848884E
:105100005F846E847D848C849B84AA84B984C884E3
:10511000DF80EE80FD800C811B81AA81B981CE0FDA
:10512000D11D0FB6F894DEBF0FBECDBFED010895BF
:10513000A29FB001B39FC001A39F700D811D1124D8
:10514000911DB29F700D811D1124911D0895DB01E9
:105150008F939F930E945628BF91AF91A29F800D7D
:10516000911DA39F900DB29F900D11240895A1E26F
:105170001A2EAA1BBB1BFD010DC0AA1FBB1FEE1FD1
:10518000FF1FA217B307E407F50720F0A21BB30B1C
:10519000E40BF50B661F771F881F991F1A9469F798
:1051A00060957095809590959B01AC01BD01CF01F4
:1051B0000895B7FF0C9456280E945628821B930B23
:1051C0000895DF93CF931F930F939A9DF02D219F06
:1051D000F00D8B9DF00D8A9DE02DF10D039FF00DDC
:1051E000029FE00DF11D4E9DE00DF11D5E9DF00D45
:1051F0004F9DF00D7F936F93BF92AF925F934F934C
:10520000D5010E9498288B01AC01D7010E949828F3
:10521000EB01E80FF91FD6010E9431292F913F9130
:10522000D6010E949828C60FD71FE81FF91FAF911B
:10523000BF910E9431292F913F910E949828C60F5B
:10524000D71FE81FF91FD6010E949828E60FF71F05
:105250009801BE01CF0111240F911F91CF91DF91D1
:1052600008950E949828460F571FC81FD91F08F499
:1052700031960895689401C0E894F92FF12B12F04B
:105280000C946E29A0E0B0E0E8E4F9E20C94672801
:10529000092E059422F40E94CA29112392F4F0E801
:1052A0000F26FFEFE094F09400951095B094C09411
:1052B000D094A194BF0ACF0ADF0AEF0AFF0A0F0BAE
:1052C0001F0B0E94792907FC0E94CA29CDB7DEB7BF
:1052D000ECE00C948328689401C0E8948F929F922C
:1052E000CF93DF930E947929DF91CF919F908F9088
:1052F000089588249924F401E401B0E49F93AA2737
:105300009A158B049C04ED05FE05CF05D007A10777
:1053100098F4AD2FDC2FCF2FFE2FE92D982C892E5E
:10532000982F872F762F652F542F432F322F222728
:10533000B85031F7BF9127C01B2EBF91BB27220F5A
:10534000331F441F551F661F771F881F991F881C16
:10535000991CEE1FFF1FCC1FDD1FAA1FBB1F8A1445
:105360009B04EC05FD05CE05DF05A007B10748F05D
:105370008A189B08EC09FD09CE09DF09A00BB10BC7
:1053800021601A94E1F62EF49401AF01BE01CD0123
:10539000000C089560957095809590953095409596
:1053A000509521953F4F4F4F5F4F6F4F7F4F8F4F1E
:1053B0009F4F08950F93083090F0982F872F762FE6
:1053C000652F542F432F322F22270850F4CF220F5E
:1053D000331F441F551F661F771F881F991F0A958B
:1053E000B2F70F91089597FB10F8169400080F93E9
:1053F000083098F00850232F342F452F562F672F51
:10540000782F892F902DF4CF0594979587957795D0
:10541000679557954795379527950A95AAF70F9160
:1054200008952A0D3B1D4C1D5D1D6E1D7F1D801FA7
:10543000911F08952A193B094C095D096E097F09DE
:10544000800B910B08950024A7FD00942A173005C6
:105450004005500560057005800590050895EE0F24
:10546000FF1F0590F491E02D09945058BB27AA27FF
:105470000E944D2A0C941C280E940E2838F00E948D
:10548000152820F039F49F3F19F426F40C940B28CA
:105490000EF4E095E7FB0C940528E92F0E942D28D7
:1054A00058F3BA17620773078407950720F079F459
:1054B000A6F50C944F280EF4E0950B2EBA2FA02DD4
:1054C0000B01B90190010C01CA01A0011124FF27B1
:1054D000591B99F0593F50F4503E68F11A16F040AC
:1054E000A22F232F342F4427585FF3CF46953795AB
:1054F0002795A795F0405395C9F77EF41F16BA0B70
:10550000620B730B840BBAF09150A1F0FF0FBB1F1D
:10551000661F771F881FC2F70EC0BA0F621F731F66
:10552000841F48F4879577956795B795F7959E3FC3
:1055300008F0B0CF9395880F08F09927EE0F979554
:10554000879508950E94B62A0C941C280E9415285D
:1055500058F00E940E2840F029F45F3F29F00C9487
:10556000052851110C9450280C940B280E942D28CA
:1055700068F39923B1F3552391F3951B550BBB2782
:10558000AA2762177307840738F09F5F5F4F220FC7
:10559000331F441FAA1FA9F335D00E2E3AF0E0E8BE
:1055A00032D091505040E695001CCAF72BD0FE2F08
:1055B00029D0660F771F881FBB1F2617370748079C
:1055C000AB07B0E809F0BB0B802DBF01FF27935854
:1055D0005F4F3AF09E3F510578F00C9405280C94EB
:1055E00050285F3FE4F3983ED4F38695779567950E
:1055F000B795F7959F5FC9F7880F911D9695879589
:1056000097F90895E1E0660F771F881FBB1F6217A7
:1056100073078407BA0720F0621B730B840BBA0B65
:10562000EE1F88F7E095089597FB16F40E94582B1B
:105630000C941B2BE894F92F96EBFF2381F01216A4
:1056400013061406440B9395F69587957795679501
:1056500057954040FF23B9F71BC099270895882329
:1056600051F49850D2F7872B762F652F542F432F64
:10567000322F20E0B1F3121613061406440B8823D0
:105680003AF09A95440F551F661F771F881FCAF777
:1056900055234AF4440F551F11F460FF04C06F5F97
:1056A0007F4F8F4F9F4F880F9695879597F9089555
:1056B0009095809570956095509540953095219581
:1056C0003F4F4F4F5F4F6F4F7F4F8F4F9F4F08950B
:1056D000FA01EE0FFF1F309621053105A1F161158A
:1056E000710561F48038BFE39B0749F168949038F5
:1056F000810561F08038BFEF9B0741F099234AF59F
:10570000FF3FE1053105210519F1E8940894E7957B
:10571000D901AA2329F4AB2FBE2FF85FD0F310C014
:10572000FF5F70F4A695E0F7F73950F019F0FF3AF3
:1057300038F49F779F930DD00F9007FC90580895F1
:1057400046F00C940B2860E070E080E89FE3089539
:105750004FE79F775F934F933F932F930E94632C64
:105760002F913F914F915F910E9498270C94C02BED
:1057700029F416F00C9405280C944F280C940B284F
:105780000E943528A8F39638A0F707F80F92E894FE
:105790002BE33AEA48EB5FE70E94AE270F920F92A5
:1057A0000F924DB75EB70F920E94AB2CE8E6F0E087
:1057B0000E94F22B4F915F91EF91FF91E595EE1FC3
:1057C000FF1F49F0FE57E0684427EE0F441FFA958B
:1057D000E1F74195550B0E94252C0F9007FE0C9484
:1057E000192C0895DF93CF931F930F93FF92EF929D
:1057F000DF927B018C01689406C0DA2EEF010E94D3
:10580000AB27FE01E894A5912591359145915591DD
:10581000A6F3EF010E944D2AFE019701A801DA9438
:1058200069F7DF90EF90FF900F911F91CF91DF917B
:1058300008959B01AC0160E070E080E89FE30C9468
:10584000A22A0C9405280C94DF2C0E943528D8F34A
:105850009923C9F3940F511DA3F39150504094F034
:1058600059F0882332F0660F771F881F91505040FF
:10587000C1F79E3F51052CF7880F911D969587958E
:1058800097F908955F3FACF0983E9CF0BB27869552
:1058900077956795B79508F4B1609395C1F7BB0FFD
:1058A00058F711F460FFE8CF6F5F7F4F8F4F9F4F26
:1058B000E3CF0C94502816F00C94DF2C0C940B289A
:1058C00068940C9405280E943528A8F39923C1F305
:1058D000AEF3DF93CF931F930F93FF92C92FDD2772
:1058E00088232AF02197660F771F881FDAF720E0B8
:1058F00030E040E85FEB9FE3883920F0803E38F0ED
:1059000021968F770E94362AE0E9F0E004C00E94D9
:10591000362AEDEBF0E00E94F22B8B01BE01EC0188
:10592000FB2E6F5771097595771F880B990B0E9495
:105930005D2728E132E741E35FE30E94AB27AF2D0B
:105940009801AE01FF900F911F91CF91DF910E94BE
:105950004D2A0C941C28FA01DC01AA0FBB1F9B01E5
:10596000AC01BF5728F4222733274427507820C0A2
:10597000B75190F4AB2F0024469537952795011C1D
:10598000A395D2F3002071F0220F331F441FB3956B
:10599000DAF30ED00C94352A61307105A0E88A073D
:1059A000B94630F49B01AC016627772788279078A9
:1059B000309621F0208331834283538308959F3FA3
:1059C00031F0915020F4879577956795B795880FBA
:1059D000911D9695879597F908950F931F93CF93EF
:1059E000DF938230910510F482E090E0E091F803BB
:1059F000F091F90320E030E0A0E0B0E0309719F139
:105A0000408151810281138148175907C8F08417DA
:105A1000950769F4109731F012960C93129713962C
:105A20001C9327C00093F8031093F90322C021159B
:105A3000310519F04217530718F49A01BD01EF011F
:105A4000DF01F801DBCF21153105F9F0281B390BF7
:105A50002430310580F48A819B816115710521F024
:105A6000FB019383828304C09093F9038093F8032E
:105A7000FE01329644C0FE01E20FF31F8193919321
:105A800022503109398328833AC02091F60330919E
:105A9000F703232B41F4209102013091030130934D
:105AA000F7032093F60320910001309101012115A5
:105AB000310541F42DB73EB74091040150910501E5
:105AC000241B350BE091F603F091F703E217F3077F
:105AD000A0F42E1B3F0B2817390778F0AC014E5F5E
