:100000000C94C9050C94F1050C94F1050C94F105C0
:100010000C94F1050C94F1050C94F1050C94F10588
:100020000C94F1050C94F1050C94F1050C94F10578
:100030000C94F1050C94F1050C94F1050C94F10568
:100040000C94411C0C94F1050C94800C0C945A0CEB
:100050000C94F1050C94F1050C94F1050C94F10548
:100060000C94E0130C94F10500407A10F35A00A0B0
:10007000724E18090010A5D4E80000E87648170071
:1000800000E40B54020000CA9A3B000000E1F505B1
:10009000000080969800000040420F000000A086FB
:1000A00001000000102700000000E803000000002D
:1000B0006400000000000A000000000001000000D1
:1000C00000002C76D888DC674F0823DFC1DFAE59EB
:1000D000E1B1B796E5E3E453C63AE651997696E87E
:1000E000E6C28426EB898C9B62ED407C6FFCEFBC02
:1000F0009C9F40F2BAA56FA5F490055A2AF75C932D
:100100006B6CF9676DC11BFCE0E40D47FEF520E662
:10011000B500D0ED902E0300943577050080841E45
:10012000080000204E0A000000C80C333333330FA0
:10013000986E12831141EF8D2114893BE65516CF3D
:10014000FEE6DB18D1844B381BF77C1D901DA4BB49
:10015000E424203284725E228100C9F124ECA1E5FE
:100160003D27000103070F1F3F7F0080C0E0F0F82C
:10017000FCFE00000000003E5B4F5B3E3E6B4F6BA1
:100180003E1C3E7C3E1C183C7E3C181C577D571C78
:100190001C5E7F5E1C00183C1800FFE7C3E7FF00F1
:1001A00018241800FFE7DBE7FF30483A060E26293F
:1001B000792926407F050507407F05253F5A3CE702
:1001C0003C5A7F3E1C1C08081C1C3E7F14227F22C8
:1001D000145F5F005F5F06097F017F006689956A93
:1001E000606060606094A2FFA29408047E0408101E
:1001F000207E201008082A1C08081C2A08081E1047
:100200001010100C1E0C1E0C30383E3830060E3EFE
:100210000E06000000000000005F0000000700075D
:1002200000147F147F14242A7F2A12231308646287
:1002300036495620500008070300001C22410000E8
:1002400041221C002A1C7F1C2A08083E0808008046
:1002500070300008080808080000606000201008DE
:1002600004023E5149453E00427F400072494949DF
:10027000462141494D331814127F10274545453911
:100280003C4A494931412111090736494949364615
:100290004949291E000014000000403400000008F5
:1002A0001422411414141414004122140802015998
:1002B00009063E415D594E7C1211127C7F49494925
:1002C000363E414141227F4141413E7F49494941BA
:1002D0007F090909013E414151737F0808087F00E9
:1002E000417F41002040413F017F081422417F406F
:1002F0004040407F021C027F7F0408107F3E414146
:10030000413E7F090909063E4151215E7F091929B5
:1003100046264949493203017F01033F4040403F9F
:100320001F2040201F3F4038403F631408146303E0
:10033000047804036159494D43007F41414102045F
:10034000081020004141417F040201020440404066
:100350004040000307080020545478407F2844445C
:10036000383844444428384444287F385454541876
:1003700000087E090218A4A49C787F080404780071
:10038000447D40002040403D007F10284400004153
:100390007F40007C047804787C0804047838444466
:1003A0004438FC1824241818242418FC7C0804045D
:1003B00008485454542404043F44243C4040207CC6
:1003C0001C2040201C3C4030403C44281028444C19
:1003D0009090907C4464544C4400083641000000E6
:1003E000770000004136080002010204023C262387
:1003F000263C1EA1A161123A4040207A385454553F
:100400005921555579412254547842215554784008
:1004100020545579400C1E52721239555555593990
:100420005454545939555454580000457C410002E5
:10043000457D420001457C407D1211127DF028254A
:1004400028F07C545545002054547C547C0A097F84
:100450004932494949323A4444443A324A48483098
:100460003A4141217A3A42402078009DA0A07D3D4A
:100470004242423D3D4040403D3C24FF2424487ED2
:100480004943662B2FFC2F2BFF0929F620C0887EBD
:10049000090320545479410000447D413048484AC2
:1004A00032384040227A007A0A0A727D0D19317D75
:1004B0002629292F28262929292630484D40203849
:1004C0000808080808080808382F10C8ACBA2F1008
:1004D0002834FA00007B000008142A142222142A6F
:1004E00014085500550055AA55AA55AAFF55FF55A1
:1004F000FF000000FF00101010FF00141414FF0094
:100500001010FF00FF1010F010F0141414FC001471
:1005100014F700FF0000FF00FF1414F404FC14148F
:1005200017101F10101F101F1414141F001010108C
:10053000F0000000001F101010101F10101010F01D
:1005400010000000FF101010101010101010FF10FD
:10055000000000FF140000FF00FF00001F10170044
:1005600000FC04F414141710171414F404F400001D
:10057000FF00F714141414141414F700F7141414CF
:10058000171410101F101F141414F4141010F0106E
:10059000F000001F101F0000001F14000000FC14DA
:1005A0000000F010F01010FF10FF141414FF1410CE
:1005B00010101F00000000F010FFFFFFFFFFF0F021
:1005C000F0F0F0FFFFFF0000000000FFFF0F0F0F33
:1005D0000F0F3844443844FC4A4A4A347E0202062B
:1005E00006027E027E0263554941633844443C045E
:1005F000407E201E2006027E020299A5E7A5991CD6
:100600002A492A1C4C7201724C304A4D4D303048F8
:10061000784830BC625A463D3E494949007E010156
:10062000017E2A2A2A2A2A44445F444440514A44EB
:100630004040444A51400000FF0103E080FF0000B9
:1006400008086B6B083612362436060F090F0600B1
:100650000018180000001010003040FF0101001FBA
:1006600001011E00191D1712003C3C3C3C0000001B
:10067000000000000000230026002900DB40A4A6A3
:100680002EAFDA0281DA1281DA02818F2000A1C84E
:10069000D300408DAED580A80000600000000000AF
:1006A000000000000000000000E00000000000006A
:1006B0000000000000000001E00000000000000059
:1006C00000000000000001F0000000000000000039
:1006D000000000000003F000000000000000000027
:1006E0000000000007F00000000000000000000013
:1006F00000000007F80000000000000000000000FB
:1007000000000FF800000003C0007E000001E000C0
:100710007F0FF800000003C000FE000001E000FFB2
:10072000EFF800000003C000FE000001E000FFFF42
:10073000F800000003C000F00000000F007FFE7F03
:10074000C0000003C000F00000000F003FFE7FF873
:100750003FF1FBCFFCFEF3BC3DEFE01FFE7FFF7FD0
:10076000FBFFDFFEFEFFBC3DEFE01FC6FFFF7FFB90
:10077000FFDFFEFEFFBC3DEFE00FE3C7FE787BC36B
:10078000DE1EF0FFBC3DEF0007FF87FC787BC3DE79
:100790001EF0F83C3DEF0001FFFFF0007BC3C01EE0
:1007A000F0F03C3DEF0001F37FE03FFBC3CFFEF0F4
:1007B000F03C3DEF0003E33F807FFBC3DFFEF0F042
:1007C0003C3DEF0007E73C00787BC3DE1EF0F03CC9
:1007D0003DEF0007FFBE00787BC3DE1EF0F03C3D1E
:1007E000EF0007FFFE00787BC3DE1EF0F03C3DEF1C
:1007F000000FFFFE007FFBFFDFFEF0F03FFDEFE0AC
:100800000FFFFF007FFBFFDFFEF0F03FFDEFE00F8B
:10081000F9FF003E79F9CF9EF0F01F3DE7E01FF1B0
:10082000FF0000000000000000000000001F80FF2B
:10083000007FFFFFFFFFFFFFFFFFFFE01C007F00C7
:100840007FFFFFFFFEB46D888D18E000001F007F62
:10085000FFFFFFFE95AD7DB577E000000F007FFF45
:10086000FFFFFEA5AD9D8D19E0000006007FFFFF94
:10087000FFFEB5ADEDB57EE0000000000001800098
:1008800000000000000000000380000000000000E5
:1008900000000007C000000000000000000007C0CA
:1008A0000000000000000000000FC0000000000079
:1008B000000000001FE00000000000000000001F1A
:1008C000E00000000000000000003FE00000000029
:1008D00000000000003FF0000000000000000000E9
:1008E0007FF0000000000000001FF87FF000000013
:1008F000000000003FFE7FF0000000000000003F0D
:10090000FF7FF0000000000000001FFFFBE0000080
:1009100000000000000FFFF9FFC000000000000011
:100920000FFFF9FFF800000000000007FFF1FFFFD4
:1009300000000000000003FC73FFFF8000000000C7
:100940000001FE3FFFFF80000000000000FF1E0FBF
:10095000FF000000000000007FFE1FFC0000000000
:100960000000003FFFFFF8000000000000000FDF64
:10097000FFE0000000000000001F19FFC0000000A1
:10098000000000003F3CFF00000000000000007E6F
:100990007CF800000000000000007FFE7C000000EA
:1009A0000000000000FFFFFC00000000000000004D
:1009B000FFFFFE0000000000000000FFFFFE00003F
:1009C000000000000001FFEFFE000000000000003A
:1009D00001FFCFFE0000000000000003FF07FE0043
:1009E00000000000000003FC07FE00000000000003
:1009F0000003F003FE00000000000000018000FE84
:100A0000000000000000000000007E000000000068
:100A100000000000003E0000000000000000000098
:100A20000C000000000000078000FC000003C00074
:100A30000000078001FC000003C0000000078001E7
:100A4000FC000003C0000000078001E00000001E61
:100A5000000000078001E00000001E007FE3F79F18
:100A6000F9FDE7787BDFC0FFF7FFBFFDFDFF787B77
:100A7000DFC0FFF7FFBFFDFDFF787BDFC0F0F7872A
:100A8000BC3DE1FF787BDE00F0F787BC3DE1F0780C
:100A90007BDE0000F787803DE1E0787BDE007FF7BA
:100AA000879FFDE1E0787BDE00FFF787BFFDE1E097
:100AB000787BDE00F0F787BC3DE1E0787BDE00F07C
:100AC000F787BC3DE1E0787BDE00F0F787BC3DE1D5
:100AD000E0787BDE00FFF7FFBFFDE1E07FFBDFC0DA
:100AE000FFF7FFBFFDE1E07FFBDFC07CF3F39F3D3D
:100AF000E1E03E7BCFC000000000000000000000ED
:100B000000FFFFFFFFFFFFFFFFFFFFC0FFFFFFFF33
:100B1000FD68DB111A31C0FFFFFFFFFD2B5AFB6A96
:100B2000EFC0FFFFFFFFFD4B5B3B1A33C0FFFFFF32
:100B3000FFFD6B5BDB6AFDC02200FF2100040404A3
:100B40000404040404020202020202030303030376
:100B50000301020408102040800102040810200153
:100B6000020408102000000000240027002A0000D2
:100B7000000000250028002B0000000008000201F2
:100B800000000304070000000000000000004024F3
:100B90008B1C11241FBECFEFD8E0DEBFCDBF23E0FA
:100BA000A0E1B2E001C01D92A13FB207E1F712E05F
:100BB000A0E0B1E0E6E9FAE502C005900D92A031AF
:100BC000B107D9F715E0C8ECD5E004C02197FE01C4
:100BD0000E94222AC73CD107C9F70E949A1C0C9494
:100BE0003E2D0C940000CF92DF92EF92FF920F9374
:100BF0001F93CF93DF936C017A018B01C0E0D0E0AB
:100C0000CE15DF0581F0D8016D918D01D601ED91F2
:100C1000FC910190F081E02DC6010995892B11F01E
:100C20002196EECF7E01C701DF91CF911F910F91E9
:100C3000FF90EF90DF90CF900895FC01538D448D8D
:100C4000252F30E0842F90E0821B930B541710F077
:100C5000CF96089501970895FC01918D828D981784
:100C600061F0828DDF01A80FB11D5D968C91928D90
:100C70009F5F9F73928F90E008958FEF9FEF08958D
:100C8000FC01918D828D981731F0828DE80FF11D56
:100C9000858D90E008958FEF9FEF0895FC01918D71
:100CA000228D892F90E0805C9F4F821B91098F736A
:100CB000992708958EEE92E00E944E0621E0892B3E
:100CC00009F420E0822F0895FC01848DDF01A80F34
:100CD000B11DA35ABF4F2C91848D90E001968F7364
:100CE0009927848FA689B7892C93A089B1898C9183
:100CF000837080648C93938D848D981306C00288D2
:100D0000F389E02D80818F7D80830895EF92FF929B
:100D10000F931F93CF93DF93EC0181E0888F9B8D1E
:100D20008C8D981305C0E889F989808185FD26C0DE
:100D3000F62E0B8D10E00F5F1F4F0F731127E02E63
:100D40008C8DE8120CC00FB607FCFACFE889F98940
:100D5000808185FFF5CFCE010E946406F1CF8B8D97
:100D6000FE01E80FF11DE35AFF4FF0829FB7F894A0
:100D70000B8FEA89FB89808180620AC09FB7F89453
:100D8000EE89FF896083E889F989808183708064B6
:100D900080839FBF81E090E0DF91CF911F910F9101
:100DA000FF90EF900895CF93DF93EC01888D882317
:100DB000C9F0EA89FB89808185FD05C0A889B989C8
:100DC0008C9186FD0FC00FB607FCF5CF808185FFA3
:100DD000F2CFA889B9898C9185FFEDCFCE010E9411
:100DE0006406E7CFDF91CF91089580E090E0892BF2
:100DF00029F00E945A0681110C9400000895FC010C
:100E000077FDB9C080859185681779070CF0B3C06C
:100E100057FDB1C082859385481759070CF0089596
:100E20008589823079F484819581DC01A61BB70B1A
:100E3000BD016150710986819781DC01A41BB50B4E
:100E4000AD010EC0833009F084C064277527CA0144
:100E5000862797276827792746815781481B590B92
:100E6000415051092130310531F048F1223031052E
:100E700009F44AC00895CA0157FD07969C01A3E0F2
:100E800035952795AA95E1F7A481B5812A9FC001E0
:100E90002B9F900D3A9F900D1124680F791F068C9F
:100EA000F78DE02DE60FF71F4770552781E090E0A2
:100EB00001C0880F4A95EAF79081892B48C0CA0182
:100EC00057FD07969C0193E0359527959A95E1F794
:100ED000A481B5812A9FC0012B9F900D3A9F900D50
:100EE0001124680F791F068CF78DE02DE60FF71F90
:100EF0004770552781E090E001C0880F4A95EAF7D6
:100F000080959081892323C0CA0157FD07969C01D3
:100F100083E0359527958A95E1F7A481B5812A9FCD
:100F2000C0012B9F900D3A9F900D1124680F791FDF
:100F3000068CF78DE02DE60FF71F4770552781E0EF
:100F400090E001C0880F4A95EAF790818927808355
:100F50000895813009F086CF6427752746275727E3
:100F60006427752784819581DC01A61BB70BBD0121
:100F70006150710977CF08950895FC016370658B06
:100F80008481958126813781613039F0633029F081
:100F900091878087338722870895318720879387B9
:100FA000828708956F927F928F929F92AF92BF92A5
:100FB000CF92DF92EF92FF920F931F93CF93DF9325
:100FC000EC014B015A0169013801E881F981028481
:100FD000F385E02D0995E881F9810288F389E02DF8
:100FE00087019601A501B401CE010995A501460D21
:100FF000571D41505109E881F9810288F389E02D9C
:101000009601B401CE010995E881F9810088F18942
:10101000E02D9301A501B401CE010995C80CD91C9E
:10102000B60161507109E881F9810088F189E02DEC
:101030009301A501CE010995E881F9810688F78918
:10104000E02DCE01DF91CF911F910F91FF90EF9096
:10105000DF90CF90BF90AF909F908F907F906F90D8
:1010600009948F929F92AF92BF92CF92DF92EF92AC
:10107000FF920F931F93CF93DF934C016B015A01A3
:10108000E901DC01ED91FC916217730781F404170B
:10109000150724F48B2D5801042F182F0A191B094A
:1010A00098012F5F3F4F048CF58DE02D12C0401743
:1010B000510709F52617370724F48D2D6901C62F2E
:1010C000D82F9E012C193D092F5F3F4F068CF78DBD
:1010D000E02D8701A501B601C4010995DF91CF91EB
:1010E0001F910F91FF90EF90DF90CF90BF90AF9046
:1010F0009F908F9008950284F385E02D0995D40187
:10110000ED91FC910488F589E02D9E01A501B601C1
:10111000C4010995D401ED91FC910688F789E02D71
:10112000C401DF91CF911F910F91FF90EF90DF905D
:10113000CF90BF90AF909F908F900994EF92FF92C5
:101140000F931F93DC011A960D911C911B97189613
:101150002D913C911997ED91FC9100A0F1A1E02D0A
:101160007B0140E050E060E070E009951F910F9135
:10117000FF90EF9008954F925F926F927F928F92BF
:101180009F92AF92BF92CF92DF92EF92FF920F9316
:101190001F93CF93DF936C012B015A013901480152
:1011A000DC01ED91FC910284F385E02D0995E201CB
:1011B000640C751CD601ED91FC91C615D7055CF445
:1011C0000088F189E02D87019401A501BE01C601C7
:1011D00009952196EFCF0688F789E02DC601DF91AA
:1011E000CF911F910F91FF90EF90DF90CF90BF9024
:1011F000AF909F908F907F906F905F904F900994E9
:101200008F929F92AF92BF92CF92DF92EF92FF9216
:101210000F931F93CF93DF93EC015B014A016901A8
:10122000E881F9810284F385E02D099595012C0D63
:101230003D1D21503109E881F9810488F589E02DAF
:1012400078018401A401B501CE010995E881F981F5
:101250000688F789E02DCE01DF91CF911F910F9184
:10126000FF90EF90DF90CF90BF90AF909F908F90C6
:1012700009948F929F92AF92BF92CF92DF92EF929A
:10128000FF920F931F93CF93DF93EC015B014A0111
:1012900069017801E881F9810284F385E02D0995DF
:1012A000C80CD91C860101501109E881F981048814
:1012B000F589E02D9501A401B501CE010995E881DC
:1012C000F9810688F789E02DCE01DF91CF911F913A
:1012D0000F91FF90EF90DF90CF90BF90AF909F90D5
:1012E0008F900994EF92FF920F931F93DC01ED9181
:1012F000FC9100A0F1A1E02D09951F910F91FF90A5
:10130000EF9008950F931F93DC01ED91FC91068CF3
:10131000F78DE02D09951F910F9108950F931F935D
:10132000DC01ED91FC91048CF58DE02D09951F9168
:101330000F910895DC01ED91FC910084F185E02D81
:1013400009942F923F924F925F926F927F928F9269
:101350009F92AF92BF92CF92DF92EF92FF920F9344
:101360001F93CF93DF9300D000D000D0CDB7DEB76E
:101370002C017E836D836A015901C801FC82EB82D6
:101380004801841A950A97FE03C0919481949108AC
:1013900035012D813E81621A730A77FE03C0719474
:1013A00061947108681479045CF43A2D2B2D5C016A
:1013B000832F922F3D812E81DE82CD82C32ED22EAD
:1013C000AD81BE81AA16BB065CF43C2D2D2D6C01AF
:1013D000832F922F3D812E81BE82AD82A32EB22E0D
:1013E00085012D813E81021B130B1C012C183D0829
:1013F00037FE03C0319421943108780117FF03C0F0
:101400003FEFE31AF30AF594E794C816D9062CF0D7
:101410008FEF9FEF9A83898304C0A1E0B0E0BA8385
:10142000A9832D813E81A216B30624F1D201ED914C
:10143000FC910484F585E02D2B813C8168147904AE
:1014400024F44D815E81B60103C0A6016D817E81C9
:10145000C2010995E218F308F7FE06C029813A8116
:10146000C20ED31EE00EF11E8D819E8101969E83D9
:101470008D83D7CF26960FB6F894DEBF0FBECDBFB3
:10148000DF91CF911F910F91FF90EF90DF90CF9060
:10149000BF90AF909F908F907F906F905F904F9094
:1014A0003F902F900895089580E090E008950F9365
:1014B0001F93CF93DF93DC015596EC915597E23063
:1014C00071F0E330E9F0E13079F5FB0114960D900D
:1014D000BC91A02DA41BB50BA21BB30B18C0EC0133
:1014E000EC81FD81E61BF70BBF0161507109EE81B4
:1014F000FF81DF01A41BB50BAD01421B530B14C0D0
:10150000DA01EC01EE81FF81E61BF70B3197F7FD65
:101510000DC0EC014E815F81E417F5073CF4AF018B
:10152000BD010E94C41202C00E942B13DF91CF9113
:101530001F910F9108950F931F93DC015596EC9125
:101540005597E23061F0E33009F1E13081F514960E
:10155000ED91FC911597E41BF50B319723C0DC014D
:101560001496ED91FC911597DF01A61BB70BBD01F9
:10157000DC011696ED91FC911797DF01A41BB50BCA
:10158000AD0141505109621B730B11C0FA01DC011E
:1015900016964D915C911797DA01A61BB70BBD010A
:1015A000621B730BAB01BF010E942B130CC057FDD4
:1015B0000AC0DC011696ED91FC9117974E175F0754
:1015C00014F40E94C4121F910F910895AF92BF921C
:1015D000CF92EF92FF920F931F93CF93DF93EC0183
:1015E000262F888D998D009709F040C06A3059F4F4
:1015F0001D861C862C898E859F8538E0239F800D53
:10160000911D112441C06D3009F4AAC08E89882330
:10161000C1F03C898C859D8546E0349F800D911DED
:10162000112448855985481759075CF41D861C8686
:101630008E859F8548E0349F800D911D11249F87E2
:101640008E87EA88FB88088919894E855F856C85B5
:101650007D85CC88CE010E94AA102C898C859D8521
:1016600036E0239F800D911D112442C06A3079F429
:101670001D861C862C89FC013696E4918E859F85FB
:101680002E9F800D911D11249F878E8769C06D301C
:1016900009F466C0FC0134963491631708F460C005
:1016A0003196E491E61708F45BC0FC01329665912F
:1016B0007491422F50E0431B510937E0349F500191
:1016C000359FB00C1124A60EB71EF5013296349149
:1016D0003196E491332311F0E1110DC0F5013496F8
:1016E000E4912C898C859D85E29F800D911D1124AC
:1016F0009D878C8735C0F501359644915E895523C9
:1017000011F16C89E32FF0E0E40FF11D47FDFA952C
:101710006E9FD0016F9FB00D11244C855D854A0FDF
:101720005B1FE885F985E417F5076CF41D861C86B8
:10173000FC013696E4918E859F856E9F800D911DEC
:1017400011249F878E87EA88FB88088919894E852E
:101750005F856C857D85CC88CE010E94AA10BECFA6
:1017600081E090E0DF91CF911F910F91FF90EF907A
:10177000CF90BF90AF9008950F931F93CF93DF93B7
:10178000EC0188819981009729F02A813B812617F5
:10179000370788F48B016F5F7F4F0E94612C0097A1
:1017A00061F0998388831B830A832C813D81232BDD
:1017B00011F4FC01108281E001C080E0DF91CF9143
:1017C0001F910F910895CF93DF93EC018881998148
:1017D000009711F00E94D82B198218821D821C825A
:1017E0001B821A82DF91CF910895EF92FF920F939F
:1017F0001F93CF93DF93EC017B018A01BA010E9412
:10180000BC0B811104C0CE010E94E30B07C01D83F5
:101810000C83B701888199810E94372DCE01DF9119
:10182000CF911F910F91FF90EF900895FB01DC0184
:1018300011961C921E9213961C921E921297159648
:101840001C921E9214978617970749F06081718148
:101850006115710521F0448155810C94F50B0895B3
:10186000FC0111821082138212821582148261158A
:10187000710551F0FB0101900020E9F73197AF01AC
:10188000461B570B0C94F50B08956115710579F003
:10189000FB0101900020E9F73197AF01461B570B80
:1018A000DC01ED91FC910280F381E02D099480E050
:1018B00090E008951F920F920FB60F9211242F936C
:1018C0003F934F935F936F937F938F939F93AF93C8
:1018D000BF93EF93FF938EEE92E00E946406FF9118
:1018E000EF91BF91AF919F918F917F916F915F9198
:1018F0004F913F912F910F900FBE0F901F90189511
:101900001F920F920FB60F9211242F938F939F93D4
:10191000EF93FF93E091FE02F091FF028081E0914E
:101920000403F091050382FD12C0908180910703AA
:101930008F5F8F7320910803821751F0E0910703A6
:10194000F0E0E251FD4F958F8093070301C0808145
:10195000FF91EF919F918F912F910F900FBE0F905C
:101960001F90189508958EBD00000DB407FEFDCFA1
:101970008EB508951F93CF93DF93FC01848D958DD1
:10198000009701F1162FEF0160A10E946A158C8D5E
:101990009D8DDC01ED91FC910190F081E02D60E0E6
:1019A00009958C8D9D8DDC01ED91FC910190F0816C
:1019B000E02D612F09958C8D9D8DDF91CF911F9129
:1019C0000C940E15A4A5B5A59C9182A98095892398
:1019D0008C93828D938D892B31F0862FDF91CF915F
:1019E0001F910C94B30C28E030E080E8A0A5B1A5CD
:1019F00090A9462F482319F04C91942B03C04C9189
:101A0000909594239C93A2A5B3A54C9191A9942B56
:101A10009C93A2A5B3A54C9191A9909594239C93D6
:101A200086952150310911F7DF91CF911F910895CB
:101A30008CBD9DBD08951F93CF93DF93EC01162FAE
:101A40008C8D9D8D892BB1F02EA93FA948AD59AD44
:101A500060E074E284EF90E00E94AA28DA01C901F4
:101A60004097A109B109B695A79597958795809359
:101A7000B8000FC08A8D9B8D892B21F08CA99DA960
:101A80000E94180DEEA5FFA590818BA98095892352
:101A90008083111102C066EA01C067EACE010E948C
:101AA000BA0C8C8D9D8D892BB1F02AAD3BAD4CAD20
:101AB0005DAD60E074E284EF90E00E94AA28DA0154
:101AC000C9014097A109B109B695A7959795879542
:101AD0008093B80006C0EEA5FFA590818BA9892B45
:101AE0008083DF91CF911F9108950E94F5170C9488
:101AF00026198091CC0290E02091CD02821B9109A1
:101B00000895CF92DF92EF92FF92CF93DF93B0913F
:101B10009E03882311F0AB2F01C0A0E080919F03AA
:101B200090E0880F991F8E58994FC090A403D090D1
:101B3000A503E090A603F090A70320E030E0FC01AD
:101B4000C591D491E881EB23A90160E070E0EA132C
:101B50000CC02F5F3F4F4C155D056E057F0578F378
:101B60003FEF2FEF8FEF9FEF03C0322F252FCB01D9
:101B7000632F722FDF91CF91FF90EF90DF90CF9086
:101B8000089585ED8093BC008091BC0084FDFCCF5E
:101B90001092CB02089540915C02262F30E0240F72
:101BA000311D21323105DCF42091CB022430C9F4FF
:101BB000FC0180E090E0861758F430915C0221919E
:101BC000DC01A45CBD4FA30FB11D2C930196F3CF94
:101BD00080915C02680F60935C0280E0089581E070
:101BE000089582E00895089508950895E091CD0242
:101BF0008091CC02E81730F4F0E0E253FD4F808191
:101C000090E008958FEF9FEF08959091CD0280911D
:101C1000CC02981750F4E92FF0E0E253FD4F2081F9
:101C200030E09F5F9093CD0202C02FEF3FEFC901DC
:101C30000895CF92DF92EF92FF920F931F93CF936D
:101C4000DF937C01CB018A0120913B02222389F0A2
:101C5000EB016B01C40ED51ECC15DD0569F0699151
:101C6000D701ED91FC910190F081E02DC70109951C
:101C7000F3CF642F0E94CB0DC801DF91CF911F914C
:101C80000F91FF90EF90DF90CF900895CF93DF9367
:101C90001F92CDB7DEB7698320913B022223D1F09A
:101CA00020911002203240F021E030E0FC0133832B
:101CB000228380E090E015C080911102E82FF0E0CF
:101CC000E55EFD4F998190838F5F80931102809331
:101CD000100205C061E0CE0101960E94CB0D81E0AB
:101CE00090E00F90DF91CF9108952F923F924F9205
:101CF0005F926F927F928F929F92AF92BF92CF929C
:101D0000DF92EF92FF920F931F93CF93DF93CDB7A4
:101D1000DEB7A4970FB6F894DEBF0FBECDBF4B0160
:101D20005C01F42E9B01AC010E943B2B882319F02F
:101D300066E571E027C024013501E89477F82FEFBC
:101D40003FEF4FE75FE7C301B2010E943B2B8111D8
:101D50000DC02FEF3FEF4FE75FE7C301B2010E94D5
:101D6000252718161CF46AE571E00CC02FEF3FEF31
:101D70004FE75FE4C501B4010E94362B18163CF40E
:101D80006EE571E08EEE92E00E94450CBCC02FEF34
:101D90003FEF4FE75FECC501B4010E94252787FDA7
:101DA000EFCF20E030E0A901C501B4010E94252752
:101DB00087FF0BC06DE28EEE92E00E9486063C012A
:101DC000B7FAB094B7F8B09402C0612C712C10E04F
:101DD00060E070E080E09FE3F11641F020E030E049
:101DE00040E251E40E94952A1F5FF6CFA5019401BD
:101DF0000E94292A4B015C010E94072B6AA3C72E6F
:101E0000D82EE92E19A2262F372F482F592F8E01B1
:101E10000F5D1F4F0BA31CA39AE0292E312C412CE0
:101E2000512CCA01B901A20191010E94AA28605D4A
:101E3000F80162938F01211531054105510589F79C
:101E4000BF018EEE92E00E94450C8301080F191F1E
:101E5000FF2009F457C06AA17C2D8D2D9E2D0E9474
:101E60002A279B01AC01C501B4010E94282A4B011D
:101E70005C016EE28EEE92E00E948606080F191F4A
:101E80008AE0282E312C412C512C20E030E040E219
:101E900051E4C501B4010E948B274B015C010E94F3
:101EA000072B9B0140E050E019A2CBA0DCA0762ECE
:101EB0003AA3642EE52ECA01B901A20191010E9444
:101EC000AA28605DF60162936F0121153105410575
:101ED000510589F7BF018EEE92E00E94450C080F74
:101EE000191F672D7AA1862D9E2D0E942A279B01FE
:101EF000AC01C501B4010E94282A4B015C01FA948F
:101F0000F110C3CFC801A4960FB6F894DEBF0FBE80
:101F1000CDBFDF91CF911F910F91FF90EF90DF9098
:101F2000CF90BF90AF909F908F907F906F905F9079
:101F30004F903F902F900895CF92DF92EF92FF92B3
:101F40000F931F93CF93DF93CDB7DEB7C054D1402B
:101F50000FB6F894DEBF0FBECDBF2FB7F8948091B7
:101F6000160290911702A0911802B09119022FBF8A
:101F70004091A0035091A1036091A2037091A3032B
:101F80008C019D01041B150B260B370BB901A80111
:101F9000403D57406105710518F48091A803CAC0FF
:101FA0008093A0039093A103A093A203B093A303F3
:101FB00010929B0310929A03109299031092980327
:101FC0001092970362E080919C030E94CB1B61E01A
:101FD00070E080E090E00E94071C61E080919C032B
:101FE0000E94CB1B60E080919C030E944C1B80915F
:101FF0009D038551823028F48BE291E10197F1F73E
:1020000006C064E170E080E090E00E94071C62E09E
:1020100080919C030E94CB1B8091A90390E08230A9
:10202000910538F0880F991F880F991F0597019720
:10203000F1F7F89480E00E94810D6F3F7F4F8F4F42
:102040009F4F21F41092A803789441C081E00E9430
:10205000810D6F3F7F4F8F4F9F4FA1F38E010F5F19
:102060001F4F6E018FEBC81A8EEFD80A780180E0FF
:102070000E94810DF701608371838283938381E0E5
:102080000E94810DF7016483758386839783F8E04E
:10209000EF0EF11CEC14FD0451F7789420E030E0D1
:1020A000F801C080D180E280F3804481558166814F
:1020B0007781FFEFCF16DF06EF06FF0631F04F3FC7
:1020C0008FEF58076807780721F41092A80380E083
:1020D00031C0F90183E0F595E7958A95E1F7E95676
:1020E000FC4F8081880FC416D506E606F70608F473
:1020F000816080832F5F3F4F085F1F4F283231057B
:1021000079F620919B0330E04091970380919803EA
:1021100090E0840F911D40919903840F911D40918F
:102120009A03840F911D99272817390771F681E0CA
:102130008093A803C05CDE4F0FB6F894DEBF0FBEDD
:10214000CDBFDF91CF911F910F91FF90EF90DF9066
:10215000CF9008952F923F924F925F926F927F920D
:102160008F929F92AF92BF92CF92DF92EF92FF92A7
:102170000F931F93CF93DF93CDB7DEB76B970FB657
:10218000F894DEBF0FBECDBF9B8F8A8F5B011A0113
:10219000D22E1F830E833701C982DC0158962D9100
:1021A0003C9159972115310509F0E6C018968D919B
:1021B0009C911997681779070CF0CDC11A968D91EB
:1021C0009C911B97481759070CF0C5C18C2C912C7A
:1021D000FB0126E0C29EE00DF11D1124FB87EA877A
:1021E0001E161F060CF0B7C1A40183E0440F551F53
:1021F0008A95E1F75D874C87CA01820D931D1816F9
:1022000019060CF0A8C157968C91811104C05FEAA1
:102210005D1508F4D394AA8DBB8DED91FC911197B7
:102220000284F385E02DCD010995B5E0DB9EC00168
:102230001124F5013596FF87EE87BB82AA8225011E
:102240009C012A193B09398B288BA101485F5F4FFC
:102250005B8B4A8BE889F989E40DF51DEE58FE4F3A
:102260005491588761013D822C82888580FF13C07C
:10227000AA8DBB8DED91FC91B981B13031F404840C
:10228000F585E02D2E813F8116C00684F785E02D6F
:10229000EE80FF801AC0EE81FF81E615F705F1F0B0
:1022A000AA8DBB8DED91FC91B981B13051F40484BC
:1022B000F585E02D9301A601B2018A8D9B8D0995CC
:1022C0000DC00684F785E02D7301840194014C81D3
:1022D0005D816A817B818A8D9B8D0995E885E69574
:1022E000E887FFEFCF1ADF0A2C813D81280D391DC9
:1022F0003D832C834A895B89C416D50609F0B5CF86
:102300005FEF451A550A8A819B81880D991D9B8331
:102310008A83AE85BF854A165B0609F09BCFEE81A6
:10232000FF81E615F70509F4F4C0EA8DFB8DA08165
:10233000B181F981F13079F4B5016B5F7F4F50962F
:10234000ED91FC915197830128E030E0A1018A8D45
:102350009B8D0995DEC06A857B85681979091E9673
:10236000ED91FC911F9773010C851D859401A101CE
:102370008A8D9B8D0995CDC0F9013496E491DE1AC2
:10238000F901329685919491B7E0DB9E800D911D05
:102390001124F901259134913B8B2A8BFC01259165
:1023A00034912901FC013296C490319634913E87D4
:1023B000329614913196D4904981423058F0612E72
:1023C000012E000C77088D2D0D2C000C990B998790
:1023D000888704C019861886612C712CAA8DBB8D44
:1023E000ED91FC9111970284F385E02DCD010995C3
:1023F000B9818B2E912C689CC001699C900D789CB2
:10240000900D1124FC01EA0DFB1DFD87EC871A825B
:10241000712C612CE12F110FFF0B95012E0F3F1F27
:102420003B872A87AC0CB11CA5014E0F5F1F5F8B49
:102430004E8BC1018D0D911DD7FC9A95998F888F78
:102440009E85691608F065C0862D90E048855985FF
:10245000480F591F489D9001499D300D589D300DE2
:102460001124D101A20FB31FB98BA88BEC85FD8578
:10247000FD83EC83AA84BB84DA80FA85DF1A288D79
:10248000398D280F391F3D8B2C8B8D2D8A0D4E8950
:102490005F89A416B506C1F1877041F4C2010196A7
:1024A000EA89FB89E40DF51D74902C0177FE21C0AB
:1024B000AA8DBB8DED91FC91B981B13061F404849A
:1024C000F585E02D2E813F814C895D89B5018A8D8E
:1024D0009B8D09950EC00684F785E02DEE80FF8068
:1024E00084019401488959896C817D818A8D9B8DF5
:1024F0000995770CEFEFAE1ABE0A2C813D81280DAD
:10250000391D3D832C83C1CF3A813C0D3A836394BE
:1025100097CFAA8DBB8DED91FC9111970688F78915
:10252000E02DCD016B960FB6F894DEBF0FBECDBF88
:10253000DF91CF911F910F91FF90EF90DF90CF909F
:10254000BF90AF909F908F907F906F905F904F90D3
:102550003F902F9009946B960FB6F894DEBF0FBE94
:10256000CDBFDF91CF911F910F91FF90EF90DF9042
:10257000CF90BF90AF909F908F907F906F905F9023
:102580004F903F902F9008950F931F93CF93DF9319
:1025900077FF04C0260F371F60E070E0DC0114965F
:1025A000CD91DC911597FB01E20FF31FCE17DF07EA
:1025B0001CF49E01261B370B121613060CF046C0A6
:1025C000FA0157FD3796DF01E3E0B595A795EA9547
:1025D000E1F7AC9FF001AD9FF00DBC9FF00D112411
:1025E0006E0F7F1FDC015E96ED91FC915F97E60F09
:1025F000F71F4770552781E090E001C0880F4A958A
:10260000EAF7482F0130110539F078F00230110552
:10261000E9F42E0F3F1F13C02E0F3F1FE217F307E1
:10262000A9F08081842B8193F9CF80952E0F3F1FD5
:10263000E217F30759F0908198239193F9CFE217AD
:10264000F30721F0808184278193F9CFDF91CF9127
:102650001F910F910895EF92FF920F931F93CF93C5
:10266000DF93EC0177FDA5C0EC80FD806E157F0542
:102670000CF09FC057FF04C0240F351F40E050E00E
:102680008E819F81FA01E20FF31F8E179F071CF4C2
:102690009C01241B350B121613060CF08AC0922FD6
:1026A000842F8695869586958E9DD0018F9DB00D41
:1026B00011246A0F7B1FAE8DBF8DA60FB71F477009
:1026C000B1F188E0841B482F682F70E0FB01E659C8
:1026D000FE4FE491281798F4621B71092FEF30E048
:1026E00002C0359527956A95E2F7E223013011057E
:1026F00049F078F00230110509F05BC00EC00130DE
:10270000110519F48C91E82B0AC00130110508F06D
:1027100049C0E0958C91E82302C08C91E827EC93A6
:10272000941708F446C02C813D81A20FB31FE92FF6
:10273000E41BE830F8F00230110561F48E2F9C9113
:1027400090959C932C813D81A20FB31F88508830B7
:10275000B0F70FC081E00115110509F480E0819503
:102760009E2F8C932C813D81A20FB31F98509830DF
:10277000C0F7E770EE23E9F0F0E0EE59FE4FE49188
:102780000130110539F048F00230110591F48C91B7
:10279000E82706C08C91E82B03C0E0958C91E823D4
:1027A000EC9307C00230110509F4B7CFAE0DBF1D81
:1027B000BECFDF91CF911F910F91FF90EF900895C1
:1027C0001F920F920FB60F9211242F933F934F93A6
:1027D0005F936F937F938F939F93AF93BF93EF9389
:1027E000FF938091B900887F803609F49CC068F51A
:1027F000883209F45BC090F4803109F454C038F495
:10280000882309F4F6C0883009F44DC0F6C0883139
:1028100009F44CC0803209F45DC0EFC0803409F483
:1028200068C048F4803309F455C0883309F0E5C026
:102830008093C902D8C0803509F44FC0883509F4A7
:102840005DC0883409F0D9C0D6C0883909F4C7C042
:10285000A8F4883709F467C038F4883609F463C0EF
:10286000803709F460C0C9C0883809F4B8C080391D
:1028700009F45FC0803809F0C0C05BC0803B09F438
:1028800086C038F4803A09F466C0883A09F47FC0FB
:10289000B4C0803C09F4A7C0883C09F4A4C0883BBC
:1028A00009F48AC0AAC08091C60210C09091C802E3
:1028B0008091C702981770F5E091C80281E08E0FF1
:1028C0008093C802F0E0EB55FD4F80818093BB0000
:1028D00085EC86C08093C9028EC0E091C80281E079
:1028E0008E0F8093C8028091BB00F0E0EB55FD4F46
:1028F00080839091C8028091C7026EC0E091C802A7
:1029000081E08E0F8093C8028091BB00F0E0EB5510
:10291000FD4F80838091CA0281116DC081E0809358
:10292000C50284EA61C083E08093CB0210927E02EC
:10293000CFCF80917E02803208F051C0E0917E02BC
:1029400081E08E0F80937E028091BB00F0E0E25A1E
:10295000FD4F8083BDCF85EC8093BC001092CB02ED
:1029600080917E02803230F4E0917E02F0E0E25A03
:10297000FD4F108260917E0270E0E0911402F091B0
:1029800015028EE592E0099510927E0236C084E031
:102990008093CB0210925D0210925C02E0911202D1
:1029A000F0911302099580915C02811105C081E0CC
:1029B00080935C0210923C02E0915D0281E08E0FF8
:1029C00080935D02F0E0E45CFD4F80818093BB006A
:1029D00090915D0280915C02981708F479CF85E8A8
:1029E0008093BC000AC085EC8093BC001092CB029F
:1029F00004C01092C9020E94C10DFF91EF91BF91D6
:102A0000AF919F918F917F916F915F914F913F9186
:102A10002F910F900FBE0F901F90189530911002BC
:102A2000313208F04BC08091CB028111FCCF9091E4
:102A30001A0222E02093CB0221E02093CA022FEF5A
:102A40002093C9021092C8023093C702EBE1F2E072
:102A5000A5EAB2E020E0321721F041914D932F5FBB
:102A6000FACF1092C6022091C602990F922B909332
:102A7000C6029091C502913061F41092C502909106
:102A8000C6029093BB009091BC0093FDF8CF95ECEB
:102A900001C095EE9093BC009091CB029230E1F38F
:102AA0009091C9029F3F79F08091C902803241F034
:102AB0008091C902803331F084E005C081E003C019
:102AC00082E001C083E01092110210921002109275
:102AD0003B02089581E080933B0260931A021092BA
:102AE00011021092100208958F929F92AF92BF929E
:102AF000CF92DF92EF92FF92F82E66E78BE893E099
:102B00000E946A156F2D8BE893E00E94460E8BE8B9
:102B100093E00E940E1583E090E00E94DC19809102
:102B2000CC0290E02091CD02821B91098330910567
:102B3000ECF38BE893E00E94050E4C01990FAA0874
:102B4000BB08BA2CA92C982C88248BE893E00E940F
:102B5000050E6C01990FEE08FF08C828D928EA284D
:102B6000FB28FE2CED2CDC2CCC248BE893E00E947F
:102B7000050E092E000CAA0BBB0BBC01CD016C2964
:102B80007D298E299F29FF90EF90DF90CF90BF90F5
:102B9000AF909F908F9008958F929F92AF92BF9227
:102BA000CF92DF92EF92FF928AEF0E947415E0E8D5
:102BB000F2E020813181C72ED82EE92EFF24E7FCD8
:102BC000FA94C21AD30AE108F108DC01CB0157E0FC
:102BD000B595A795979587955A95D1F7220F331FED
:102BE0004C015D01821A930AA108B108A501940164
:102BF000A281B3810E94CC284B015C017BE0B5949B
:102C0000A794979487947A95D1F7A7019601C70165
:102C1000B6010E949A289B01AC01ACE055954795FE
:102C200037952795AA95D1F7A481B5810E94CC2824
:102C3000DC01CB012EE0B595A795979587952A9550
:102C4000D1F7A5019401280F391F4A1F5B1F21A34B
:102C500032A343A354A3A5E0B0E00E944928DC01BD
:102C6000CB0180589F4FAF4FBF4F692F7A2F8B2FCB
:102C7000992787FD9A950E942C2720E030E048ECA8
:102C800052E40E94952AFF90EF90DF90CF90BF9082
:102C9000AF909F908F9008954F925F926F927F9226
:102CA0008F929F92AF92BF92CF92DF92EF92FF925C
:102CB0000E94CC158DEF0E94251A8090A102909061
:102CC000A202A090A302B090A4022CE2921A21E0EA
:102CD000A20AB1086C01E12CF12C3EE0CC0CDD1C09
:102CE000EE1CFF1C3A95D1F780919C0290919D02B9
:102CF000092E000CAA0BBB0B44E1880F991FAA1FD9
:102D0000BB1F4A95D1F7C81AD90AEA0AFB0AA09153
:102D10009E02B0919F02A50194010E94CC28C61A80
:102D2000D70AE80AF90A30E4D30EE11CF11C5FE08F
:102D3000F594E794D794C7945A95D1F7A0919B0244
:102D4000B0E0A50194010E9449282B013C016BE0F1
:102D500075946794579447946A95D1F740E8540E58
:102D6000611C711CA091A0020A2E000CBB0BA501D6
:102D700094010E94CC28EAE0959587957795679510
:102D8000EA95D1F7A30192010E949A28DC01CB01B8
:102D9000FAE0B595A79597958795FA95D1F79C0197
:102DA000AD01405E5F4FA0919902B0919A020E94DE
:102DB000CC28DC01CB01905EAF4FBF4FBC01CD01F1
:102DC000AEE09595879577956795AA95D1F7A70178
:102DD00096010E949A286B017C01BFE0959587952A
:102DE00077956795BA95D1F79B01AC010E949A2817
:102DF0009B01AC0187E055954795379527958A95B6
:102E0000D1F7A0919802B0E00E944928DC01CB01E3
:102E100024E0B595A795979587952A95D1F7A701B1
:102E20009601281B390B4A0B5B0BDA01C90157FFCE
:102E300003C080E090E0DC0181309105A10539E11B
:102E4000B30724F080E090E0A0E0B9E1BC01CD013F
:102E50002CE095958795779567952A95D1F70E94EF
:102E60002A2720E030E040E85AE30E948B270E94A6
:102E7000072BFF90EF90DF90CF90BF90AF909F9087
:102E80008F907F906F905F904F900895DF92EF92B8
:102E9000FF920F931F93CF93DF93D82ED92FC62F76
:102EA0008091C6039091C703009709F44EC06091CA
:102EB000CA030E946A158091C6039091C703DC0182
:102EC000ED91FC910190F081E02D60E00995ED2CF1
:102ED000FD2E11E08091C6039091C703CC2361F1D0
:102EE0001032B8F00E940E156091CA038091C6039B
:102EF0009091C7030E946A158091C6039091C70301
:102F0000DC01ED91FC910190F081E02D60E00995EC
:102F100011E08091C6039091C703F7016491DC0131
:102F2000ED91FC910190F081E02D09951F5FC1505A
:102F3000BFEFEB1AFB0ACECFDF91CF911F910F911C
:102F4000FF90EF90DF900C940E15E091D603F09176
:102F5000D70390818091DC038095892380830D2D98
:102F60001D2FCC2309F439C0F80184912091C403AA
:102F70003091C503232B31F00E94B30CC1500F5F79
:102F80001F4FEFCF28E030E040E8E091D203F0910E
:102F9000D3039091DA03582F542319F05081952BC5
:102FA00003C05081909595239083E091D403F091D4
:102FB000D50350819091DB03952B9083E091D4034E
:102FC000F091D50350819091DB03909595239083E8
:102FD000469521503109C9F6D1CFDF91CF911F918C
:102FE0000F91FF90EF90DF900895EF92FF920F9373
:102FF0001F93CF93DF938091C6039091C703892BD2
:10300000D1F02091E0033091E1034091E20350912F
:10301000E30360E074E284EF90E00E94AA28DA0102
:10302000C9014097A109B109B695A79597958795CC
:103030008093B80016C08091C4039091C503892B7A
:1030400031F08091DE039091DF030E94180DE09132
:10305000D803F091D90390818091DD038095892375
:10306000808365E088E39BE00E9446176091AE0391
:1030700061508AEA93E00E94BA0C2091B00330912B
:10308000B103C901079697FD079633E0959587959B
:103090003A95E1F72091AE033091AF03829F800112
:1030A000839F100D929F100D1124C091C803D091E1
:1030B000C9038091C6039091C7030C0F1D1F009791
:1030C00009F445C06091CA030E946A158091C60345
:1030D0009091C703DC01ED91FC910190F081E02D0E
:1030E00060E409957E01D1E08091C6039091C70309
:1030F0000E151F0549F1D032B8F00E940E156091EF
:10310000CA038091C6039091C7030E946A158091FB
:10311000C6039091C703DC01ED91FC910190F08111
:10312000E02D60E40995D1E08091C6039091C7033A
:10313000F70161917F01DC01ED91FC910190F0813B
:10314000E02D0995DF5FD0CF0E940E1541C0E091C0
:10315000D603F091D70390818091DC03892B808383
:10316000C017D107A9F189912091C4033091C503FB
:10317000232B19F00E94B30CF3CF28E030E040E895
:10318000E091D203F091D3039091DA03582F5423A6
:1031900019F05081952B03C0508190959523908311
:1031A000E091D403F091D50350819091DB03952BEE
:1031B0009083E091D403F091D50350819091DB038B
:1031C000909595239083469521503109C9F6C8CF33
:1031D0008091C6039091C703892BD1F02091E4031D
:1031E0003091E5034091E6035091E70360E074E21B
:1031F00084EF90E00E94AA28DA01C9014097A10952
:10320000B109B695A795979587958093B80017C093
:10321000E091D803F091D90390818091DD03892B4F
:1032200080838091C4039091C503892B41F0DF9185
:10323000CF911F910F91FF90EF900C94B20CDF9102
:10324000CF911F910F91FF90EF9008952091B003BF
:103250003091B103C901079697FD079623E0959534
:1032600087952A95E1F72091AE033091AF03829FB5
:10327000A001839F500D929F500D112460E070E0DB
:103280008091C8039091C9030C94302D3F924F92C6
:103290005F926F927F928F929F92AF92BF92CF92E6
:1032A000DF92EF92FF920F931F93CF93DF9300D0A3
:1032B00000D000D0CDB7DEB72C013B014A01590147
:1032C000C901079697FD07969C0193E035952795D0
:1032D0009A95E1F73C832B83C12CD12CE12CF12C66
:1032E000312CC3018E0D9F1D9A838983E016F10650
:1032F000C4F51E821D822D813E812A153B054CF5A9
:10330000C90187709927892B11F0330C0EC0ED810C
:10331000FE81F7FD379683E0F595E7958A95E1F70D
:10332000EC0DFD1DE80DF91D349037FE0CC021E0B9
:1033300030E049815A816D817E81640D751D8AEA74
:1033400093E00E949A098D819E8101969E838D83D0
:10335000D2CF9FEFE91AF90A2B813C81C20ED31E0E
:10336000C0CF26960FB6F894DEBF0FBECDBFDF915B
:10337000CF911F910F91FF90EF90DF90CF90BF9072
:10338000AF909F908F907F906F905F904F903F9005
:103390000895CF93DF93BC018EEE92E00E94450C1E
:1033A000EC016CE072E08EEE92E00E94450C8C0F16
:1033B0009D1FDF91CF9108959091CB029111FCCF89
:1033C000982F813208F090E281E08093CB028093C5
:1033D000CA022FEF2093C9021092C802290F20932E
:1033E000C7028093C6028091C6028C6E8093C6028B
:1033F0008091C502813061F41092C5028091C602AD
:103400008093BB008091BC0083FDF8CF85EC01C0A8
:1034100085EE8093BC008091CB028130E1F38091F6
:10342000C802891710F49091C802E5EAF2E0AEEC08
:10343000B2E080E0891721F021912D938F5FFACFC0
:103440001092CD028093CC0208951F93CF93DF9307
:10345000182F66E78BE893E00E946A15612F8BE8CE
:1034600093E00E94460E8BE893E00E940E1582E0E6
:1034700090E00E94DC198091CC0290E02091CD0276
:10348000821B910982309105ECF38BE893E00E9456
:10349000050E182F8BE893E00E94050ED12F20E037
:1034A000C22F9E01282BC901DF91CF911F91089552
:1034B0000E94251A9827892798270895CF93C82F07
:1034C00066E78BE893E00E946A156C2F8BE893E027
:1034D0000E94460E8BE893E00E940E1581E090E07A
:1034E0000E94DC199091CC028091CD029817F1F3E3
:1034F0008BE893E00E94050ECF9108950F93011180
:1035000003C00F910C94750D611101C061E0FC01C5
:103510006093BE0381E090E09093BD038093BC0371
:103520009093BB038093BA035093B7034093B603C1
:103530003093B9032093B803448155816081718130
:103540008AEA93E00E94F3056CE072E08AEA93E075
:103550000E94450C023019F40F910C94F5170F914D
:103560000895FC01808191810C94D82BEF92FF92F9
:103570000F931F93CF93DF93EC017B0161157105CE
:10358000E9F0FB0101900020E9F73197E61BF70B0A
:10359000C1F00C811D810E0F1F1FB8010E94BC0BD2
:1035A000882361F0288139818C819D81B701820F48
:1035B000931F0E94372D1D830C8303C0CE010E94F0
:1035C000E30BCE01DF91CF911F910F91FF90EF9010
:1035D0000895EF92FF920F931F93CF93DF93CDB790
:1035E000DEB7A1970FB6F894DEBF0FBECDBF7C014A
:1035F000CB01BA01F7011182108213821282158267
:1036000014828E010F5F1F4F22E044E00E94D324FA
:10361000009769F0FC0101900020E9F73197AF01B4
:10362000481B590BBC01C7010E94F50B03C0C70121
:103630000E94E30BA1960FB6F894DEBF0FBECDBF7C
:10364000DF91CF911F910F91FF90EF9008953FB7B9
:10365000F8948091E9039091EA03A091EB03B09173
:10366000EC0326B5A89B05C02F3F19F00196A11DBC
:10367000B11D3FBFBA2FA92F982F8827820F911D08
:10368000A11DB11DBC01CD0142E0660F771F881F4F
:10369000991F4A95D1F7089590E0FC01E758F44F3F
:1036A0002491FC01EF5AF44F3491FC01E35CF44F98
:1036B000E491EE2309F43CC0222339F1233091F048
:1036C00038F42130A9F0223001F584B58F7D12C085
:1036D000273091F02830A1F02430B9F48091800097
:1036E0008F7D03C0809180008F77809380000DC014
:1036F00084B58F7784BD09C08091B0008F7703C0F7
:103700008091B0008F7D8093B000F0E0EE0FFF1F3E
:10371000E159F44FA591B4919FB7F894611104C099
:103720008C913095382302C0EC913E2B3C939FBF87
:1037300008951092CD021092CC02109211021092B4
:1037400010021092CB0281E08093CA021092C5024F
:1037500061E082E10E944C1B61E083E10E944C1B0E
:10376000E9EBF0E080818E7F808380818D7F808394
:1037700088E48093B80085E48093BC0083EF9DE0EB
:10378000909313028093120284EF9DE090931502B0
:10379000809314020895CF93DF9390E0FC01EF5AD9
:1037A000F44F2491FC01E35CF44F8491882361F190
:1037B00090E0880F991FFC01EB59F44FC591D4910B
:1037C000FC01E159F44FA591B491611109C09FB773
:1037D000F8948881209582238883EC912E230BC056
:1037E000623061F49FB7F8948881322F309583233B
:1037F0008883EC912E2B2C939FBF06C08FB7F89433
:10380000E8812E2B28838FBFDF91CF9108958F926F
:103810009F92AF92BF92CF92DF92EF92FF926B0195
:103820007C010E94271B4B015C01C114D104E104FF
:10383000F104F1F00E94271BDC01CB0188199909E2
:10384000AA09BB09883E9340A105B10570F321E0A8
:10385000C21AD108E108F10888EE880E83E0981EAC
:10386000A11CB11CC114D104E104F10419F7DDCF8E
:10387000FF90EF90DF90CF90BF90AF909F908F9090
:1038800008951F920F920FB60F9211242F933F931A
:103890008F939F93AF93BF938091160290911702DD
:1038A000A0911802B09119023091E80323E0230F90
:1038B0002D3720F40196A11DB11D05C026E8230F68
:1038C0000296A11DB11D2093E803809316029093E8
:1038D0001702A0931802B09319028091E903909106
:1038E000EA03A091EB03B091EC030196A11DB11D79
:1038F0008093E9039093EA03A093EB03B093EC0366
:10390000BF91AF919F918F913F912F910F900FBEDB
:103910000F901F9018958EE291E09093AB038093E7
:10392000AA038091C8039091C903009711F00C94E9
:10393000D82B0895CF93DF93CDB7DEB7AB970FB6F3
:10394000F894DEBF0FBECDBF789484B5826084BD8D
:1039500084B5816084BD85B5826085BD85B5816093
:1039600085BD80916E00816080936E001092810011
:1039700080918100826080938100809181008160CC
:10398000809381008091800081608093800080918D
:10399000B10084608093B1008091B0008160809319
:1039A000B00080917A00846080937A0080917A00E0
:1039B000826080937A0080917A00816080937A009F
:1039C00080917A00806880937A001092C100E09123
:1039D000FE02F091FF0282E08083E091FA02F09112
:1039E000FB021082E091FC02F091FD028FEC8083DB
:1039F00010920603E0910203F091030386E08083B6
:103A0000E0910003F0910103808180618083E09167
:103A10000003F0910103808188608083E0910003BE
:103A2000F0910103808180688083E0910003F09130
:103A3000010380818F7D80838BE893E00E94991B36
:103A400080ED0E945E1A803609F097C488E80E94D3
:103A5000581A90938102809380028AE80E94581A33
:103A600090938302809382028CE80E94581A90936C
:103A70008502809384028EE80E94581A90938702F0
:103A80008093860280E90E94581A9093890280935D
:103A9000880282E90E94581A90938B0280938A02CE
:103AA00084E90E94581A90938D0280938C0286E9D3
:103AB0000E94581A90938F0280938E0288E90E9488
:103AC000581A90939102809390028AE90E94581AA2
:103AD00090939302809392028CE90E94581A9093DB
:103AE0009502809394028EE90E94581A909397024F
:103AF0008093960281EA0E945E1A8093980281EE7A
:103B00000E94581A90939A028093990283EE0E9421
:103B10005E1A80939B0284EE0E945E1A182F85EE37
:103B20000E945E1A40E1149F900111248F70282B8F
:103B300030939D0220939C0286EE0E945E1A182FFD
:103B400085EE0E945E1A50E1159F90011124829526
:103B50008F70282B30939F0220939E0287EE0E9445
:103B60005E1A8093A00266E78BE893E00E946A15D4
:103B700062EF8BE893E00E94460E65E08BE893E0ED
:103B80000E94460E8BE893E00E940E1566E78BE8D4
:103B900093E00E946A1564EF8BE893E00E94460E62
:103BA00067EB8BE893E00E94460E8BE893E00E945F
:103BB0000E1562E080919C030E94CB1B2FB7F894F6
:103BC0008091160290911702A0911802B0911902EB
:103BD0002FBF805D9740A109B1098093A003909306
:103BE000A103A093A203B093A30387E38093A90347
:103BF0008091C8039091C903892B11F52091B003DE
:103C00003091B103C901079697FD0796B3E09595EA
:103C10008795BA95E1F72091AE033091AF03AC01DF
:103C2000429FC001439F900D529F900D11240E940E
:103C3000402B9093C9038093C803892B09F4DFC0FC
:103C40000E9426192091B0033091B1038091AE03F8
:103C50009091AF03213231050CF494C3B901605443
:103C6000710977FF02C06F5F7F4F75956795825529
:103C7000910997FD019600E410E022E530E048E765
:103C800058E0959587950E94461982E08093CB0372
:103C90008091C6039091C703009709F487C32CE372
:103CA0002093CA030E94991B8091D10387FD1EC0F7
:103CB00061E00E94CB1B61E08091D1030E944C1B0C
:103CC00061E070E080E090E00E94071C60E080917D
:103CD000D1030E944C1B6AE070E080E090E00E94FB
:103CE000071C61E08091D1030E944C1B8091C603A8
:103CF0009091C703892B09F418C42091E0033091F7
:103D0000E1034091E2035091E30360E074E284EF49
:103D100090E00E94AA28DA01C9014097A109B109DF
:103D2000B695A795979587958093B80064E084E948
:103D300096E00E9446176091B00361508AEA93E0D2
:103D40000E94BA0C64E080E996E00E9446178091D8
:103D5000CB03813009F000C460E18AEA93E00E945D
:103D6000BA0C64E08CE896E00E9446178091AE039E
:103D70009091AF038038910509F001C48091B003A0
:103D80009091B1038032910509F0E8C364E088E8BE
:103D900096E00E94461769ED8AEA93E00E94BA0C09
:103DA0008091CB03813009F006C462E28AEA93E095
:103DB0000E94BA0C66E08CE796E00E94461780915C
:103DC000C6039091C703892B09F4F7C32091E4033C
:103DD0003091E5034091E6035091E70360E074E21F
:103DE00084EF90E00E94AA28DA01C9014097A10956
:103DF000B109B695A795979587958093B8000E94CD
:103E0000F5170E9426190E94F51762E671E08EEE02
:103E100092E00E94450C0E94CC1542E00E94750E73
:103E200060E771E08EEE92E00E94450C0E944C1615
:103E30000E942A2742E00E94750E6FE771E08EEE25
:103E400092E00E94450C0E94CC1587EF0E947415E9
:103E500068A779A78AA79BA78091A1029091A20247
:103E6000A091A302B091A4026C017D01FF0CCC08CB
:103E7000DC2C76019C01AD016C2D7C2D8C2D9C2DB4
:103E8000345F4140510961097109810991092B8B06
:103E90003C8B4D8B5E8B6F8B788F898F9A8F5901FE
:103EA0006A017B018C010E94D4282B8F3C8F4D8F9F
:103EB0005BA36CA37DA38EA39FA330918902209165
:103EC0008802932F990F990B492F592F692F792F1A
:103ED000892F0E94D4280CE00E94CD2919012A01C3
:103EE0003B014C0130918B0220918A02932F990F54
:103EF000990BAB8CBC8CCD8CDBA0ECA0FDA00EA1F3
:103F00001FA1492F592F692F792F892F0E94D4285B
:103F100008E00E94E62951016201730184010E94B8
:103F2000042A70588F4F9F4F20908602309087024E
:103F30005101C12CD12CE12CF12C00E010E00E94A9
:103F4000D42801E20E94E6292E8F3F8F48A359A36F
:103F50006AA3272E382E492EA0E00E94162A09F4C3
:103F600018C13091910220919002932F990F990BD3
:103F7000AB8CBC8CCD8CDBA0ECA0FDA00EA11FA156
:103F8000492F592F692F792F892F0E94D4282B8FE1
:103F90003C8F4D8F552E3B014C0130918F0220916B
:103FA0008E02932F990F990BAB88BC88CD88DE8841
:103FB000EF88F88C098D1A8D492F592F692F792F89
:103FC000892F0E94D42801E10E94CD29AB8CBC8CA2
:103FD000CD8CD52C730184010E94042A59016A01F9
:103FE0007B01582E192F88A599A5AAA5BBA534E059
:103FF000B595A795979587953A95D1F720E030E04C
:1040000040E150E0281B390B4A0B5B0BDA01C90178
:1040100039014A01990C6608762C43019C01AD01D7
:10402000662D762D862D962D0FE10E94CD29390122
:104030004A01B62FA72FF82FE92F30918D0220913A
:104040008C02932F990F990B492F592F692F792F94
:10405000892F03E20E94CD29052D0E94042A5901CF
:104060006A017B018C019301A4016B2F7A2F8F2FA2
:104070009E2F0E940D2AE5E3AE2EFCE0BF2EC12C40
:10408000D12CE12CF12C00E010E00E94D428AE8C61
:10409000BF8CC8A0D9A0EAA0F22C032D142D0E9439
:1040A0002F292B8B3C8B4D8B5E8B6F8B788F898F61
:1040B0009A8F0DE00E94E629922E832E742E652E93
:1040C000562E472E382E292E309197022091960297
:1040D000932F990F990BA92CB82CC72CD62CE52C13
:1040E000F42C032D122D492F592F692F792F892F49
:1040F0000E94D4280E94D42809E10E94E629AB88B6
:10410000BC88CD88DE88EF88F88C098D1A8D0E94D6
:10411000042A19012A013B014C013091950220919A
:104120009402932F990F990B492F592F692F792FAB
:10413000892F0E94D42803E10E94E62959016A01CF
:104140007B018C019101A201B301C4010E94042AE8
:1041500008E00E94E62959016A017B01E82F192F26
:104160003091930220919202932F990F990B492F2E
:10417000592F692F792F892F04E00E94CD290E2F06
:104180000E94042A49015A0199278B2D7A2D692D05
:1041900003C060E070E0CB010E942A276B017C0124
:1041A00042E00E94750E6CE871E08EEE92E00E9493
:1041B000450C20E030E543EC57E4C701B6010E940E
:1041C000952A42E00E94750E87E991E00E94C91984
:1041D0000E949C0F8823D1F180919D038B30B0F118
:1041E0008D30A8F08551823088F5609197037091E9
:1041F000980376276727762780E090E00E942A2799
:104200002DEC3CEC4CEC5DE30E948B271CC06091D4
:10421000980370E080E090E00E942C272DEC3CECAD
:104220004CEC5DE30E948B276B017C01609197034E
:1042300070E080E090E00E942C279B01AC01C70158
:10424000B6010E94292A4B015C0106C0812C912CE9
:1042500020ECA22E2FE7B22E0E949C0F882309F497
:10426000BFC180919D038C3009F448C018F48B3095
:10427000D1F06BC08551823008F067C0109199036E
:10428000612F6F7770E0762F662780919A03682BF5
:1042900080E090E00E942A272DEC3CEC4CEC5DE3A2
:1042A0000E948B2749C06091990370E080E090E004
:1042B0000E942A276B017C0110919A0317FF0AC004
:1042C0009B01AC0160E070E080E89FEB0E94282A2F
:1042D0006B017C01612F6F7070E080E090E00E94C4
:1042E0002C272DEC3CEC4CEC5DE30E948B27A701C6
:1042F00096010E94292A6B017C012DC0109199031F
:1043000060919A036F7070E080E090E00E942C272B
:104310002DEC3CEC4CEC5DE30E948B276B017C01A7
:10432000612F70E080E090E00E942A279B01AC01A1
:10433000C701B6010E94292A6B017C0117FF0BC03F
:10434000F7FAF094F7F8F09406C0C12CD12C80EC69
:10435000E82E8FE7F82EA7019601C701B6010E944B
:104360003B2B81113DC1A5019401C501B4010E94FF
:104370003B2B882309F43BC133C18DE991E00E94B6
:10438000C91917CCB9016052710977FF02C06F5F7C
:104390007F4F759567958357910997FD019600E2C8
:1043A00010E023E730E048E956E06BCC61E0809113
:1043B000CF030E94CB1B61E08091D0030E94CB1BF6
:1043C0008091CF03082E000C990BFC01E35CF44FA5
:1043D000E491F0E0EE0FFF1FE159F44F2591349185
:1043E0003093D7032093D603FC01EF5AF44FE491A6
:1043F000E093DC038091D003082E000C990BFC01A4
:10440000E35CF44FE491F0E0EE0FFF1FE159F44F4D
:10441000A591B491B093D903A093D803FC01EF5AAE
:10442000F44FE491E093DD038C91E82BEC938091C1
:10443000C4039091C503892B09F434C01FB7F894C5
:1044400080917F02811127C0E7E4FBE08491EBE5D6
:10445000FBE09491E82FF0E0EE0FFF1FEB59F44FD3
:10446000A591B491EC91E92321F461E08AE00E94E6
:104470004C1B61E08AE00E94CB1B8CB580618CBD37
:104480008CB580648CBD61E08DE00E94CB1B61E047
:104490008BE00E94CB1B80917F028F5F80937F0215
:1044A0001FBF02CC61E08091CD030E94CB1B61E075
:1044B0008091CE030E94CB1B8091CD03082E000C6F
:1044C000990BFC01E35CF44FE491F0E0EE0FFF1F69
:1044D000E159F44F259134913093D3032093D203C3
:1044E000FC01EF5AF44FE491E093DA038091CE039C
:1044F000082E000C990BFC01E35CF44FE491F0E012
:10450000EE0FFF1FE159F44FA591B491B093D5037D
:10451000A093D403FC01EF5AF44FE491E093DB0342
:104520008C91E095E823EC93BFCB8091C4039091EC
:10453000C503892B31F08091DE039091DF030E9447
:10454000180DE091D803F091D90390818091DD039B
:10455000809589238083EACB64E1FFCB8034910589
:1045600009F019CC63E085E896E00E944617809137
:10457000CB03813011F46FE919C06FEC17C080369E
:10458000910509F008CC8091B0039091B103409758
:1045900009F001CC63E082E896E00E944617809122
:1045A000CB03813011F460E101C06FEA8AEA93E045
:1045B0000E94BA0CF0CB61EFF9CBE091D803F091F7
:1045C000D90390818091DD03892B80838091C4037E
:1045D0009091C503892B09F412CC0E94B20C0FCC28
:1045E00080EB91E00E94C9190E94F5060ECC65EDA2
:1045F00071E08EEE92E00E94450C42E0C701B601E8
:104600000E94750E60E771E08EEE92E00E94450C0C
:1046100042E0C501B4010E94750E83EE91E00E9454
:10462000C9196EE072E0CE0101960E94300C0E9422
:10463000750DCE0101960E94B11AB701A601CE01F7
:104640000D960E94E91ABE01635F7F4FCE01079667
:104650000E94160C6EE072E0CE0107960E94B61A18
:10466000BC01CE0101960E94160C01E021E030E071
:104670004FE050E062E0CE0101960E947E1ACE012A
:1046800001960E94B11ACE0107960E94B11ACE017E
:104690000D960E94B11A67EE71E0CE0101960E945C
:1046A000300C28E030E04CE450E061E0CE010196AF
:1046B0000E947E1ACE0101960E94B11AB501A40192
:1046C000CE010D960E94E91ABE01635F7F4FCE01B5
:1046D00007960E94160C6CEE71E0CE0107960E94C0
:1046E000B61ABC01CE0101960E94160C21E130E001
:1046F0004FE050E061E0CE0101960E947E1ACE01AB
:1047000001960E94B11ACE0107960E94B11ACE01FD
:104710000D960E94B11A6FEE71E0CE0101960E94D3
:10472000300C02E029E130E04FE050E061E0CE01E2
:1047300001960E947E1ACE0101960E94B11A6CED7C
:1047400075E080E090E00E94071C6EE072E0CE0110
:1047500001960E94300C0E94750DCE0101960E94B8
:10476000B11A0E94CC15AB01BC01CE010D960E947E
:10477000E91ABE01635F7F4FCE0107960E94160CB7
:104780006EE072E0CE0107960E94B61ABC01CE011F
:1047900001960E94160C01E021E030E04FE050E06D
:1047A00062E0CE0101960E947E1ACE0101960E941F
:1047B000B11ACE0107960E94B11ACE010D960E9441
:1047C000B11A67EE71E0CE0101960E94300C28E02C
:1047D00030E04CE450E061E0CE0101960E947E1A88
:1047E000CE0101960E94B11A0E944C160E942A27FF
:1047F000AB01BC01CE010D960E94E91ABE01635FB8
:104800007F4FCE0107960E94160C6CEE71E0CE0130
:1048100007960E94B61ABC01CE0101960E94160CA2
:1048200021E130E04FE050E061E0CE0101960E94CE
:104830007E1ACE0101960E94B11ACE0107960E94FF
:10484000B11ACE010D960E94B11A6DEF71E0CE0142
:1048500001960E94300C02E029E130E04FE050E088
:1048600061E0CE0101960E947E1ACE0101960E945F
:10487000B11A6CED75E080E090E00E94071CB4CEA8
:10488000ABE8B3E013961C921E92129748EE53E0E9
:1048900060E070E014964D935D936D937C93179751
:1048A0008AE091E011969C938E93EEEEF2E01382F3
:1048B000128244835583668377838CE191E09183F0
:1048C000808385EC90E09587848784EC90E09787DF
:1048D000868780EC90E0918B808B81EC90E0938BCD
:1048E000828B82EC90E0958B848B86EC90E0978BAA
:1048F000868B118E128E138E148EEAEAF3E01382E9
:10490000128220E830E03583248380E290E09783B0
:1049100086833187208793878287158A1586148638
:104920001786168681E0848B2FEF3FEF338B228B27
:10493000318B208B868B178A118E108E8EE291E040
:1049400091838083138E128EB58FA48F178E168E4F
:104950008FEF83A384A385A386A384E087A380E548
:1049600084AB15AAA7E9B3E089E015968C93159757
:1049700086E116968C931697EAE5FBE0E49117968C
:10498000EC931797E6E4FBE0E4911896EC93189704
:1049900040E85EE360E070E01D964D935D936D939B
:1049A0007C9350970895EF920F931F93CF93DF93CB
:1049B000E80147FD02C034E001C034E1042E000CE0
:1049C000550B57FF03C0519541955109E32E022F16
:1049D000242FAE010E94F324CE01DF91CF911F91CD
:1049E0000F91EF900895A9E0B0E0E9EFF4E20C94A4
:1049F0005A286A01122FB02E2BE3201720F0FF2433
:104A0000F394F00E02C02CE3F22E0F2D27E0AE013E
:104A10004F5F5F4F0E944D26BC014981842F8970F2
:104A2000813031F0E1FC06C0E0FE06C090E205C036
:104A30009DE203C09BE201C090E05E2D507143FFF8
:104A40003CC0911102C083E001C084E0811718F4DA
:104A5000212F281B01C020E051110BC0F601822F2D
:104A600030E2882319F031938150FBCFC20ED11C64
:104A700020E0992329F0D6019C93F60131966F012D
:104A8000C6010396E2FE0AC03EE4D6013C9341E42F
:104A900011964C93119712963C9306C03EE6F60190
:104AA000308341E641833283FC01322F40E23323DD
:104AB00009F442C041933150FACF42FF44C09111F2
:104AC00002C083E001C084E0811718F4212F281B65
:104AD00001C020E051110BC0F601822F30E2882383
:104AE00019F031938150FBCFC20ED11C20E09923E5
:104AF00029F0D6019C93F60131966F01C601039609
:104B0000E2FE0BC039E4D6013C933EE411963C939F
:104B1000119736E412963C9307C039E6F6013083CC
:104B20003EE6318336E63283FC01322F40E2332306
:104B300019F041933150FBCFFC01E20FF11D1082BF
:104B40008EEF9FEFA6C021E030E0911102C020E07F
:104B500030E0161617061CF4FB01319602C0E1E0A6
:104B6000F0E02E0F3F1FBB2021F0EB2DF0E031963F
:104B700002C0E0E0F0E02E0F3F1FE12FF0E02E1723
:104B80003F071CF4121B212F01C020E08E2D8871DD
:104B900059F4F601822F30E2882319F031938150C5
:104BA000FBCFC20ED11C20E0992329F0D6019C93A3
:104BB000F60131966F0151110BC0F601822F90E37F
:104BC000882319F091938150FBCFC20ED11C20E0B5
:104BD0000F2D060F9A81342F307144FF03C091339B
:104BE00009F40150101624F4093018F008E001C04F
:104BF00001E0AB0177FF02C040E050E0FB01E41BA5
:104C0000F50BA1E0B0E0AC0FBD1FEA0FFB1F8EE279
:104C1000A82E4B01801A91080B2D10E011950195DB
:104C200011094F3FBFEF5B0721F4D601AC921196FB
:104C30006D01641775072CF08416950614F48181B4
:104C400001C080E3415051093196D60111967D0192
:104C50004017510724F0D6018C936701E2CF641707
:104C6000750739F4963320F4953319F4311101C0E6
:104C700081E3F6018083F701822F90E2882319F007
:104C800091938150FBCFF701E20FF11D108280E07C
:104C900090E02996ECE00C947628283008F027E084
:104CA0003327DA01990F311D87FD91600096610568
:104CB000710539F432602E5F3D9330E32A95E1F7B8
:104CC00008959F3F30F080387105610509F03C5F21
:104CD0003C5F3D93913008F08068911DDF93CF9346
:104CE0001F930F93FF92EF92192F987F9695E92FBC
:104CF00096959695E90FFF27EE53FF4F9927332797
:104D0000EE24FF24A701E70105900894079428F4F6
:104D1000360FE71EF81E491F511D660F771F881FAB
:104D2000991F0694A1F70590079428F4E70EF81E42
:104D3000491F561FC11D770F881F991F661F0694B4
:104D4000A1F70590079428F4F80E491F561FC71FB6
:104D5000D11D880F991F661F771F0694A1F7059034
:104D6000079420F4490F561FC71FD81F990F661FBD
:104D7000771F881F0694A9F784911095177041F04A
:104D8000D695C79557954795F794E7941A95C1F727
:104D9000E8E6F0E06894159015913591659195914C
:104DA00005907FE27395E118F10A430B560BC90B8E
:104DB000D009C0F7E10CF11E431F561FC91FD01DBB
:104DC0007EF4703311F48A95E6CFE894015030F008
:104DD000080F0AF40027021708F4202F2395022F4A
:104DE0007A3328F079E37D932A95E9F710C07D9313
:104DF0002A9589F606949795679537951795179490
:104E0000E118F10A430B560BC90BD00998F0239512
:104E10007E9173957A3308F070E37C932013B8F792
:104E20007E9170617D9330F0839571E37D9370E3A3
:104E30002A95E1F71124EF90FF900F911F91CF91E8
:104E4000DF91992787FD909508950E94672708F4C0
:104E500081E00895E89409C097FB3EF49095809511
:104E6000709561957F4F8F4F9F4F9923A9F0F92F30
:104E700096E9BB279395F695879577956795B795AE
:104E8000F111F8CFFAF4BB0F11F460FF1BC06F5F94
:104E90007F4F8F4F9F4F16C0882311F096E911C0A6
:104EA000772321F09EE8872F762F05C0662371F0C7
:104EB00096E8862F70E060E02AF09A95660F771FDB
:104EC000881FDAF7880F9695879597F90895990FB7
:104ED0000008550FAA0BE0E8FEEF16161706E807C4
:104EE000F907C0F012161306E407F50798F0621BE5
:104EF000730B840B950B39F40A2661F0232B242BBA
:104F0000252B21F408950A2609F4A140A6958FEFD8
:104F1000811D811D08950E949E270C940F280E94D8
:104F2000012838F00E94082820F0952311F00C94F5
:104F3000F8270C94FE2711240C9443280E94202863
:104F400070F3959FC1F3950F50E0551F629FF001DC
:104F5000729FBB27F00DB11D639FAA27F00DB11DF5
:104F6000AA1F649F6627B00DA11D661F829F22277E
:104F7000B00DA11D621F739FB00DA11D621F839F05
:104F8000A00D611D221F749F3327A00D611D231FDB
:104F9000849F600D211D822F762F6A2F11249F5729
:104FA00050409AF0F1F088234AF0EE0FFF1FBB1F2C
:104FB000661F771F881F91505040A9F79E3F5105EB
:104FC00080F00C94F8270C9443285F3FE4F3983E5C
:104FD000D4F3869577956795B795F795E7959F5F95
:104FE000C1F7FE2B880F911D9695879597F9089527
:104FF00097F99F6780E870E060E008959FEF80EC8C
:10500000089500240A94161617061806090608952E
:1050100000240A9412161306140605060895092E94
:105020000394000C11F4882352F0BB0F40F4BF2B03
:1050300011F460FF04C06F5F7F4F8F4F9F4F089543
:1050400057FD9058440F551F59F05F3F71F0479539
:10505000880F97FB991F61F09F3F79F0879508951E
:10506000121613061406551FF2CF4695F1DF08C03D
:10507000161617061806991FF1CF8695710561055A
:1050800008940895E894BB2766277727CB0197F902
:1050900008950E948B28A59F900DB49F900DA49F0A
:1050A000800D911D112408952F923F924F925F928F
:1050B0006F927F928F929F92AF92BF92CF92DF9228
:1050C000EF92FF920F931F93CF93DF93CDB7DEB78D
:1050D000CA1BDB0B0FB6F894DEBF0FBECDBF099421
:1050E0002A88398848885F846E847D848C849B8478
:1050F000AA84B984C884DF80EE80FD800C811B8186
:10510000AA81B981CE0FD11D0FB6F894DEBF0FBEB4
:10511000CDBFED010895A29FB001B39FC001A39F31
:10512000700D811D1124911DB29F700D811D1124E0
:10513000911D0895DB018F939F930E944928BF9191
:10514000AF91A29F800D911DA39F900DB29F900DD6
:1051500011240895A1E21A2EAA1BBB1BFD010DC04C
:10516000AA1FBB1FEE1FFF1FA217B307E407F50717
:1051700020F0A21BB30BE40BF50B661F771F881FF3
:10518000991F1A9469F760957095809590959B0189
:10519000AC01BD01CF010895B7FF0C9449280E94CE
:1051A0004928821B930B0895DF93CF931F930F938E
:1051B0009A9DF02D219FF00D8B9DF00D8A9DE02D85
:1051C000F10D039FF00D029FE00DF11D4E9DE00DCE
:1051D000F11D5E9DF00D4F9DF00D7F936F93BF927B
:1051E000AF925F934F93D5010E948B288B01AC0146
:1051F000D7010E948B28EB01E80FF91FD6010E940E
:1052000024292F913F91D6010E948B28C60FD71FCA
:10521000E81FF91FAF91BF910E9424292F913F9160
:105220000E948B28C60FD71FE81FF91FD6010E94C6
:105230008B28E60FF71F9801BE01CF0111240F91B3
:105240001F91CF91DF9108950E948B28460F571F21
:10525000C81FD91F08F431960895689401C0E894D6
:10526000F92FF12B12F00C946129A0E0B0E0EBE3F0
:10527000F9E20C945A28092E059422F40E94BD29C3
:10528000112392F4F0E80F26FFEFE094F0940095DC
:105290001095B094C094D094A194BF0ACF0ADF0AAD
:1052A000EF0AFF0A0F0B1F0B0E946C2907FC0E94DC
:1052B000BD29CDB7DEB7ECE00C947628689401C028
:1052C000E8948F929F92CF93DF930E946C29DF9195
:1052D000CF919F908F90089588249924F401E40140
:1052E000B0E49F93AA279A158B049C04ED05FE0554
:1052F000CF05D007A10798F4AD2FDC2FCF2FFE2FBD
:10530000E92D982C892E982F872F762F652F542FD3
:10531000432F322F2227B85031F7BF9127C01B2EC1
:10532000BF91BB27220F331F441F551F661F771FD6
:10533000881F991F881C991CEE1FFF1FCC1FDD1FA3
:10534000AA1FBB1F8A149B04EC05FD05CE05DF05D3
:10535000A007B10748F08A189B08EC09FD09CE099F
:10536000DF09A00BB10B21601A94E1F62EF4940131
:10537000AF01BE01CD01000C089560957095809538
:10538000909530954095509521953F4F4F4F5F4FE9
:105390006F4F7F4F8F4F9F4F08950F93083090F0BE
:1053A000982F872F762F652F542F432F322F2227A8
:1053B0000850F4CF220F331F441F551F661F771F5D
:1053C000881F991F0A95B2F70F91089597FB10F85F
:1053D000169400080F93083098F00850232F342FAC
:1053E000452F562F672F782F892F902DF4CF0594B6
:1053F000979587957795679557954795379527950D
:105400000A95AAF70F9108952A0D3B1D4C1D5D1DAD
:105410006E1D7F1D801F911F08952A193B094C099D
:105420005D096E097F09800B910B08950024A7FD8B
:1054300000942A1730054005500560057005800569
:1054400090050895EE0FFF1F0590F491E02D09944B
:105450005058BB27AA270E94402A0C940F280E946C
:10546000012838F00E94082820F039F49F3F19F4F1
:1054700026F40C94FE270EF4E095E7FB0C94F82735
:10548000E92F0E94202858F3BA1762077307840790
:10549000950720F079F4A6F50C9442280EF4E095D7
:1054A0000B2EBA2FA02D0B01B90190010C01CA01DE
:1054B000A0011124FF27591B99F0593F50F4503E89
:1054C00068F11A16F040A22F232F342F4427585F7B
:1054D000F3CF469537952795A795F0405395C9F793
:1054E0007EF41F16BA0B620B730B840BBAF091504B
:1054F000A1F0FF0FBB1F661F771F881FC2F70EC0EA
:10550000BA0F621F731F841F48F4879577956795BC
:10551000B795F7959E3F08F0B0CF9395880F08F0A8
:105520009927EE0F9795879508950E94A92A0C94C4
:105530000F280E94082858F00E94012840F029F402
:105540005F3F29F00C94F82751110C9443280C94D8
:10555000FE270E94202868F39923B1F3552391F385
:10556000951B550BBB27AA2762177307840738F0D2
:105570009F5F5F4F220F331F441FAA1FA9F335D02F
:105580000E2E3AF0E0E832D091505040E695001CE3
:10559000CAF72BD0FE2F29D0660F771F881FBB1F9D
:1055A000261737074807AB07B0E809F0BB0B802D7B
:1055B000BF01FF2793585F4F3AF09E3F510578F0A7
:1055C0000C94F8270C9443285F3FE4F3983ED4F3FF
:1055D000869577956795B795F7959F5FC9F7880F7B
:1055E000911D9695879597F90895E1E0660F771FCD
:1055F000881FBB1F621773078407BA0720F0621B5E
:10560000730B840BBA0BEE1F88F7E09508950E9488
:10561000282888F09F5798F0B92F9927B751B0F0F4
:10562000E1F0660F771F881F991F1AF0BA95C9F726
:1056300014C0B13091F00E944228B1E008950C945A
:105640004228672F782F8827B85F39F0B93FCCF30D
:10565000869577956795B395D9F73EF490958095A3
:10566000709561957F4F8F4F9F4F08950E946727D8
:1056700008F48FEF08950E946727880B990B08950F
:105680000F931F93CF93DF938230910510F482E044
:1056900090E0E091EF03F091F00320E030E0A0E033
:1056A000B0E0309719F14081518102811381481790
:1056B0005907C8F08417950769F4109731F01296CE
:1056C0000C93129713961C9327C00093EF0310932B
:1056D000F00322C02115310519F04217530718F4C1
:1056E0009A01BD01EF01DF01F801DBCF2115310582
:1056F000F9F0281B390B2430310580F48A819B8115
:105700006115710521F0FB019383828304C090939E
:10571000F0038093EF03FE01329644C0FE01E20FD6
:10572000F31F8193919322503109398328833AC022
:105730002091ED033091EE03232B41F420910201DF
:10574000309103013093EE032093ED03209100018B
:10575000309101012115310541F42DB73EB740913B
:10576000040150910501241B350BE091ED03F091EC
:10577000EE03E217F307A0F42E1B3F0B281739079F
:1057800078F0AC014E5F5F4F2417350748F04E0F9D
:105790005F1F5093EE034093ED038193919302C0FA
:1057A000E0E0F0E0CF01DF91CF911F910F910895DC
:1057B000CF93DF93009709F481C0FC0132971382E5
:1057C0001282A091EF03B091F003109781F4208131
:1057D0003181820F931F2091ED033091EE03281742
:1057E000390751F5F093EE03E093ED0367C0ED0147
:1057F00020E030E0CE17DF0740F44A815B819E0154
:1058000041155105F1F0EA01F5CFD383C283408100
:105810005181840F951FC817D90759F48881998140
:10582000840F951F0296918380838A819B81938345
:1058300082832115310529F4F093F003E093EF03FF
:105840003DC0E901FB83EA8349915991C40FD51FFB
:10585000EC17FD0761F480819181840F951F0296FA
:10586000E90199838883828193819B838A83E0E025
:10587000F0E012968D919C911397009719F0FD011D
:10588000DC01F7CF8D919C9111979D012E5F3F4FC9
:10589000820F931F2091ED033091EE0328173907F3
:1058A00069F4309729F41092F0031092EF0302C0CC
:1058B00013821282B093EE03A093ED03DF91CF9198
:1058C0000895A0E0B0E0E7E6FCE20C945828EC0173
:1058D000009721F4CB010E94402BB4C0FC01E60FDD
:1058E000F71F9C0122503109E217F30708F4A8C002
:1058F000D9010D911C91119706171707B0F00530CB
:10590000110508F49BC0C80104978617970708F48F
:1059100095C002501109061B170B019311936D934B
:105920007C93CF010E94D82B89C05B01A01AB10AD9
:105930004C01800E911EA091EF03B091F003612CF9
:10594000712CE12CF12C109709F446C08D919C919B
:105950001197A815B905B1F56C0142E0C40ED11C30
:10596000CA14DB0478F14C018A189B08640142E0F8
:10597000C40ED11C1296BC9012971396AC91B5E050
:10598000CB16D10440F0B282A38391828082D901E8
:105990006D937C9309C00E5F1F4F800F911FF9011B
:1059A00091838083EB2DFA2FE114F10431F0D701BC
:1059B0001396FC93EE93129741C0F093F003E0939B
:1059C000EF033CC06816790608F43C017D0112968D
:1059D0000D90BC91A02DB7CF8091ED039091EE0377
:1059E00088169906E1F466167706C8F480910001DE
:1059F00090910101009741F48DB79EB74091040149
:105A000050910501841B950BE817F907C8F4F09332
:105A1000EE03E093ED03F901718360830FC0CB01C6
:105A20000E94402B7C01009759F0A801BE010E9402
:105A3000272DCE010E94D82BC70104C0CE0102C081
:105A400080E090E0CDB7DEB7EEE00C947428FB0167
:105A5000DC0102C001900D9241505040D8F70895EA
:105A6000DC0101C06D9341505040E0F70895FB0107
:105A7000DC0101900D920020E1F7089515E0C8ECDB
:105A8000D5E004C0FE010E94222A2196C93CD1071C
:065A9000C9F7F894FFCFF6
:105A96000000F103800000000000460E190E540AB3
:105AA600F50D790D050EF60D000000008606F305CE
:105AB6001D06D3064E062C06400600000000E60A28
:105AC600F305540A530AFF06F50D9A0972098E0961
:105AD6008209A109F50DBD071B0D570A9B0ABB08D4
